:100000000C94EB010C9408020C9408020C94262327
:100010000C9408020C9408020C9408020C94080238
:100020000C9408020C9408020C94712A0C94452B31
:100030000C944C250C9408020C9408020C940802B1
:100040000C9408020C9408020C9408020C94080208
:100050000C9408020C94EF250C9408020C940802EE
:100060000C9408020C9408020C9408020C940802E8
:100070000C9408020C9408020C9408020C940802D8
:100080000C9408020C9408020C9408020C940802C8
:100090000C9408020C9408020C9408020C940802B8
:1000A0000C9408020C9408020C94080214001A0024
:1000B000090013000A0004001500160017000700CD
:1000C0001D001B000600190005000057E10000009C
:1000D000000000000D000F0018001C002A000B009B
:1000E000110008000C0012000E001000360037004E
:1000F00034412C00015700000000000029002202BA
:100100001F02230231022B0037002D023800250286
:10011000E2003C003A003B0035000057E1000000DF
:10012000000000002D002400250026002A002E02D9
:1001300021002200230028002E001E001F002000A6
:1001400001002C002700000000000000290021020F
:100150002002250224022B00360226022F022F0045
:10016000E20043004400450035000057E100000074
:10017000000000004A00500152004F012A004D00CB
:10018000500051004F0028002E0256002D022E0074
:1001900038002C0001000000000000002900FE00D3
:1001A000F900FF00A9002B00FB00FA00FC00AE00E4
:1001B000E000E300E20046004800B35DE10000001B
:1001C00000000000F5005000ED004F002A00F40090
:1001D000EF00EE00F0002800E600E7004700E40032
:1001E000015DF100F2000000000000004600480040
:1001F0003600370000000000000000002A2B280015
:1002000000000000000000000000000000000029C5
:10021000000000002C1E3420212224342627252E05
:10022000362D3738271E1F2021222324252633333D
:10023000362E37381F0405060708090A0B0C0D0E69
:100240000F101112131415161718191A1B1C1D2F35
:100250003130232D350405060708090A0B0C0D0E55
:100260000F101112131415161718191A1B1C1D2F15
:100270003130354C0000000000000000000000009C
:10028000000000000000000000000000000000006E
:1002900000000000000000007E0F00D4FFFFFFC739
:1002A000000000781A0346006500720072006900C1
:1002B0007300200073007700650065007000000087
:1002C000080344005000420000000403090409022E
:1002D0003B00020100A0FA09040000010301010033
:1002E00009211101000122400007058103080001D6
:1002F000090401000103000000092111010001228D
:100300007B000705820320000112010002000000AB
:1003100008ABC2393901000102000105010902A13F
:100320000185020901A10005091901290815002507
:1003300001950875018102050109300931158125F2
:100340007F95027508810609381581257F9501750D
:10035000088106050C0A38021581257F950175086C
:100360008106C0C005010980A101850319012AB7D2
:1003700000150126B700950175108100C0050C0914
:1003800001A101850419012AA002150126A00295E8
:100390000175108100C005010906A101050719E0DA
:1003A00029E7150025019508750181029501750859
:1003B00081010507190029FF150026FF0095067524
:1003C0000881000508190129059505750191029517
:1003D0000175039101C011241FBECFEFDAE0DEBF2B
:1003E000CDBF18E0A0E0B1E0E6EAFBE502C0059071
:1003F0000D92AC32B107D9F729E0ACE2B8E001C008
:100400001D92AF3BB207E1F70E9427150C94BB2D5C
:100410000C94000080913101823011F40E943C085C
:10042000109231010895FC018281813021F08230E7
:1004300021F081E0089582E0089583E008950E940C
:10044000130280933101823019F0833029F008952E
:1004500082E00E942C08089583E0FBCFCF93DF93C6
:10046000EB01823B2DE5920799F0833B9D45E9F036
:10047000888181110BC08981833041F48A81811187
:1004800011C080EE0E94AB040E94670C81E00AC09C
:100490008A81882339F080910001909101010E94A6
:1004A000731A80E0DF91CF9108958A81882301F348
:1004B00083E00E943C0880EE0E945F04D9CF9C013B
:1004C0003A9521153F4150F5FC01EE27F170BC0132
:1004D00066277270AC01442754709C012227387043
:1004E00094FF0EC080E1EF2B09F480E0672B09F048
:1004F0008062452B09F08064232B89F08068089581
:1005000081E0EF2B09F480E0672B09F08260452B36
:1005100009F08460232B19F08860089580E0089525
:10052000CF93DF93EB010E945F02FE010995DF91FB
:10053000CF910895CF93DF93EC01805E91090897E6
:1005400020F06CE075E0209711F46EEF74E0CE01BE
:100550000E9490028C2F0E945F04DF91CF9108953A
:10056000CF93DF93EC010E94AB04CE01805E910932
:10057000089720F063E175E0209711F465E075E0DD
:10058000CE010E949002DF91CF9108950F931F93A7
:10059000CF93DF938C01EB010E949A02209741F4E4
:1005A000C8010E94B002DF91CF911F910F91089571
:1005B0008FE99FE00197F1F700C000002197EECF8F
:1005C00070E060E08933910511F460E570E00E940D
:1005D000C602089581E008950E942E0208950895AC
:1005E0000E94EF020895A5E0B0E0E9EFF2E00C947C
:1005F000272D49835A833091330889819A8131119B
:1006000019C0662399F0222389F00E94F208182F5E
:10061000682F89819A810E94CE0869817A81812F11
:100620000E94E90F2596E3E00C94432D0E94E00818
:10063000182FF3CF0E94F20869817A81F1CFFC0173
:10064000262F86819781009739F4408151816281FC
:10065000738184810E94F3020895CF93DF93EC01AC
:1006600061E00E941F03BE010E94341CDF91CF9104
:100670000895CF93DF93EC0160E00E941F03BE0159
:100680000E94F002DF91CF9108950E9476110895A3
:100690000E947A11089508950E9430050E944B032C
:1006A0002FEF84E39CE0215080409040E1F700C0B0
:1006B000000008950E944C030E94132608950E9492
:1006C0004C030E94242608950F931F93CF93DF932A
:1006D0008C0161E00E941F03EC01B8010E94EA2135
:1006E000B801CE010E94EC02811106C080E0DF91CA
:1006F000CF911F910F910895B801CE010E941F1F45
:100700008823A1F3B801CE010E940B22882371F344
:10071000B801CE010E940718882341F3B801CE0129
:100720000E943221882311F3B801CE010E944218A1
:100730008823E1F2B801CE010E94DA1D8823B1F2CC
:10074000F8018281882361F0CB35FDE5DF0701F1F7
:1007500058F4C115ECE5DE0791F0CF3DDC4591F092
:10076000C8010E94EA02C3CFCD358DE5D80769F0F4
:1007700090F0C83ADD45A1F70E945F03B7CF0E9411
:100780005A03B4CF0E94110EF7CF0E944F0DE8CF4D
:100790000E94590DE5CF0E945D0DE2CF0E942925F0
:1007A0000E94EB0308950E94EF030E942E250895F6
:1007B00008950E94D803089581E008950E94DC0303
:1007C00008950895CF93C82F0E94D9038C2F0E94BB
:1007D000DE03CF91089580E00E94E20308950E9415
:1007E0004C240E94E2030895CF930E944C24C82F0A
:1007F00080912E088C1779F0C0932E080E94B8259E
:1008000060932F08709330088093310890933208DA
:100810008C2F0E94E203CF910895ADE0B0E0E3E1B8
:10082000F4E00C94282D49875A876B877C878D8745
:100830008C859D85892B21F0CA0189238F3F79F50D
:100840008B8581110E947A0C1D821E821F82188660
:1008500085E0FE013996DE01119601900D928A9590
:10086000E1F78C819D81892B71F429813A814B813B
:100870005C816D817E818F8198850E94920B2D967F
:10088000E2E00C94442D89819A8189238F3F69F39A
:10089000CE0101960E942D038111E7CFF0CF809108
:1008A0003408909135080196909335088093340868
:1008B000C7CFFC01808191810E9424090895CF93C4
:1008C000C82F8823B9F08CEF8C0F813AA8F46C2FD5
:1008D00080917001909171010E94BA24882329F0BF
:1008E0008C2F0E94310C0E94A70C8C2F0E94290C87
:1008F0000E94A70CCF91089580E28C0F883048F4B5
:10090000C77081E001C0880FCA95EAF70E94570CB2
:10091000EFCFEBE5EC0FE33040F4F0E0EB50F84FB5
:10092000808190E00E947C24E5CFE8E5EC0FE73180
:1009300050F4F0E0EE0FFF1FE953F84F80819181F2
:100940000E949224D7CFCD3EA8F28C2F0E94AB15E7
:100950000E945F16CFCF882379F19CEF980F913AD0
:1009600028F40E94310C0E94A70C089590E2980F81
:10097000983050F4877091E001C0990F8A95EAF79A
:10098000892F0E945D0CEFCF9BE5980F933028F4E0
:1009900090E080E00E947C24089598E5980F9731BC
:1009A00028F490E080E00E94922408958D3E20F08B
:1009B0000E94FF150E945F1608951F93CF93DF9347
:1009C000182FEB010E945F04209739F4812F0E94B9
:1009D000AB04DF91CF911F9108958FE99FE00197BC
:1009E000F1F700C000002197EFCF70E060E089339D
:1009F00011F460E570E00E94DD040895882321F081
:100A00000E94570C0E94A70C0895882321F00E9491
:100A10005D0C0E94A70C0895882321F00E946D0CA4
:100A20000E94A70C0895882321F00E94730C0E9455
:100A3000A70C089590E080E00E947C2490E080E084
:100A40000E9492240E947A0C0E94A70C0E947B169E
:100A50000E945F1608950E94390C0E941A0508959D
:100A60000E94670C0E942B05089592959F70963006
:100A700091F058F4925F9F70923058F4803F19F0D3
:100A800030F4883E30F481E008959A5FF4CF843FDB
:100A9000D1F380E00895883EB0F3813FD1F7F3CFE2
:100AA000FC0183819481892B29F0808191818923A4
:100AB0008F3F39F480E008950E94F80E0E943505BA
:100AC0000895868197810097B9F7808191810E946E
:100AD0002409F4CFB0E0A0E0E0E7F5E00C94212D8C
:100AE0006C01EB01FC011281058102950F700E94DF
:100AF0004D0CE82E8823B9F0E12E1123A1F08D2FA3
:100B0000807F803421F080E28C0F8830D0F080919B
:100B1000940982FF16C082E00E941E0D0E944D0CB7
:100B200091E0E82EE926BD2EB2942FE0B222FBE040
:100B3000FB1508F467C0EB2DF0E0E354F24D0C9484
:100B4000122DE12CF0CF2D2F2F70F22E8D2F807FC4
:100B500019F0F29490EFF922112399F0FF2059F047
:100B600080E28C0F883010F0C11107C08F2D0E94D9
:100B7000570C0E94A70C8C2F3DC08F2D0E946D0C2E
:100B8000F8CF8C2F0E94AB04FF20E1F180E28C0FA4
:100B9000883010F0C11104C08F2D0E945D0C03C07D
:100BA0008F2D0E94730C0E94A70C2CC03D2F3F700C
:100BB000F32E8D2F807F803219F0F29480EFF8228F
:100BC000CC2351F0C13009F465C0112309F46DC084
:100BD000002309F464C0CFCF8091940982FD3CC00A
:100BE000112359F0FF2029F08F2D0E94570C0E94ED
:100BF000A70C80E00E945F0405C080E00E94AB0467
:100C0000F110CACFEB2DE850FF0B349720F40E946F
:100C10004C240E94E203CE010E943505811161C17E
:100C20001092350810923408EE2089F00E94490C89
:100C300080FD0DC0F60112820E94430C0E942C0818
:100C4000C6010E94A2070E94430C0E943C08CDB737
:100C5000DEB7E9E00C943D2D112381F0011106C0AF
:100C60000E94890C8F290E94FE04CCCF0130C1F76D
:100C70000E94890C8F290E94900CC4CF011106C0DC
:100C80000E949D0C8F2D0E940505BCCF013009F4F8
:100C9000B9CFF6CF112329F0063008F0B3CF8F2D4E
:100CA000E2CF053008F0AECFEDCF002359F3C933C2
:100CB00049F48FEF97EEE3E081509040E040E1F798
:100CC00000C000008C2F0E94AB049CCF8D2F869516
:100CD0008695837061F0813009F094CFCE019370D6
:100CE000111102C090E080E00E9492248BCFCE01CF
:100CF0009370111102C090E080E00E947C2482CFAA
:100D00008C2F112329F00E94AB150E945F167ACF19
:100D10000E94FF15FACF8D2F8370A9F5111172CFA4
:100D20002C2F229526952770220F220F4C2F4F70C3
:100D300050E0022E02C0440F551F0A94E2F790E0E3
:100D400080E0C4FF09C08FE090E002C0880F991FC7
:100D50002A95E2F7809590952D2F2695269523705C
:100D6000842B952B223049F058F4213019F00E9441
:100D7000FA0748CF0E94F10745CF0E94030842CFEF
:100D80000E94EE073FCF8695112311F08D2F8170C1
:100D9000882309F437CF2C2F229526952770220F10
:100DA000220F4C2F4F7050E0022E02C0440F551FEF
:100DB0000A94E2F790E080E0C4FF09C08FE090E081
:100DC00002C0880F991F2A95E2F7809590952D2FE4
:100DD000269526952370842B952B223049F058F4C4
:100DE000213019F00E9467080DCF0E945E080ACFDB
:100DF0000E94700807CF0E94120804CFFD2FFF70D9
:100E0000FF2E112329F08F2F0E942C088C2F2BCF1F
:100E10008C2F0E9405058F2D0E943C08F3CEC23F07
:100E200041F160F4C03FB9F0C13F81F0112309F4F2
:100E300048C00111A0CE8D2F8F711FC0C33F01F19B
:100E4000C43FA1F78091940982FD24C08D2F8F713A
:100E5000112311F312C0112341F0053008F0D2CE56
:100E60008D2F8F710E944E08CDCE063008F0CACE6D
:100E7000F7CF8D2F8F711111CFCF0E942C08C2CECA
:100E8000112329F08D2F8F710E942008BBCE0E9464
:100E90001B08B8CE112359F02D2F2F71F22E822F5F
:100EA0000E942C0863E08F2D0E94000DABCE81E0E4
:100EB0000E941E0D023008F4A5CE82E00E941E0D95
:100EC000A1CE002359F0C93309F0FCCE3FEF87EEE5
:100ED00093E0315080409040E1F7F2CE8D2F8F713A
:100EE0009BCF112319F001119BCE9ECE011198CEFC
:100EF0008091340890913508029709F091CE8C2F9B
:100F00000E94F5048DCE0F931F93CF93DF93EC01D6
:100F10008E819F81009781F00E94F80E8C010E94C3
:100F200079080E94ED07B801CE010E946A05DF91A1
:100F3000CF911F910F910895688179818A810E94D4
:100F40002F09ECCFCF93DF93EC018B819C81892B10
:100F500029F08881998189238F3F51F4DF91CF91C6
:100F60000895CE010E948307CE010E943903F6CF77
:100F7000CE010E9464038111F4CF0E944D0C88239E
:100F800069F38A81882351F38091940982FFE6CF27
:100F900082E00E941E0DE2CFA5E0B0E0E2EDF7E0B6
:100FA0000C94282D2596E2E00C94442DA8E0B0E0A6
:100FB000ECEDF7E00C94282D2896E2E00C94442DFB
:100FC00008950E94E00708950E94E10790934D085C
:100FD00080934C080E941A05089508950E94E40722
:100FE000089520914C0830914D08822B932B0E943C
:100FF000E407089520914C0830914D0882239323F3
:101000000E94E407089520914C0830914D088227F2
:1010100093270E94E40708950E94E00708950E9424
:101020000C0808950E940F0890934B0880934A087B
:101030000E941A05089590E080E00E941208089529
:1010400021E030E0A90102C0440F551F8A95E2F764
:10105000CA010E941208089521E030E002C0220F68
:10106000331F8A95E2F780914A0890914B08822BB2
:10107000932B0E941208089521E030E002C0220F55
:10108000331F8A95E2F72095309580914A08909118
:101090004B08822393230E941208089521E030E038
:1010A00002C0220F331F8A95E2F780914A0890917F
:1010B0004B08822793270E941208089520914A081E
:1010C00030914B08822B932B0E9412080895209197
:1010D0004A0830914B08822393230E9412080895F6
:1010E00020914A0830914B08822793270E941208CA
:1010F00008950895262F277091E001C0990F2A9531
:10110000EAF723E0769567952A95E1F7660F771F52
:10111000660F771FFA01E60FF71F50E040E0682FD7
:1011200070E08191DF0111979B01042E02C036957A
:1011300027950A94E2F7217021952827292328274B
:101140002C934F5F5F4F4430510559F70895A82FF6
:10115000A77023E0969587952A95E1F7880F991F48
:10116000880F991FFB01E80FF91F50E040E080E075
:10117000219130E00A2E02C0369527950A94E2F7B5
:1011800021703327042E01C0220F0A94EAF7822B24
:101190004F5F5F4F4430510559F70895262F98301F
:1011A00070F4853060F4682F70E085E0989F600DE2
:1011B000711D112446E358E0822F0E947A08089599
:1011C000292F983068F4853058F490E066E378E091
:1011D00035E0239F800D911D11240E94A7080895DA
:1011E00080E00895B0E0A0E0E8EFF8E00C94212D55
:1011F0007C0100914A0810914B0880914C08909115
:101200004D08082B192BCFE0D0E0CC24C394D12C6F
:10121000BC2EC6010C2E02C0880F991F0A94E2F75B
:1012200080239123892B49F4219790F7B12C8B2DA2
:10123000CDB7DEB7E9E00C943D2DB7018C2F0E94AD
:101240000410019789F3F3CFCF93DF93EC010E9451
:10125000F208BE010E940410DF91CF9108951F9300
:10126000CF93DF93EB0190913308992339F0CB01B1
:101270000E942409DF91CF911F910895882369F07E
:10128000CB010E94F208182F682FCE010E94CE08D1
:10129000BE01812F0E940410EDCFCB010E94E00817
:1012A000182FF6CFCF93DF93C0914E0880914F084F
:1012B0008C1303C0DF91CF910895D0E0FE0183E04D
:1012C000EE0FFF1F8A95E1F7E05BF74F2081318138
:1012D0004281538164817581868197810E94D607FE
:1012E0002196C770E3CF20919008309191084091EA
:1012F000920850919308609194087091950880919C
:101300009608909197080E94D6070895CF93DF938F
:1013100080919508807F09F049C0809192088823C8
:1013200009F444C080914E08C0914F086091900824
:1013300070919108A0919308B0919408D62FD7236B
:10134000C817A1F190E0109711F0DF3F19F4019652
:101350008770F6CF9C0143E0220F331F4A95E1F7D7
:10136000F901E05BF74F41814713F1CF408146130C
:10137000EECF42814111EBCF438154814A1B5B0B7D
:101380004C3D510520F7809195088F7080618093C6
:101390009508F901EB5AF74F80818F708061808347
:1013A00080E998E00E94A2070E945209DF91CF9144
:1013B0000895A5E1B0E0EFEDF9E00C94202D8C014B
:1013C00085E0F801DE01519601900D928A95E1F7D2
:1013D000F801E28040E9C42E48E0D42E60919308E1
:1013E000709194086115710509F480C1909190087D
:1013F00020919108892F82238F3F09F477C1408182
:101400005181A380B480F0909208F501E61BF70BA0
:10141000FF2009F420C180919508382F307FEC3DE2
:10142000F10508F0CAC0311177C0FE2C251320C089
:1014300094131EC06091960870919708F801268158
:10144000378162177307A1F4E11012C08F708061B9
:10145000809395080E947309C6010E94A20780919B
:101460009508F80185838F2D6596EAE00C943C2D54
:10147000A114B10429F0842F85238F3F09F04FC1B7
:1014800080E0F82FF170DF2E80FF3CC080914E0885
:1014900020914F08821315C0498B5A8B89899A89EC
:1014A0000E942409292F22952F702230F8F0243031
:1014B00020F59F70F9F0F8019581907FD9F4D12C37
:1014C0001FC090E0FC0133E0EE0FFF1F3A95E1F7FB
:1014D000E05BF74F3181351306C03081341303C010
:1014E00032813E110FC001968770D4CF9F7011F0EA
:1014F000882329F3805E883010F3C8010E94A20778
:10150000FD2CB1CFEE2009F4AECF8091950881601B
:1015100080939508F12CA7CF25131DC094131BC0F1
:101520004091960850919708F8012681378142171B
:10153000530789F4E1100FC08583C8010E94A207F8
:1015400088E0F801A0E9B8E001900D928A95E1F7F2
:101550000E94730988CFC8010E945005882349F171
:10156000EE2039F1809195088032A0F0209190080A
:10157000309191083A8729871B86BD86AC868E8775
:101580008091960890919708988B8F87CE01099645
:101590000E94A20788E0F801A0E9B8E001900D924E
:1015A0008A95E1F70E9486090E947309FF24F3944B
:1015B0005ACFC8010E94A207F9CF311113C07A2D6A
:1015C000BD8AAC8A6E2D8D890E94CC0780E998E097
:1015D0000E94A20788E0F60111928A95E9F70E941D
:1015E000730998CF251318C0941316C0409196081C
:1015F00050919708F801268137814217530761F40B
:10160000E1100AC08583C8010E94A20788E0F601A4
:1016100011928A95E9F727CFC8010E9450058823C7
:1016200041F2EE2031F280919508803208F4B2CF79
:1016300020919008309191083A8329831B82BD82C2
:10164000AC828E83809196089091970898878F83BB
:10165000CE0101969DCFEC3DF105D8F5FE2CEE2094
:1016600009F4A7CF251327C0941325C0209196080D
:1016700030919708F8018681978128173907D9F4A6
:101680009091950890FD0EC0907F61F08091950833
:101690008583903F09F451CF982F907F905F8F7092
:1016A000892B4ACF88E0F801A0E9B8E001900D92BB
:1016B0008A95E1F7D8CEC8010E94500581116ACF02
:1016C00080919508816080939508C8010E94A207C7
:1016D000CACE7A2DBD8AAC8A6E2D8D890E94CC0728
:1016E00088E0F60111928A95E9F732CFEE2009F4ED
:1016F00060CFC8010E945005F82E882309F459CF05
:1017000088E0F801A0E9B8E001900D928A95E1F730
:1017100080E998E00E9459040E94860919CF81E06F
:101720008E25AFCEA0E1B0E0E8E9FBE00C94282DD7
:1017300029873A874B875C876D877E878F87988B51
:10174000CE0109960E94D9098823A9F08C859D8530
:10175000892B39F029853A85822F83238F3F09F021
:101760006FC080914E0890914F08891343C06096D6
:10177000E2E00C94442D88E0FE013996DE011196DA
:1017800001900D928A95E1F78C859D85892B49F30F
:1017900089859A8589238F3F21F3A0914F08B0E076
:1017A000CD0101968770992720914E0828171906B8
:1017B00071F40E94300510924F0810924E0888E094
:1017C000E0E9F8E0DF011D928A95E9F7CACF93E0DE
:1017D000AA0FBB1F9A95E1F7A05BB74F98E0FE01F7
:1017E000319601900D929A95E1F780934F080E94EF
:1017F0005209B7CFB8E08B9FC0011124805B974F8F
:101800000E94D909882309F4B2CFE0914E0828E05C
:10181000E29FF0011124E05BF74F2081318142818A
:10182000538164817581868197810E94D60780915A
:101830004E0890E001968770992780934E0891CFCB
:101840004B855C856D857E858F8598890E94D6073E
:1018500088CF682F80917001909171010E94F024CF
:101860000895682F80917001909171010E94F32476
:10187000089580917001909171010E94F62408955D
:101880008091A10808958091A008859585958595FA
:1018900008958091A008877008959091A00897708E
:1018A00081E009F480E008958091AE080895909158
:1018B000AE08892B8093AE08089580959091AE086C
:1018C00098239093AE0808958093AE0808951092DF
:1018D000AE0808958091AD0808959091AD08892BC8
:1018E0008093AD08089580959091AD0898239093CA
:1018F000AD0808951092AD0808958093AC0808953E
:101900001092AC0808958093AB0808951092AB082C
:1019100008958091A208089508950E948C0C08955E
:101920009091940992FF08C09091A208981721F015
:101930008093A2080E948D0C08958091A2088823AC
:1019400029F01092A20880E00E948D0C0895CF9398
:10195000DF93E0917001F09171018091AE08808376
:10196000E0917001F091710180819091AD08892B17
:1019700080839091A208992381F0E0917001F09109
:1019800071018081892B8083809170019091710118
:101990000E94A82481110E949D0CE0917001F09199
:1019A00071018091AB08982F909580818923808365
:1019B000E0917001F091710180819091AC08892BC8
:1019C0008083C0917001D091710148E050E068E9D6
:1019D00078E0CE010E94632D892B59F088E0FE014A
:1019E000A8E9B8E001900D928A95E1F7CE010E9436
:1019F0006324DF91CF91089508950E94FC0C08950F
:101A00009091940992FF11C098E0899F9001112450
:101A1000622B6093A0080E942C088091A0088595F5
:101A2000859585950E94FD0C08950E942C080895C7
:101A30001092A00880E00E94FD0C08959091A008EB
:101A4000809589238093A008282F277091F4282F50
:101A5000082E000C330B9217130659F0909194093D
:101A600092FF07C08595859585950E943C080E9448
:101A7000180D08959091940992FB222720F92817B8
:101A800069F080FB92F99093940980919309909169
:101A900094090E948B0D82E00E941E0D0895809192
:101AA000940982FB882780F991E089270E943A0DEA
:101AB000089581E00E943A0D089580E00E943A0D59
:101AC00008956FEF7FEF90E080E00E94A52D0895CC
:101AD00090E080E00E94812D21E0883E9E4F09F039
:101AE00020E0822F089582E090E00E94792D0895F1
:101AF00083E090E00E94792D0895CF9384E090E0F8
:101B00000E94792DC82F82E290E00E94792D982FB3
:101B10008C2FCF910895CF93C92F682F84E090E048
:101B20000E94872D6C2F82E290E00E94872DCF913A
:101B30000895AB01BC018FE090E00E94992D0895BB
:101B4000AB01BC0183E190E00E94992D089560E013
:101B500070E0CB010E94A00D089560E070E0CB0121
:101B60000E94990D0E94A70D089568EE7EEF90E007
:101B700080E00E94A52D60E082E090E00E94872D29
:101B800060E083E090E00E94872D10924D08109253
:101B90004C0860E084E090E00E94872D64E082E2DF
:101BA00090E00E94872D60E085E090E00E94872D04
:101BB00060E086E090E00E94872D6FEF87E090E084
:101BC0000E94872D40E050E0BA0188E090E00E943A
:101BD000992D60E08DE090E00E94872D40E050E07C
:101BE000BA0188E190E00E94992D60E087E190E0E1
:101BF0000E94872D40E050E0BA018CE190E00E9405
:101C0000992D70E060E080E290E00E94A52D40E018
:101C100050E0BA0188E190E00E94992D0E94AD0D3C
:101C200008950E94B50D08958EE090E00E94792DF0
:101C300091E0811101C090E0892F0895682F8EE016
:101C400090E00E94872D08950E94B8256093BD08FA
:101C50007093BE088093BF089093C0086093B90842
:101C60007093BA088093BB089093BC0808950895B8
:101C700008950E94380E089508950E943C0E08951C
:101C80008EE291E10E9442240E94370E0E94390E9A
:101C900008950E9418130895089508950E944C0E07
:101CA0000E944D0E08950E9457110E94E1030E9468
:101CB000451708950E94A3250E94EE100E9430133C
:101CC0000E9445120E94530E0E9403170E94401367
:101CD0000E943D0E08950E941813882331F00E943F
:101CE000E31E0E9466220E94ED1B0895AAE0B0E068
:101CF000ECE7FEE00C94202D0E94991281EBA82EB7
:101D000088E0B82E750110E0F70101917F01812F65
:101D10000E947D111F5F183009F440C00817A1F31D
:101D20008091C10881FD0E9483110E94490EC82E36
:101D300010E0812F0E947D11082FF50181915F0134
:101D4000081731F1D02ED826F12CEE24E3948D2DF6
:101D50008E21B1F0CC20A1F0FE821F8391E0802F74
:101D60008E2109F490E098870E94AC258160782F3D
:101D70009A8789874E815F8168858A850E940D04D4
:101D8000F394EE0CF5E0FF12E2CFF50131970083FA
:101D90001F5F183071F60E94240E20C00813C0CFB8
:101DA0000E94AC258C018091AF089091B008081773
:101DB0001907A1F08FEF89838A831B820E94AC25CB
:101DC0008160782F9D838C8349815A816B818D81BD
:101DD0000E940D041093B0080093AF080E946B0E90
:101DE0000E9497160E94F4032A96EAE00C943C2D78
:101DF000CF93DF930E940910EC01811521E5920732
:101E000008F042C0811530E5930708F09FC0883E76
:101E1000910530F5803E910508F094C0883A91050F
:101E200088F4853A910508F086C08130910509F45F
:101E300089C0009709F486C0049708F083C0D0E0F9
:101E4000C0E080C08F3B9105D0F7C85AD0E0CC0FDE
:101E5000DD1FC850D84F0990D881C02DD46472C0FE
:101E6000811540E2940750F4C11581E0D80708F0CD
:101E700069C0CD3ED10518F3D06564C0811590448A
:101E8000F0F2DF70D06A5EC0811535E5930718F572
:101E9000811544E5940708F085C0C11583E5D8078E
:101EA00008F06CC0C11522E5D20708F462C0CE016B
:101EB0008370992721E030E002C0220F331F8A95FA
:101EC000E2F7C695C69580E2C89FE0011124C22BB7
:101ED000D32BDC6837C0811539E59307A8F4811549
:101EE00048E5940708F063C0C11586E5D80708F0F7
:101EF000A6CF8C2F0E94AB10C82FD0E0DC2FCC27B0
:101F0000CC27DF71D0621EC081152AE5920708F444
:101F100053C090568115904208F091CF8D2F8F714C
:101F20000E94AB1090E0982F882788279F719C0112
:101F30002C2BE901E7CFC55AD0E0CA5DD74FC88145
:101F4000D0E0D064CE01DF91CF91089583709927BE
:101F500021E030E002C0220F331F8A95E2F7C695D8
:101F6000C69540E2C49FE0011124C22BD32BDD684B
:101F7000E9CFDC2FCC27C16FD06AE4CFCE018370CC
:101F8000992721E030E002C0220F331F8A95E2F743
:101F9000C695C69540E2C49FE0011124C22BD32B05
:101FA000DA68D0CFD82FCC27C46FD06ACBCFD82F48
:101FB000CC27C06FD06AC6CF8F700E94AB1034E0C0
:101FC000D695C7953A95E1F7CF709C2FEC01D06973
:101FD000B9CF972F7830A8F4653098F470E025E0F9
:101FE000929F600D711D1124FB0198E2899FE00D05
:101FF000F11D1124EE0FFF1FE455FF4F85919491C1
:10200000089580E090E008950E94E90F0E94F80E84
:10201000089582389105B9F1B0F48133910509F43E
:102020007DC048F48932910509F46DC08A3291056A
:1020300009F47BC008958533910509F45FC08933A5
:10204000910509F10895833E9105D9F138F4803E58
:10205000910529F1823E910579F10895863E910519
:10206000D9F1873E910509F43EC0843E910541F5C2
:102070002091940921FF24C08091930984FD19C007
:1020800087EE90E0089520919309237009F05AC0DB
:102090002091940923FF14C089E290E008952091D3
:1020A000930920FD38C03091940930FF09C024FF06
:1020B00043C090E080E008952091930922FDF7CF7E
:1020C00008952091930922FD3AC03091940930FD82
:1020D00039C024FFF5CFEDCF2091930923FFF0CF36
:1020E00024FDE7CFCDCF2091930923FD2EC0309161
:1020F000940931FFEECF84EE90E00895209193098A
:1021000025FFDECFC9CF2091930925FD21C0209165
:10211000940923FFD5CF89E390E0D2CF2091930992
:1021200026FFCECF8AE290E008952091930926FF02
:10213000C7CF81E390E0089583EE90E0089582EEAA
:1021400090E0089580EE90E0089586EE90E0089586
:1021500085E390E008959091930992FF06C0282F9F
:1021600028712830F9F4877F846093FF06C0282FF8
:1021700028712831F1F4877E84612091940920FF31
:1021800006C0382F38713830D9F4877F816021FF3D
:1021900006C0282F28712831D1F4877E816194FDF3
:1021A000877E0895282F24712430F9F68B7F88606C
:1021B000DCCF282F2471243101F78B7E8861DDCF9D
:1021C000382F3171313019F78E7F8860E0CF282F9A
:1021D0002171213121F78E7E8861E1CF10928F0924
:1021E0001092900910929109109292090895CF923D
:1021F000DF92EF92FF926B017C010E941813811114
:102200000EC00E94B825C61AD70AE80AF90AC09279
:102210008F09D0929009E0929109F0929209FF9073
:10222000EF90DF90CF9008950F931F930E941813A3
:10223000882329F00E94B8251F910F9108950E94CC
:10224000B82500918F091091900920919109309142
:102250009209600F711F821F931FEECF80E00895D7
:102260000E94610D0895CF930E9499128FE39CE91B
:102270000197F1F700C000000E9499120E94151307
:10228000C4E08111C0E08C2F0E947D1190E002C05B
:1022900095958795CA95E2F780FF04C00E9430119A
:1022A0000E941326CF9108950E94331108950E9431
:1022B000680D811102C00E94110E0E94730D80935F
:1022C000C1080E947D0D90939409809393090E9408
:1022D00054110E94780D90E00E94EE0780914A0808
:1022E00090914B080E940F08089508950E9475115F
:1022F000089508950E9479110895E82FF0E0E256BC
:10230000F64F80810895089508950E9484110895DC
:10231000EF92FF921F93CF93DF9300D000D0CDB701
:10232000DEB70E941813182F6091A609882309F4BC
:1023300047C019821A821B821C82862F90E09E0160
:102340002F5F3F4F7901B9018256964F0E944E137D
:102350008823E9F08091950990E044E050E0B701CE
:102360008256964F0E94632D21E02093C208892B4C
:10237000C9F410E00E944803812F0F900F900F9036
:102380000F90DF91CF911F91FF90EF900895809172
:10239000C208882371F384E0F70111928A95E9F766
:1023A0001092C208E0919509F0E0E256F64F89815B
:1023B0009A81AB81BC8180839183A283B383DACF7E
:1023C00070E06256764F8091950990E08256964F64
:1023D0000E94D5130E948511CFCF1F93CF93DF9317
:1023E00022E731E0C1E0D0E0D90150E040E08D913A
:1023F0008F3F91F0E82FE295EF70F0E011A18F7020
:10240000BE0101C0660F8A95EAF7962F9095912339
:1024100091A382A1862B82A34F5F5F4F4530510568
:1024200031F72B5F3F4F81E026383807E9F6DF911F
:10243000CF911F910895CF93DF93AC01A62FB0E009
:1024400085E0689FF0011124EE58FE4F75E081E0B1
:1024500060E091919F3F81F0C92FC295CF70D0E08D
:1024600028A130E09F7002C0359527959A95E2F734
:10247000982F20FD90E0692B880F715051F7A40F21
:10248000B51F6C93DF91CF910895A4E1B0E0EBE428
:10249000F2E10C94282D80918601811126C084E1FF
:1024A000E0EDF1E0DE01119601900D928A95E1F7E1
:1024B000FE013196A2E7B1E0CE01459620812C9332
:1024C000218111962C931197228112962C931297A9
:1024D000238113962C931397248114962C9314978D
:1024E000359615968E179F0749F78091860194E0DF
:1024F000811190E09093A60984E0891B809395094F
:102500000E94ED1188E0EEE9F9E0DF01982F1D92BD
:102510009A95E9F7E6E9F9E0DF011D928A95E9F776
:1025200084E00E94D7120E9445036496E2E00C9476
:10253000442DA8E0B0E0EFE9F2E10C94252D8E01E6
:102540000F5F1F4F88E0F80111928A95E9F7F12C8F
:102550006F2DC8010E941B12F394F4E0FF12F8CF14
:1025600048E050E0B80186E999E00E94632D21E03F
:10257000009709F420E0892B41F088E0F801A6E9F2
:10258000B9E001900D928A95E1F76091A60970E09B
:102590006256764F44E086E999E00E94D812182FDF
:1025A0000E948811812B2896E5E00C94412D089516
:1025B000CF92DF92EF92FF920F931F93CF936C0114
:1025C0007B01042F222349F081E08093C5080E94FB
:1025D000AC259093C4088093C308C091C508C1116D
:1025E0000AC0C0E08C2FCF911F910F91FF90EF9008
:1025F000DF90CF9008958091C3089091C4080E9405
:10260000C425059770F310E0A801B601C7010E9428
:10261000632D892B41F0A801B601C7010E94702DDE
:102620001092C508DFCFC0E0FBCF0E94140E0895C2
:102630008091C808811107C00E94F12C882351F0B5
:1026400081E08093C80881E09091C808913009F03A
:1026500080E0089582E08093C8080E94EC2CF3CFBC
:102660000E94680D811102C00E94110E0E94151374
:10267000809386010E94181381110E94841308958B
:102680000E941813811102C00E948713089581E0EF
:102690009091C9089A3008F080E008950F931F9335
:1026A000CF93DF93EC018B018091C9088A30B8F495
:1026B000B801CE010E94D213C82F811122C080918F
:1026C000C9088F3FB9F40E94AC259093C708809346
:1026D000C6088C2FDF91CF911F910F9108958091A3
:1026E000C6089091C7080E94C425843F914000F716
:1026F000C0E0EFCF8F5F8093C9088A3020F7C1E038
:10270000E8CF1092C908E5CF0E94E02208950E9408
:10271000E3220895B0E0A0E0E0E9F3E10C94232D7A
:102720007901C82F880FDD0B41155105A9F0FE0175
:1027300093E0EE0FFF1F9A95E1F7E957FE4F818175
:1027400092818653974F208130E04217530708F457
:102750009A01A9010E94702DCE010E94CC23D82E8F
:102760008823D1F001151105B9F083E0CC0FDD1FEE
:102770008A95E1F7FE01E957FE4F438150E00417C7
:10278000150708F4A801C957DE4F6C817D81665397
:10279000774FC7010E94702D8D2DCDB7DEB7E7E0D2
:1027A0000C943F2D0E94CC1408950E94E3140895C8
:1027B000A4E0B0E0EEEDF3E10C94262D6091DF088B
:1027C0007091E0088091E1089091E2080E94D32581
:1027D00011E0643671058105910518F10E9414110C
:1027E0006E5F7F4F8F4F9F4F69837A838B839C836C
:1027F00010E000E030E020E044E050E0BE016F5F18
:102800007F4F82E00E948A13182F882351F00E9484
:10281000B8256093DF087093E0088093E1089093F7
:10282000E208812F2496E4E00C94422DB0E0A0E071
:10283000ECE1F4E10C94202D7C015B016A010E9423
:10284000471301E010E0882311F00AE010E0C1E036
:10285000D0E0B501C701F6010995811104C02196A8
:102860000C171D072CF4CDB7DEB7EAE00C943C2D15
:10287000CC9F9001CD9F300D300D112490E080E071
:1028800045E34A95F1F70000019682179307C1F7D7
:10289000E0CFA5E0B0E0EFE4F4E10C94202D5B0183
:1028A000E0902908F0902A0801E010E09E012B5FDB
:1028B0003F4F50E040E070E060E080E00E948A130B
:1028C000182F882309F44BC067018FEFC81AD80A64
:1028D0006091DB087091DC088091DD089091DE0842
:1028E0000E94D325643671058105910580F104E0CD
:1028F00010E09E012F5F3F4F50E040E070E060E04D
:1029000081E00E948A13F82E64E070E0C6010E9404
:10291000041711E09D81981310E01F2159F10E94C6
:10292000B8256093DB087093DC088093DD089093F2
:10293000DE0889819A81AB81BC818093D70890930E
:10294000D808A093D908B093DA0811E013C064E066
:1029500070E0C6010E9404179D818913C8CFF7015A
:1029600081819281A381B48189839A83AB83BC8363
:102970001111DFCF8091D7089091D808A091D90884
:10298000B091DA08F50180839183A283B383812F0C
:102990002596EAE00C943C2D0F931F93CF93DF9381
:1029A000EC018B0149E454E10E941614882331F0B4
:1029B00048ED53E1B801CE010E941614DF91CF918A
:1029C0001F910F9108950F931F93CF93DF93C091A1
:1029D0002908D0912A08CE01019624E0FB01DC01F0
:1029E00001900D922A95E1F764E070E00E940417CF
:1029F00088836D817E818F8198850091D3081091A5
:102A0000D4082091D5083091D60860177107820745
:102A1000930751F06093D3087093D4088093D5083E
:102A20009093D6080E94F710DF91CF911F910F91DC
:102A300008950E94C7270E945A0E0E94D427089525
:102A40000E94D9270E94760E0E94F32708950E94C3
:102A500045250E94AD270E94400E0E9419150E9434
:102A600020150E944E0EFBCF8091E70890E0880F62
:102A7000991FFC01E954FE4F208189559E4FFC01AE
:102A800080819091EA08191614F42093EA08909135
:102A9000EA0897FF04C0922F91959093EA089091CD
:102AA000EB08191614F42093EB089091EB0897FFAC
:102AB00003C021952093EB089091ED08191614F4AA
:102AC0008093ED089091ED0897FF04C0982F9195A1
:102AD0009093ED089091EC08191614F48093EC088B
:102AE0009091EC0897FF03C081958093EC0830919A
:102AF000EA083323A1F02091EB08222381F045EB73
:102B00003403C00111249923F1F09093EA0845EBB6
:102B10002403900111243323D1F03093EB0840912A
:102B2000ED08442379F03091EC08332359F025EB7C
:102B30004203A00111245093ED08320390011124A7
:102B40003093EC08089581E08093EA08E0CF81E0BB
:102B50008093EB08E4CF4091E708242F30E0220F68
:102B6000331FF901E954FE4F90818D3E21F4919578
:102B70009093EB0808958E3ED9F38F3E21F4919502
:102B80009093EA080895803FD9F329553E4FF90103
:102B90009081893F19F49093EC0808958A3F11F4CD
:102BA0009195F9CF8B3F21F491959093ED0808957D
:102BB0008C3FD9F39FE0980F983070F4815F990BA8
:102BC00021E030E001C0220F8A95EAF78091E90800
:102BD000822B8093E90808958D3F49F481E080932A
:102BE000E7088091E70848130E94341508958E3F46
:102BF00011F482E0F4CF8F3FC9F783E0F0CF8D3E30
:102C000039F49091EB0897FF09C01092EB080895F2
:102C10008E3E71F49091EB081916BCF38D3F38F09D
:102C20008091E7081092E70881110E9434150895F9
:102C30008F3E39F49091EA0897FFF0CF1092EA089E
:102C40000895803F29F49091EA081916BCF3E6CF65
:102C5000893F39F49091EC08191604F71092EC08AA
:102C600008958A3F29F49091EC0897FFD7CFF6CFCB
:102C70008B3F39F48091ED0887FFD9CF1092ED0892
:102C800008958C3F29F48091ED081816BCF308953F
:102C90009FE0980F983008F0C1CF815F990B21E039
:102CA00030E0A90102C0440F551F8A95E2F7CA011E
:102CB00080959091E90889238093E90808950E94FE
:102CC000AC259C019091EA088091EB08982B21F0AB
:102CD0003093E6082093E5089091EC088091ED0888
:102CE000982B21F03093E4082093E30888EE98E0D5
:102CF0000E946E24089586E0E8EEF8E0DF011D9260
:102D00008A95E9F70895FC01828181110EC08381C3
:102D100081110BC08481811108C091E085818111EE
:102D200001C090E0892F8170089581E0FCCFA6E07A
:102D3000B0E0EDE9F6E10C94282D86E0E8EEF8E04D
:102D4000DE01119601900D928A95E1F71092EA0842
:102D50001092EB081092EC081092ED088B819C8188
:102D6000892BC1F08091E5089091E6080E94C42566
:102D7000E091E708F0E0EE0FFF1FE155FE4F2081E4
:102D800031812817390730F48B818093EA088C81D0
:102D90008093EB088E819D81892BC1F08091E3089F
:102DA0009091E4080E94C425E091E708F0E0EE0F5E
:102DB000FF1FE156FE4F208131812817390730F47B
:102DC0008D818093EC088E818093ED08BE016F5F4A
:102DD0007F4F88EE98E00E94FD24811105C088EEA7
:102DE00098E00E94831681110E945F1686E0FE0122
:102DF0003196A8EEB8E001900D928A95E1F72696FB
:102E0000E2E00C94442D0895FC01680F791F8FEFC8
:102E100091E36E177F0709F408952191822728E036
:102E200030E087FF06C0880F892721503109C9F794
:102E3000F0CF880FFACFCF93DF93EC0197FF0CC050
:102E4000FB018281882341F00E945C17CE019F77AD
:102E50000E94EC170E94BB1781E0DF91CF9108958B
:102E60009091A809923071F48A3050F490E009965C
:102E70006AE070E00E94FE2C875A0E94F5040895D3
:102E80008650FBCF0E94771A08958CE090E00E9454
:102E9000792D90E0B0E0A0E08093A8099093A90973
:102EA000A093AA09B093AB0908956091A8098CE09A
:102EB00090E00E94872D08950E946024869581707D
:102EC0008093AD090E94602481708093A70980914E
:102ED000A809813039F48091AD09882319F089E37C
:102EE0000E94F5040E94540C8093AC090E94670C68
:102EF0000E947A0C8091A809823021F158F488232D
:102F0000C1F08130D1F08FE39CE90197F1F700C067
:102F100000000895843051F18530A9F78BE191E0EC
:102F20000E94E00285E290E00E94E00288E290E0E8
:102F300006C082EE0E945F04E6CF88E193E00E9423
:102F4000E002E1CF8091A709811103C083E50E94CF
:102F5000F50482EE0E945F048FE39CE90197F1F78C
:102F600000C0000087E50E94F504CDCF86EE0E94E8
:102F7000F50488E1F8CF8091A809823011F148F476
:102F8000882381F0813091F08091AC090E94640C1B
:102F900008958430F9F08530B9F788E290E00E9416
:102FA000E002F2CF82EE0E94AB04EECF8CE20E94F0
:102FB000F5048091AD09882339F389E30E94F50473
:102FC000E3CF82EE0E94AB048091A7098111DCCF90
:102FD00083E5F4CF88E2F2CF0F931F93CF93DF9373
:102FE0008C01CCE0D0E0C8010C2E02C096958795EC
:102FF0000A94E2F78F700E9430172497CC3F8FEF2E
:10300000D80789F7DF91CF911F910F9108950F9302
:103010001F93CF93DF93EC018B01FB018281882307
:1030200081F00E94540CC43EFCE5DF0729F190F4C6
:10303000C23EECE5DE07D9F081E0C33EFCE5DF07E8
:1030400099F0B801CE010E941B17DF91CF911F911B
:103050000F910895C63E8CE5D80791F078F085E091
:10306000C13BFDE5DF0769F78093A80902C0109214
:10307000A8090E945517E5CF82E0F6CF83E0F4CF90
:1030800084E0F2CFCF93DF93EC01FB0182818823B0
:1030900009F464C1C430FDE5DF07E0F5CB3F9CE5F2
:1030A000D90730F49E0122503C4524313105D8F532
:1030B0000E947D0D9093940980939309C231ECE5B1
:1030C000DE0709F41FC108F06EC0C9308CE5D807CF
:1030D00009F4F2C008F03FC0C530ECE5DE0709F4A2
:1030E000DBC058F5C3308CE5D80709F4CDC008F033
:1030F000CFC0809193098160C230DC4509F4AEC035
:1031000080919309909194090E948B0D0E94300543
:1031100080E009C0C63AEDE5DE0751F238F4C23668
:103120009DE5D90729F2DF91CF9108959E012E5A8E
:103130003D4523303105B8F7BBCF809193098062BC
:10314000C730FCE5DF0709F489C008F4B1C08091FD
:103150009309806483C0CD309CE5D90709F4BAC0D7
:1031600070F4809193098E7FCB30FCE5DF0709F482
:1031700075C008F4A7C0809193098D7F6FC0CF30D0
:103180009CE5D90709F4B6C008F4A8C0C031FCE535
:10319000DF0709F4B3C0C131DC4509F0B1CF80913C
:1031A00093098F7B5BC0C1159DE5D90709F4B4C0B5
:1031B00098F5CB3FFCE5DF0709F472C0B8F4C431E1
:1031C0009CE5D90709F4B6C008F4A2C0C531DC45B6
:1031D00009F096CF8091930982FB992790F921E01D
:1031E000922790FB82F990FB83F938C0CD3F8CE5A4
:1031F000D80709F477C008F457C0CE3FECE5DE07E6
:1032000009F474C0809194098360CF3FDC4509F0D4
:1032100077CF8093940974CFC2368DE5D80709F42F
:1032200096C068F4C230EDE5DE0709F48CC008F4FE
:1032300077C0C330DD4509F063CF80E085C0CE3A6A
:103240009DE5D907E9F068F490919309892F8E7F65
:1032500090FF8160C63ADD4509F052CF8093930913
:103260004FCFCF3A8DE5D80789F1C03BDD4509F056
:1032700047CF90919409892F877F93FF8860C9CFAA
:10328000809194098860C5CF809193098260E6CFD0
:10329000809193098460E2CF809193098860DECFAA
:1032A000809194098160B5CF809194098260B1CFFB
:1032B000809193098061D2CF0E943005809193095B
:1032C0008068CCCF809193098C60C8CF809194099D
:1032D000877F9FCF809193098B7FC0CF8091930987
:1032E000877FBCCF809194098E7F93CF8091940982
:1032F0008D7F8FCF809193098F7EB0CF809193097E
:103300008F7DACCF0E943005809193098F77A6CF37
:1033100080919309837FA2CF809194098C7F79CF8C
:1033200080919409982F909591708E7F892B90FBB6
:1033300081F96FCF0E94300590919309892F97FBF7
:1033400087F980588BCF81E00E941E0ED9CE9091D4
:103350009309892F8F7E94FF806180CF81E0E3CE37
:10336000B0E0A0E0E6EBF9E10C94232DE82FF0E0CB
:10337000EC50FE4FD490282F26952695269530E0C8
:10338000F901EC56FD4F0491877010E0082E02C041
:10339000159507950A94E2F701701127F901EC578A
:1033A000FD4FE490F12C082E02C0F594E7940A94A6
:1033B000E2F791E0E922FF24F901EC58FD4FC491B6
:1033C000D0E002C0D595C7958A95E2F7C170DD2798
:1033D0000115110519F081EE0E945F04E114F1045A
:1033E00019F086EE0E945F048D2D0E94F504E11411
:1033F000F10419F086EE0E94AB040115110519F0D5
:1034000081EE0E94AB04CD2B19F08CE20E94F504F2
:10341000CDB7DEB7E7E00C943F2DEF92FF920F930C
:103420001F93CF93DF93EC01162F0AE08881882346
:1034300009F454C0813009F04EC08981813099F47B
:103440007E0122E0E20EF11C8A810E94F504E70170
:103450002196812F815050F3EFE9FFE03197F1F78A
:1034600000C00000F7CF823041F47E0182E0E80E18
:10347000F11C8A810E945F04EACF833041F47E010F
:10348000E2E0EE0EF11C8A810E94AB04E0CF8430B2
:1034900011F02196DDCF2A81229690E080E0AE01E6
:1034A0004F5F5F4F2053330B2A30310548F00197AF
:1034B00078F2EFE9FFE03197F1F700C00000F7CFB5
:1034C000089FB001099F700D1124C901860F971F35
:1034D0002981EA01E4CF0E94B019BACFCDB7DEB797
:1034E000E6E00C94402D60E00E940D1A0895982F9C
:1034F0009F709A50963020F0805D0E94B019089518
:10350000895AFBCF08950F931F93CF93DF93809138
:103510005909E091EE081CE081111AC0DF91CF91AA
:103520001F910F91089501E00E0F0093EE08CE2F2A
:10353000D0E0E19FF0011124E750F74F838194819F
:10354000892B29F08081918189238F3FF9F4E02F25
:1035500080915909E81738F3109259091092EE0832
:10356000DDCF18968D919C918F3F9807E1F061E037
:103570000E94821A1C9FF0011D9FF00D1124E7503C
:10358000F74F148213820E947A0CE1CF1C9FD00166
:103590001D9FB00D1124A750B74F16968D919C9189
:1035A0001797892BF1F22081318142815381648107
:1035B0007581868197810E94920BDCCF10925B0906
:1035C00010925A092091C0013091C101E2E0F1E06E
:1035D00090E080E02817390709F4089545814111EA
:1035E00002C01482168201963796F4CFDC016091F6
:1035F000F7088091F808962F891301C00895292FA4
:1036000030E0F901EE0FFF1FE151F74F408151818A
:103610004A175B07A1F487E08A9FA0018B9F500D9A
:1036200011244E5F5E4F81E0FA0184839613E6CF4A
:103630002F5F3F4F237033272093F70808952F5FA4
:103640003F4F922F9370D8CFB0E0A0E0EAE2FBE1C9
:103650000C941D2DEB012C81211152C07090590941
:10366000A9EFB8E030E020E0812C61E070E02715A0
:1036700008F044C01A96CD90DC901B97A880B980C2
:103680004FEF5FEF912CE92CF12CF701EE0FFF1FAC
:10369000EA0DFB1D05911491C016D10609F4A7018E
:1036A0000115110511F09394EECF4F3F540789F1A6
:1036B000FB0102C0EE0FFF1F4A95E2F78E2AAB0115
:1036C000092C02C0440F551F0A94E2F741505109DA
:1036D00084161506D1F44A815B816CE0629FF0018B
:1036E000639FF00D1124E750F74F578346832EEF69
:1036F000208321839187808721E02D830E94F61A01
:10370000CDB7DEB7EDE00C94392D14961C921E92C5
:1037100013972F5F3F4F1C96AACF1F93CF93DF9332
:10372000C091F70817E08091F8088C1308C00E9438
:10373000831A0E94DE1ADF91CF911F910895D0E085
:10374000FE01EE0FFF1FE151F74F80819181189F1D
:10375000B001199F700D11246E5F7E4F0E94241BD3
:103760002196C370E0CFEF92FF921F93CF93DF9328
:10377000FC012081318110E040E050E0E52FF0E0D5
:10378000EE0FFF1FE20FF31FA591B4911097B9F050
:10379000FB01C081D18140E005C0AE15BF0509F431
:1037A00011E04F5FE42FF0E0EE0FFF1FEC0FFD1F65
:1037B000E590F490E114F10481F75F5FDFCF11230E
:1037C00049F0451708F4CB01DF91CF911F91FF908D
:1037D000EF90089590E080E0F7CF8091BF018823BB
:1037E00041F180915C0990915D09009711F10E946F
:1037F000C42520915A0930915B0928173907C8F46C
:103800009091F7088091F808981759F00E948D1B45
:1038100010925B0910925A0910925D0910925C098E
:1038200008950E94831A10925D0910925C090E940B
:10383000DE1A089510925D0910925C091092BF0182
:103840008091F8088093F7080E94DE1A0E94831A7C
:1038500008958091BF01882319F00E941A1C0895D1
:1038600081E08093BF010895A9E0B0E0EAE3FCE1C4
:103870000C94182D6C013B01FB011281883FFCE583
:103880009F0751F4112379F081E08093BF01812FCC
:103890002996E2E10C94342D893F2CE5920709F03A
:1038A0004DC0111148C002E011E0F12CE12C198645
:1038B00088248394912C8091C0019091C101E816D5
:1038C000F90608F445C0F3018281882309F460C138
:1038D000F985FF2309F45CC10E94AC2590935D0932
:1038E00080935C0980915909883008F591E0980F20
:1038F0009093590998E0F301DE01119601900D9221
:103900009A95E1F72CE0829FC00111248750974FD0
:1039100028E0FE013196DC0101900D922A95E1F735
:103920002FEF3FEFFC0131872087D386C28611E05D
:10393000F9851F27ACCF0E941A1CA9CF8A3F9C454E
:1039400009F0B1CF112309F4AECF0E94291C9FCFFB
:10395000F80160817181AA24AA94BA2C20E0422F38
:1039600050E0FA01EE0FFF1FE60FF71F85919491CB
:10397000C816D90609F45A01892B11F02F5FEFCF31
:10398000312CFFEFAF16BF0609F445C0F8014481A2
:103990003090BF01832D411180E0F82FF1703F2E50
:1039A000F80155808681F3019281992309F48EC034
:1039B000332009F48BC0511015C0A4010A2C01C09A
:1039C000440F0A94EAF7842BF801868380915A0900
:1039D00090915B09C29730F462E370E070935B09E9
:1039E00060935A09C40102C0880F991F2A95E2F713
:1039F0000197F80126812817190669F480915C095E
:103A000090915D09009781F00E94C425C39760F0F2
:103A100021E0F8012483F985F329F9872FEFE21AD1
:103A2000F20A095F1F4F47CF2090F70890E080E02F
:103A30002091F808221215C08017910761F3A22C7B
:103A4000B12CF501EE0FFF1FE151F74FF182E0823B
:103A50006FEFA61AB60A73E0A722BB24A092F8085B
:103A6000DACFA22CB12CF501EE0FFF1FE151F74F79
:103A70002081318147E0429FC001439F900D112476
:103A8000BC016E5F7E4F2B01B801C2010E94B31BC7
:103A90000097A9F021E0FC0124838017910709F425
:103AA000BACF2091F70822120AC04816590639F4F5
:103AB00095012F5F3F4F237033272093F7083FEF87
:103AC000A31AB30A4A2D4370242EB2CF90E05110AE
:103AD00020C0F40102C0EE0FFF1F2A95E2F79F01FC
:103AE000215031092817390731F4442309F44EC015
:103AF000C7010E94F61AC4010A2C01C0880F0A945B
:103B0000EAF7982F9095F801868189238683352CD2
:103B100082CF9C010A2C02C0359527950A94E2F7C2
:103B2000A90141705527BC01615071098623972373
:103B3000892B41F5452B31F1F80182819381892B45
:103B4000E1F01B821C821D821E82FEEFF983FA8344
:103B50000E94AC258160582F9D838C83F80182815F
:103B600093818F83988729813A814B816D817E81F2
:103B70000E94920BF8011582BECF60E0C7010E943F
:103B8000821AF8CFF22FF1705F2EB5CF532CB3CF3E
:103B90009091F7088091F808981719F00E948D1BF2
:103BA000C6CE0E94831A10925D0910925C090E9491
:103BB000DE1ABDCECF93DF93EB0186319C4511F524
:103BC0000E94540C9A81992399F08A7A91E009F421
:103BD00090E090935E09811109C089E20E94290C4E
:103BE0000E94A70C80E0DF91CF91089585E3F6CF86
:103BF00080915E09811104C089E20E94310CF0CFEE
:103C000085E3FBCF81E0EFCFFC018581862351F472
:103C100092819923B9F06923818583FF05C081E0F2
:103C200061110FC080E00895892F8F7092959F7069
:103C3000982B862F8F7062956F70682B81E096139A
:103C4000F1CF089581E0FDCFCF93DF93EC01609138
:103C5000690970916A0980916B0990916C090E94C1
:103C6000D325643F71408105910518F5809169095C
:103C700090916A09A0916B09B0916C0980936509D4
:103C800090936609A0936709B093680984EF91E067
:103C9000A0E0B0E08093610990936209A09363096A
:103CA000B0936409D0936009C0935F09DF91CF910D
:103CB00008950E94B8256093650970936609809302
:103CC00067099093680982E390E0A0E0B0E0E2CF5A
:103CD000FF920F931F93CF93DF93F82E00917009FB
:103CE000109171090115110509F44DC01092600978
:103CF00010925F090E94860C0E94800C009170094E
:103D000010917109D8011796CD91DC919E013A95D9
:103D100021153F4108F4D07ED1E0C11101C0D0E0AF
:103D2000D8011A96ED91FC911B97309731F01C96B3
:103D30006D917C9180E00995D823DD2339F08CEFDB
:103D40008C0F813A30F58C2F0E94310CFF2099F0B6
:103D5000E0917009F0917109818584FD0CC080911A
:103D60006F09882341F0808191819C0121503109A4
:103D7000213B3D45A0F00E94A70C109271091092C2
:103D8000700910926F09C801CDB7DEB7E5E00C9459
:103D9000412D0E94A70C8C2F0E94AB04D7CF0E940C
:103DA000241EE9CF1092C20180E00E94681E08958F
:103DB0008091C201882319F00E94D21E089581E0EB
:103DC0008093C20108950F931F9380915F09909192
:103DD0006009892B89F1609165097091660980916C
:103DE0006709909168090E94D3250091610910919B
:103DF0006209209163093091640960177107820795
:103E00009307D0F080915F09909160090E949A0217
:103E10001092600910925F0910926509109266096C
:103E20001092670910926809109261091092620954
:103E300010926309109264091F910F910895A4E0F4
:103E4000B0E0E5E2FFE10C94182D8C017A836983E0
:103E5000DB0112965C905520B1F08036BDE59B07E2
:103E600059F08136EDE59E0759F08F359D4559F49F
:103E70000E94D81E312C0DC081E08093C201FACF80
:103E80000E94D21EF7CF3090C201311007C03324F8
:103E90003394832D2496E2E10C94342D680120EEB6
:103EA000C21AD1080E94540CF82E0E94400C482ED1
:103EB0000E94890C482A4F2838E0C316D10408F024
:103EC00094C098012770332781E090E001C0880FEB
:103ED0002A95EAF7552009F485C0482AA981BA81B4
:103EE0008D919C910E94E008809032019090330166
:103EF0008114910409F4E1C021E030E0F90102C02D
:103F0000EE0FFF1F8A95E2F7FA83E983609070094C
:103F100070907109A0906D09B0906E09212CE22D6E
:103F2000F0E0EE0FFF1FE80DF91D208131813C8389
:103F30002B832115310509F4C0C0411005C0D901FA
:103F400012968C9181118BC0EB81FC8183819481CD
:103F500029813A8182239323892B09F480C08185AA
:103F6000982F977009F487E038E0C316D10408F061
:103F700056C0552009F44FC086958170882309F4F6
:103F80006EC0AB81BC81ED90FC900E151F0519F43D
:103F9000552009F464C0EB81FC81E615F70509F4AE
:103FA0005EC00684F785E02D309721F0808188235C
:103FB00009F455C0642D8B819C810E94041E8823C6
:103FC00009F44DC00E151F0509F08BC00115110530
:103FD00009F48CC051108CC0EA14FB0409F03FC0F6
:103FE000512C86C08095482279CF552009F44EC0C7
:103FF00010936E0900936D090E94B82560936909BA
:1040000070936A0980936B0990936C091092600910
:1040100010925F0963CF82FB882780F9AFCF5520CC
:10402000F1F08170ABCF0E94AB0483C00497813A5A
:10403000910548F4802F0E94290C552009F427CFC0
:104040000E94A70C17CF0E94A70C8FE39CE9019751
:10405000F1F700C00000802F0E945F04EECF239490
:104060005ECFFC01208131812017310731F45110DE
:1040700007C010926F0980E031C0552009F407CFC6
:10408000DC0119968C9185FD02CFF5CF80916D09E9
:1040900090916E098017910781F410926E09109229
:1040A0006D091092690910926A0910926B091092B9
:1040B0006C091092600910925F09809170099091CB
:1040C0007109009709F4E3CEA8E0CA16D10448F6B6
:1040D000642D0E94041E8111DACE81E00E94681EC8
:1040E000D8CEE114F10409F077CF512CF12CE12C5A
:1040F00080E00E94681EEB81FC81F0937109E093DF
:10410000700981E080936F0986810E94830C5110B1
:1041100010C0E114F10469F0AB81BC818D919C91D8
:104120009C0124503109213A310508F07CCF0E94CE
:10413000310CEB81FC8107811085C8019A958115AE
:104140009F4108F4107EFF24F394C8010197813B3E
:104150009D4508F0F12CAB81BC811A96ED91FC9144
:104160001B97309731F01C966D917C9181E00995F9
:10417000F822FF2081F0EB81FC81878190850E94ED
:104180005F020E947D0CC801F8E0CF16D10408F050
:104190004DCF0E94241E0E94A70C4FCF0F931F9358
:1041A000CF93DF93C42FD22FFC0182818823C9F0E3
:1041B000409374090E94AC2590937309809372090F
:1041C00080E28C0F883040F4C77081E001C0880F16
:1041D000CA95EAF70E94FE04DF91CF911F910F91DB
:1041E000089510917409141332C08091720990914E
:1041F00073090E94C4258C3D910548F5C0E2CD0F9E
:104200001D17B9F080E2810F883040F4177081E00B
:1042100001C0880F1A95EAF70E940505C83048F4D6
:1042200081E09D2F977001C0880F9A95EAF70E9450
:10423000FE04802F0E94F504C83070F6D77081E02C
:1042400001C0880FDA95EAF70E940505C5CF80E224
:104250008C0F883008F6C77081E001C0880FCA95BE
:10426000EAF7F2CF0F939C01CB01243F4CE53407D2
:1042700059F1A8F4293DFCE53F0701F12A3D4CE541
:104280003407D1F1283D3C4591F406E221EE41EEA0
:1042900068ED7CE50E94CE2080E00F910895263FD6
:1042A000FCE53F07E9F0B0F0273F3C45F9F0FC01A1
:1042B0008281882339F110927409EFCF07E225EE4D
:1042C00045EE69ED7CE5E6CF06E221EE40EE64EFD7
:1042D0007CE5E0CF07E225EE44EE65EF7CE5DACF42
:1042E00006E221EE42EE66EF7CE5D4CF07E225EE52
:1042F00046EE67EF7CE5CECF08E221E045EE6AEDC1
:104300007CE5C8CF81E0C9CFCF93DF93EC01EA858C
:10431000FB85309719F06C857D8509958B810E940E
:10432000730C8C810E945D0C0E94A70C86E0FE013C
:1043300011928A95E9F7DF91CF910895CF93DF939A
:10434000EC018D8181FD12C082608D838B810E9482
:104350006D0C8C810E94570C0E94A70CE885F98592
:10436000309721F06C857D85CE01099510927809F2
:10437000109277098D8180FD03C0CE010E948421B7
:10438000DF91CF910895CF93DF93EC018A81823042
:1043900041F4FB01828193810E949A028D818260A7
:1043A0008D83DF91CF910895FB01808191810E94DF
:1043B0009A020895FC018281813031F4FB018081F1
:1043C00091810E94B00208958230E9F7FB01828159
:1043D0009381F7CFFB0122812223E1F0E09177095D
:1043E000F09178093097B1F0E817F90799F02EE0CD
:1043F000E29FF0011124DF01AB5EBE4F2C912460DF
:104400002C93E05FFE4F91838083CF010E949E2119
:104410000E947A0C0895EF92FF920F931F93CF930F
:10442000DF938C0197558F3F910511F008F041C043
:104430007801FF248EE0089FF0011124EF01C05F96
:10444000DE4FDB0112962C91EB5EFE4F808120FB4C
:1044500080F98083222399F10E94AC2590937609FC
:10446000809375098A818F5F8A830E94540C8B83A5
:104470000E946A0C9B81892B8B830E94890C8C8300
:10448000EE81FF81309721F06C857D85CE01099505
:104490008EE08E9DF0018F9DF00D1124E05FFE4FA8
:1044A000858181FF02C010E000E01093780900933D
:1044B000770981E0CDB7DEB7E6E00C94402D8D8121
:1044C00081FFF7CFCE010E948421F3CF809177093D
:1044D00090917809892BC9F080917509909176099E
:1044E0000E94C4258D3D910580F0809177092EE0D2
:1044F000829FC0011124FC01EB5EFE4F208122FD52
:1045000004C0805F9E4F0E949E2108958EE14A9BC9
:1045100002C08150E1F74A9BFECF08955A9880E28D
:104520008A95F1F75A9A0895FC013BE03A95F1F724
:1045300098E020E080E031E040E14A95F1F7880F13
:104540004A9B02C08160232742E04A95F1F70000B0
:1045500040E14A95F1F7915079F790E19A95F1F79A
:1045600099B132E03A95F1F7000040E14A95F1F750
:1045700092FB992790F992272081920F90830895BA
:10458000A1E0B0E0E6ECF2E20C94242D19828C015B
:104590007C01E60EF11C0E151F0541F481E09981A6
:1045A000911180E02196E6E00C94402D0E94862235
:1045B000CE0101960E949422F80181938F01EBCFE6
:1045C000529A5A9A089552985A9AEA9AE9E6F0E06D
:1045D00080818F7C808308956150770B91E001C0CA
:1045E000990F6A95EAF720E031E0911108C0222383
:1045F00091F05A9A80E28A95F1F75A980895492FD6
:10460000482339F05A9A232740E24A95F1F79695C4
:10461000ECCF5A98F9CF5A98EDCFFF920F931F9392
:10462000CF93DF93EC018C01060F111DC017D1074A
:1046300029F4CDB7DEB7E5E00C94412DF9900E9446
:104640008E2268E08F2D0E94EC22F0CF1F920F92F5
:104650000FB60F9211240F931F932F933F934F93F5
:104660005F936F937F938F939F93AF93BF93EF93DA
:10467000FF93CF93DF930F92CDB7DEB719820E94DD
:104680008622CE0101960E949422082F0695069557
:104690000695282F22952570902F9570290F922F1F
:1046A000937026952695920F982797708981982B5D
:1046B00009F05CC0043008F059C080E18A95F1F738
:1046C0005A9A529A82E08A95F1F700C05A9888E087
:1046D000089F80011124D801A957BE4F1696ED916D
:1046E000FC9117973097A9F06091290870912A08DA
:1046F00014962D913C911597260F371F11968D9189
:104700009C911297680F791F13964C9113978C9177
:104710000995F801E957FE4F6381662351F0209116
:10472000290830912A0884819581820F931F0E9465
:104730000D230E948E2280E18A95F1F75A985298B3
:104740005A9A80E18A95F1F7F801E957FE4F6081A6
:10475000662351F02091290830912A0881819281A5
:10476000820F931F0E94C0220E9486220F90DF9129
:10477000CF91FF91EF91BF91AF919F918F917F91D9
:104780006F915F914F913F912F911F910F910F90DA
:104790000FBE0F901F9018950F931F93CF93DF9329
:1047A000EC0104970CF04CC0F894529A5A9885E0AA
:1047B0008A95F1F700009C2F969595708C2F857047
:1047C000980F892F83709695969523E0CC0FDD1F67
:1047D0002A95E1F7980F8E01092B0E948E2200C0C6
:1047E00068E0802F0E94EC2280E18A95F1F75298D0
:1047F0005A9A4A9B1EC087E090E04A991CC0FE016D
:10480000E957FE4F63816623F9F020912908309122
:104810002A0884819581820F931F0E94C0228111F2
:1048200013C0529A5A9A7894DF91CF911F910F91A9
:10483000089500C0DECF019729F4529A5A9A7894CD
:1048400080E0F2CF00C0D9CF0E94862280E28A9514
:10485000F1F75A98529A80E18A95F1F7C957DE4FDD
:104860006881662351F02091290830912A088981B6
:104870009A81820F931F0E940D230E948E227894AA
:1048800081E0D2CF90932D0880932C0808959093C7
:104890007F0980937E0908950E941813811103C037
:1048A000809179090895E0917E09F0917F09309710
:1048B00029F00190F081E02D0995089580E0089598
:1048C0000E944C240895E0917E09F0917F09309771
:1048D00021F00280F381E02D09950895E0917E0991
:1048E000F0917F09309739F022E0DC012C930480AD
:1048F000F581E02D0995089520917C0930917D097D
:104900002817390771F090937D0980937C09E09115
:104910007E09F0917F09309721F00680F781E02D24
:104920000995089520917A0930917B092817390754
:1049300071F090937B0980937A09E0917E09F09160
:104940007F09309721F00084F185E02D09950895C5
:104950009C012E5F3F4FAC01485F5F4F80E0241702
:10496000350709F40895F90191919F019923B9F34D
:104970008F5FF5CF662349F0FC01329608962191AE
:10498000261729F0E817F907D1F780E0089581E0AC
:1049900008959C01FC0132969FEF80E041914617FB
:1049A00051F09F3F19F4411101C0982F8F5F86305D
:1049B000A9F79F3F09F40895290F311D97FD3A95F6
:1049C000F90162830895FC0132960896219126131D
:1049D00003C0DF0111971C92E817F907B9F7089592
:1049E0000E94C92408950E94E3240895029626E0B7
:1049F000FC0111922A95E9F7089546E050E00E94E3
:104A0000632D21E0892B09F420E0822F0895089579
:104A10000E9407250895811106C081E080938009D6
:104A20000E940825089582E0F9CF83E080938009F1
:104A30000E94082508950E940B25089581E0809327
:104A400080090E94082508950E941E250895089552
:104A500008950E9428250895089508950E94272505
:104A60000895CF930E942C250E9499120E942D2513
:104A7000C0E08C2F0E947D11811105C0CF5FC8302E
:104A8000C1F7CF91089581E0FCCF85B7806885BFDD
:104A900085B7806885BF08951F921FB61F921124A5
:104AA0008F939F93AF93BF9380918109811113C01E
:104AB0008091AE099091AF09A091B009B091B10970
:104AC0004196A11DB11D8093AE099093AF09A093AB
:104AD000B009B093B109BF91AF919F918F911F9091
:104AE0001FBE1F9018958091B609843031F10E9445
:104AF000CE031092810988E190E020E40FB6F8948B
:104B0000A895809360000FBE2093600083B7817FDB
:104B1000846083BF83B7816083BF7894889583B7AF
:104B20008E7F83BF0FB6F894A8958091600088614E
:104B300080936000109260000FBE08950E943005BF
:104B40000E94D303089582E084BD93E095BD9AEF5F
:104B500097BD80936E0008952FB7F8948091AE09A9
:104B60009091AF09A091B009B091B1092FBF0895FC
:104B70002FB7F8946091AE097091AF098091B00998
:104B80009091B1092FBF08959C014FB7F89480917F
:104B9000AE099091AF09A091B009B091B1094FBF92
:104BA000821B930B0895CF92DF92EF92FF922FB763
:104BB000F894C090AE09D090AF09E090B009F090A1
:104BC000B1092FBFA7019601261B370B480B590BC4
:104BD000CA01B901FF90EF90DF90CF9008957894CB
:104BE0001F921FB61F9211248F939F93AF93BF9371
:104BF0008091AE099091AF09A091B009B091B1092F
:104C00000196A11DB11D8093AE099093AF09A093A9
:104C1000B009B093B109BF91AF919F918F911F904F
:104C20001FBE1F90189587E797E790930108809320
:104C3000000888E19AE00FB6F894A8958093600088
:104C40000FBE90936000FFCF88E19AE00FB6F89412
:104C5000A895809360000FBE90936000FFCF809175
:104C60008D09089508959C0182E08093E9009FEFEB
:104C70008091E800915085FD06C085ED8A95F1F799
:104C800000009111F5CF8091E80085FF0CC050E045
:104C900040E066E070E0C9010E9465288091E8006C
:104CA0008E778093E8000895CF93DF93EC0181E045
:104CB0008093E9008FEF9091E800815095FD06C048
:104CC00095ED9A95F1F700008111F5CF8091E800FC
:104CD00085FF14C050E040E068E070E0CE010E9423
:104CE00065288091E8008E778093E80088E0FE01D7
:104CF000A5E8B9E001900D928A95E1F7DF91CF9197
:104D00000895809382097093840960938309809148
:104D1000B609843001F582E08093E9008FEF90912D
:104D2000E800815095FD06C095ED9A95F1F70000D9
:104D30008111F5CF8091E80085FF0DC050E040E083
:104D400063E070E082E899E00E9465288091E800C5
:104D50008E778093E8000895BC0184E00E9481264C
:104D60000895BC0183E00E94812608958091B509D1
:104D7000811109C00E94F5290E94522A8091E20007
:104D800084608093E20008951092B50908950E940E
:104D90001E2508956091B20981E0611101C080E093
:104DA0000E94152508959091B60981E0943009F08C
:104DB00080E06091B2090E941B25089542E061ECF9
:104DC00081E00E94712942E261EC82E00E94712937
:104DD0009091B60981E0943009F080E06091B209C9
:104DE0000E940B2508958091B809833009F461C0B1
:104DF00030F48130D1F1823009F49EC008958A30B8
:104E000009F48AC08B3009F46FC0893009F050C0B2
:104E10008091B709813209F04BC08091BB09909114
:104E2000BC09029708F044C08091E800877F809316
:104E3000E8008091E80082FF37C09091F3008091F4
:104E4000F200029731F48091F100813011F0863048
:104E500021F48091F10080938D098091E8008B7797
:104E60008093E8000E94A52923C08091B709813A68
:104E7000F9F48091E800877F8093E8008091BB0976
:104E80009091BC09892B61F468E085E899E070E0B5
:104E90000E94B4288091E8008B778093E800089501
:104EA00060E090E080E0F3CF8091B6098111C1CF3E
:104EB00008958091B709813AD9F78091BB09909103
:104EC000BC09892BA9F78091E800877F8093E800CF
:104ED0008091E80080FFFCCF8091CF018093F100AA
:104EE0008091E8008E77BCCF8091B709813201F7BD
:104EF0008091BB099091BC09892BD1F68091E80083
:104F0000877F8093E8000E94A5298091B90980934A
:104F1000CF010E94300508958091B709813241F692
:104F20008091E800877F8093E8000E94A529809106
:104F3000BA0980938E0908958091B709813A09F0E2
:104F4000B7CF8091E800877F8093E8008091E800E8
:104F500080FFFCCF80918E09C1CF84B7877F84BF4B
:104F60000FB6F894A89580916000886180936000E6
:104F7000109260000FBE80E890E00FB6F894809326
:104F80006100909361000FBE0E94242508950E9445
:104F9000F5290E94522AE2EEF0E08081846080834D
:104FA00078940E94D12C089583EC91E00E944724CC
:104FB00008958091B609853031F48091B609853025
:104FC00019F00E949E2508950E9473258091B409CE
:104FD000882399F30E943125882379F30E944F2872
:104FE0000E943005EACF08950E94F7270895292FDF
:104FF00033272330310519F168F42130310509F4E4
:1050000044C02230310509F445C090E080E030E032
:1050100020E025C02132310549F122323105A9F7BE
:1050200080E490E026E933E061157105C1F08BE77B
:1050300090E02BE133E06130710589F0E6CF9927EC
:105040008130910581F0009729F00297F1F6E4EAAA
:10505000F2E002C0EAECF2E0849190E09F01FA01F4
:10506000318320830895E0ECF2E0F6CF89E090E010
:1050700020EE32E06115710591F389E090E029EFAF
:1050800032E06130710559F3C0CF82E190E029E050
:1050900033E0E5CF8BE390E02EEC32E0E0CF80E12F
:1050A00089BD82E189BD09B400FEFDCF8091D800A1
:1050B0008F7D8093D8008091E00082608093E00033
:1050C0008091E00081FDFCCF0895AF92BF92CF9216
:1050D000DF92FF920F931F93CF93DF936C01EB014D
:1050E0008A010E94C429F82E811123C001151105DF
:1050F00039F0F80180819181C81BD90BC80ED91EE7
:10510000B12CA12C2097A9F08091E80085FD22C048
:105110008091E8008E778093E80001151105A1F0D9
:10512000F80180819181A80EB91EB182A08285E02C
:10513000F82E8F2DDF91CF911F910F91FF90DF906F
:10514000CF90BF90AF9008950E94C4298823D1F2D8
:10515000F82EEFCFF60181916F018093F100219736
:10516000FFEFAF1ABF0ACECFFC018091BD0990912D
:10517000BE0986179707A0F06115710529F4909173
:10518000E8009E779093E80090E06115710551F476
:10519000911108C08091E80082FF34C080E008953A
:1051A000BC01F2CF8091B6098823C1F18530C1F1ED
:1051B0008091E80083FD30C08091E80082FDEACF55
:1051C0008091E80080FFE1CF8091F3002091F20010
:1051D000382F6115710519F02830310558F091E02C
:1051E0002830310509F090E02091E8002E772093D7
:1051F000E800CBCF81918093F100615071092F5F5E
:105200003F4FE7CF8091B609882341F0853041F0C8
:105210008091E80083FFBECF81E0089582E0089589
:1052200083E00895FC018091BD099091BE09861725
:105230009707A0F06115710529F48091E8008E7739
:105240008093E80090E06115710551F4911108C058
:105250008091E80082FF35C080E00895BC01F2CF64
:105260008091B6098823C9F18530C9F18091E800A1
:1052700083FD31C08091E80082FDEACF8091E80093
:1052800080FFE1CF8091F3002091F200382F61156B
:10529000710519F02830310558F091E028303105BA
:1052A00009F090E08091E8008E778093E800CBCF02
:1052B00084918093F1003196615071092F5F3F4FC7
:1052C000E6CF8091B609882341F0853041F0809186
:1052D000E80083FFBDCF81E0089582E0089583E078
:1052E0000895982F973028F08F708093E90081E01F
:1052F00008959093E900242F762F50E0981731F00D
:105300007091EC002091ED005091F00021FD02C061
:105310009F5FE8CF3091EB003E7F3093EB00309100
:10532000ED003D7F3093ED003091EB003160309324
:10533000EB007093EC002093ED005093F00020916F
:10534000EE0027FDE5CF80E008958091B70987FF43
:1053500013C08091E80082FF06C08091E8008B773F
:105360008093E80004C08091B6098111F2CF0895BE
:105370008091B6098823D9F38091E80080FFF8CFA7
:105380008091E8008E77ECCF2091E4003091E50029
:1053900095E6A9012091EC00822F817020FF06C0C4
:1053A0008091E80080FF06C080E008952091E80029
:1053B00022FD1AC08091B609882389F0853089F0D2
:1053C0008091EB0085FD0FC02091E4003091E50055
:1053D00042175307F9F29150E1F684E0089582E014
:1053E000089583E0089581E008950E94642A0E9450
:1053F0006C2AE0EEF0E0808181608083E8EDF0E0EF
:1054000080818F77808319BCA7EDB0E08C918E7F6F
:105410008C9380818F7E80831092B50908950F93BD
:105420001F93CF93DF930E94642A0E946C2AC8EDD9
:10543000D0E088818F77888388818068888388819D
:105440008F7D888319BC1092B6091092B209109210
:10545000B4091092B30900EE10E0F80180818B7F4F
:10546000808388818160888342E060E080E00E94E0
:105470007129E1EEF0E080818E7F8083E2EEF0E042
:10548000808181608083808188608083F801808151
:105490008E7F8083888180618883DF91CF911F9187
:1054A0000F910895E8EDF0E080818F7E8083E7ED35
:1054B000F0E080818160808384E082BF81E080931E
:1054C000B5090E940F2A0895E8EDF0E080818E7FF3
:1054D00080831092E20008951092DA001092E100A9
:1054E00008951F920F920FB60F9211242F933F939E
:1054F0004F935F936F937F938F939F93AF93BF93DC
:10550000EF93FF938091E10082FF0BC08091E20056
:1055100082FF07C08091E1008B7F8093E1000E94B1
:10552000D02C8091DA0080FF19C08091D80080FFD4
:1055300015C08091DA008E7F8093DA008091D900C7
:1055400080FF96C080E189BD82E189BD09B400FE7B
:10555000FDCF81E08093B6090E94B6268091E100DC
:1055600080FF19C08091E20080FF15C08091E200A9
:105570008E7F8093E2008091E20080618093E20060
:105580008091D80080628093D80019BC85E0809318
:10559000B6090E94CA268091E10084FF2BC0809149
:1055A000E20084FF27C080E189BD82E189BD89B521
:1055B000982F917080FFFBCF8091D8008F7D8093D2
:1055C000D8008091E1008F7E8093E1008091E2001D
:1055D0008F7E8093E2008091E20081608093E20000
:1055E0008091B209882309F449C084E08093B60908
:1055F0000E94D3268091E10083FF29C08091E200C0
:1056000083FF25C08091E100877F8093E10082E0E5
:105610008093B6091092B2098091E1008E7F809349
:10562000E1008091E2008E7F8093E2008091E200B1
:1056300080618093E20042E060E080E00E94712996
:105640008091F00088608093F0000E94C726FF914F
:10565000EF91BF91AF919F918F917F916F915F91EA
:105660004F913F912F910F900FBE0F901F90189563
:1056700019BC1092B6090E94C42670CF8091E30035
:1056800087FD93E09093B609B3CF1F920F920FB6A8
:105690000F9211242F933F934F935F936F937F93B8
:1056A0008F939F93AF93BF93CF93DF93EF93FF932A
:1056B000D091E900DF708091EC00C82FC17080FDAF
:1056C000C0E81092E9008091F000877F8093F0009D
:1056D00078940E94892B1092E9008091F0008860F4
:1056E0008093F000CD2BCF70C093E900FF91EF9134
:1056F000DF91CF91BF91AF919F918F917F916F91EA
:105700005F914F913F912F910F900FBE0F901F907F
:105710001895AAE2B0E0EFE8FBE20C94272D87EBA6
:1057200099E02091F100FC012193CF01F9E08F3B3A
:105730009F07B9F70E94F3268091E80083FF1EC1FE
:105740008091B7099091B8099A3008F017C1E92FF4
:10575000F0E0E753F24D0C94122D803899F0823826
:1057600009F00CC18091BB098F70873008F006C129
:105770008093E9008091EB0085FB882780F91092E7
:10578000E90006C08091B3099091B409911182603B
:105790009091E800977F9093E8008093F100109239
:1057A000F1008091E8008E77E5C0882309F4D3C02A
:1057B000823009F0E3C08091B9098111D6C080918F
:1057C000BB098F702FEF280F263008F0D7C08093C9
:1057D000E9002091EB0020FFC8C0933031F48091A4
:1057E000EB0080628093EB00C0C09091EB00906171
:1057F0009093EB0021E030E001C0220F8A95EAF798
:105800002093EA001092EA008091EB008860EACFD2
:105810008111B4C01091B9091F778091E30080789D
:10582000812B8093E3008091E800877F8093E800DC
:105830000E94A5298091E80080FFFCCF8091E300C1
:1058400080688093E30082E0111183E08093B609C1
:1058500095C08058823008F091C08091B90990912C
:10586000BA098C3D23E09207A1F583E08A838AE29E
:1058700089834FB7F894DE01139620E03EE051E2B1
:10588000E32FF0E050935700E49120FF03C0E2952E
:10589000EF703F5FEF708E2F90E0EA30C0F0C79658
:1058A0008D939D932F5F243159F74FBF8091E8006E
:1058B000877F8093E8006AE270E0CE0101960E9443
:1058C000B4288091E8008B778093E80057C0C09699
:1058D000E7CF6091BB097091BC09AE014F5F5F4F8C
:1058E0000E94F427BC01892B09F448C09091E8007C
:1058F000977F9093E80089819A810E941229E1CFD5
:105900008038E1F58091E800877F8093E8008091FE
:10591000B2098093F10045CF811130C09091B9094F
:10592000923060F58091E800877F8093E800909343
:10593000B2090E94A5298091B209882311F084E060
:1059400005C08091E30087FDFACF81E08093B6091E
:105950000E94DE2613C08091B909813079F481E07C
:10596000933009F080E08093B4091092E9008091AF
:10597000E800877F8093E8000E94A5298091E800D5
:1059800083FF0AC08091E800877F8093E8008091C0
:10599000EB0080628093EB00AA96E3E00C94432D29
:1059A0000895CF938091B6098823A1F0C091E900B2
:1059B000CF709091EC00892F817090FD80E8C82B0A
:1059C0001092E9008091E80083FD0E94892BCF703E
:1059D000C093E900CF9108950E94F5291092B6096D
:1059E0000895E8EDF0E08081806180838AE18A9506
:1059F000F1F700C08091D9008170089597FB072EC0
:105A000016F4009407D077FD09D00E944F2D07FCB3
:105A100005D03EF4909581959F4F089570956195BE
:105A20007F4F0895EE0FFF1F0590F491E02D09942C
:105A30002F923F924F925F926F927F928F929F929E
:105A4000AF92BF92CF92DF92EF92FF920F931F938C
:105A5000CF93DF93CDB7DEB7CA1BDB0B0FB6F8943D
:105A6000DEBF0FBECDBF09942A88398848885F847D
:105A70006E847D848C849B84AA84B984C884DF80EE
:105A8000EE80FD800C811B81AA81B981CE0FD11DD2
:105A90000FB6F894DEBF0FBECDBFED010895AA1B6F
:105AA000BB1B51E107C0AA1FBB1FA617B70710F009
:105AB000A61BB70B881F991F5A95A9F7809590953B
:105AC000BC01CD010895FB01DC0104C08D91019062
:105AD000801921F441505040C8F7881B990B089554
