:100000000C94E9010C9406020C9406020C94BE2296
:100010000C9406020C9406020C9406020C94060240
:100020000C9406020C9406020C94092A0C94DD2A06
:100030000C94E4240C9406020C9406020C94060220
:100040000C9406020C9406020C9406020C94060210
:100050000C9406020C9487250C9406020C9406025C
:100060000C9406020C9406020C9406020C940602F0
:100070000C9406020C9406020C9406020C940602E0
:100080000C9406020C9406020C9406020C940602D0
:100090000C9406020C9406020C9406020C940602C0
:1000A0000C9406020C9406020C94060214001A002A
:1000B000090013000A0004001500160017000700CD
:1000C0001D001B000600190005000057E10000009C
:1000D000000000000D000F0018001C002A000B009B
:1000E000110008000C0012000E001000360037004E
:1000F00034002C00B45D0000000000002900220242
:100100001F02230231022B0037003600380025027F
:10011000E2003C003A003B0035000057E1000000DF
:10012000000000002D002400250026002A002E02D9
:1001300021002200230028002E001E001F002000A6
:1001400027002C000100000000000000290021020F
:100150002002250224022B00360226022F022F0045
:10016000E20043004400450035000057E100000074
:10017000000000004A00500152004F012A004D00CB
:10018000500051004F0028002E0256002D022E0074
:1001900038002C0001000000000000002900FB00D6
:1001A000F900FC00A9002B00FF00FA00FE00AE00E1
:1001B000E000E300E20046004800B35DE10000001B
:1001C00000000000F5005000ED004F002A00F40090
:1001D000EF00EE00F0002800E600E7004700E40032
:1001E000B25DF100F20000000000000036003700B0
:1001F00000000000000000002A2B28000000000082
:1002000000000000000000000000002900000000C5
:100210002C1E3420212224342627252E362D373833
:10022000271E1F202122232425263333362E37383C
:100230001F0405060708090A0B0C0D0E0F101112FA
:10024000131415161718191A1B1C1D2F3130232DC6
:10025000350405060708090A0B0C0D0E0F101112C4
:10026000131415161718191A1B1C1D2F3130354C75
:10027000000000000000000000000000000000007E
:10028000000000000000000000000000000000006E
:10029000000000007E0F00D4FFFFFFC700000078C1
:1002A0001A034600650072007200690073002000A6
:1002B00073007700650065007000000008034400CB
:1002C0005000420000000403090409023B0002013F
:1002D00000A0FA0904000001030101000921110135
:1002E0000001224000070581030800010904010004
:1002F0000103000000092111010001227B00070514
:1003000082032000011201000200000008ABC23984
:100310003901000102000105010902A1018502095C
:1003200001A1000509190129081500250195087585
:100330000181020501093009311581257F9502757A
:1003400008810609381581257F9501750881060504
:100350000C0A38021581257F950175088106C0C0F9
:1003600005010980A101850319012AB7001501269D
:10037000B700950175108100C0050C0901A1018528
:100380000419012AA002150126A002950175108109
:1003900000C005010906A101050719E029E71500BC
:1003A00025019508750181029501750881010507F0
:1003B000190029FF150026FF009506750881000524
:1003C000081901290595057501910295017503919B
:1003D00001C011241FBECFEFDAE0DEBFCDBF14E0B5
:1003E000A0E0B1E0E6EDFAE502C005900D92A03084
:1003F000B107D9F725E0A0E0B4E001C01D92A13912
:10040000B207E1F70E9429150C94532D0C940000BB
:10041000CF93DF93EB01833B2DE5920709F44AC0AC
:10042000843B2DE59207B1F0823B9D4509F051C018
:100430008A81811105C0C0E08C2FDF91CF91089592
:100440000E94560C8272B9F3BE0181E09DE50E94C4
:100450004418F1CFCA81CC23E1F00E94560C82727D
:1004600061F084EB0E94B20482EF0E94B2040E9409
:10047000690C83E00E942E08DECF0E94560C817129
:1004800031F081E00E942E080E94690CD4CF82E0F6
:10049000F9CF81E00E941A08882319F081E00E94B8
:1004A0003E0882E00E941A08882329F282E00E9416
:1004B0003E08C2CF8A81882361F083E00E943E0813
:1004C00081E00E943E0882E00E943E0880EE0E9489
:1004D0006604888181110BC08981833041F4CA810F
:1004E000C111AACF80EE0E94B2040E94690CC1E043
:1004F000A3CF9C013A9521153F4150F5FC01EE2711
:10050000F170BC0166277270AC01442754709C01E5
:100510002227387094FF0EC080E1EF2B09F480E0B1
:10052000672B09F08062452B09F08064232B89F04A
:100530008068089581E0EF2B09F480E0672B09F0D3
:100540008260452B09F08460232B19F088600895A0
:1005500080E00895CF93DF93EB010E947902FE01C2
:100560000995DF91CF910895CF93DF93EC01805EE1
:100570009109089720F064E577E0209711F465E091
:1005800075E0CE010E94AA028C2F0E946604DF91C2
:10059000CF910895CF93DF93EC010E94B204CE0176
:1005A000805E9109089720F06BE577E0209711F4C1
:1005B0006CE075E0CE010E94AA02DF91CF91089510
:1005C0000F931F93CF93DF938C01EB010E94B40232
:1005D000209741F4C8010E94CA02DF91CF911F9178
:1005E0000F9108958FE99FE00197F1F700C0000097
:1005F0002197EECF70E060E08933910511F460E55A
:1006000070E00E94E002089581E008950E940802CF
:10061000089508950E9409030895A5E0B0E0E3E17C
:10062000F3E00C94BF2C49835A83309107048981ED
:100630009A81311119C0662399F0222389F00E9412
:10064000F408182F682F89819A810E94D008698147
:100650007A81812F0E94EB0F2596E3E00C94DB2C2E
:100660000E94E208182FF3CF0E94F40869817A8172
:10067000F1CFFC01262F86819781009739F44081C4
:1006800051816281738184810E940D030895CF930B
:10069000DF93EC0161E00E943903BE010E94CC1B94
:1006A000DF91CF910895CF93DF93EC0160E00E943A
:1006B0003903BE010E940A03DF91CF9108950E9481
:1006C000781108950E947C11089508950E9478077A
:1006D0000E9465032FEF84E39CE02150804090400E
:1006E000E1F700C0000008950E9466030E94AB2558
:1006F00008950E9466030E94BC2508950F931F93DE
:10070000CF93DF938C0161E00E943903EC01B801C3
:100710000E948221B801CE010E940603811106C009
:1007200080E0DF91CF911F910F910895B801CE0124
:100730000E94B71E8823A1F3B801CE010E94A32115
:10074000882371F3B801CE010E940918882341F370
:10075000B801CE010E94CA20882311F3B801CE014E
:100760000E9444188823E1F2B801CE010E94721D54
:100770008823B1F2F8018281882361F0CB35FDE551
:10078000DF0701F158F4C115ECE5DE0791F0CF3D2C
:10079000DC4591F0C8010E940403C3CFCD358DE53F
:1007A000D80769F090F0C83ADD45A1F70E947903B7
:1007B000B7CF0E947403B4CF0E94130EF7CF0E94EC
:1007C000510DE8CF0E945B0DE5CF0E945F0DE2CF97
:1007D0000E94C1240E94050408950E9409040E94F9
:1007E000C624089508950E94F203089581E00895B3
:1007F0000E94F60308950895CF93C82F0E94F30333
:100800008C2F0E94F803CF91089580E00E94FC0392
:1008100008950E94E4230E94FC030895CF930E9450
:10082000E423C82F809102048C1779F0C09302044E
:100830000E94502560930304709304048093050480
:10084000909306048C2F0E94FC03CF910895ADE095
:10085000B0E0EDE2F4E00C94C02C49875A876B8736
:100860007C878D8761110E947C0C1D821E821F82F5
:10087000188685E0FE013996DE01119601900D92F1
:100880008A95E1F78C819D81892B71F429813A81C8
:100890004B815C816D817E818F8198850E94940B54
:1008A0002D96E2E00C94DC2C89819A8189238F3F7C
:1008B00069F3CE0101960E9447038111E7CFF0CF83
:1008C000FC01808191810E9426090895CF93C82F51
:1008D0008823B9F08CEF8C0F813AA8F46C2F8091AB
:1008E0005701909158010E945224882329F08C2F9F
:1008F0000E94330C0E94A90C8C2F0E942B0C0E948A
:10090000A90CCF91089580E28C0F883048F4C7700D
:1009100081E001C0880FCA95EAF70E94590CEFCF19
:10092000EBE5EC0FE33040F4F0E0E753FC4F80815F
:1009300090E00E941424E5CFE8E5EC0FE73150F495
:10094000F0E0EE0FFF1FE556FC4F808191810E9481
:100950002A24D7CFCD3EA8F28C2F0E94AD150E943D
:100960006116CFCF882379F19CEF980F913A28F444
:100970000E94330C0E94A90C089590E2980F9830C1
:1009800050F4877091E001C0990F8A95EAF7892F9A
:100990000E945F0CEFCF9BE5980F933028F490E016
:1009A00080E00E941424089598E5980F973128F468
:1009B00090E080E00E942A2408958D3E20F00E945D
:1009C00001160E94611608951F93CF93DF93182F8D
:1009D000EB010E946604209739F4812F0E94B20433
:1009E000DF91CF911F9108958FE99FE00197F1F773
:1009F00000C000002197EFCF70E060E0893311F470
:100A000060E570E00E94E4040895882321F00E94CC
:100A1000590C0E94A90C0895882321F00E945F0CB4
:100A20000E94A90C0895B0E0A0E0E9E1F5E00C9483
:100A3000B92C6C01D62FC72FFC011281F580F294DE
:100A40009FE0F9220E944F0CE82E8823B9F0E12E96
:100A50001123A1F08C2F807F803421F080E28D0F54
:100A60008830D0F08091660582FF16C082E00E9437
:100A7000200D0E944F0C91E0E82EE926BC2EB29486
:100A80008FE0B822FBE0FB1508F468C0EB2DF0E026
:100A9000EB5AF24D0C94AA2CE12CF0CF0C2F0F70D6
:100AA000C07F11F00295007F112399F0002359F0C7
:100AB00080E28D0F883010F0D11107C0802F0E9486
:100AC000590C0E94A90C8D2F41C0802F0E946F0CE1
:100AD000F8CF8D2F0E94B204002309F43FC080E2BA
:100AE0008D0F883010F0D11104C0802F0E945F0C50
:100AF00003C0802F0E94750C0E94A90C2FC00C2FE0
:100B00000F70C07FC03211F00295007FDD2381F0AD
:100B1000D13009F463C0112309F46DC0FF2009F43A
:100B200063C0F601858180FFCECF8F7085835CC066
:100B30008091660582FD33C0112359F0002329F00E
:100B4000802F0E94590C0E94A90C80E00E9466042C
:100B500005C080E00E94B2040111C7CFEB2DE85020
:100B6000FF0B349720F40E94E4230E94FC03EE2044
:100B700089F00E944B0C80FD0DC0F60112820E948C
:100B8000450C0E942E08C6010E942A070E94450CAF
:100B90000E943E08CDB7DEB7E9E00C94D52C1123B6
:100BA00089F0F11006C00E948B0C802B0E94050575
:100BB000D5CF21E0F212F7CF0E948B0C802B0E9440
:100BC000920CCCCFF11006C00E949F0C802F0E9487
:100BD0000C05C4CF31E0F31609F2F6CF112331F042
:100BE00085E08F1508F4BACF802FE0CF94E09F15F1
:100BF00008F4B4CFEBCFFF2049F3D93349F4FFEF2A
:100C000027EE33E0F15020403040E1F700C0000013
:100C10008D2F0E94B204A2CF8C2F8695869583706B
:100C200069F0813009F09ACF8D2F9C2F93701111AC
:100C300002C090E080E00E942A2490CF8D2F9C2F4C
:100C40009370111102C090E080E00E94142486CFBE
:100C50008D2F112329F00E94AD150E9461167ECFC1
:100C60000E940116FACF8C2F8370A1F5111176CF57
:100C70004D2F429546954770440F440F2D2F2F70EE
:100C800030E0042E02C0220F331F0A94E2F790E0F6
:100C900080E0D4FF09C08FE090E002C0880F991F68
:100CA0004A95E2F780959095C695C695C370822BBC
:100CB000932BC23049F058F4C13019F00E94E0077C
:100CC0004DCF0E94D7074ACF0E94E90747CF0E9425
:100CD000D40744CF8695112311F08C2F817088237F
:100CE00009F43CCF4D2F429546954770440F440F71
:100CF0002D2F2F7030E0042E02C0220F331F0A94D4
:100D0000E2F790E080E0D4FF09C08FE090E002C0FD
:100D1000880F991F4A95E2F780959095C695C695DC
:100D2000C370822B932BC23049F058F4C13019F0B4
:100D30000E94690813CF0E94600810CF0E947208B9
:100D40000DCF0E94F8070ACFCF70112329F08C2F06
:100D50000E942E088D2F2ACF8D2F0E940C058C2FDC
:100D60000E943E08FBCED23F51F160F4D03FB9F073
:100D7000D13F81F0112309F449C0F110A4CE8C2F8A
:100D80008F7121C0D33F11F1D43FA1F78091660547
:100D900082FD26C08C2F8F71112311F314C01123F3
:100DA00049F084E08F1508F4D9CE8C2F8F710E9402
:100DB0005008D4CE95E09F1508F4D0CEF6CF8C2FF6
:100DC0008F711111CDCF0E942E08C8CE112329F0AA
:100DD0008C2F8F710E942208C1CE0E940108BECEC6
:100DE000112349F0CF718C2F0E942E0863E08C2FC5
:100DF0000E94020DB3CE81E00E94200DE1E0EF15CC
:100E000008F0ACCE82E00E94200DA8CEF110F5CE05
:100E10008C2F8F71A5CF0F931F93CF93DF93EC018E
:100E20008E819F81009781F00E94FA0E8C010E94B2
:100E30007B080E94D307B801CE010E941305DF9101
:100E4000CF911F910F910895688179818A810E94C5
:100E50003109ECCFCF93DF93EC018B819C81892BFF
:100E600029F08881998189238F3F51F4DF91CF91B7
:100E70000895CE010E940B07CE010E945303F6CFC6
:100E8000CE010E947E038111F4CF0E944F0C882373
:100E900069F38A81882351F38091660582FFE6CF4A
:100EA00082E00E94200DE2CF882321F00E946F0C87
:100EB0000E94A90C0895882321F00E94750C0E94BD
:100EC000A90C089590E080E00E94142490E080E056
:100ED0000E942A240E947C0C0E94A90C0E947D166C
:100EE0000E94611608950E943B0C0E9462070895BB
:100EF0000E94690C0E947307089592959F70963026
:100F000091F058F4925F9F70923058F4803F19F03E
:100F100030F4883E30F481E008959A5FF4CF843F46
:100F2000D1F380E00895883EB0F3813FD1F7F3CF4D
:100F3000FC0183819481892B29F08081918189230F
:100F40008F3F39F480E008950E94FA0E0E947D07D9
:100F50000895868197810097B9F7808191810E94D9
:100F60002609F4CFA5E0B0E0E8EBF7E00C94C02C44
:100F70002596E2E00C94DC2CA8E0B0E0E2ECF7E08F
:100F80000C94C02C2896E2E00C94DC2C08950E946E
:100F9000C60708950E94C70790931F0480931E04FC
:100FA0000E946207089508950E94CA07089520913B
:100FB0001E0430911F04822B932B0E94CA070895B0
:100FC00020911E0430911F04822393230E94CA079C
:100FD000089520911E0430911F04822793270E94B8
:100FE000CA0708950E94C60708950E94F20708954F
:100FF0000E94F50790931D0480931C040E946207D1
:10100000089590E080E00E94F8070895009729F481
:1010100081E0662371F080E00CC021E030E002C086
:10102000220F331F6A95E2F72823392381E0232B0F
:1010300091F30895682F80911C0490911D040E94E3
:101040000608089521E030E0A90102C0440F551FB1
:101050008A95E2F7CA010E94F807089521E030E07E
:1010600002C0220F331F8A95E2F780911C049091F1
:101070001D04822B932B0E94F807089521E030E095
:1010800002C0220F331F8A95E2F720953095809198
:101090001C0490911D04822393230E94F807089555
:1010A00021E030E002C0220F331F8A95E2F78091E1
:1010B0001C0490911D04822793270E94F80708952D
:1010C00020911C0430911D04822B932B0E94F80761
:1010D000089520911C0430911D04822393230E94C3
:1010E000F807089520911C0430911D04822793274E
:1010F0000E94F80708950895262F277091E001C0F7
:10110000990F2A95EAF723E0769567952A95E1F7F6
:10111000660F771F660F771FFA01E60FF71F50E083
:1011200040E0682F70E08191DF0111979B01042E50
:1011300002C0369527950A94E2F721702195282759
:10114000292328272C934F5F5F4F4430510559F7CF
:101150000895A82FA77023E0969587952A95E1F723
:10116000880F991F880F991FFB01E80FF91F50E0A6
:1011700040E080E0219130E00A2E02C036952795AC
:101180000A94E2F721703327042E01C0220F0A943B
:10119000EAF7822B4F5F5F4F4430510559F70895AE
:1011A000262F983070F4853060F4682F70E085E069
:1011B000989F600D711D112448E054E0822F0E9419
:1011C0007C080895292F983068F4853058F490E011
:1011D00068E074E035E0239F800D911D11240E948A
:1011E000A908089580E00895B0E0A0E0EAEFF8E0F3
:1011F0000C94B92C7C0100911C0410911D04809169
:101200001E0490911F04082B192BCFE0D0E0CC24B2
:10121000C394D12CBC2EC6010C2E02C0880F991F7E
:101220000A94E2F780239123892B49F4219790F7C0
:10123000B12C8B2DCDB7DEB7E9E00C94D52CB701DE
:101240008C2F0E940610019789F3F3CFCF93DF9381
:10125000EC010E94F408BE010E940610DF91CF91BC
:1012600008951F93CF93DF93EB0190910704992387
:1012700039F0CB010E942609DF91CF911F9108958B
:10128000882369F0CB010E94F408182F682FCE0143
:101290000E94D008BE01812F0E940610EDCFCB0125
:1012A0000E94E208182FF6CFCF93DF93C09120045D
:1012B000809121048C1303C0DF91CF910895D0E079
:1012C000FE0183E0EE0FFF1F8A95E1F7EE5DFB4F15
:1012D000208131814281538164817581868197812A
:1012E0000E94BC072196C770E3CF20916204309121
:1012F00063044091640450916504609166047091A8
:10130000670480916804909169040E94BC07089565
:10131000CF93DF9380916704807F09F049C080916B
:101320006404882309F444C080912004C0912104FE
:101330006091620470916304A0916504B0916604A9
:10134000D62FD723C817A1F190E0109711F0DF3FF7
:1013500019F401968770F6CF9C0143E0220F331FEA
:101360004A95E1F7F901EE5DFB4F41814713F1CF5B
:1013700040814613EECF42814111EBCF438154812E
:101380004A1B5B0B4A3F510520F7809167048F7021
:10139000806180936704F901E95DFB4F80818F7064
:1013A0008061808382E694E00E942A070E945409AB
:1013B000DF91CF910895A5E1B0E0E1EEF9E00C9462
:1013C000B82C8C0185E0F801DE01519601900D9258
:1013D0008A95E1F7F801E28042E6C42E44E0D42E7B
:1013E00060916504709166046115710509F480C10E
:1013F0009091620420916304892F82238F3F09F426
:1014000077C140815181A380B480F0906404F501DC
:10141000E61BF70BFF2009F420C180916704382FE9
:10142000307FEA3FF10508F0CAC0311177C0FE2CC9
:10143000251320C094131EC0609168047091690444
:10144000F8012681378162177307A1F4E11012C0F9
:101450008F708061809367040E947509C6010E94A5
:101460002A0780916704F80185838F2D6596EAE04D
:101470000C94D42CA114B10429F0842F85238F3F20
:1014800009F04FC180E0F82FF170DF2E80FF3CC0E3
:101490008091200420912104821315C0498B5A8B1E
:1014A00089899A890E942609292F22952F70223036
:1014B000F8F0243020F59F70F9F0F8019581907FC5
:1014C000D9F4D12C1FC090E0FC0133E0EE0FFF1FD8
:1014D0003A95E1F7EE5DFB4F3181351306C030815F
:1014E000341303C032813E110FC001968770D4CFF0
:1014F0009F7011F0882329F3805E883010F3C801B3
:101500000E942A07FD2CB1CFEE2009F4AECF8091C6
:101510006704816080936704F12CA7CF25131DC059
:1015200094131BC04091680450916904F80126810E
:1015300037814217530789F4E1100FC08583C80132
:101540000E942A0788E0F801A2E6B4E001900D921B
:101550008A95E1F70E94750988CFC8010E94980713
:10156000882349F1EE2039F1809167048032A0F0A0
:1015700020916204309163043A8729871B86BD86D7
:10158000AC868E878091680490916904988B8F87D0
:10159000CE0109960E942A0788E0F801A2E6B4E08D
:1015A00001900D928A95E1F70E9488090E947509C1
:1015B000FF24F3945ACFC8010E942A07F9CF3111B2
:1015C00013C07A2DBD8AAC8A6E2D8D890E94B20718
:1015D00082E694E00E942A0788E0F60111928A953B
:1015E000E9F70E94750998CF251318C0941316C007
:1015F0004091680450916904F801268137814217AF
:10160000530761F4E1100AC08583C8010E942A07CC
:1016100088E0F60111928A95E9F727CFC8010E9468
:101620009807882341F2EE2031F2809167048032DE
:1016300008F4B2CF20916204309163043A83298385
:101640001B82BD82AC828E83809168049091690474
:1016500098878F83CE0101969DCFEA3FF105D8F59B
:10166000FE2CEE2009F4A7CF251327C0941325C024
:101670002091680430916904F801868197812817C8
:101680003907D9F49091670490FD0EC0907F61F006
:10169000809167048583903F09F451CF982F907F04
:1016A000905F8F70892B4ACF88E0F801A2E6B4E002
:1016B00001900D928A95E1F7D8CEC8010E94980753
:1016C00081116ACF80916704816080936704C801AB
:1016D0000E942A07CACE7A2DBD8AAC8A6E2D8D89CA
:1016E0000E94B20788E0F60111928A95E9F732CF9D
:1016F000EE2009F460CFC8010E949807F82E8823D5
:1017000009F459CF88E0F801A2E6B4E001900D9207
:101710008A95E1F782E694E00E9460040E948809BD
:1017200019CF81E08E25AFCEA0E1B0E0EAE9FBE081
:101730000C94C02C29873A874B875C876D877E87FE
:101740008F87988BCE0109960E94DB098823A9F028
:101750008C859D85892B39F029853A85822F8323B5
:101760008F3F09F06FC0809120049091210489136C
:1017700043C06096E2E00C94DC2C88E0FE013996D0
:10178000DE01119601900D928A95E1F78C859D8579
:10179000892B49F389859A8589238F3F21F3A0916D
:1017A0002104B0E0CD010196877099272091200493
:1017B0002817190671F40E947807109221041092DC
:1017C000200488E0E2E6F4E0DF011D928A95E9F763
:1017D000CACF93E0AA0FBB1F9A95E1F7AE5DBB4F4E
:1017E00098E0FE01319601900D929A95E1F7809371
:1017F00021040E945409B7CFB8E08B9FC001112487
:101800008E5D9B4F0E94DB09882309F4B2CFE091E3
:10181000200428E0E29FF0011124EE5DFB4F2081BF
:1018200031814281538164817581868197810E94D3
:10183000BC078091200490E00196877099278093DF
:10184000200491CF4B855C856D857E858F85988939
:101850000E94BC0788CF682F809157019091580152
:101860000E9488240895682F809157019091580113
:101870000E948B24089580915701909158010E94F5
:101880008E24089580917304089580917204859543
:10189000859585950895809172048770089590913B
:1018A0007204977081E009F480E0089580918004CB
:1018B000089590918004892B8093800408958095E9
:1018C00090918004982390938004089580938004DD
:1018D000089510928004089580917F040895909156
:1018E0007F04892B80937F040895809590917F04D5
:1018F000982390937F04089510927F040895809315
:101900007E04089510927E04089580937D040895C6
:1019100010927D04089580917404089508950E94A2
:101920008E0C08959091660592FF08C09091740402
:10193000981721F0809374040E948F0C0895809171
:101940007404882329F01092740480E00E948F0CA4
:101950000895CF93DF93E0915701F0915801809162
:1019600080048083E0915701F0915801808190912B
:101970007F04892B808390917404992381F0E091F6
:101980005701F09158018081892B80838091570104
:10199000909158010E94402481110E949F0CE09177
:1019A0005701F091580180917D04982F9095808186
:1019B00089238083E0915701F091580180819091B3
:1019C0007E04892B8083C0915701D091580148E053
:1019D00050E06AE674E0CE010E94FB2C892B59F09E
:1019E00088E0FE01AAE6B4E001900D928A95E1F745
:1019F000CE010E94FB23DF91CF91089508950E94AC
:101A0000FE0C08959091660592FF11C098E0899FA1
:101A100090011124622B609372040E942E08809121
:101A200072048595859585950E94FF0C08950E9406
:101A30002E0808951092720480E00E94FF0C089511
:101A4000909172048095892380937204282F2770C7
:101A500091F4282F082E000C330B9217130659F01F
:101A60009091660592FF07C08595859585950E94A2
:101A70003E080E941A0D08959091660592FB222758
:101A800020F9281769F080FB92F990936605809100
:101A90006505909166050E948D0D82E00E94200DE3
:101AA00008958091660582FB882780F991E0892757
:101AB0000E943C0D089581E00E943C0D089580E055
:101AC0000E943C0D08956FEF7FEF90E080E00E9450
:101AD0003D2D089590E080E00E94192D21E0883E80
:101AE0009E4F09F020E0822F089582E090E00E944E
:101AF000112D089583E090E00E94112D0895CF9359
:101B000084E090E00E94112DC82F82E290E00E94B4
:101B1000112D982F8C2FCF910895CF93C92F682F17
:101B200084E090E00E941F2D6C2F82E290E00E94E2
:101B30001F2DCF910895AB01BC018FE090E00E9472
:101B4000312D0895AB01BC0183E190E00E94312D5D
:101B5000089560E070E0CB010E94A20D089560E05E
:101B600070E0CB010E949B0D0E94A90D089568EEC4
:101B70007EEF90E080E00E943D2D60E082E090E00A
:101B80000E941F2D60E083E090E00E941F2D1092C4
:101B90001F0410921E0460E084E090E00E941F2D5C
:101BA00064E082E290E00E941F2D60E085E090E01A
:101BB0000E941F2D60E086E090E00E941F2D6FEFD5
:101BC00087E090E00E941F2D40E050E0BA0188E0DD
:101BD00090E00E94312D60E08DE090E00E941F2D8A
:101BE00040E050E0BA0188E190E00E94312D60E0D1
:101BF00087E190E00E941F2D40E050E0BA018CE1A7
:101C000090E00E94312D70E060E080E290E00E9460
:101C10003D2D40E050E0BA0188E190E00E94312D76
:101C20000E94AF0D08950E94B70D08958EE090E0D8
:101C30000E94112D91E0811101C090E0892F08953B
:101C4000682F8EE090E00E941F2D08950E9450257D
:101C500060938F0470939004809391049093920406
:101C600060938B0470938C0480938D0490938E0406
:101C70000895089508950E943A0E089508950E94C7
:101C80003E0E089580E391E10E94DA230E94390E0E
:101C90000E943B0E08950E941A1308950895089516
:101CA0000E944E0E0E944F0E08950E9459110E94EC
:101CB000FB030E94471708950E943B250E94F010E5
:101CC0000E9432130E9447120E94550E0E9405176F
:101CD0000E9442130E943F0E08950E941A13882307
:101CE00031F00E947B1E0E94FE210E94851B0895F8
:101CF000AAE0B0E0EEE7FEE00C94B82C0E949B1244
:101D000083E8A82E84E0B82E750110E0F701019158
:101D10007F01812F0E947F111F5F183009F440C09E
:101D20000817A1F38091930481FD0E9485110E9400
:101D30004B0EC82E10E0812F0E947F11082FF50155
:101D400081915F01081731F1D02ED826F12CEE24B5
:101D5000E3948D2D8E21B1F0CC20A1F0FE821F8363
:101D600091E0802F8E2109F490E098870E9444250D
:101D70008160782F9A8789874E815F8168858A85FF
:101D80000E942704F394EE0CF5E0FF12E2CFF50178
:101D9000319700831F5F183071F60E94260E20C015
:101DA0000813C0CF0E9444258C018091810490913A
:101DB000820408171907A1F08FEF89838A831B8299
:101DC0000E9444258160782F9D838C8349815A81AC
:101DD0006B818D810E9427041093820400938104FB
:101DE0000E946D0E0E9499160E940E042A96EAE047
:101DF0000C94D42CCF93DF930E940B10EC0181152F
:101E000021E5920708F042C0811530E5930708F0FC
:101E10009FC0883E910530F5803E910508F094C042
:101E2000883A910588F4853A910508F086C081309A
:101E3000910509F489C0009709F486C0049708F059
:101E400083C0D0E0C0E080C08F3B9105D0F7C85A76
:101E5000D0E0CC0FDD1FC453DC4F0990D881C02DDA
:101E6000D46472C0811540E2940750F4C11581E03A
:101E7000D80708F069C0CD3ED10518F3D06564C01D
:101E800081159044F0F2DF70D06A5EC0811535E5AF
:101E9000930718F5811544E5940708F085C0C1152E
:101EA00083E5D80708F06CC0C11522E5D20708F415
:101EB00062C0CE018370992721E030E002C0220F7A
:101EC000331F8A95E2F7C695C69580E2C89FE00168
:101ED0001124C22BD32BDC6837C0811539E5930759
:101EE000A8F4811548E5940708F063C0C11586E59C
:101EF000D80708F0A6CF8C2F0E94AD10C82FD0E0D5
:101F0000DC2FCC27CC27DF71D0621EC081152AE5DB
:101F1000920708F453C090568115904208F091CF73
:101F20008D2F8F710E94AD1090E0982F8827882701
:101F30009F719C012C2BE901E7CFC55AD0E0C65018
:101F4000DC4FC881D0E0D064CE01DF91CF910895FD
:101F50008370992721E030E002C0220F331F8A9559
:101F6000E2F7C695C69540E2C49FE0011124C22B5A
:101F7000D32BDD68E9CFDC2FCC27C16FD06AE4CF4B
:101F8000CE018370992721E030E002C0220F331F79
:101F90008A95E2F7C695C69540E2C49FE0011124F8
:101FA000C22BD32BDA68D0CFD82FCC27C46FD06AFE
:101FB000CBCFD82FCC27C06FD06AC6CF8F700E94EE
:101FC000AD1034E0D695C7953A95E1F7CF709C2FC8
:101FD000EC01D069B9CF972F7830A8F4653098F428
:101FE00070E025E0929F600D711D1124FB0198E2C5
:101FF000899FE00DF11D1124EE0FFF1FE455FF4FE7
:1020000085919491089580E090E008950E94EB0FEF
:102010000E94FA0E089582389105B9F1B0F4813327
:10202000910509F47DC048F48932910509F46DC029
:102030008A32910509F47BC008958533910509F42E
:102040005FC08933910509F10895833E9105D9F167
:1020500038F4803E910529F1823E910579F1089589
:10206000863E9105D9F1873E910509F43EC0843E34
:10207000910541F52091660521FF24C080916505F9
:1020800084FD19C087EE90E00895209165052370C6
:1020900009F05AC02091660523FF14C089E290E040
:1020A00008952091650520FD38C03091660530FF08
:1020B00009C024FF43C090E080E0089520916505A9
:1020C00022FDF7CF08952091650522FD3AC0309199
:1020D000660530FD39C024FFF5CFEDCF20916505B1
:1020E00023FFF0CF24FDE7CFCDCF2091650523FD61
:1020F0002EC03091660531FFEECF84EE90E008955A
:102100002091650525FFDECFC9CF2091650525FD0E
:1021100021C02091660523FFD5CF89E390E0D2CF7F
:102120002091650526FFCECF8AE290E008952091A8
:10213000650526FFC7CF81E390E0089583EE90E028
:10214000089582EE90E0089580EE90E0089586EE86
:1021500090E0089585E390E008959091650592FFE1
:1021600006C0282F28712830F9F4877F846093FFF8
:1021700006C0282F28712831F1F4877E84612091D0
:10218000660520FF06C0382F38713830D9F4877FB4
:10219000816021FF06C0282F28712831D1F4877E65
:1021A000816194FD877E0895282F24712430F9F6EB
:1021B0008B7F8860DCCF282F2471243101F78B7E40
:1021C0008861DDCF382F3171313019F78E7F88600B
:1021D000E0CF282F2171213121F78E7E8861E1CF58
:1021E00010926105109262051092630510926405C9
:1021F0000895CF92DF92EF92FF926B017C010E94D3
:102200001A1381110EC00E945025C61AD70AE80A77
:10221000F90AC0926105D0926205E0926305F092DE
:102220006405FF90EF90DF90CF9008950F931F9378
:102230000E941A13882329F00E9450251F910F91A4
:1022400008950E945025009161051091620520912A
:10225000630530916405600F711F821F931FEECFDD
:1022600080E008950E94630D0895CF930E949B1211
:102270008FE39CE90197F1F700C000000E949B12D8
:102280000E941713C4E08111C0E08C2F0E947F11BF
:1022900090E002C095958795CA95E2F780FF04C04B
:1022A0000E9432110E94AB25CF9108950E943511F2
:1022B00008950E946A0D811102C00E94130E0E94AF
:1022C000750D809393040E947F0D90936605809313
:1022D00065050E9456110E947A0D90E00E94D40775
:1022E00080911C0490911D040E94F50708950895A3
:1022F0000E947711089508950E947B110895E82F98
:10230000F0E0E059FA4F80810895089508950E9401
:1023100086110895EF92FF921F93CF93DF9300D021
:1023200000D0CDB7DEB70E941A13182F6091780540
:10233000882309F447C019821A821B821C82862FC7
:1023400090E09E012F5F3F4F7901B90180599A4F6C
:102350000E9450138823E9F08091670590E044E0E3
:1023600050E0B70180599A4F0E94FB2C21E0209346
:102370009404892BC9F410E00E946203812F0F900E
:102380000F900F900F90DF91CF911F91FF90EF90E2
:10239000089580919404882371F384E0F7011192E9
:1023A0008A95E9F710929404E0916705F0E0E0590E
:1023B000FA4F89819A81AB81BC8180839183A2830A
:1023C000B383DACF70E060597A4F8091670590E06F
:1023D00080599A4F0E94D7130E948711CFCF1F9325
:1023E000CF93DF9329E531E0C1E0D0E0D90150E09F
:1023F00040E08D918F3F91F0E82FE295EF70F0E093
:1024000011A18F70BE0101C0660F8A95EAF7962F61
:102410009095912391A382A1862B82A34F5F5F4F5A
:102420004530510531F72B5F3F4F81E02D3638079E
:10243000E9F6DF91CF911F910895CF93DF93AC011F
:10244000A62FB0E085E0689FF0011124E75AFE4F07
:1024500075E081E060E091919F3F81F0C92FC295C6
:10246000CF70D0E028A130E09F7002C0359527954D
:102470009A95E2F7982F20FD90E0692B880F715014
:1024800051F7A40FB51F6C93DF91CF910895A4E18C
:10249000B0E0EDE4F2E10C94C02C80916D0181116B
:1024A00026C084E1E7EBF1E0DE01119601900D9288
:1024B0008A95E1F7FE013196A9E5B1E0CE01459696
:1024C00020812C93218111962C93119722811296B1
:1024D0002C931297238113962C931397248114968F
:1024E0002C931497359615968E179F0749F7809170
:1024F0006D0194E0811190E09093780584E0891B50
:10250000809367050E94EF1188E0E0E7F5E0DF01C6
:10251000982F1D929A95E9F7E8E6F5E0DF011D9204
:102520008A95E9F784E00E94D9120E945F036496BD
:10253000E2E00C94DC2CA8E0B0E0E1EAF2E10C94DB
:10254000BD2C8E010F5F1F4F88E0F80111928A9514
:10255000E9F7F12C6F2DC8010E941D12F394F4E0ED
:10256000FF12F8CF48E050E0B80188E695E00E94FD
:10257000FB2C21E0009709F420E0892B41F088E052
:10258000F801A8E6B5E001900D928A95E1F7609117
:10259000780570E060597A4F44E088E695E00E9443
:1025A000DA12182F0E948A11812B2896E5E00C94EC
:1025B000D92C0895CF92DF92EF92FF920F931F9341
:1025C000CF936C017B01042F222349F081E080939B
:1025D00097040E9444259093960480939504C0919B
:1025E0009704C1110AC0C0E08C2FCF911F910F91A9
:1025F000FF90EF90DF90CF90089580919504909197
:1026000096040E945C25059770F310E0A801B601BE
:10261000C7010E94FB2C892B41F0A801B601C7011C
:102620000E94082D10929704DFCFC0E0FBCF0E94DC
:10263000160E089580919A04811107C00E94892C7A
:10264000882351F081E080939A0481E090919A046C
:10265000913009F080E0089582E080939A040E940E
:10266000842CF3CF0E946A0D811102C00E94130EC8
:102670000E94171380936D010E941A1381110E940A
:10268000861308950E941A13811102C00E948913B3
:10269000089581E090919B049A3008F080E00895BD
:1026A0000F931F93CF93DF93EC018B0180919B04D9
:1026B0008A30B8F4B801CE010E94D413C82F81111A
:1026C00022C080919B048F3FB9F40E9444259093CF
:1026D0009904809398048C2FDF91CF911F910F91D3
:1026E000089580919804909199040E945C25843FFC
:1026F000914000F7C0E0EFCF8F5F80939B048A305A
:1027000020F7C1E0E8CF10929B04E5CF0E94782229
:1027100008950E947B220895B0E0A0E0E2E9F3E191
:102720000C94BB2C7901C82F880FDD0B4115510586
:10273000A9F0FE0193E0EE0FFF1F9A95E1F7E25931
:10274000FE4F8181928184569B4F208130E0421759
:10275000530708F49A01A9010E94082DCE010E9496
:102760006423D82E8823D1F001151105B9F083E038
:10277000CC0FDD1F8A95E1F7FE01E259FE4F438140
:1027800050E00417150708F4A801C259DE4F6C8108
:102790007D8164567B4FC7010E94082D8D2DCDB7DA
:1027A000DEB7E7E00C94D72C0E94CE1408950E9467
:1027B000E5140895A4E0B0E0E0EEF3E10C94BE2C43
:1027C0006091B1047091B2048091B3049091B4040B
:1027D0000E946B2511E0643671058105910518F1A1
:1027E0000E9416116E5F7F4F8F4F9F4F69837A83D0
:1027F0008B839C8310E000E030E020E044E050E078
:10280000BE016F5F7F4F82E00E948C13182F8823D8
:1028100051F00E9450256093B1047093B2048093EC
:10282000B3049093B404812F2496E4E00C94DA2C42
:10283000B0E0A0E0EEE1F4E10C94B82C7C015B0187
:102840006A010E94491301E010E0882311F00AE0B8
:1028500010E0C1E0D0E0B501C701F6010995811192
:1028600004C021960C171D072CF4CDB7DEB7EAE0A3
:102870000C94D42CCC9F9001CD9F300D300D1124A1
:1028800090E080E045E34A95F1F700000196821759
:102890009307C1F7E0CFA5E0B0E0E1E5F4E10C94E7
:1028A000B82C5B01E090FD03F090FE0301E010E026
:1028B0009E012B5F3F4F50E040E070E060E080E021
:1028C0000E948C13182F882309F44BC067018FEFE7
:1028D000C81AD80A6091AD047091AE048091AF041B
:1028E0009091B0040E946B256436710581059105B5
:1028F00080F104E010E09E012F5F3F4F50E040E088
:1029000070E060E081E00E948C13F82E64E070E0DB
:10291000C6010E94061711E09D81981310E01F2147
:1029200059F10E9450256093AD047093AE048093DA
:10293000AF049093B00489819A81AB81BC8180936C
:10294000A9049093AA04A093AB04B093AC0411E043
:1029500013C064E070E0C6010E9406179D818913D0
:10296000C8CFF70181819281A381B48189839A8341
:10297000AB83BC831111DFCF8091A9049091AA048D
:10298000A091AB04B091AC04F50180839183A28344
:10299000B383812F2596EAE00C94D42C0F931F93D8
:1029A000CF93DF93EC018B014BE454E10E941814A8
:1029B000882331F04AED53E1B801CE010E9418148A
:1029C000DF91CF911F910F9108950F931F93CF9394
:1029D000DF93C091FD03D091FE03CE01019624E068
:1029E000FB01DC0101900D922A95E1F764E070E0B3
:1029F0000E94061788836D817E818F819885009162
:102A0000A5041091A6042091A7043091A804601792
:102A100071078207930751F06093A5047093A60491
:102A20008093A7049093A8040E94F910DF91CF919E
:102A30001F910F9108950E945F270E945C0E0E94D3
:102A40006C2708950E9471270E94780E0E948B27A0
:102A500008950E94DD240E9445270E94420E0E9494
:102A60001B150E9422150E94500EFBCF8091B904C5
:102A700090E0880F991FFC01E256FE4F208182579B
:102A80009E4FFC0180819091BC04191614F4209390
:102A9000BC049091BC0497FF04C0922F9195909331
:102AA000BC049091BD04191614F42093BD049091B8
:102AB000BD0497FF03C021952093BD049091BF04EE
:102AC000191614F48093BF049091BF0497FF04C0BB
:102AD000982F91959093BF049091BE04191614F409
:102AE0008093BE049091BE0497FF03C081958093AC
:102AF000BE043091BC043323A1F02091BD042223F5
:102B000081F045EB3403C00111249923F1F0909337
:102B1000BC0445EB2403900111243323D1F03093FE
:102B2000BD044091BF04442379F03091BE043323A7
:102B300059F025EB4203A00111245093BF04320346
:102B4000900111243093BE04089581E08093BC0469
:102B5000E0CF81E08093BD04E4CF4091B904242FFD
:102B600030E0220F331FF901E256FE4F90818D3E77
:102B700021F491959093BD0408958E3ED9F38F3E34
:102B800021F491959093BC040895803FD9F3225786
:102B90003E4FF9019081893F19F49093BE04089546
:102BA0008A3F11F49195F9CF8B3F21F49195909341
:102BB000BF0408958C3FD9F39FE0980F983070F4CC
:102BC000815F990B21E030E001C0220F8A95EAF77E
:102BD0008091BB04822B8093BB0408958D3F49F400
:102BE00081E08093B9048091B90448130E9436159E
:102BF00008958E3F11F482E0F4CF8F3FC9F783E050
:102C0000F0CF8D3E39F49091BD0497FF09C010922A
:102C1000BD0408958E3E71F49091BD041916BCF365
:102C20008D3F38F08091B9041092B90481110E944F
:102C3000361508958F3E39F49091BC0497FFF0CF7C
:102C40001092BC040895803F29F49091BC04191699
:102C5000BCF3E6CF893F39F49091BE04191604F70E
:102C60001092BE0408958A3F29F49091BE0497FF04
:102C7000D7CFF6CF8B3F39F48091BF0487FFD9CFF0
:102C80001092BF0408958C3F29F48091BF04181658
:102C9000BCF308959FE0980F983008F0C1CF815F92
:102CA000990B21E030E0A90102C0440F551F8A951D
:102CB000E2F7CA0180959091BB0489238093BB04FD
:102CC00008950E9444259C019091BC048091BD040C
:102CD000982B21F03093B8042093B7049091BE0450
:102CE0008091BF04982B21F03093B6042093B50453
:102CF0008AEB94E00E940624089586E0EAEBF4E073
:102D0000DF011D928A95E9F70895FC018281811106
:102D10000EC0838181110BC08481811108C091E0B4
:102D20008581811101C090E0892F8170089581E033
:102D3000FCCFA6E0B0E0EFE9F6E10C94C02C86E011
:102D4000EAEBF4E0DE01119601900D928A95E1F72D
:102D50001092BC041092BD041092BE041092BF04E5
:102D60008B819C81892BC1F08091B7049091B8042C
:102D70000E945C25E091B904F0E0EE0FFF1FEA56D7
:102D8000FE4F208131812817390730F48B818093E1
:102D9000BC048C818093BD048E819D81892BC1F000
:102DA0008091B5049091B6040E945C25E091B9042D
:102DB000F0E0EE0FFF1FEA57FE4F20813181281708
:102DC000390730F48D818093BE048E818093BF04D7
:102DD000BE016F5F7F4F8AEB94E00E9495248111C2
:102DE00005C08AEB94E00E94851681110E9461164D
:102DF00086E0FE013196AAEBB4E001900D928A952F
:102E0000E1F72696E2E00C94DC2C0895FC01680FB3
:102E1000791F8FEF91E36E177F0709F408952191D1
:102E2000822728E030E087FF06C0880F89272150DD
:102E30003109C9F7F0CF880FFACFCF93DF93EC01B8
:102E400097FF0CC0FB018281882341F00E945E172E
:102E5000CE019F770E94EE170E94BD1781E0DF919F
:102E6000CF91089590917A05923071F48A3050F4A0
:102E700090E009966AE070E00E94962C875A0E94C2
:102E8000FC0408958650FBCF0E940F1A08958CE031
:102E900090E00E94112D90E0B0E0A0E080937A05D0
:102EA00090937B05A0937C05B0937D050895609178
:102EB0007A058CE090E00E941F2D08950E94F8236F
:102EC0008695817080937F050E94F823817080939E
:102ED000790580917A05813039F480917F058823C6
:102EE00019F089E30E94FC040E94560C80937E0531
:102EF0000E94690C0E947C0C80917A05823021F13D
:102F000058F48823C1F08130D1F08FE39CE9019718
:102F1000F1F700C000000895843051F18530A9F721
:102F20008BE191E00E94FA0285E290E00E94FA02B1
:102F300088E290E006C082EE0E946604E6CF88E157
:102F400093E00E94FA02E1CF80917905811103C0DC
:102F500083E50E94FC0482EE0E9466048FE39CE9F4
:102F60000197F1F700C0000087E50E94FC04CDCF77
:102F700086EE0E94FC0488E1F8CF80917A058230C9
:102F800011F148F4882381F0813091F080917E0521
:102F90000E94660C08958430F9F08530B9F788E214
:102FA00090E00E94FA02F2CF82EE0E94B204EECFCD
:102FB0008CE20E94FC0480917F05882339F389E329
:102FC0000E94FC04E3CF82EE0E94B2048091790556
:102FD0008111DCCF83E5F4CF88E2F2CF0F931F930A
:102FE000CF93DF938C01CCE0D0E0C8010C2E02C05F
:102FF000969587950A94E2F78F700E94321724976E
:10300000CC3F8FEFD80789F7DF91CF911F910F91B8
:1030100008950F931F93CF93DF93EC018B01FB0176
:103020008281882381F00E94560CC43EFCE5DF07B4
:1030300029F190F4C23EECE5DE07D9F081E0C33E11
:10304000FCE5DF0799F0B801CE010E941D17DF9162
:10305000CF911F910F910895C63E8CE5D80791F04E
:1030600078F085E0C13BFDE5DF0769F780937A05DD
:1030700002C010927A050E945717E5CF82E0F6CF82
:1030800083E0F4CF84E0F2CFCF93DF93EC01FB0138
:103090008281882309F464C1C430FDE5DF07E0F5CF
:1030A000CB3F9CE5D90730F49E0122503C452431AA
:1030B0003105D8F50E947F0D9093660580936505D4
:1030C000C231ECE5DE0709F41FC108F06EC0C9305B
:1030D0008CE5D80709F4F2C008F03FC0C530ECE534
:1030E000DE0709F4DBC058F5C3308CE5D80709F4D6
:1030F000CDC008F0CFC0809165058160C230DC454D
:1031000009F4AEC080916505909166050E948D0D11
:103110000E94780780E009C0C63AEDE5DE0751F26B
:1031200038F4C2369DE5D90729F2DF91CF91089591
:103130009E012E5A3D4523303105B8F7BBCF809113
:1031400065058062C730FCE5DF0709F489C008F433
:10315000B1C080916505806483C0CD309CE5D907FE
:1031600009F4BAC070F4809165058E7FCB30FCE520
:10317000DF0709F475C008F4A7C0809165058D7F4D
:103180006FC0CF309CE5D90709F4B6C008F4A8C0D9
:10319000C031FCE5DF0709F4B3C0C131DC4509F0FB
:1031A000B1CF809165058F7B5BC0C1159DE5D907C7
:1031B00009F4B4C098F5CB3FFCE5DF0709F472C011
:1031C000B8F4C4319CE5D90709F4B6C008F4A2C02C
:1031D000C531DC4509F096CF8091650582FB9927C2
:1031E00090F921E0922790FB82F990FB83F938C097
:1031F000CD3F8CE5D80709F477C008F457C0CE3F1F
:10320000ECE5DE0709F474C0809166058360CF3F6A
:10321000DC4509F077CF8093660574CFC2368DE523
:10322000D80709F496C068F4C230EDE5DE0709F46A
:103230008CC008F477C0C330DD4509F063CF80E06F
:1032400085C0CE3A9DE5D907E9F068F4909165050F
:10325000892F8E7F90FF8160C63ADD4509F052CFFD
:10326000809365054FCFCF3A8DE5D80789F1C03BF4
:10327000DD4509F047CF90916605892F877F93FF41
:103280008860C9CF809166058860C5CF809165054B
:103290008260E6CF809165058460E2CF809165050C
:1032A0008860DECF809166058160B5CF809166052C
:1032B0008260B1CF809165058061D2CF0E9478078E
:1032C000809165058068CCCF809165058C60C8CF02
:1032D00080916605877F9FCF809165058B7FC0CFEA
:1032E00080916505877FBCCF809166058E7F93CFE7
:1032F000809166058D7F8FCF809165058F7EB0CFE1
:10330000809165058F7DACCF0E947807809165051F
:103310008F77A6CF80916505837FA2CF80916605C8
:103320008C7F79CF80916605982F909591708E7FD4
:10333000892B90FB81F96FCF0E94780790916505EA
:10334000892F97FB87F980588BCF81E00E94200E50
:10335000D9CE90916505892F8F7E94FF806180CFB3
:1033600081E0E3CEB0E0A0E0E8EBF9E10C94BB2C07
:10337000E82FF0E0E051FE4FD490282F26952695B7
:10338000269530E0F901E057FD4F0491877010E079
:10339000082E02C0159507950A94E2F701701127CF
:1033A000F901E058FD4FE490F12C082E02C0F5948D
:1033B000E7940A94E2F791E0E922FF24F901E05949
:1033C000FD4FC491D0E002C0D595C7958A95E2F72C
:1033D000C170DD270115110519F081EE0E94660408
:1033E000E114F10419F086EE0E9466048D2D0E940E
:1033F000FC04E114F10419F086EE0E94B2040115F8
:10340000110519F081EE0E94B204CD2B19F08CE267
:103410000E94FC04CDB7DEB7E7E00C94D72C982FC0
:103420009F709A50963020F0805D0E94B2190895E6
:10343000895AFBCF08950F931F93CF93DF93809109
:103440002B05E091C0041CE081111AC0DF91CF91DF
:103450001F910F91089501E00E0F0093C004CE2F2D
:10346000D0E0E19FF0011124E553FB4F838194816B
:10347000892B29F08081918189238F3FF9F4E02FF6
:1034800080912B05E81738F310922B051092C00499
:10349000DDCF18968D919C918F3F9807E1F061E008
:1034A0000E941A1A1C9FF0011D9FF00D1124E55374
:1034B000FB4F148213820E947C0CE1CF1C9FD00131
:1034C0001D9FB00D1124A553BB4F16968D919C9155
:1034D0001797892BF1F220813181428153816481D8
:1034E0007581868197810E94940BDCCF10922D0507
:1034F00010922C052091A7013091A801E0E0F1E0A5
:1035000090E080E02817390709F4089545814111BA
:1035100002C01482168201963796F4CFDC016091C6
:10352000C9048091CA04962F891301C00895292FD8
:1035300030E0F901EE0FFF1FEF53FB4F4081518147
:103540004A175B07A1F487E08A9FA0018B9F500D6B
:10355000112440505F4F81E0FA0184839613E6CF37
:103560002F5F3F4F237033272093C90408952F5FA7
:103570003F4F922F9370D8CFB0E0A0E0E2ECFAE199
:103580000C94B52CEB012C81211152C070902B05AD
:10359000ABECB4E030E020E0812C61E070E0271576
:1035A00008F044C01A96CD90DC901B97A880B98093
:1035B0004FEF5FEF912CE92CF12CF701EE0FFF1F7D
:1035C000EA0DFB1D05911491C016D10609F4A7015F
:1035D0000115110511F09394EECF4F3F540789F177
:1035E000FB0102C0EE0FFF1F4A95E2F78E2AAB01E6
:1035F000092C02C0440F551F0A94E2F741505109AB
:1036000084161506D1F44A815B816CE0629FF0015B
:10361000639FF00D1124E553FB4F578346832EEF34
:10362000208321839187808721E02D830E948E1A39
:10363000CDB7DEB7EDE00C94D12C14961C921E92FF
:1036400013972F5F3F4F1C96AACF1F93CF93DF9303
:10365000C091C90417E08091CA048C1308C00E946D
:103660001B1A0E94761ADF91CF911F910895D0E026
:10367000FE01EE0FFF1FEF53FB4F80819181189FDA
:10368000B001199F700D112460507F4F0E94BC1A29
:103690002196C370E0CFEF92FF921F93CF93DF93F9
:1036A000FC012081318110E040E050E0E52FF0E0A6
:1036B000EE0FFF1FE20FF31FA591B4911097B9F021
:1036C000FB01C081D18140E005C0AE15BF0509F402
:1036D00011E04F5FE42FF0E0EE0FFF1FEC0FFD1F36
:1036E000E590F490E114F10481F75F5FDFCF1123DF
:1036F00049F0451708F4CB01DF91CF911F91FF905E
:10370000EF90089590E080E0F7CF8091A6018823A4
:1037100041F180912E0590912F05009711F10E94A3
:103720005C2520912C0530912D0528173907C8F408
:103730009091C9048091CA04981759F00E94251BE2
:1037400010922D0510922C0510922F0510922E0527
:1037500008950E941B1A10922F0510922E050E94A8
:10376000761A089510922F0510922E051092A60138
:103770008091CA048093C9040E94761A0E941B1A81
:1037800008958091A601882319F00E94B21B089524
:1037900081E08093A6010895A9E0B0E0E2EDFBE1AD
:1037A0000C94B02C6C013B01FB011281883FFCE5BD
:1037B0009F0751F4112379F081E08093A601812FB6
:1037C0002996E2E10C94CC2C893F2CE5920709F074
:1037D0004DC0111148C000E011E0F12CE12C198618
:1037E00088248394912C8091A7019091A801E816D8
:1037F000F90608F445C0F3018281882309F460C109
:10380000F985FF2309F45CC10E94442590932F059C
:1038100080932E0580912B05883008F591E0980F54
:1038200090932B0598E0F301DE01119601900D9223
:103830009A95E1F72CE0829FC001112485539B4F9C
:1038400028E0FE013196DC0101900D922A95E1F706
:103850002FEF3FEFFC0131872087D386C28611E02E
:10386000F9851F27ACCF0E94B21BA9CF8A3F9C4588
:1038700009F0B1CF112309F4AECF0E94C11B9FCF35
:10388000F80160817181AA24AA94BA2C20E0422F09
:1038900050E0FA01EE0FFF1FE60FF71F859194919C
:1038A000C816D90609F45A01892B11F02F5FEFCF02
:1038B000312CFFEFAF16BF0609F445C0F801448173
:1038C0003090A601832D411180E0F82FF1703F2E3A
:1038D000F80155808681F3019281992309F48EC005
:1038E000332009F48BC0511015C0A4010A2C01C06B
:1038F000440F0A94EAF7842BF801868380912C0503
:1039000090912D05C29730F462E370E070932D051D
:1039100060932C05C40102C0880F991F2A95E2F715
:103920000197F80126812817190669F480912E0560
:1039300090912F05009781F00E945C25C39760F05D
:1039400021E0F8012483F985F329F9872FEFE21AA2
:10395000F20A095F1F4F47CF2090C90490E080E032
:103960002091CA04221215C08017910761F3A22C7E
:10397000B12CF501EE0FFF1FEF53FB4FF182E082F8
:103980006FEFA61AB60A73E0A722BB24A092CA045E
:10399000DACFA22CB12CF501EE0FFF1FEF53FB4F36
:1039A0002081318147E0429FC001439F900D112447
:1039B000BC0160507F4F2B01B801C2010E944B1B1C
:1039C0000097A9F021E0FC0124838017910709F4F6
:1039D000BACF2091C90422120AC04816590639F4F8
:1039E00095012F5F3F4F237033272093C9043FEF8A
:1039F000A31AB30A4A2D4370242EB2CF90E051107F
:103A000020C0F40102C0EE0FFF1F2A95E2F79F01CC
:103A1000215031092817390731F4442309F44EC0E5
:103A2000C7010E948E1AC4010A2C01C0880F0A9493
:103A3000EAF7982F9095F801868189238683352CA3
:103A400082CF9C010A2C02C0359527950A94E2F793
:103A5000A90141705527BC01615071098623972344
:103A6000892B41F5452B31F1F80182819381892B16
:103A7000E1F01B821C821D821E82FEEFF983FA8315
:103A80000E9444258160582F9D838C83F801828198
:103A900093818F83988729813A814B816D817E81C3
:103AA0000E94940BF8011582BECF60E0C7010E940E
:103AB0001A1AF8CFF22FF1705F2EB5CF532CB3CF77
:103AC0009091C9048091CA04981719F00E94251B8F
:103AD000C6CE0E941B1A10922F0510922E050E942E
:103AE000761ABDCECF93DF93EB0186319C4511F55D
:103AF0000E94560C9A81992399F08A7A91E009F4F0
:103B000090E090933005811109C089E20E942B0C4E
:103B10000E94A90C80E0DF91CF91089585E3F6CF54
:103B200080913005811104C089E20E94330CF0CFEE
:103B300085E3FBCF81E0EFCFFC018581862351F443
:103B400092819923B9F06923818583FF05C081E0C3
:103B500061110FC080E00895892F8F7092959F703A
:103B6000982B862F8F7062956F70682B81E096136B
:103B7000F1CF089581E0FDCFCF93DF93EC01609109
:103B80003B0570913C0580913D0590913E050E945A
:103B90006B25643F71408105910518F580913B05C7
:103BA00090913C05A0913D05B0913E05809337056D
:103BB00090933805A0933905B0933A0584EF91E0CE
:103BC000A0E0B0E08093330590933405A0933505D1
:103BD000B0933605D0933205C0933105DF91CF9174
:103BE00008950E945025609337057093380580939F
:103BF000390590933A0582E390E0A0E0B0E0E2CF8F
:103C0000FF920F931F93CF93DF93F82E00914205FD
:103C1000109143050115110509F44DC010923205AC
:103C2000109231050E94880C0E94820C009142057E
:103C300010914305D8011796CD91DC919E013A95DC
:103C400021153F4108F4D07ED1E0C11101C0D0E080
:103C5000D8011A96ED91FC911B97309731F01C9684
:103C60006D917C9180E00995D823DD2339F08CEFAC
:103C70008C0F813A30F58C2F0E94330CFF2099F085
:103C8000E0914205F0914305818584FD0CC080914F
:103C90004105882341F0808191819C0121503109A7
:103CA000213B3D45A0F00E94A90C109243051092C3
:103CB000420510924105C801CDB7DEB7E5E00C948E
:103CC000D92C0E94A90C8C2F0E94B204D7CF0E943D
:103CD000BC1DE9CF1092A90180E00E94001E08954A
:103CE0008091A901882319F00E946A1E089581E03D
:103CF0008093A90108950F931F93809131059091AE
:103D00003205892B89F160913705709138058091D2
:103D1000390590913A050E946B2500913305109169
:103D200034052091350530913605601771078207FB
:103D30009307D0F080913105909132050E94B40232
:103D40001092320510923105109237051092380505
:103D50001092390510923A051092330510923405ED
:103D600010923505109236051F910F910895A4E029
:103D7000B0E0EDEBFEE10C94B02C8C017A8369830A
:103D8000DB0112965C905520B1F08036BDE59B07B3
:103D900059F08136EDE59E0759F08F359D4559F470
:103DA0000E94701E312C0DC081E08093A901FACFD2
:103DB0000E946A1EF7CF3090A901311007C033244A
:103DC0003394832D2496E2E10C94CC2C680120EEF0
:103DD000C21AD1080E94560CF82E0E94420C482E9E
:103DE0000E948B0C482A4F2838E0C316D10408F0F3
:103DF00094C098012770332781E090E001C0880FBC
:103E00002A95EAF7552009F485C0482AA981BA8184
:103E10008D919C910E94E2088090190190901A0166
:103E20008114910409F4E1C021E030E0F90102C0FD
:103E3000EE0FFF1F8A95E2F7FA83E983609042054F
:103E400070904305A0903F05B0904005212CE22DD5
:103E5000F0E0EE0FFF1FE80DF91D208131813C835A
:103E60002B832115310509F4C0C0411005C0D901CB
:103E700012968C9181118BC0EB81FC81838194819E
:103E800029813A8182239323892B09F480C081857B
:103E9000982F977009F487E038E0C316D10408F032
:103EA00056C0552009F44FC086958170882309F4C7
:103EB0006EC0AB81BC81ED90FC900E151F0519F40E
:103EC000552009F464C0EB81FC81E615F70509F47F
:103ED0005EC00684F785E02D309721F0808188232D
:103EE00009F455C0642D8B819C810E949C1D882300
:103EF00009F44DC00E151F0509F08BC00115110501
:103F000009F48CC051108CC0EA14FB0409F03FC0C6
:103F1000512C86C08095482279CF552009F44EC097
:103F20001093400500933F050E94502560933B0588
:103F300070933C0580933D0590933E0510923205A9
:103F40001092310563CF82FB882780F9AFCF5520CF
:103F5000F1F08170ABCF0E94B20483C00497813A24
:103F6000910548F4802F0E942B0C552009F427CF8F
:103F70000E94A90C17CF0E94A90C8FE39CE901971E
:103F8000F1F700C00000802F0E946604EECF23945A
:103F90005ECFFC01208131812017310731F45110AF
:103FA00007C01092410580E031C0552009F407CFC9
:103FB000DC0119968C9185FD02CFF5CF80913F05EC
:103FC000909140058017910781F41092400510925E
:103FD0003F0510923B0510923C0510923D05109252
:103FE0003E05109232051092310580914205909164
:103FF0004305009709F4E3CEA8E0CA16D10448F6B9
:10400000642D0E949C1D8111DACE81E00E94001E69
:10401000D8CEE114F10409F077CF512CF12CE12C2A
:1040200080E00E94001EEB81FC81F0934305E09349
:10403000420581E08093410586810E94850C5110E4
:1040400010C0E114F10469F0AB81BC818D919C91A9
:104050009C0124503109213A310508F07CCF0E949F
:10406000330CEB81FC8107811085C8019A9581157D
:104070009F4108F4107EFF24F394C8010197813B0F
:104080009D4508F0F12CAB81BC811A96ED91FC9115
:104090001B97309731F01C966D917C9181E00995CA
:1040A000F822FF2081F0EB81FC81878190850E94BE
:1040B00079020E947F0CC801F8E0CF16D10408F005
:1040C0004DCF0E94BC1D0E94A90C4FCF0F931F9390
:1040D000CF93DF93C42FD22FFC0182818823C9F0B4
:1040E000409346050E9444259093450580934405DE
:1040F00080E28C0F883040F4C77081E001C0880FE7
:10410000CA95EAF70E940505DF91CF911F910F91A3
:10411000089510914605141332C080914405909182
:1041200045050E945C258A3F910548F5C0E2CD0F08
:104130001D17B9F080E2810F883040F4177081E0DC
:1041400001C0880F1A95EAF70E940C05C83048F4A0
:1041500081E09D2F977001C0880F9A95EAF70E9421
:104160000505802F0E94FC04C83070F6D77081E0EE
:1041700001C0880FDA95EAF70E940C05C5CF80E2EE
:104180008C0F883008F6C77081E001C0880FCA958F
:10419000EAF7F2CF0F939C01CB01243F4CE53407A3
:1041A00059F1A8F4293DFCE53F0701F12A3D4CE512
:1041B0003407D1F1283D3C4591F406E221EE41EE71
:1041C00068ED7CE50E94662080E00F910895263F0F
:1041D000FCE53F07E9F0B0F0273F3C45F9F0FC0172
:1041E0008281882339F110924605EFCF07E225EE50
:1041F00045EE69ED7CE5E6CF06E221EE40EE64EFA8
:104200007CE5E0CF07E225EE44EE65EF7CE5DACF12
:1042100006E221EE42EE66EF7CE5D4CF07E225EE22
:1042200046EE67EF7CE5CECF08E221E045EE6AED91
:104230007CE5C8CF81E0C9CFCF93DF93EC01EA855D
:10424000FB85309719F06C857D8509958B810E94DF
:10425000750C8C810E945F0C0E94A90C86E0FE0107
:1042600011928A95E9F7DF91CF910895CF93DF936B
:10427000EC018D8181FD12C082608D838B810E9453
:104280006F0C8C810E94590C0E94A90CE885F9855D
:10429000309721F06C857D85CE01099510924A05F5
:1042A000109249058D8180FD03C0CE010E941C2122
:1042B000DF91CF910895CF93DF93EC018A81823013
:1042C00041F4FB01828193810E94B4028D8182605E
:1042D0008D83DF91CF910895FB01808191810E94B0
:1042E000B4020895FC018281813031F4FB018081A8
:1042F00091810E94CA0208958230E9F7FB01828110
:104300009381F7CFFB0122812223E1F0E09149055F
:10431000F0914A053097B1F0E817F90799F02EE0CF
:10432000E29FF0011124DF01A45FBE4F2C912460B5
:104330002C93E95FFE4F91838083CF010E94362149
:104340000E947C0C0895EF92FF920F931F93CF93DE
:10435000DF938C0197558F3F910511F008F041C014
:104360007801FF248EE0089FF0011124EF01C95F5E
:10437000DE4FDB0112962C91E45FFE4F808120FB23
:1043800080F98083222399F10E9444259093480567
:10439000809347058A818F5F8A830E94560C8B83A6
:1043A0000E946C0C9B81892B8B830E948B0C8C83CD
:1043B000EE81FF81309721F06C857D85CE010995D6
:1043C0008EE08E9DF0018F9DF00D1124E95FFE4F70
:1043D000858181FF02C010E000E010934A05009340
:1043E000490581E0CDB7DEB7E6E00C94D82C8D818D
:1043F00081FFF7CFCE010E941C21F3CF80914905A8
:1044000090914A05892BC9F0809147059091480504
:104410000E945C258B3F910580F0809149052EE03C
:10442000829FC0011124FC01E45FFE4F208122FD28
:1044300004C0895F9E4F0E94362108958EE14A9BF9
:1044400002C08150E1F74A9BFECF08955A9880E25E
:104450008A95F1F75A9A0895FC013BE03A95F1F7F5
:1044600098E020E080E031E040E14A95F1F7880FE4
:104470004A9B02C08160232742E04A95F1F7000081
:1044800040E14A95F1F7915079F790E19A95F1F76B
:1044900099B132E03A95F1F7000040E14A95F1F721
:1044A00092FB992790F992272081920F908308958B
:1044B000A1E0B0E0EEE5F2E20C94BC2C19828C0194
:1044C0007C01E60EF11C0E151F0541F481E0998177
:1044D000911180E02196E6E00C94D82C0E941E22D7
:1044E000CE0101960E942C22F80181938F01EBCF1F
:1044F000529A5A9A089552985A9AEA9AE9E6F0E03E
:1045000080818F7C808308956150770B91E001C09A
:10451000990F6A95EAF720E031E0911108C0222353
:1045200091F05A9A80E28A95F1F75A980895492FA6
:10453000482339F05A9A232740E24A95F1F7969595
:10454000ECCF5A98F9CF5A98EDCFFF920F931F9363
:10455000CF93DF93EC018C01060F111DC017D1071B
:1045600029F4CDB7DEB7E5E00C94D92CF9900E9480
:10457000262268E08F2D0E948422F0CF1F920F9296
:104580000FB60F9211240F931F932F933F934F93C6
:104590005F936F937F938F939F93AF93BF93EF93AB
:1045A000FF93CF93DF930F92CDB7DEB719820E94AE
:1045B0001E22CE0101960E942C22082F06950695F8
:1045C0000695282F22952570902F9570290F922FF0
:1045D000937026952695920F982797708981982B2E
:1045E00009F05CC0043008F059C080E18A95F1F709
:1045F0005A9A529A82E08A95F1F700C05A9888E058
:10460000089F80011124D801A259BE4F1696ED9142
:10461000FC9117973097A9F06091FD037091FE030C
:1046200014962D913C911597260F371F11968D9159
:104630009C911297680F791F13964C9113978C9148
:104640000995F801E259FE4F6381662351F02091EC
:10465000FD033091FE0384819581820F931F0E9498
:10466000A5220E94262280E18A95F1F75A98529855
:104670005A9A80E18A95F1F7F801E259FE4F60817C
:10468000662351F02091FD033091FE0381819281D8
:10469000820F931F0E9458220E941E220F90DF91CA
:1046A000CF91FF91EF91BF91AF919F918F917F91AA
:1046B0006F915F914F913F912F911F910F910F90AB
:1046C0000FBE0F901F9018950F931F93CF93DF93FA
:1046D000EC0104970CF04CC0F894529A5A9885E07B
:1046E0008A95F1F700009C2F969595708C2F857018
:1046F000980F892F83709695969523E0CC0FDD1F38
:104700002A95E1F7980F8E01092B0E94262200C0FE
:1047100068E0802F0E94842280E18A95F1F7529808
:104720005A9A4A9B1EC087E090E04A991CC0FE013D
:10473000E259FE4F63816623F9F02091FD03309129
:10474000FE0384819581820F931F0E94582281115C
:1047500013C0529A5A9A7894DF91CF911F910F917A
:10476000089500C0DECF019729F4529A5A9A78949E
:1047700080E0F2CF00C0D9CF0E941E2280E28A954D
:10478000F1F75A98529A80E18A95F1F7C259DE4FB3
:104790006881662351F02091FD033091FE038981E9
:1047A0009A81820F931F0E94A5220E94262278944C
:1047B00081E0D2CF909301048093000408959093F8
:1047C00051058093500508950E941A13811103C06A
:1047D00080914B050895E0915005F0915105309777
:1047E00029F00190F081E02D0995089580E0089569
:1047F0000E94E4230895E0915005F091510530970F
:1048000021F00280F381E02D09950895E091500593
:10481000F0915105309739F022E0DC012C930480AF
:10482000F581E02D0995089520914E0530914F05B1
:104830002817390771F090934F0580934E05E0914A
:104840005005F0915105309721F00680F781E02D59
:104850000995089520914C0530914D052817390789
:1048600071F090934D0580934C05E0915005F091C7
:104870005105309721F00084F185E02D09950895C8
:104880009C012E5F3F4FAC01485F5F4F80E02417D3
:10489000350709F40895F90191919F019923B9F31E
:1048A0008F5FF5CF662349F0FC013296089621917F
:1048B000261729F0E817F907D1F780E0089581E07D
:1048C00008959C01FC0132969FEF80E041914617CC
:1048D00051F09F3F19F4411101C0982F8F5F86302E
:1048E000A9F79F3F09F40895290F311D97FD3A95C7
:1048F000F90162830895FC013296089621912613EE
:1049000003C0DF0111971C92E817F907B9F7089562
:104910000E94612408950E947B240895029626E057
:10492000FC0111922A95E9F7089546E050E00E94B3
:10493000FB2C21E0892B09F420E0822F08950895B3
:104940000E949F240895811106C081E08093520542
:104950000E94A024089582E0F9CF83E0809352055D
:104960000E94A02408950E94A324089581E08093CA
:1049700052050E94A02408950E94B6240895089527
:1049800008950E94C0240895089508950E94BF24A8
:104990000895CF930E94C4240E949B120E94C524B4
:1049A000C0E08C2F0E947F11811105C0CF5FC830FD
:1049B000C1F7CF91089581E0FCCF85B7806885BFAE
:1049C00085B7806885BF08951F921FB61F92112476
:1049D0008F939F93AF93BF9380915305811113C021
:1049E0008091800590918105A0918205B091830509
:1049F0004196A11DB11D8093800590938105A093E0
:104A00008205B0938305BF91AF919F918F911F90C5
:104A10001FBE1F90189580918805843031F10E9447
:104A2000E8031092530588E190E020E40FB6F89473
:104A3000A895809360000FBE2093600083B7817FAC
:104A4000846083BF83B7816083BF7894889583B780
:104A50008E7F83BF0FB6F894A8958091600088611F
:104A600080936000109260000FBE08950E94780746
:104A70000E94ED03089582E084BD93E095BD9AEF16
:104A800097BD80936E0008952FB7F89480918005AC
:104A900090918105A0918205B09183052FBF089563
:104AA0002FB7F894609180057091810580918205FF
:104AB000909183052FBF08959C014FB7F894809182
:104AC000800590918105A0918205B09183054FBF2B
:104AD000821B930B0895CF92DF92EF92FF922FB734
:104AE000F894C0908005D0908105E0908205F09008
:104AF00083052FBFA7019601261B370B480B590BC7
:104B0000CA01B901FF90EF90DF90CF90089578949B
:104B10001F921FB61F9211248F939F93AF93BF9341
:104B20008091800590918105A0918205B0918305C7
:104B30000196A11DB11D8093800590938105A093DE
:104B40008205B0938305BF91AF919F918F911F9084
:104B50001FBE1F90189587E797E7909301088093F1
:104B6000000888E19AE00FB6F894A8958093600059
:104B70000FBE90936000FFCF88E19AE00FB6F894E3
:104B8000A895809360000FBE90936000FFCF809146
:104B90005F05089508959C0182E08093E9009FEFEE
:104BA0008091E800915085FD06C085ED8A95F1F76A
:104BB00000009111F5CF8091E80085FF0CC050E016
:104BC00040E066E070E0C9010E94FD278091E800A6
:104BD0008E778093E8000895CF93DF93EC0181E016
:104BE0008093E9008FEF9091E800815095FD06C019
:104BF00095ED9A95F1F700008111F5CF8091E800CD
:104C000085FF14C050E040E068E070E0CE010E94F3
:104C1000FD278091E8008E778093E80088E0FE0110
:104C2000A7E5B5E001900D928A95E1F7DF91CF916C
:104C300008958093540570935605609355058091AF
:104C40008805843001F582E08093E9008FEF909130
:104C5000E800815095FD06C095ED9A95F1F70000AA
:104C60008111F5CF8091E80085FF0DC050E040E054
:104C700063E070E084E595E00E94FD278091E80004
:104C80008E778093E8000895BC0184E00E94192685
:104C90000895BC0183E00E9419260895809187053C
:104CA000811109C00E948D290E94EA298091E200A9
:104CB00084608093E20008951092870508950E9411
:104CC000B62408956091840581E0611101C080E0FF
:104CD0000E94AD2408959091880581E0943009F0F8
:104CE00080E0609184050E94B324089542E061EC65
:104CF00081E00E94092942E261EC82E00E940929D8
:104D00009091880581E0943009F080E060918405FD
:104D10000E94A324089580918A05833009F461C01C
:104D200030F48130D1F1823009F49EC008958A3088
:104D300009F48AC08B3009F46FC0893009F050C083
:104D400080918905813209F04BC080918D05909149
:104D50008E05029708F044C08091E800877F809319
:104D6000E8008091E80082FF37C09091F3008091C5
:104D7000F200029731F48091F100813011F0863019
:104D800021F48091F10080935F058091E8008B779A
:104D90008093E8000E943D2923C080918905813AD3
:104DA000F9F48091E800877F8093E80080918D0579
:104DB00090918E05892B61F468E087E595E070E0BD
:104DC0000E944C288091E8008B778093E80008953A
:104DD00060E090E080E0F3CF809188058111C1CF41
:104DE000089580918905813AD9F780918D05909138
:104DF0008E05892BA9F78091E800877F8093E800D2
:104E00008091E80080FFFCCF8091B6018093F10093
:104E10008091E8008E77BCCF80918905813201F7BF
:104E200080918D0590918E05892BD1F68091E800B7
:104E3000877F8093E8000E943D2980918B058093B5
:104E4000B6010E947807089580918905813241F664
:104E50008091E800877F8093E8000E943D2980913F
:104E60008C0580936005089580918905813A09F049
:104E7000B7CF8091E800877F8093E8008091E800B9
:104E800080FFFCCF80916005C1CF84B7877F84BF4E
:104E90000FB6F894A89580916000886180936000B7
:104EA000109260000FBE80E890E00FB6F8948093F7
:104EB0006100909361000FBE0E94BC2408950E947F
:104EC0008D290E94EA29E2EEF0E0808184608083EF
:104ED00078940E94692C08958AEA91E00E94DF2369
:104EE000089580918805853031F48091880585305A
:104EF00019F00E94362508950E940B2580918605A1
:104F0000882399F30E94C924882379F30E94E72714
:104F10000E947807EACF08950E948F270895292FCD
:104F200033272330310519F168F42130310509F4B4
:104F300044C02230310509F445C090E080E030E003
:104F400020E025C02132310549F122323105A9F78F
:104F500080E490E022E933E061157105C1F08BE750
:104F600090E027E133E06130710589F0E6CF9927C1
:104F70008130910581F0009729F00297F1F6E0EA7F
:104F8000F2E002C0E6ECF2E0849190E09F01FA01C9
:104F9000318320830895ECEBF2E0F6CF89E090E0D6
:104FA0002CED32E06115710591F389E090E025EF79
:104FB00032E06130710559F3C0CF82E190E025E025
:104FC00033E0E5CF8BE390E02AEC32E0E0CF80E104
:104FD00089BD82E189BD09B400FEFDCF8091D80072
:104FE0008F7D8093D8008091E00082608093E00004
:104FF0008091E00081FDFCCF0895AF92BF92CF92E7
:10500000DF92FF920F931F93CF93DF936C01EB011D
:105010008A010E945C29F82E811123C00115110517
:1050200039F0F80180819181C81BD90BC80ED91EB7
:10503000B12CA12C2097A9F08091E80085FD22C019
:105040008091E8008E778093E80001151105A1F0AA
:10505000F80180819181A80EB91EB182A08285E0FD
:10506000F82E8F2DDF91CF911F910F91FF90DF9040
:10507000CF90BF90AF9008950E945C298823D1F211
:10508000F82EEFCFF60181916F018093F100219707
:10509000FFEFAF1ABF0ACECFFC0180918F05909130
:1050A000900586179707A0F06115710529F4909176
:1050B000E8009E779093E80090E06115710551F447
:1050C000911108C08091E80082FF34C080E008950B
:1050D000BC01F2CF809188058823C1F18530C1F1F0
:1050E0008091E80083FD30C08091E80082FDEACF26
:1050F0008091E80080FFE1CF8091F3002091F200E1
:10510000382F6115710519F02830310558F091E0FC
:105110002830310509F090E02091E8002E772093A7
:10512000E800CBCF81918093F100615071092F5F2E
:105130003F4FE7CF80918805882341F0853041F0CB
:105140008091E80083FFBECF81E0089582E008955A
:1051500083E00895FC0180918F059091900586175A
:105160009707A0F06115710529F48091E8008E770A
:105170008093E80090E06115710551F4911108C029
:105180008091E80082FF35C080E00895BC01F2CF35
:10519000809188058823C9F18530C9F18091E800A4
:1051A00083FD31C08091E80082FDEACF8091E80064
:1051B00080FFE1CF8091F3002091F200382F61153C
:1051C000710519F02830310558F091E0283031058B
:1051D00009F090E08091E8008E778093E800CBCFD3
:1051E00084918093F1003196615071092F5F3F4F98
:1051F000E6CF80918805882341F0853041F0809189
:10520000E80083FFBDCF81E0089582E0089583E048
:105210000895982F973028F08F708093E90081E0EF
:1052200008959093E900242F762F50E0981731F0DD
:105230007091EC002091ED005091F00021FD02C032
:105240009F5FE8CF3091EB003E7F3093EB003091D1
:10525000ED003D7F3093ED003091EB0031603093F5
:10526000EB007093EC002093ED005093F000209140
:10527000EE0027FDE5CF80E008958091890587FF46
:1052800013C08091E80082FF06C08091E8008B7710
:105290008093E80004C0809188058111F2CF0895C1
:1052A000809188058823D9F38091E80080FFF8CFAA
:1052B0008091E8008E77ECCF2091E4003091E500FA
:1052C00095E6A9012091EC00822F817020FF06C095
:1052D0008091E80080FF06C080E008952091E800FA
:1052E00022FD1AC080918805882389F0853089F0D5
:1052F0008091EB0085FD0FC02091E4003091E50026
:1053000042175307F9F29150E1F684E0089582E0E4
:10531000089583E0089581E008950E94FC290E9489
:10532000042AE0EEF0E0808181608083E8EDF0E027
:1053300080818F77808319BCA7EDB0E08C918E7F40
:105340008C9380818F7E80831092870508950F93C0
:105350001F93CF93DF930E94FC290E94042AC8ED7B
:10536000D0E088818F77888388818068888388816E
:105370008F7D888319BC1092880510928405109245
:1053800086051092850500EE10E0F80180818B7F84
:10539000808388818160888342E060E080E00E94B1
:1053A0000929E1EEF0E080818E7F8083E2EEF0E07B
:1053B000808181608083808188608083F801808122
:1053C0008E7F8083888180618883DF91CF911F9158
:1053D0000F910895E8EDF0E080818F7E8083E7ED06
:1053E000F0E080818160808384E082BF81E08093EF
:1053F00087050E94A7290895E8EDF0E080818E7F5F
:1054000080831092E20008951092DA001092E10079
:1054100008951F920F920FB60F9211242F933F936E
:105420004F935F936F937F938F939F93AF93BF93AC
:10543000EF93FF938091E10082FF0BC08091E20027
:1054400082FF07C08091E1008B7F8093E1000E9482
:10545000682C8091DA0080FF19C08091D80080FF0D
:1054600015C08091DA008E7F8093DA008091D90098
:1054700080FF96C080E189BD82E189BD09B400FE4C
:10548000FDCF81E0809388050E944E268091E10047
:1054900080FF19C08091E20080FF15C08091E2007A
:1054A0008E7F8093E2008091E20080618093E20031
:1054B0008091D80080628093D80019BC85E08093E9
:1054C00088050E9462268091E10084FF2BC08091B4
:1054D000E20084FF27C080E189BD82E189BD89B5F2
:1054E000982F917080FFFBCF8091D8008F7D8093A3
:1054F000D8008091E1008F7E8093E1008091E200EE
:105500008F7E8093E2008091E20081608093E200D0
:1055100080918405882309F449C084E0809388053C
:105520000E946B268091E10083FF29C08091E200F8
:1055300083FF25C08091E100877F8093E10082E0B6
:1055400080938805109284058091E1008E7F80937E
:10555000E1008091E2008E7F8093E2008091E20082
:1055600080618093E20042E060E080E00E940929CF
:105570008091F00088608093F0000E945F26FF9188
:10558000EF91BF91AF919F918F917F916F915F91BB
:105590004F913F912F910F900FBE0F901F90189534
:1055A00019BC109288050E945C2670CF8091E300A0
:1055B00087FD93E090938805B3CF1F920F920FB6AB
:1055C0000F9211242F933F934F935F936F937F9389
:1055D0008F939F93AF93BF93CF93DF93EF93FF93FB
:1055E000D091E900DF708091EC00C82FC17080FD80
:1055F000C0E81092E9008091F000877F8093F0006E
:1056000078940E94212B1092E9008091F00088602C
:105610008093F000CD2BCF70C093E900FF91EF9104
:10562000DF91CF91BF91AF919F918F917F916F91BA
:105630005F914F913F912F910F900FBE0F901F9050
:105640001895AAE2B0E0E7E2FBE20C94BF2C89E8EF
:1056500095E02091F100FC012193CF01F5E0813923
:105660009F07B9F70E948B268091E80083FF1EC137
:105670008091890590918A059A3008F017C1E92F29
:10568000F0E0EF59F24D0C94AA2C803899F0823852
:1056900009F00CC180918D058F70873008F006C12C
:1056A0008093E9008091EB0085FB882780F91092B8
:1056B000E90006C080918505909186059111826070
:1056C0009091E800977F9093E8008093F10010920A
:1056D000F1008091E8008E77E5C0882309F4D3C0FB
:1056E000823009F0E3C080918B058111D6C0809192
:1056F0008D058F702FEF280F263008F0D7C08093CC
:10570000E9002091EB0020FFC8C0933031F4809174
:10571000EB0080628093EB00C0C09091EB00906141
:105720009093EB0021E030E001C0220F8A95EAF768
:105730002093EA001092EA008091EB008860EACFA3
:105740008111B4C010918B051F778091E3008078A0
:10575000812B8093E3008091E800877F8093E800AD
:105760000E943D298091E80080FFFCCF8091E300FA
:1057700080688093E30082E0111183E080938805C4
:1057800095C08058823008F091C080918B0590912F
:105790008C058C3D23E09207A1F583E08A838AE2A1
:1057A00089834FB7F894DE01139620E03EE051E282
:1057B000E32FF0E050935700E49120FF03C0E295FF
:1057C000EF703F5FEF708E2F90E0EA30C0F0C79629
:1057D0008D939D932F5F243159F74FBF8091E8003F
:1057E000877F8093E8006AE270E0CE0101960E9414
:1057F0004C288091E8008B778093E80057C0C096D2
:10580000E7CF60918D0570918E05AE014F5F5F4FC0
:105810000E948C27BC01892B09F448C09091E800B4
:10582000977F9093E80089819A810E94AA28E1CF0E
:105830008038E1F58091E800877F8093E8008091CF
:1058400084058093F10045CF811130C090918B0584
:10585000923060F58091E800877F8093E800909314
:1058600084050E943D2980918405882311F084E0FD
:1058700005C08091E30087FDFACF81E08093880521
:105880000E94762613C080918B05813079F481E0E7
:10589000933009F080E0809386051092E9008091B2
:1058A000E800877F8093E8000E943D298091E8000E
:1058B00083FF0AC08091E800877F8093E800809191
:1058C000EB0080628093EB00AA96E3E00C94DB2C63
:1058D0000895CF93809188058823A1F0C091E900B5
:1058E000CF709091EC00892F817090FD80E8C82BDB
:1058F0001092E9008091E80083FD0E94212BCF7077
:10590000C093E900CF9108950E948D2910928805D7
:105910000895E8EDF0E08081806180838AE18A95D6
:10592000F1F700C08091D9008170089597FB072E90
:1059300016F4009407D077FD09D00E94E72C07FCED
:1059400005D03EF4909581959F4F0895709561958F
:105950007F4F0895EE0FFF1F0590F491E02D0994FD
:105960002F923F924F925F926F927F928F929F926F
:10597000AF92BF92CF92DF92EF92FF920F931F935D
:10598000CF93DF93CDB7DEB7CA1BDB0B0FB6F8940E
:10599000DEBF0FBECDBF09942A88398848885F844E
:1059A0006E847D848C849B84AA84B984C884DF80BF
:1059B000EE80FD800C811B81AA81B981CE0FD11DA3
:1059C0000FB6F894DEBF0FBECDBFED010895AA1B40
:1059D000BB1B51E107C0AA1FBB1FA617B70710F0DA
:1059E000A61BB70B881F991F5A95A9F7809590950C
:1059F000BC01CD010895FB01DC0104C08D91019033
:105A0000801921F441505040C8F7881B990B089524
:105A1000FB01DC0102C001900D9241505040D8F7CB
:105A20000895F999FECF92BD81BDF89A992780B566
:105A30000895A8E1B0E042E050E00C94452D262FF7
:105A4000F999FECF92BD81BDF89A019700B4021674
:105A500039F01FBA20BD0FB6F894FA9AF99A0FBE22
:105A600008950396272F0E94202D0E941F2D252F79
:105A70000E94202D242F0C94202D0196272F0E9468
:105A8000202D0C941F2DDC01CB01FC01F999FECFD8
:105A900006C0F2BDE1BDF89A319600B40D924150B6
:105AA0005040B8F70895F894FFCF4E054E057F0596
:105AB0007F050C062806AE05AE053306A406B30620
:105AC000B306452B6D2B562C6D2B562CA02BC12BC2
:065AD000562C182C242CBA
:105AD600EC011E020000000000000000005B216CCB
