:100000000C94E9010C9406020C9406020C945523FE
:100010000C9406020C9406020C9406020C94060240
:100020000C9406020C9406020C94A02A0C94742BD7
:100030000C947B250C9406020C9406020C94060288
:100040000C9406020C9406020C9406020C94060210
:100050000C9406020C941E260C9406020C940602C4
:100060000C9406020C9406020C9406020C940602F0
:100070000C9406020C9406020C9406020C940602E0
:100080000C9406020C9406020C9406020C940602D0
:100090000C9406020C9406020C9406020C940602C0
:1000A0000C9406020C9406020C94060214001A002A
:1000B000090013000A0004001500160017000700CD
:1000C0001D001B000600190005000057E10000009C
:1000D000000000000D000F0018001C002A000B009B
:1000E000110008000C0012000E001000360037004E
:1000F00034002C00B45D0000000000002900220242
:100100001F02230231022B0037003600380025027F
:10011000E2003C003A003B0035000057E1000000DF
:10012000000000002D002400250026002A002E02D9
:1001300021002200230028002E001E001F002000A6
:1001400027002C000100000000000000290021020F
:100150002002250224022B00360226022F022F0045
:10016000E20043004400450035000057E100000074
:10017000000000004A00500152004F012A004D00CB
:10018000500051004F0028002E0256002D022E0074
:1001900038002C0001000000000000002900FB00D6
:1001A000F900FC00A9002B00FF00FA00FE00AE00E1
:1001B000E000E300E20046004800B35DE10000001B
:1001C00000000000F5005000ED004F002A00F40090
:1001D000EF00EE00F0002800E600E7004700E40032
:1001E000B25DF100F20000000000000036003700B0
:1001F00000000000000000002A2B28000000000082
:1002000000000000000000000000002900000000C5
:100210002C1E3420212224342627252E362D373833
:10022000271E1F202122232425263333362E37383C
:100230001F0405060708090A0B0C0D0E0F101112FA
:10024000131415161718191A1B1C1D2F3130232DC6
:10025000350405060708090A0B0C0D0E0F101112C4
:10026000131415161718191A1B1C1D2F3130354C75
:10027000000000000000000000000000000000007E
:10028000000000000000000000000000000000006E
:10029000000000007E0F00D4FFFFFFC700000078C1
:1002A0001A034600650072007200690073002000A6
:1002B00073007700650065007000000008034400CB
:1002C0005000420000000403090409023B0002013F
:1002D00000A0FA0904000001030101000921110135
:1002E0000001224000070581030800010904010004
:1002F0000103000000092111010001227B00070514
:1003000082032000011201000200000008ABC23984
:100310003901000102000105010902A1018502095C
:1003200001A1000509190129081500250195087585
:100330000181020501093009311581257F9502757A
:1003400008810609381581257F9501750881060504
:100350000C0A38021581257F950175088106C0C0F9
:1003600005010980A101850319012AB7001501269D
:10037000B700950175108100C0050C0901A1018528
:100380000419012AA002150126A002950175108109
:1003900000C005010906A101050719E029E71500BC
:1003A00025019508750181029501750881010507F0
:1003B000190029FF150026FF009506750881000524
:1003C000081901290595057501910295017503919B
:1003D00001C011241FBECFEFDAE0DEBFCDBF13E0B6
:1003E000A0E0B1E0EAE5FEE502C005900D92A43F71
:1003F000B107D9F725E0A4EFB3E001C01D92AC38F6
:10040000B207E1F70E94C0150C94152F0C94000060
:10041000CF93DF93EB01833B2DE5920709F44AC0AC
:10042000843B2DE59207B1F0823B9D4509F051C018
:100430008A81811105C0C0E08C2FDF91CF91089592
:100440000E94560C8272B9F3BE0181E09DE50E94C4
:10045000DB18F1CFCA81CC23E1F00E94560C8272E6
:1004600061F084EB0E94B20482EF0E94B2040E9409
:10047000690C83E00E942E08DECF0E94560C817129
:1004800031F081E00E942E080E94690CD4CF82E0F6
:10049000F9CF81E00E941A08882319F081E00E94B8
:1004A0003E0882E00E941A08882329F282E00E9416
:1004B0003E08C2CF8A81882361F083E00E943E0813
:1004C00081E00E943E0882E00E943E0880EE0E9489
:1004D0006604888181110BC08981833041F4CA810F
:1004E000C111AACF80EE0E94B2040E94690CC1E043
:1004F000A3CF9C013A9521153F4150F5FC01EE2711
:10050000F170BC0166277270AC01442754709C01E5
:100510002227387094FF0EC080E1EF2B09F480E0B1
:10052000672B09F08062452B09F08064232B89F04A
:100530008068089581E0EF2B09F480E0672B09F0D3
:100540008260452B09F08460232B19F088600895A0
:1005500080E00895CF93DF93EB010E947902FE01C2
:100560000995DF91CF910895CF93DF93EC01805EE1
:100570009109089720F064E577E0209711F465E091
:1005800075E0CE010E94AA028C2F0E946604DF91C2
:10059000CF910895CF93DF93EC010E94B204CE0176
:1005A000805E9109089720F06BE577E0209711F4C1
:1005B0006CE075E0CE010E94AA02DF91CF91089510
:1005C0000F931F93CF93DF938C01EB010E94B40232
:1005D000209741F4C8010E94CA02DF91CF911F9178
:1005E0000F9108958FE99FE00197F1F700C0000097
:1005F0002197EECF70E060E08933910511F460E55A
:1006000070E00E94E002089581E008950E940802CF
:10061000089508950E9409030895A5E0B0E0E3E17C
:10062000F3E00C94562D49835A833091FB03898162
:100630009A81311119C0662399F0222389F00E9412
:10064000F408182F682F89819A810E94D008698147
:100650007A81812F0E94EB0F2596E3E00C94722D96
:100660000E94E208182FF3CF0E94F40869817A8172
:10067000F1CFFC01262F86819781009739F44081C4
:1006800051816281738184810E940D030895CF930B
:10069000DF93EC0161E00E943903BE010E94631CFC
:1006A000DF91CF910895CF93DF93EC0160E00E943A
:1006B0003903BE010E940A03DF91CF9108950E9481
:1006C0007B1108950E947F11089508950E94780774
:1006D0000E9465032FEF84E39CE02150804090400E
:1006E000E1F700C0000008950E9466030E944226C0
:1006F00008950E9466030E94532608950F931F9346
:10070000CF93DF938C0161E00E943903EC01B801C3
:100710000E941922B801CE010E940603811106C071
:1007200080E0DF91CF911F910F910895B801CE0124
:100730000E944E1F8823A1F3B801CE010E943A22E5
:10074000882371F3B801CE010E94A018882341F3D9
:10075000B801CE010E946121882311F3B801CE01B6
:100760000E94DB188823E1F2B801CE010E94091E25
:100770008823B1F2F8018281882361F0CB35FDE551
:10078000DF0701F158F4C115ECE5DE0791F0CF3D2C
:10079000DC4591F0C8010E940403C3CFCD358DE53F
:1007A000D80769F090F0C83ADD45A1F70E947903B7
:1007B000B7CF0E947403B4CF0E94130EF7CF0E94EC
:1007C000510DE8CF0E945B0DE5CF0E945F0DE2CF97
:1007D0000E9458250E94050408950E9409040E9461
:1007E0005D25089508950E94F203089581E008951B
:1007F0000E94F60308950895CF93C82F0E94F30333
:100800008C2F0E94F803CF91089580E00E94FC0392
:1008100008950E947B240E94FC030895CF930E94B8
:100820007B24C82F8091F6038C1779F0C093F603D0
:100830000E94E7256093F7037093F8038093F90310
:100840009093FA038C2F0E94FC03CF910895ADE0A2
:10085000B0E0EDE2F4E00C94572D49875A876B879E
:100860007C878D8761110E947C0C1D821E821F82F5
:10087000188685E0FE013996DE01119601900D92F1
:100880008A95E1F78C819D81892B71F429813A81C8
:100890004B815C816D817E818F8198850E94940B54
:1008A0002D96E2E00C94732D89819A8189238F3FE4
:1008B00069F3CE0101960E9447038111E7CFF0CF83
:1008C000FC01808191810E9426090895CF93C82F51
:1008D0008823B9F08CEF8C0F813AA8F46C2F8091AB
:1008E0005B0190915C010E94E924882329F08C2F00
:1008F0000E94330C0E94A90C8C2F0E942B0C0E948A
:10090000A90CCF91089580E28C0F883048F4C7700D
:1009100081E001C0880FCA95EAF70E94590CEFCF19
:10092000EBE5EC0FE33040F4F0E0E354FC4F808162
:1009300090E00E94AB24E5CFE8E5EC0FE73150F4FE
:10094000F0E0EE0FFF1FE157FC4F808191810E9484
:10095000C124D7CFCD3EA8F28C2F0E9444160E940E
:10096000F816CFCF882379F19CEF980F913A28F4AD
:100970000E94330C0E94A90C089590E2980F9830C1
:1009800050F4877091E001C0990F8A95EAF7892F9A
:100990000E945F0CEFCF9BE5980F933028F490E016
:1009A00080E00E94AB24089598E5980F973128F4D1
:1009B00090E080E00E94C12408958D3E20F00E94C6
:1009C00098160E94F81608951F93CF93DF93182F5F
:1009D000EB010E946604209739F4812F0E94B20433
:1009E000DF91CF911F9108958FE99FE00197F1F773
:1009F00000C000002197EFCF70E060E0893311F470
:100A000060E570E00E94E4040895882321F00E94CC
:100A1000590C0E94A90C0895882321F00E945F0CB4
:100A20000E94A90C0895B0E0A0E0E9E1F5E00C9483
:100A3000502D6C01D62FC72FFC011281F580F29446
:100A40009FE0F9220E944F0CE82E8823B9F0E12E96
:100A50001123A1F08C2F807F803421F080E28D0F54
:100A60008830D0F080915D0582FF16C082E00E9440
:100A7000200D0E944F0C91E0E82EE926BC2EB29486
:100A80008FE0B822FBE0FB1508F468C0EB2DF0E026
:100A9000E95EF04D0C94412DE12CF0CF0C2F0F703E
:100AA000C07F11F00295007F112399F0002359F0C7
:100AB00080E28D0F883010F0D11107C0802F0E9486
:100AC000590C0E94A90C8D2F41C0802F0E946F0CE1
:100AD000F8CF8D2F0E94B204002309F43FC080E2BA
:100AE0008D0F883010F0D11104C0802F0E945F0C50
:100AF00003C0802F0E94750C0E94A90C2FC00C2FE0
:100B00000F70C07FC03211F00295007FDD2381F0AD
:100B1000D13009F463C0112309F46DC0FF2009F43A
:100B200063C0F601858180FFCECF8F7085835CC066
:100B300080915D0582FD33C0112359F0002329F017
:100B4000802F0E94590C0E94A90C80E00E9466042C
:100B500005C080E00E94B2040111C7CFEB2DE85020
:100B6000FF0B349720F40E947B240E94FC03EE20AC
:100B700089F00E944B0C80FD0DC0F60112820E948C
:100B8000450C0E942E08C6010E942A070E94450CAF
:100B90000E943E08CDB7DEB7E9E00C946C2D11231E
:100BA00089F0F11006C00E948B0C802B0E94050575
:100BB000D5CF21E0F212F7CF0E948B0C802B0E9440
:100BC000920CCCCFF11006C00E949F0C802F0E9487
:100BD0000C05C4CF31E0F31609F2F6CF112331F042
:100BE00085E08F1508F4BACF802FE0CF94E09F15F1
:100BF00008F4B4CFEBCFFF2049F3D93349F4FFEF2A
:100C000027EE33E0F15020403040E1F700C0000013
:100C10008D2F0E94B204A2CF8C2F8695869583706B
:100C200069F0813009F09ACF8D2F9C2F93701111AC
:100C300002C090E080E00E94C12490CF8D2F9C2FB5
:100C40009370111102C090E080E00E94AB2486CF27
:100C50008D2F112329F00E9444160E94F8167ECF92
:100C60000E949816FACF8C2F8370A1F5111176CFC0
:100C70004D2F429546954770440F440F2D2F2F70EE
:100C800030E0042E02C0220F331F0A94E2F790E0F6
:100C900080E0D4FF09C08FE090E002C0880F991F68
:100CA0004A95E2F780959095C695C695C370822BBC
:100CB000932BC23049F058F4C13019F00E94E0077C
:100CC0004DCF0E94D7074ACF0E94E90747CF0E9425
:100CD000D40744CF8695112311F08C2F817088237F
:100CE00009F43CCF4D2F429546954770440F440F71
:100CF0002D2F2F7030E0042E02C0220F331F0A94D4
:100D0000E2F790E080E0D4FF09C08FE090E002C0FD
:100D1000880F991F4A95E2F780959095C695C695DC
:100D2000C370822B932BC23049F058F4C13019F0B4
:100D30000E94690813CF0E94600810CF0E947208B9
:100D40000DCF0E94F8070ACFCF70112329F08C2F06
:100D50000E942E088D2F2ACF8D2F0E940C058C2FDC
:100D60000E943E08FBCED23F51F160F4D03FB9F073
:100D7000D13F81F0112309F449C0F110A4CE8C2F8A
:100D80008F7121C0D33F11F1D43FA1F780915D0550
:100D900082FD26C08C2F8F71112311F314C01123F3
:100DA00049F084E08F1508F4D9CE8C2F8F710E9402
:100DB0005008D4CE95E09F1508F4D0CEF6CF8C2FF6
:100DC0008F711111CDCF0E942E08C8CE112329F0AA
:100DD0008C2F8F710E942208C1CE0E940108BECEC6
:100DE000112349F0CF718C2F0E942E0863E08C2FC5
:100DF0000E94020DB3CE81E00E94200DE1E0EF15CC
:100E000008F0ACCE82E00E94200DA8CEF110F5CE05
:100E10008C2F8F71A5CF0F931F93CF93DF93EC018E
:100E20008E819F81009781F00E94FA0E8C010E94B2
:100E30007B080E94D307B801CE010E941305DF9101
:100E4000CF911F910F910895688179818A810E94C5
:100E50003109ECCFCF93DF93EC018B819C81892BFF
:100E600029F08881998189238F3F51F4DF91CF91B7
:100E70000895CE010E940B07CE010E945303F6CFC6
:100E8000CE010E947E038111F4CF0E944F0C882373
:100E900069F38A81882351F380915D0582FFE6CF53
:100EA00082E00E94200DE2CF882321F00E946F0C87
:100EB0000E94A90C0895882321F00E94750C0E94BD
:100EC000A90C089590E080E00E94AB2490E080E0BF
:100ED0000E94C1240E947C0C0E94A90C0E9414173D
:100EE0000E94F81608950E943B0C0E946207089524
:100EF0000E94690C0E947307089592959F70963026
:100F000091F058F4925F9F70923058F4803F19F03E
:100F100030F4883E30F481E008959A5FF4CF843F46
:100F2000D1F380E00895883EB0F3813FD1F7F3CF4D
:100F3000FC0183819481892B29F08081918189230F
:100F40008F3F39F480E008950E94FA0E0E947D07D9
:100F50000895868197810097B9F7808191810E94D9
:100F60002609F4CFA5E0B0E0E8EBF7E00C94572DAC
:100F70002596E2E00C94732DA8E0B0E0E2ECF7E0F7
:100F80000C94572D2896E2E00C94732D08950E943E
:100F9000C60708950E94C707909313048093120414
:100FA0000E946207089508950E94CA07089520913B
:100FB000120430911304822B932B0E94CA070895C8
:100FC0002091120430911304822393230E94CA07B4
:100FD00008952091120430911304822793270E94D0
:100FE000CA0708950E94C60708950E94F20708954F
:100FF0000E94F50790931104809310040E946207E9
:10100000089590E080E00E94F8070895009729F481
:1010100081E0662371F080E00CC021E030E002C086
:10102000220F331F6A95E2F72823392381E0232B0F
:1010300091F30895682F80911004909111040E94FB
:101040000608089521E030E0A90102C0440F551FB1
:101050008A95E2F7CA010E94F807089521E030E07E
:1010600002C0220F331F8A95E2F7809110049091FD
:101070001104822B932B0E94F807089521E030E0A1
:1010800002C0220F331F8A95E2F720953095809198
:10109000100490911104822393230E94F80708956D
:1010A00021E030E002C0220F331F8A95E2F78091E1
:1010B000100490911104822793270E94F807089545
:1010C0002091100430911104822B932B0E94F80779
:1010D00008952091100430911104822393230E94DB
:1010E000F807089520911004309111048227932766
:1010F0000E94F80708950895262F277091E001C0F7
:10110000990F2A95EAF723E0769567952A95E1F7F6
:10111000660F771F660F771FFA01E60FF71F50E083
:1011200040E0682F70E08191DF0111979B01042E50
:1011300002C0369527950A94E2F721702195282759
:10114000292328272C934F5F5F4F4430510559F7CF
:101150000895A82FA77023E0969587952A95E1F723
:10116000880F991F880F991FFB01E80FF91F50E0A6
:1011700040E080E0219130E00A2E02C036952795AC
:101180000A94E2F721703327042E01C0220F0A943B
:10119000EAF7822B4F5F5F4F4430510559F70895AE
:1011A000262F983070F4853060F4682F70E085E069
:1011B000989F600D711D11244CEF53E0822F0E9407
:1011C0007C080895292F983068F4853058F490E011
:1011D0006CEF73E035E0239F800D911D11240E9478
:1011E000A908089580E00895B0E0A0E0EAEFF8E0F3
:1011F0000C94502D7C0100911004109111048091E9
:10120000120490911304082B192BCFE0D0E0CC24CA
:10121000C394D12CBC2EC6010C2E02C0880F991F7E
:101220000A94E2F780239123892B49F4219790F7C0
:10123000B12C8B2DCDB7DEB7E9E00C946C2DB70146
:101240008C2F0E940610019789F3F3CFCF93DF9381
:10125000EC010E94F408BE010E940610DF91CF91BC
:1012600008951F93CF93DF93EB019091FB03992394
:1012700039F0CB010E942609DF91CF911F9108958B
:10128000882369F0CB010E94F408182F682FCE0143
:101290000E94D008BE01812F0E940610EDCFCB0125
:1012A0000E94E208182FF6CFCF93DF93C091140469
:1012B000809115048C1303C0DF91CF910895D0E085
:1012C000FE0183E0EE0FFF1F8A95E1F7EA5EFB4F18
:1012D000208131814281538164817581868197812A
:1012E0000E94BC072196C770E3CF2091560430912D
:1012F0005704409158045091590460915A047091D8
:101300005B0480915C0490915D040E94BC07089589
:10131000CF93DF9380915B04807F09F049C0809177
:101320005804882309F444C080911404C091150422
:101330006091560470915704A0915904B0915A04D9
:10134000D62FD723C817A1F190E0109711F0DF3FF7
:1013500019F401968770F6CF9C0143E0220F331FEA
:101360004A95E1F7F901EA5EFB4F41814713F1CF5E
:1013700040814613EECF42814111EBCF438154812E
:101380004A1B5B0B4A3F510520F780915B048F702D
:10139000806180935B04F901E55EFB4F80818F7073
:1013A0008061808386E594E00E942A070E945409A8
:1013B000DF91CF910895A5E1B0E0E1EEF9E00C9462
:1013C0004F2D8C0185E0F801DE01519601900D92C0
:1013D0008A95E1F7F801E28046E5C42E44E0D42E78
:1013E0006091590470915A046115710509F480C126
:1013F0009091560420915704892F82238F3F09F43E
:1014000077C140815181A380B480F0905804F501E8
:10141000E61BF70BFF2009F420C180915B04382FF5
:10142000307FEA3FF10508F0CAC0311177C0FE2CC9
:10143000251320C094131EC060915C0470915D045C
:10144000F8012681378162177307A1F4E11012C0F9
:101450008F70806180935B040E947509C6010E94B1
:101460002A0780915B04F80185838F2D6596EAE059
:101470000C946B2DA114B10429F0842F85238F3F88
:1014800009F04FC180E0F82FF170DF2E80FF3CC0E3
:101490008091140420911504821315C0498B5A8B36
:1014A00089899A890E942609292F22952F70223036
:1014B000F8F0243020F59F70F9F0F8019581907FC5
:1014C000D9F4D12C1FC090E0FC0133E0EE0FFF1FD8
:1014D0003A95E1F7EA5EFB4F3181351306C0308162
:1014E000341303C032813E110FC001968770D4CFF0
:1014F0009F7011F0882329F3805E883010F3C801B3
:101500000E942A07FD2CB1CFEE2009F4AECF8091C6
:101510005B04816080935B04F12CA7CF25131DC071
:1015200094131BC040915C0450915D04F801268126
:1015300037814217530789F4E1100FC08583C80132
:101540000E942A0788E0F801A6E5B4E001900D9218
:101550008A95E1F70E94750988CFC8010E94980713
:10156000882349F1EE2039F180915B048032A0F0AC
:1015700020915604309157043A8729871B86BD86EF
:10158000AC868E8780915C0490915D04988B8F87E8
:10159000CE0109960E942A0788E0F801A6E5B4E08A
:1015A00001900D928A95E1F70E9488090E947509C1
:1015B000FF24F3945ACFC8010E942A07F9CF3111B2
:1015C00013C07A2DBD8AAC8A6E2D8D890E94B20718
:1015D00086E594E00E942A0788E0F60111928A9538
:1015E000E9F70E94750998CF251318C0941316C007
:1015F00040915C0450915D04F801268137814217C7
:10160000530761F4E1100AC08583C8010E942A07CC
:1016100088E0F60111928A95E9F727CFC8010E9468
:101620009807882341F2EE2031F280915B048032EA
:1016300008F4B2CF20915604309157043A8329839D
:101640001B82BD82AC828E8380915C0490915D048C
:1016500098878F83CE0101969DCFEA3FF105D8F59B
:10166000FE2CEE2009F4A7CF251327C0941325C024
:1016700020915C0430915D04F801868197812817E0
:101680003907D9F490915B0490FD0EC0907F61F012
:1016900080915B048583903F09F451CF982F907F10
:1016A000905F8F70892B4ACF88E0F801A6E5B4E0FF
:1016B00001900D928A95E1F7D8CEC8010E94980753
:1016C00081116ACF80915B04816080935B04C801C3
:1016D0000E942A07CACE7A2DBD8AAC8A6E2D8D89CA
:1016E0000E94B20788E0F60111928A95E9F732CF9D
:1016F000EE2009F460CFC8010E949807F82E8823D5
:1017000009F459CF88E0F801A6E5B4E001900D9204
:101710008A95E1F786E594E00E9460040E948809BA
:1017200019CF81E08E25AFCEA0E1B0E0EAE9FBE081
:101730000C94572D29873A874B875C876D877E8766
:101740008F87988BCE0109960E94DB098823A9F028
:101750008C859D85892B39F029853A85822F8323B5
:101760008F3F09F06FC08091140490911504891384
:1017700043C06096E2E00C94732D88E0FE01399638
:10178000DE01119601900D928A95E1F78C859D8579
:10179000892B49F389859A8589238F3F21F3A0916D
:1017A0001504B0E0CD0101968770992720911404AB
:1017B0002817190671F40E947807109215041092E8
:1017C000140488E0E6E5F4E0DF011D928A95E9F76C
:1017D000CACF93E0AA0FBB1F9A95E1F7AA5EBB4F51
:1017E00098E0FE01319601900D929A95E1F7809371
:1017F00015040E945409B7CFB8E08B9FC001112493
:101800008A5E9B4F0E94DB09882309F4B2CFE091E6
:10181000140428E0E29FF0011124EA5EFB4F2081CE
:1018200031814281538164817581868197810E94D3
:10183000BC078091140490E00196877099278093EB
:10184000140491CF4B855C856D857E858F85988945
:101850000E94BC0788CF682F80915B0190915C014A
:101860000E941F250895682F80915B0190915C0173
:101870000E942225089580915B0190915C010E9455
:1018800025250895809167040895809166048595C3
:101890008595859508958091660487700895909147
:1018A0006604977081E009F480E0089580917404E3
:1018B000089590917404892B809374040895809501
:1018C0009091740498239093740408958093740401
:1018D000089510927404089580917304089590916E
:1018E0007304892B809373040895809590917304F9
:1018F000982390937304089510927304089580932D
:1019000072040895109272040895809371040895EA
:1019100010927104089580916804089508950E94BA
:101920008E0C089590915D0592FF08C09091680417
:10193000981721F0809368040E948F0C089580917D
:101940006804882329F01092680480E00E948F0CBC
:101950000895CF93DF93E0915B01F0915C0180915A
:1019600074048083E0915B01F0915C01808190912F
:101970007304892B808390916804992381F0E0910E
:101980005B01F0915C018081892B808380915B01F8
:1019900090915C010E94D72481110E949F0CE091DC
:1019A0005B01F0915C0180917104982F909580818A
:1019B00089238083E0915B01F0915C0180819091AB
:1019C0007204892B8083C0915B01D0915C0148E057
:1019D00050E06EE574E0CE010E94BD2E892B59F0D7
:1019E00088E0FE01AEE5B4E001900D928A95E1F742
:1019F000CE010E949224DF91CF91089508950E9414
:101A0000FE0C089590915D0592FF11C098E0899FAA
:101A100090011124622B609366040E942E0880912D
:101A200066048595859585950E94FF0C08950E9412
:101A30002E0808951092660480E00E94FF0C08951D
:101A4000909166048095892380936604282F2770DF
:101A500091F4282F082E000C330B9217130659F01F
:101A600090915D0592FF07C08595859585950E94AB
:101A70003E080E941A0D089590915D0592FB222761
:101A800020F9281769F080FB92F990935D05809109
:101A90005C0590915D050E948D0D82E00E94200DF5
:101AA000089580915D0582FB882780F991E0892760
:101AB0000E943C0D089581E00E943C0D089580E055
:101AC0000E943C0D08956FEF7FEF90E080E00E9450
:101AD000FF2E089590E080E00E94DB2E21E0883EFA
:101AE0009E4F09F020E0822F089582E090E00E944E
:101AF000D32E089583E090E00E94D32E0895CF93D3
:101B000084E090E00E94D32EC82F82E290E00E94F1
:101B1000D32E982F8C2FCF910895CF93C92F682F54
:101B200084E090E00E94E12E6C2F82E290E00E941F
:101B3000E12ECF910895AB01BC018FE090E00E94AF
:101B4000F32E0895AB01BC0183E190E00E94F32ED7
:101B5000089560E070E0CB010E94A20D089560E05E
:101B600070E0CB010E949B0D0E94A90D089568EEC4
:101B70007EEF90E080E00E94FF2E60E082E090E047
:101B80000E94E12E60E083E090E00E94E12E10923E
:101B900013041092120460E084E090E00E94E12EB1
:101BA00064E082E290E00E94E12E60E085E090E057
:101BB0000E94E12E60E086E090E00E94E12E6FEF4F
:101BC00087E090E00E94E12E40E050E0BA0188E01A
:101BD00090E00E94F32E60E08DE090E00E94E12E04
:101BE00040E050E0BA0188E190E00E94F32E60E00E
:101BF00087E190E00E94E12E40E050E0BA018CE1E4
:101C000090E00E94F32E70E060E080E290E00E949D
:101C1000FF2E40E050E0BA0188E190E00E94F32EF0
:101C20000E94AF0D08950E94B70D08958EE090E0D8
:101C30000E94D32E91E0811101C090E0892F089578
:101C4000682F8EE090E00E94E12E08950E94E72523
:101C50006093830470938404809385049093860436
:101C600060937F0470938004809381049093820436
:101C70000895089508950E943A0E089508950E94C7
:101C80003E0E089580E391E10E9471240E94390E76
:101C90000E943B0E08950E94B1130895089508957F
:101CA0000E944E0E0E944F0E08950E945C110E94E9
:101CB000FB030E94DE1708950E94D2250E94F010B7
:101CC0000E94C9130E944A120E94550E0E949C173E
:101CD0000E94D9130E943F0E08950E94B1138823D9
:101CE00031F00E94121F0E9495220E941C1C089530
:101CF000AAE0B0E0EEE7FEE00C944F2D0E949E12A9
:101D000087E7A82E84E0B82E750110E0F701019155
:101D10007F01812F0E9482111F5F183009F440C09B
:101D20000817A1F38091870481FD0E9488110E9409
:101D30004B0EC82E10E0812F0E948211082FF50152
:101D400081915F01081731F1D02ED826F12CEE24B5
:101D5000E3948D2D8E21B1F0CC20A1F0FE821F8363
:101D600091E0802F8E2109F490E098870E94DB2576
:101D70008160782F9A8789874E815F8168858A85FF
:101D80000E942704F394EE0CF5E0FF12E2CFF50178
:101D9000319700831F5F183071F60E94260E20C015
:101DA0000813C0CF0E94DB258C01809175049091AF
:101DB000760408171907A1F08FEF89838A831B82A5
:101DC0000E94DB258160782F9D838C8349815A8115
:101DD0006B818D810E942704109376040093750413
:101DE0000E946D0E0E9430170E940E042A96EAE0AF
:101DF0000C946B2DCF93DF930E940B10EC01811597
:101E000021E5920708F042C0811530E5930708F0FC
:101E10009FC0883E910530F5803E910508F094C042
:101E2000883A910588F4853A910508F086C081309A
:101E3000910509F489C0009709F486C0049708F059
:101E400083C0D0E0C0E080C08F3B9105D0F7C85A76
:101E5000D0E0CC0FDD1FC054DC4F0990D881C02DDD
:101E6000D46472C0811540E2940750F4C11581E03A
:101E7000D80708F069C0CD3ED10518F3D06564C01D
:101E800081159044F0F2DF70D06A5EC0811535E5AF
:101E9000930718F5811544E5940708F085C0C1152E
:101EA00083E5D80708F06CC0C11522E5D20708F415
:101EB00062C0CE018370992721E030E002C0220F7A
:101EC000331F8A95E2F7C695C69580E2C89FE00168
:101ED0001124C22BD32BDC6837C0811539E5930759
:101EE000A8F4811548E5940708F063C0C11586E59C
:101EF000D80708F0A6CF8C2F0E94AD10C82FD0E0D5
:101F0000DC2FCC27CC27DF71D0621EC081152AE5DB
:101F1000920708F453C090568115904208F091CF73
:101F20008D2F8F710E94AD1090E0982F8827882701
:101F30009F719C012C2BE901E7CFC55AD0E0C2511B
:101F4000DC4FC881D0E0D064CE01DF91CF910895FD
:101F50008370992721E030E002C0220F331F8A9559
:101F6000E2F7C695C69540E2C49FE0011124C22B5A
:101F7000D32BDD68E9CFDC2FCC27C16FD06AE4CF4B
:101F8000CE018370992721E030E002C0220F331F79
:101F90008A95E2F7C695C69540E2C49FE0011124F8
:101FA000C22BD32BDA68D0CFD82FCC27C46FD06AFE
:101FB000CBCFD82FCC27C06FD06AC6CF8F700E94EE
:101FC000AD1034E0D695C7953A95E1F7CF709C2FC8
:101FD000EC01D069B9CF972F7830A8F4653098F428
:101FE00070E025E0929F600D711D1124FB0198E2C5
:101FF000899FE00DF11D1124EE0FFF1FE455FF4FE7
:1020000085919491089580E090E008950E94EB0FEF
:102010000E94FA0E089582389105B9F1B0F4813327
:10202000910509F47DC048F48932910509F46DC029
:102030008A32910509F47BC008958533910509F42E
:102040005FC08933910509F10895833E9105D9F167
:1020500038F4803E910529F1823E910579F1089589
:10206000863E9105D9F1873E910509F43EC0843E34
:10207000910541F520915D0521FF24C080915C050B
:1020800084FD19C087EE90E0089520915C052370CF
:1020900009F05AC020915D0523FF14C089E290E049
:1020A000089520915C0520FD38C030915D0530FF1A
:1020B00009C024FF43C090E080E0089520915C05B2
:1020C00022FDF7CF089520915C0522FD3AC03091A2
:1020D0005D0530FD39C024FFF5CFEDCF20915C05C3
:1020E00023FFF0CF24FDE7CFCDCF20915C0523FD6A
:1020F0002EC030915D0531FFEECF84EE90E0089563
:1021000020915C0525FFDECFC9CF20915C0525FD20
:1021100021C020915D0523FFD5CF89E390E0D2CF88
:1021200020915C0526FFCECF8AE290E008952091B1
:102130005C0526FFC7CF81E390E0089583EE90E031
:10214000089582EE90E0089580EE90E0089586EE86
:1021500090E0089585E390E0089590915C0592FFEA
:1021600006C0282F28712830F9F4877F846093FFF8
:1021700006C0282F28712831F1F4877E84612091D0
:102180005D0520FF06C0382F38713830D9F4877FBD
:10219000816021FF06C0282F28712831D1F4877E65
:1021A000816194FD877E0895282F24712430F9F6EB
:1021B0008B7F8860DCCF282F2471243101F78B7E40
:1021C0008861DDCF382F3171313019F78E7F88600B
:1021D000E0CF282F2171213121F78E7E8861E1CF58
:1021E000109258051092590510925A0510925B05ED
:1021F0000895CF92DF92EF92FF926B017C010E94D3
:10220000B11381110EC00E94E725C61AD70AE80A49
:10221000F90AC0925805D0925905E0925A05F092F9
:102220005B05FF90EF90DF90CF9008950F931F9381
:102230000E94B113882329F00E94E7251F910F9176
:1022400008950E94E72500915805109159052091A5
:102250005A0530915B05600F711F821F931FEECFEF
:1022600080E008950E94630D0895CF930E949E120E
:102270002FEF89EF90E0215080409040E1F700C0BF
:1022800000000E949E120E94AE13C4E08111C0E0C3
:102290008C2F0E94821190E002C095958795CA9577
:1022A000E2F780FF04C00E9432110E944226CF91C3
:1022B00008950E94351108950E946A0D811102C08F
:1022C0000E94130E0E94750D809387040E947F0D5B
:1022D00090935D0580935C050E9459110E947A0DD0
:1022E00090E00E94D40780911004909111040E9404
:1022F000F507089508950E947A11089508950E949F
:102300007E110895E82FF0E0E959FA4F8081089591
:10231000089508950E9489110895EF92FF921F93E6
:10232000CF93DF9300D000D0CDB7DEB70E94B113BA
:10233000182F60916F05882309F447C019821A820B
:102340001B821C82862F90E09E012F5F3F4F7901F8
:10235000B90189599A4F0E94E7138823E9F08091C7
:102360005E0590E044E050E0B70189599A4F0E9421
:10237000BD2E21E020938804892BC9F410E00E942F
:102380006203812F0F900F900F900F90DF91CF91EC
:102390001F91FF90EF90089580918804882371F336
:1023A00084E0F70111928A95E9F710928804E09190
:1023B0005E05F0E0E959FA4F89819A81AB81BC81D1
:1023C00080839183A283B383DACF70E069597A4F17
:1023D00080915E0590E089599A4F0E946E140E9488
:1023E0008A11CFCF1F93CF93DF932DE531E0C1E06A
:1023F000D0E0D90150E040E08D918F3F91F0E82F7F
:10240000E295EF70F0E011A18F70BE0101C0660F80
:102410008A95EAF7962F9095912391A382A1862B16
:1024200082A34F5F5F4F4530510531F72B5F3F4F20
:1024300081E021373807E9F6DF91CF911F910895A8
:10244000CF93DF93AC01A62FB0E085E0689FF00149
:102450001124E35AFE4F75E081E060E091919F3FC7
:1024600081F0C92FC295CF70D0E028A130E09F70D5
:1024700002C0359527959A95E2F7982F20FD90E0B8
:10248000692B880F715051F7A40FB51F6C93DF9122
:10249000CF910895A4E1B0E0E0E5F2E10C94572D6E
:1024A00080917101811126C084E1EBEBF1E0DE0146
:1024B000119601900D928A95E1F7FE013196ADE5F6
:1024C000B1E0CE01459620812C93218111962C9369
:1024D0001197228112962C931297238113962C9395
:1024E0001397248114962C931497359615968E176E
:1024F0009F0749F78091710194E0811190E09093DA
:102500006F0584E0891B80935E050E94F21188E0CC
:10251000E7E6F5E0DF01982F1D929A95E9F7EFE5E0
:10252000F5E0DF011D928A95E9F784E00E94DC1254
:102530000E945F036496E2E00C94732DA8E0B0E083
:10254000E4EAF2E10C94542D8E010F5F1F4F88E0F6
:10255000F80111928A95E9F7F12C6F2DC8010E94BC
:102560002012F394F4E0FF12F8CF48E050E0B801F5
:102570008FE595E00E94BD2E21E0009709F420E050
:10258000892B41F088E0F801AFE5B5E001900D92AC
:102590008A95E1F760916F0570E069597A4F44E0E0
:1025A0008FE595E00E94F712182F0E948D11812B64
:1025B0002896E5E00C94702DCF93C82F25E0829FDC
:1025C000C00111240E94922D80938D0490938E045B
:1025D0009C0180E08C1302C0CF910895F90195E031
:1025E00011929150E9F78F5F2B5F3F4FF3CFB0E02F
:1025F000A0E0EDEFF2E10C94472D1C01962E172F71
:10260000842E722E1092890400918A04002309F40A
:1026100085C00E94DB2520918B0430918C04AC0195
:10262000421B530B9A0190938C0480938B044F3F71
:10263000510509F0E0F4452BB9F0622E10928A049E
:1026400040918D0450918E0440908904E92DF12F22
:1026500090E080E0512CEE24E394F12C881550F0AA
:1026600050928A0440928904711060C070C02FEFAC
:1026700030E0E3CFDA0130E020E06101C80ED91E7E
:102680006C916623D1F0661618F11C926081E60108
:10269000A880762F7A255701022E01C0AA0C0A9431
:1026A000EAF7A722BA2CB626642D70E06A294424E2
:1026B0004394672B09F4412CB08211962F5F3F4F52
:1026C00025303105E9F64B5F5F4F01963196C6CF55
:1026D00066196C93502EF1CF8191D9019D919D0186
:1026E0008927DB0150E040E090E06C01042E02C03D
:1026F000D594C7940A94E2F7C0FE0EC0DC91D111C4
:1027000002C0CC9301E011964F5F5F4F45305105F9
:1027100061F76B5F7F4F15C01C92F5CF2223B9F094
:102720000E94DB2590938C0480938B0460918D0430
:1027300070918E0400918A04F22C292D312FF10121
:10274000CAE08E2F8F19881538F200938A04809181
:102750008904CDB7DEB7E2E10C94632D0E94160E1A
:10276000089580919104811107C00E94202D882333
:1027700051F081E08093910481E090919104913037
:1027800009F080E0089582E0809391040E941B2D5F
:10279000F3CF0E946A0D811102C00E94130E0E94A5
:1027A000AE13809371010E94B11381110E941D1418
:1027B00008950E94B113811102C00E94201408954F
:1027C00081E0909192049A3008F080E008950F9390
:1027D0001F93CF93DF93EC018B01809192048A3099
:1027E000B8F4B801CE010E946B14C82F811122C029
:1027F000809192048F3FB9F40E94DB25909390045E
:1028000080938F048C2FDF91CF911F910F910895AA
:1028100080918F04909190040E94F325843F914011
:1028200000F7C0E0EFCF8F5F809392048A3020F7EB
:10283000C1E0E8CF10929204E5CF0E940F230895E3
:102840000E9412230895B0E0A0E0E9E2F4E10C94C4
:10285000522D7901C82F880FDD0B41155105A9F0C4
:10286000FE0193E0EE0FFF1F9A95E1F7EE58FE4F41
:10287000818192818D569B4F208130E04217530712
:1028800008F49A01A9010E94CA2ECE010E94FB23DE
:10289000D82E8823D1F001151105B9F083E0CC0FB3
:1028A000DD1F8A95E1F7FE01EE58FE4F438150E0AF
:1028B0000417150708F4A801CE58DE4F6C817D81FE
:1028C0006D567B4FC7010E94CA2E8D2DCDB7DEB746
:1028D000E7E00C946E2D0E94651508950E947C150A
:1028E0000895A4E0B0E0E7E7F4E10C94552D609181
:1028F000A8047091A9048091AA049091AB040E944D
:10290000022611E0643671058105910518F10E94D7
:1029100016116E5F7F4F8F4F9F4F69837A838B8332
:102920009C8310E000E030E020E044E050E0BE0195
:102930006F5F7F4F82E00E942314182F882351F08D
:102940000E94E7256093A8047093A9048093AA04C9
:102950009093AB04812F2496E4E00C94712DB0E0A9
:10296000A0E0E5EBF4E10C944F2D7C015B016A01E2
:102970000E94E01301E010E0882311F00AE010E06B
:10298000C1E0D0E0B501C701F6010995811104C08D
:1029900021960C171D072CF4CDB7DEB7EAE00C9496
:1029A0006B2DCC9F9001CD9F300D300D112490E008
:1029B00080E045E34A95F1F70000019682179307FE
:1029C000C1F7E0CFA5E0B0E0E8EEF4E10C944F2DC4
:1029D0005B01E090F103F090F20301E010E09E0152
:1029E0002B5F3F4F50E040E070E060E080E00E94ED
:1029F0002314182F882309F44BC067018FEFC81ADE
:102A0000D80A6091A4047091A5048091A6049091C5
:102A1000A7040E940226643671058105910580F1A4
:102A200004E010E09E012F5F3F4F50E040E070E077
:102A300060E081E00E942314F82E64E070E0C6019B
:102A40000E949D1711E09D81981310E01F2159F1FC
:102A50000E94E7256093A4047093A5048093A604C4
:102A60009093A70489819A81AB81BC818093A00453
:102A70009093A104A093A204B093A30411E013C007
:102A800064E070E0C6010E949D179D818913C8CF44
:102A9000F70181819281A381B48189839A83AB8379
:102AA000BC831111DFCF8091A0049091A104A0916B
:102AB000A204B091A304F50180839183A283B38320
:102AC000812F2596EAE00C946B2D0F931F93CF93E3
:102AD000DF93EC018B0142EE54E10E94AF14882396
:102AE00031F041E754E1B801CE010E94AF14DF910B
:102AF000CF911F910F9108950F931F93CF93DF9361
:102B0000C091F103D091F203CE01019624E0FB01C4
:102B1000DC0101900D922A95E1F764E070E00E94DB
:102B20009D1788836D817E818F81988500919C049B
:102B300010919D0420919E0430919F0460177107AD
:102B40008207930751F060939C0470939D048093D7
:102B50009E0490939F040E94F910DF91CF911F91E2
:102B60000F9108950E94F6270E945C0E0E94032890
:102B700008950E9408280E94780E0E942228089535
:102B80000E9474250E94DC270E94420E0E94B2150A
:102B90000E94B9150E94500EFBCF8091B00490E0C6
:102BA000880F991FFC01EE55FE4F20818E569E4FD7
:102BB000FC0180819091B304191614F42093B3049E
:102BC0009091B30497FF04C0922F91959093B30412
:102BD0009091B404191614F42093B4049091B404A1
:102BE00097FF03C021952093B4049091B604191661
:102BF00014F48093B6049091B60497FF04C0982F04
:102C000091959093B6049091B504191614F480939D
:102C1000B5049091B50497FF03C081958093B504E6
:102C20003091B3043323A1F02091B404222381F026
:102C300045EB3403C00111249923F1F09093B304C0
:102C400045EB2403900111243323D1F03093B404D5
:102C50004091B604442379F03091B504332359F000
:102C600025EB4203A00111245093B60432039001D6
:102C700011243093B504089581E08093B304E0CF2C
:102C800081E08093B404E4CF4091B004242F30E07D
:102C9000220F331FF901EE55FE4F90818D3E21F436
:102CA00091959093B40408958E3ED9F38F3E21F40C
:102CB00091959093B3040895803FD9F32E563E4FDB
:102CC000F9019081893F19F49093B50408958A3FE2
:102CD00011F49195F9CF8B3F21F491959093B6041F
:102CE00008958C3FD9F39FE0980F983070F4815F7E
:102CF000990B21E030E001C0220F8A95EAF780911C
:102D0000B204822B8093B20408958D3F49F481E090
:102D10008093B0048091B00448130E94CD150895AB
:102D20008E3F11F482E0F4CF8F3FC9F783E0F0CFFC
:102D30008D3E39F49091B40497FF09C01092B40409
:102D400008958E3E71F49091B4041916BCF38D3F32
:102D500038F08091B0041092B00481110E94CD151A
:102D600008958F3E39F49091B30497FFF0CF1092FD
:102D7000B3040895803F29F49091B3041916BCF36D
:102D8000E6CF893F39F49091B504191604F71092F3
:102D9000B50408958A3F29F49091B50497FFD7CFE1
:102DA000F6CF8B3F39F48091B60487FFD9CF1092CC
:102DB000B60408958C3F29F48091B6041816BCF32C
:102DC00008959FE0980F983008F0C1CF815F990B6C
:102DD00021E030E0A90102C0440F551F8A95E2F7B7
:102DE000CA0180959091B20489238093B20408951A
:102DF0000E94DB259C019091B3048091B404982B30
:102E000021F03093AF042093AE049091B5048091EB
:102E1000B604982B21F03093AD042093AC0481EBE1
:102E200094E00E949D24089586E0E1EBF4E0DF0148
:102E30001D928A95E9F70895FC01828181110EC0E7
:102E4000838181110BC08481811108C091E085814B
:102E5000811101C090E0892F8170089581E0FCCF3D
:102E6000A6E0B0E0E6E3F7E10C94572D86E0E1EB55
:102E7000F4E0DE01119601900D928A95E1F710922F
:102E8000B3041092B4041092B5041092B6048B816E
:102E90009C81892BC1F08091AE049091AF040E9477
:102EA000F325E091B004F0E0EE0FFF1FE656FE4F71
:102EB000208131812817390730F48B818093B30446
:102EC0008C818093B4048E819D81892BC1F0809187
:102ED000AC049091AD040E94F325E091B004F0E0C1
:102EE000EE0FFF1FE657FE4F20813181281739076B
:102EF00030F48D818093B5048E818093B604BE0139
:102F00006F5F7F4F81EB94E00E942C25811105C0FB
:102F100081EB94E00E941C1781110E94F81686E054
:102F2000FE013196A1EBB4E001900D928A95E1F794
:102F30002696E2E00C94732D0895FC01680F791F2A
:102F40008FEF91E36E177F0709F40895219182278F
:102F500028E030E087FF06C0880F8927215031091B
:102F6000C9F7F0CF880FFACFCF93DF93EC0197FF2B
:102F70000CC0FB018281882341F00E94F517CE012D
:102F80009F770E9485180E94541881E0DF91CF91AD
:102F9000089590917105923071F48A3050F490E068
:102FA00009966AE070E00E942D2D875A0E94FC0469
:102FB00008958650FBCF0E94A61A08958CE090E0F9
:102FC0000E94D32E90E0B0E0A0E080937105909332
:102FD0007205A0937305B09374050895609171050F
:102FE0008CE090E00E94E12E08950E948F24869547
:102FF0008170809376050E948F2481708093700584
:1030000080917105813039F480917605882319F01B
:1030100089E30E94FC040E94560C809375050E946F
:10302000690C0E947C0C80917105823021F158F46A
:103030008823C1F08130D1F08FE39CE90197F1F74B
:1030400000C000000895843051F18530A9F78BE16C
:1030500091E00E94FA0285E290E00E94FA0288E282
:1030600090E006C082EE0E946604E6CF88E193E01D
:103070000E94FA02E1CF80917005811103C083E5BF
:103080000E94FC0482EE0E9466048FE39CE9019793
:10309000F1F700C0000087E50E94FC04CDCF86EE6A
:1030A0000E94FC0488E1F8CF80917105823011F113
:1030B00048F4882381F0813091F0809175050E9459
:1030C000660C08958430F9F08530B9F788E290E015
:1030D0000E94FA02F2CF82EE0E94B204EECF8CE29E
:1030E0000E94FC0480917605882339F389E30E94CD
:1030F000FC04E3CF82EE0E94B2048091700581113E
:10310000DCCF83E5F4CF88E2F2CF0F931F93CF9308
:10311000DF938C01CCE0D0E0C8010C2E02C0969564
:1031200087950A94E2F78F700E94C9172497CC3FC5
:103130008FEFD80789F7DF91CF911F910F910895F5
:103140000F931F93CF93DF93EC018B01FB018281DF
:10315000882381F00E94560CC43EFCE5DF0729F16C
:1031600090F4C23EECE5DE07D9F081E0C33EFCE519
:10317000DF0799F0B801CE010E94B417DF91CF911B
:103180001F910F910895C63E8CE5D80791F078F015
:1031900085E0C13BFDE5DF0769F78093710502C05B
:1031A000109271050E94EE17E5CF82E0F6CF83E022
:1031B000F4CF84E0F2CFCF93DF93EC01FB01828167
:1031C000882309F464C1C430FDE5DF07E0F5CB3F97
:1031D0009CE5D90730F49E0122503C45243131054D
:1031E000D8F50E947F0D90935D0580935C05C231F8
:1031F000ECE5DE0709F41FC108F06EC0C9308CE5AC
:10320000D80709F4F2C008F03FC0C530ECE5DE078E
:1032100009F4DBC058F5C3308CE5D80709F4CDC0FC
:1032200008F0CFC080915C058160C230DC4509F4B4
:10323000AEC080915C0590915D050E948D0D0E944D
:10324000780780E009C0C63AEDE5DE0751F238F4B0
:10325000C2369DE5D90729F2DF91CF9108959E01ED
:103260002E5A3D4523303105B8F7BBCF80915C0520
:103270008062C730FCE5DF0709F489C008F4B1C0FB
:1032800080915C05806483C0CD309CE5D90709F44A
:10329000BAC070F480915C058E7FCB30FCE5DF070F
:1032A00009F475C008F4A7C080915C058D7F6FC0DC
:1032B000CF309CE5D90709F4B6C008F4A8C0C031E6
:1032C000FCE5DF0709F4B3C0C131DC4509F0B1CF3B
:1032D00080915C058F7B5BC0C1159DE5D90709F422
:1032E000B4C098F5CB3FFCE5DF0709F472C0B8F431
:1032F000C4319CE5D90709F4B6C008F4A2C0C531B1
:10330000DC4509F096CF80915C0582FB992790F906
:1033100021E0922790FB82F990FB83F938C0CD3FE2
:103320008CE5D80709F477C008F457C0CE3FECE528
:10333000DE0709F474C080915D058360CF3FDC45F2
:1033400009F077CF80935D0574CFC2368DE5D8073D
:1033500009F496C068F4C230EDE5DE0709F48CC0CC
:1033600008F477C0C330DD4509F063CF80E085C045
:10337000CE3A9DE5D907E9F068F490915C05892F74
:103380008E7F90FF8160C63ADD4509F052CF809371
:103390005C054FCFCF3A8DE5D80789F1C03BDD45BD
:1033A00009F047CF90915D05892F877F93FF886053
:1033B000C9CF80915D058860C5CF80915C05826032
:1033C000E6CF80915C058460E2CF80915C058860E7
:1033D000DECF80915D058160B5CF80915D05826013
:1033E000B1CF80915C058061D2CF0E947807809137
:1033F0005C058068CCCF80915C058C60C8CF8091E3
:103400005D05877F9FCF80915C058B7FC0CF8091CA
:103410005C05877FBCCF80915D058E7F93CF8091C7
:103420005D058D7F8FCF80915C058F7EB0CF8091C1
:103430005C058F7DACCF0E94780780915C058F770B
:10344000A6CF80915C05837FA2CF80915D058C7FA4
:1034500079CF80915D05982F909591708E7F892B03
:1034600090FB81F96FCF0E94780790915C05892FBE
:1034700097FB87F980588BCF81E00E94200ED9CE30
:1034800090915C05892F8F7E94FF806180CF81E0D1
:10349000E3CEB0E0A0E0EFE4FAE10C94522DE82F87
:1034A000F0E0E051FE4FD490282F269526952695E2
:1034B00030E0F901E057FD4F0491877010E0082ECD
:1034C00002C0159507950A94E2F701701127F901DA
:1034D000E058FD4FE490F12C082E02C0F594E794DB
:1034E0000A94E2F791E0E922FF24F901E059FD4F47
:1034F000C491D0E002C0D595C7958A95E2F7C17016
:10350000DD270115110519F081EE0E946604E11412
:10351000F10419F086EE0E9466048D2D0E94FC04D1
:10352000E114F10419F086EE0E94B20401151105B0
:1035300019F081EE0E94B204CD2B19F08CE20E94AA
:10354000FC04CDB7DEB7E7E00C946E2D982F9F708A
:103550009A50963020F0805D0E94491A0895895A49
:10356000FBCF08950F931F93CF93DF938091220594
:10357000E091B7041CE081111AC0DF91CF911F9137
:103580000F91089501E00E0F0093B704CE2FD0E005
:10359000E19FF0011124EE53FB4F83819481892B2D
:1035A00029F08081918189238F3FF9F4E02F809168
:1035B0002205E81738F3109222051092B704DDCFE8
:1035C00018968D919C918F3F9807E1F061E00E94E1
:1035D000B11A1C9FF0011D9FF00D1124EE53FB4FFB
:1035E000148213820E947C0CE1CF1C9FD0011D9F8E
:1035F000B00D1124AE53BB4F16968D919C91179729
:10360000892BF1F22081318142815381648175815E
:10361000868197810E94940BDCCF10922405109232
:1036200023052091AB013091AC01E6E0F1E090E0A0
:1036300080E02817390709F408954581411102C037
:103640001482168201963796F4CFDC016091C00493
:103650008091C104962F891301C00895292F30E06D
:10366000F901EE0FFF1FE854FB4F408151814A17CB
:103670005B07A1F487E08A9FA0018B9F500D112466
:103680004A5F5E4F81E0FA0184839613E6CF2F5F95
:103690003F4F237033272093C00408952F5F3F4F7F
:1036A000922F9370D8CFB0E0A0E0E9E5FBE10C9455
:1036B0004C2DEB012C81211152C070902205A2ECFF
:1036C000B4E030E020E0812C61E070E0271508F0E4
:1036D00044C01A96CD90DC901B97A880B9804FEF1C
:1036E0005FEF912CE92CF12CF701EE0FFF1FEA0D93
:1036F000FB1D05911491C016D10609F4A70101150F
:10370000110511F09394EECF4F3F540789F1FB015F
:1037100002C0EE0FFF1F4A95E2F78E2AAB01092C7B
:1037200002C0440F551F0A94E2F741505109841614
:103730001506D1F44A815B816CE0629FF001639FC2
:10374000F00D1124EE53FB4F578346832EEF208359
:1037500021839187808721E02D830E94251BCDB78F
:10376000DEB7EDE00C94682D14961C921E92139710
:103770002F5F3F4F1C96AACF1F93CF93DF93C0912B
:10378000C00417E08091C1048C1308C00E94B21AD3
:103790000E940D1BDF91CF911F910895D0E0FE0193
:1037A000EE0FFF1FE854FB4F80819181189FB001FD
:1037B000199F700D11246A5F7E4F0E94531B219642
:1037C000C370E0CFEF92FF921F93CF93DF93FC0182
:1037D0002081318110E040E050E0E52FF0E0EE0F75
:1037E000FF1FE20FF31FA591B4911097B9F0FB01F1
:1037F000C081D18140E005C0AE15BF0509F411E0DC
:103800004F5FE42FF0E0EE0FFF1FEC0FFD1FE59080
:10381000F490E114F10481F75F5FDFCF112349F0E9
:10382000451708F4CB01DF91CF911F91FF90EF90E6
:10383000089590E080E0F7CF8091AA01882341F1BC
:103840008091250590912605009711F10E94F3259E
:10385000209123053091240528173907C8F4909149
:10386000C0048091C104981759F00E94BC1B1092AB
:10387000240510922305109226051092250508951F
:103880000E94B21A10922605109225050E940D1B67
:10389000089510922605109225051092AA01809194
:1038A000C1048093C0040E940D1B0E94B21A0895A7
:1038B0008091AA01882319F00E94491C089581E093
:1038C0008093AA010895A9E0B0E0E9E6FCE10C9438
:1038D000472D6C013B01FB011281883FFCE59F07EE
:1038E00051F4112379F081E08093AA01812F299668
:1038F000E2E10C94632D893F2CE5920709F04DC05D
:10390000111148C006E011E0F12CE12C1986882441
:103910008394912C8091AB019091AC01E816F9064B
:1039200008F445C0F3018281882309F460C1F98558
:10393000FF2309F45CC10E94DB2590932605809348
:10394000250580912205883008F591E0980F909325
:10395000220598E0F301DE01119601900D929A95EF
:10396000E1F72CE0829FC00111248E539B4F28E089
:10397000FE013196DC0101900D922A95E1F72FEFBF
:103980003FEFFC0131872087D386C28611E0F9859D
:103990001F27ACCF0E94491CA9CF8A3F9C4509F044
:1039A000B1CF112309F4AECF0E94581C9FCFF8016C
:1039B00060817181AA24AA94BA2C20E0422F50E0A1
:1039C000FA01EE0FFF1FE60FF71F85919491C816BD
:1039D000D90609F45A01892B11F02F5FEFCF312C52
:1039E000FFEFAF16BF0609F445C0F80144813090DF
:1039F000AA01832D411180E0F82FF1703F2EF801CC
:103A000055808681F3019281992309F48EC0332079
:103A100009F48BC0511015C0A4010A2C01C0440F39
:103A20000A94EAF7842BF80186838091230590910C
:103A30002405C29730F462E370E07093240560932C
:103A40002305C40102C0880F991F2A95E2F7019748
:103A5000F80126812817190669F4809125059091AF
:103A60002605009781F00E94F325C39760F021E0BE
:103A7000F8012483F985F329F9872FEFE21AF20A76
:103A8000095F1F4F47CF2090C00490E080E0209155
:103A9000C104221215C08017910761F3A22CB12C2A
:103AA000F501EE0FFF1FE854FB4FF182E0826FEF4C
:103AB000A61AB60A73E0A722BB24A092C104DACFEB
:103AC000A22CB12CF501EE0FFF1FE854FB4F208113
:103AD000318147E0429FC001439F900D1124BC01FA
:103AE0006A5F7E4F2B01B801C2010E94E21B009762
:103AF000A9F021E0FC0124838017910709F4BACFD3
:103B00002091C00422120AC04816590639F49501C2
:103B10002F5F3F4F237033272093C0043FEFA31A3A
:103B2000B30A4A2D4370242EB2CF90E0511020C02A
:103B3000F40102C0EE0FFF1F2A95E2F79F0121500A
:103B400031092817390731F4442309F44EC0C7015D
:103B50000E94251BC4010A2C01C0880F0A94EAF7B1
:103B6000982F9095F801868189238683352C82CF02
:103B70009C010A2C02C0359527950A94E2F7A90109
:103B800041705527BC016150710986239723892B09
:103B900041F5452B31F1F80182819381892BE1F0C8
:103BA0001B821C821D821E82FEEFF983FA830E9413
:103BB000DB258160582F9D838C83F801828193815E
:103BC0008F83988729813A814B816D817E810E9404
:103BD000940BF8011582BECF60E0C7010E94B11AB4
:103BE000F8CFF22FF1705F2EB5CF532CB3CF909159
:103BF000C0048091C104981719F00E94BC1BC6CE66
:103C00000E94B21A10922605109225050E940D1BE3
:103C1000BDCECF93DF93EB0186319C4511F50E9419
:103C2000560C9A81992399F08A7A91E009F490E0F0
:103C300090932705811109C089E20E942B0C0E94F4
:103C4000A90C80E0DF91CF91089585E3F6CF8091B4
:103C50002705811104C089E20E94330CF0CF85E36F
:103C6000FBCF81E0EFCFFC018581862351F4928167
:103C70009923B9F06923818583FF05C081E0611133
:103C80000FC080E00895892F8F7092959F70982BB8
:103C9000862F8F7062956F70682B81E09613F1CF3D
:103CA000089581E0FDCFCF93DF93EC016091320561
:103CB0007091330580913405909135050E9402265C
:103CC000643F71408105910518F58091320590910E
:103CD0003305A0913405B091350580932E0590935E
:103CE0002F05A0933005B093310584EF91E0A0E05B
:103CF000B0E080932A0590932B05A0932C05B093F8
:103D00002D05D0932905C0932805DF91CF91089503
:103D10000E94E72560932E0570932F058093300550
:103D20009093310582E390E0A0E0B0E0E2CFFF9213
:103D30000F931F93CF93DF93F82E009139051091C5
:103D40003A050115110509F44DC01092290510928C
:103D500028050E94880C0E94820C00913905109160
:103D60003A05D8011796CD91DC919E013A9521151F
:103D70003F4108F4D07ED1E0C11101C0D0E0D801AC
:103D80001A96ED91FC911B97309731F01C966D912E
:103D90007C9180E00995D823DD2339F08CEF8C0FDE
:103DA000813A30F58C2F0E94330CFF2099F0E0917E
:103DB0003905F0913A05818584FD0CC08091380564
:103DC000882341F0808191819C0121503109213B60
:103DD0003D45A0F00E94A90C10923A0510923905B9
:103DE00010923805C801CDB7DEB7E5E00C94702D10
:103DF0000E94A90C8C2F0E94B204D7CF0E94531EA0
:103E0000E9CF1092AD0180E00E94971E0895809145
:103E1000AD01882319F00E94011F089581E080936D
:103E2000AD0108950F931F93809128059091290566
:103E3000892B89F160912E0570912F0580913005B5
:103E4000909131050E94022600912A0510912B05C0
:103E500020912C0530912D0560177107820793077B
:103E6000D0F080912805909129050E94B40210920B
:103E700029051092280510922E0510922F051092F8
:103E800030051092310510922A0510922B051092E0
:103E90002C0510922D051F910F910895A4E0B0E01C
:103EA000E4E5FFE10C94472D8C017A836983DB0103
:103EB00012965C905520B1F08036BDE59B0759F015
:103EC0008136EDE59E0759F08F359D4559F40E94E6
:103ED000071F312C0DC081E08093AD01FACF0E9405
:103EE000011FF7CF3090AD01311007C03324339458
:103EF000832D2496E2E10C94632D680120EEC21A12
:103F0000D1080E94560CF82E0E94420C482E0E94A6
:103F10008B0C482A4F2838E0C316D10408F094C00F
:103F200098012770332781E090E001C0880F2A951F
:103F3000EAF7552009F485C0482AA981BA818D91F4
:103F40009C910E94E20880901F01909020018114B2
:103F5000910409F4E1C021E030E0F90102C0EE0F64
:103F6000FF1F8A95E2F7FA83E98360903905709024
:103F70003A05A0903605B0903705212CE22DF0E0EF
:103F8000EE0FFF1FE80DF91D208131813C832B834B
:103F90002115310509F4C0C0411005C0D9011296A0
:103FA0008C9181118BC0EB81FC818381948129816B
:103FB0003A8182239323892B09F480C08185982F2D
:103FC000977009F487E038E0C316D10408F056C0B2
:103FD000552009F44FC086958170882309F46EC07E
:103FE000AB81BC81ED90FC900E151F0519F4552096
:103FF00009F464C0EB81FC81E615F70509F45EC0A5
:104000000684F785E02D309721F08081882309F41C
:1040100055C0642D8B819C810E94331E882309F436
:104020004DC00E151F0509F08BC00115110509F4CF
:104030008CC051108CC0EA14FB0409F03FC0512C15
:1040400086C08095482279CF552009F44EC0109340
:104050003705009336050E94E7256093320570937B
:1040600033058093340590933505109229051092FD
:10407000280563CF82FB882780F9AFCF5520F1F068
:104080008170ABCF0E94B20483C00497813A91053E
:1040900048F4802F0E942B0C552009F427CF0E9452
:1040A000A90C17CF0E94A90C8FE39CE90197F1F7A7
:1040B00000C00000802F0E946604EECF23945ECFE4
:1040C000FC01208131812017310731F4511007C0E4
:1040D0001092380580E031C0552009F407CFDC018B
:1040E00019968C9185FD02CFF5CF80913605909180
:1040F00037058017910781F4109237051092360525
:104100001092320510923305109234051092350545
:1041100010922905109228058091390590913A0551
:10412000009709F4E3CEA8E0CA16D10448F6642D3E
:104130000E94331E8111DACE81E00E94971ED8CEF4
:10414000E114F10409F077CF512CF12CE12C80E03F
:104150000E94971EEB81FC81F0933A05E0933905AC
:1041600081E08093380586810E94850C511010C033
:10417000E114F10469F0AB81BC818D919C919C01AB
:1041800024503109213A310508F07CCF0E94330CCC
:10419000EB81FC8107811085C8019A9581159F41AB
:1041A00008F4107EFF24F394C8010197813B9D45DC
:1041B00008F0F12CAB81BC811A96ED91FC911B9714
:1041C000309731F01C966D917C9181E00995F82231
:1041D000FF2081F0EB81FC81878190850E9479022C
:1041E0000E947F0CC801F8E0CF16D10408F04DCF33
:1041F0000E94531E0E94A90C4FCF0F931F93CF9381
:10420000DF93C42FD22FFC0182818823C9F0409311
:104210003D050E94DB2590933C0580933B0580E2A1
:104220008C0F883040F4C77081E001C0880FCA95B8
:10423000EAF70E940505DF91CF911F910F91089534
:1042400010913D05141332C080913B0590913C05BF
:104250000E94F3258A3F910548F5C0E2CD0F1D1756
:10426000B9F080E2810F883040F4177081E001C01E
:10427000880F1A95EAF70E940C05C83048F481E0CF
:104280009D2F977001C0880F9A95EAF70E94050547
:10429000802F0E94FC04C83070F6D77081E001C006
:1042A000880FDA95EAF70E940C05C5CF80E28C0FE3
:1042B000883008F6C77081E001C0880FCA95EAF718
:1042C000F2CF0F939C01CB01243F4CE5340759F109
:1042D000A8F4293DFCE53F0701F12A3D4CE53407F0
:1042E000D1F1283D3C4591F406E221EE41EE68ED26
:1042F0007CE50E94FD2080E00F910895263FFCE5BB
:104300003F07E9F0B0F0273F3C45F9F0FC0182811E
:10431000882339F110923D05EFCF07E225EE45EEF7
:1043200069ED7CE5E6CF06E221EE40EE64EF7CE548
:10433000E0CF07E225EE44EE65EF7CE5DACF06E25A
:1043400021EE42EE66EF7CE5D4CF07E225EE46EEA5
:1043500067EF7CE5CECF08E221E045EE6AED7CE533
:10436000C8CF81E0C9CFCF93DF93EC01EA85FB850D
:10437000309719F06C857D8509958B810E94750CAD
:104380008C810E945F0C0E94A90C86E0FE011192B4
:104390008A95E9F7DF91CF910895CF93DF93EC01F0
:1043A0008D8181FD12C082608D838B810E946F0C94
:1043B0008C810E94590C0E94A90CE885F9853097E0
:1043C00021F06C857D85CE010995109241051092F2
:1043D00040058D8180FD03C0CE010E94B321DF9195
:1043E000CF910895CF93DF93EC018A81823041F41D
:1043F000FB01828193810E94B4028D8182608D8352
:10440000DF91CF910895FB01808191810E94B402D8
:104410000895FC018281813031F4FB01808191811A
:104420000E94CA0208958230E9F7FB0182819381DC
:10443000F7CFFB0122812223E1F0E0914005F091CA
:1044400041053097B1F0E817F90799F02EE0E29FA7
:10445000F0011124DF01AE5EBE4F2C9124602C933D
:10446000E35FFE4F91838083CF010E94CD210E94A4
:104470007C0C0895EF92FF920F931F93CF93DF93DD
:104480008C0197558F3F910511F008F041C07801DC
:10449000FF248EE0089FF0011124EF01C35FDE4F7F
:1044A000DB0112962C91EE5EFE4F808120FB80F99D
:1044B0008083222399F10E94DB2590933F0580930E
:1044C0003E058A818F5F8A830E94560C8B830E94EF
:1044D0006C0C9B81892B8B830E948B0C8C83EE81CF
:1044E000FF81309721F06C857D85CE0109958EE0A6
:1044F0008E9DF0018F9DF00D1124E35FFE4F8581AD
:1045000081FF02C010E000E01093410500934005D8
:1045100081E0CDB7DEB7E6E00C946F2D8D8181FF91
:10452000F7CFCE010E94B321F3CF80914005909147
:104530004105892BC9F080913E0590913F050E946D
:10454000F3258B3F910580F0809140052EE0829FFE
:10455000C0011124FC01EE5EFE4F208122FD04C04B
:10456000835F9E4F0E94CD2108958EE14A9B02C039
:104570008150E1F74A9BFECF08955A9880E28A95D0
:10458000F1F75A9A0895FC013BE03A95F1F798E06B
:1045900020E080E031E040E14A95F1F7880F4A9B46
:1045A00002C08160232742E04A95F1F7000040E114
:1045B0004A95F1F7915079F790E19A95F1F799B111
:1045C00032E03A95F1F7000040E14A95F1F792FBAD
:1045D000992790F992272081920F90830895A1E066
:1045E000B0E0E5EFF2E20C94532D19828C017C01CE
:1045F000E60EF11C0E151F0541F481E09981911121
:1046000080E02196E6E00C946F2D0E94B522CE0149
:1046100001960E94C322F80181938F01EBCF529A39
:104620005A9A089552985A9AEA9AE9E6F0E08081F7
:104630008F7C808308956150770B91E001C0990FC2
:104640006A95EAF720E031E0911108C0222391F049
:104650005A9A80E28A95F1F75A980895492F48238B
:1046600039F05A9A232740E24A95F1F79695ECCF14
:104670005A98F9CF5A98EDCFFF920F931F93CF938B
:10468000DF93EC018C01060F111DC017D10729F42F
:10469000CDB7DEB7E5E00C94702DF9900E94BD22F5
:1046A00068E08F2D0E941B23F0CF1F920F920FB650
:1046B0000F9211240F931F932F933F934F935F9368
:1046C0006F937F938F939F93AF93BF93EF93FF93DA
:1046D000CF93DF930F92CDB7DEB719820E94B52238
:1046E000CE0101960E94C322082F069506950695D5
:1046F000282F22952570902F9570290F922F937057
:1047000026952695920F982797708981982B09F006
:104710005CC0043008F059C080E18A95F1F75A9ADC
:10472000529A82E08A95F1F700C05A9888E0089F73
:1047300080011124D801AE58BE4F1696ED91FC9120
:1047400017973097A9F06091F1037091F2031496D6
:104750002D913C911597260F371F11968D919C91A5
:104760001297680F791F13964C9113978C910995A6
:10477000F801EE58FE4F6381662351F02091F1035A
:104780003091F20384819581820F931F0E943C2314
:104790000E94BD2280E18A95F1F75A9852985A9A60
:1047A00080E18A95F1F7F801EE58FE4F60816623AB
:1047B00051F02091F1033091F20381819281820FB7
:1047C000931F0E94EF220E94B5220F90DF91CF919C
:1047D000FF91EF91BF91AF919F918F917F916F91D9
:1047E0005F914F913F912F911F910F910F900FBEAD
:1047F0000F901F9018950F931F93CF93DF93EC01A9
:1048000004970CF04CC0F894529A5A9885E08A9517
:10481000F1F700009C2F969595708C2F8570980F5E
:10482000892F83709695969523E0CC0FDD1F2A95EE
:10483000E1F7980F8E01092B0E94BD2200C068E0AD
:10484000802F0E941B2380E18A95F1F752985A9A93
:104850004A9B1EC087E090E04A991CC0FE01EE58BA
:10486000FE4F63816623F9F02091F1033091F2034A
:1048700084819581820F931F0E94EF22811113C0C2
:10488000529A5A9A7894DF91CF911F910F9108957F
:1048900000C0DECF019729F4529A5A9A789480E0AA
:1048A000F2CF00C0D9CF0E94B52280E28A95F1F7FD
:1048B0005A98529A80E18A95F1F7CE58DE4F688176
:1048C000662351F02091F1033091F20389819A819E
:1048D000820F931F0E943C230E94BD22789481E0A6
:1048E000D2CF9093F5038093F403089590934805F5
:1048F0008093470508950E94B113811103C08091F0
:1049000042050895E0914705F0914805309729F058
:104910000190F081E02D0995089580E008950E94AE
:104920007B240895E0914705F0914805309721F0E8
:104930000280F381E02D09950895E0914705F091FB
:104940004805309739F022E0DC012C930480F58192
:10495000E02D0995089520914505309146052817C9
:10496000390771F09093460580934505E09147051E
:10497000F0914805309721F00680F781E02D0995E8
:10498000089520914305309144052817390771F0A7
:104990009093440580934305E0914705F0914805C5
:1049A000309721F00084F185E02D099508959C0150
:1049B0002E5F3F4FAC01485F5F4F80E02417350703
:1049C00009F40895F90191919F019923B9F38F5F3B
:1049D000F5CF662349F0FC013296089621912617FF
:1049E00029F0E817F907D1F780E0089581E00895EC
:1049F0009C01FC0132969FEF80E04191461751F0F7
:104A00009F3F19F4411101C0982F8F5F8630A9F79D
:104A10009F3F09F40895290F311D97FD3A95F9013B
:104A200062830895FC01329608962191261303C0F3
:104A3000DF0111971C92E817F907B9F708950E9452
:104A4000F82408950E9412250895029626E0FC019C
:104A500011922A95E9F7089546E050E00E94BD2E94
:104A600021E0892B09F420E0822F089508950E9407
:104A700036250895811106C081E0809349050E9482
:104A80003725089582E0F9CF83E0809349050E949D
:104A9000372508950E943A25089581E080934905BD
:104AA0000E94372508950E944D2508950895089580
:104AB0000E9457250895089508950E945625089547
:104AC000CF930E945B250E949E120E945C25C0E04D
:104AD0008C2F0E948211811105C0CF5FC830C1F7B1
:104AE000CF91089581E0FCCF85B7806885BF85B7F9
:104AF000806885BF08951F921FB61F9211248F935F
:104B00009F93AF93BF9380914A05811113C0809109
:104B1000770590917805A0917905B0917A05419635
:104B2000A11DB11D8093770590937805A093790519
:104B3000B0937A05BF91AF919F918F911F901FBE47
:104B40001F90189580917F05843031F10E94E80311
:104B500010924A0588E190E020E40FB6F894A895F9
:104B6000809360000FBE2093600083B7817F8460D4
:104B700083BF83B7816083BF7894889583B78E7F26
:104B800083BF0FB6F894A8958091600088618093E8
:104B90006000109260000FBE08950E9478070E9486
:104BA000ED03089582E084BD93E095BD9AEF97BD33
:104BB00080936E0008952FB7F894809177059091B7
:104BC0007805A0917905B0917A052FBF08952FB788
:104BD000F8946091770570917805809179059091AE
:104BE0007A052FBF08959C014FB7F89480917705FF
:104BF00090917805A0917905B0917A054FBF821BFD
:104C0000930B0895CF92DF92EF92FF922FB7F89413
:104C1000C0907705D0907805E0907905F0907A05FE
:104C20002FBFA7019601261B370B480B590BCA0152
:104C3000B901FF90EF90DF90CF90089578941F9284
:104C40001FB61F9211248F939F93AF93BF938091B0
:104C5000770590917805A0917905B0917A05019634
:104C6000A11DB11D8093770590937805A0937905D8
:104C7000B0937A05BF91AF919F918F911F901FBE06
:104C80001F90189587E797E7909301088093000895
:104C900088E19AE00FB6F894A895809360000FBE63
:104CA00090936000FFCF88E19AE00FB6F894A89542
:104CB000809360000FBE90936000FFCF80915605F7
:104CC000089508959C0182E08093E9009FEF809110
:104CD000E800915085FD06C085ED8A95F1F700004A
:104CE0009111F5CF8091E80085FF0CC050E040E0C5
:104CF00066E070E0C9010E9494288091E8008E77F8
:104D00008093E8000895CF93DF93EC0181E08093D6
:104D1000E9008FEF9091E800815095FD06C095ED78
:104D20009A95F1F700008111F5CF8091E80085FF99
:104D300014C050E040E068E070E0CE010E9494288A
:104D40008091E8008E778093E80088E0FE01AEE471
:104D5000B5E001900D928A95E1F7DF91CF9108952A
:104D600080934B0570934D0560934C0580917F05B2
:104D7000843001F582E08093E9008FEF9091E800A4
:104D8000815095FD06C095ED9A95F1F700008111CF
:104D9000F5CF8091E80085FF0DC050E040E063E072
:104DA00070E08BE495E00E9494288091E8008E7773
:104DB0008093E8000895BC0184E00E94B026089525
:104DC000BC0183E00E94B026089580917E05811188
:104DD00009C00E94242A0E94812A8091E2008460F6
:104DE0008093E200089510927E0508950E944D255B
:104DF000089560917B0581E0611101C080E00E940F
:104E00004425089590917F0581E0943009F080E079
:104E100060917B050E944A25089542E061EC81E0A3
:104E20000E94A02942E261EC82E00E94A0299091B8
:104E30007F0581E0943009F080E060917B050E945D
:104E40003A25089580918105833009F461C030F4DA
:104E50008130D1F1823009F49EC008958A3009F47E
:104E60008AC08B3009F46FC0893009F050C080913E
:104E70008005813209F04BC08091840590918505B1
:104E8000029708F044C08091E800877F8093E80093
:104E90008091E80082FF37C09091F3008091F2008A
:104EA000029731F48091F100813011F0863021F4C5
:104EB0008091F100809356058091E8008B77809374
:104EC000E8000E94D42923C080918005813AF9F43A
:104ED0008091E800877F8093E8008091840590911D
:104EE0008505892B61F468E08EE495E070E00E940E
:104EF000E3288091E8008B778093E800089560E0D4
:104F000090E080E0F3CF80917F058111C1CF0895BB
:104F100080918005813AD9F780918405909185052B
:104F2000892BA9F78091E800877F8093E800809122
:104F3000E80080FFFCCF8091BA018093F10080915E
:104F4000E8008E77BCCF80918005813201F7809197
:104F5000840590918505892BD1F68091E800877FA3
:104F60008093E8000E94D429809182058093BA0141
:104F70000E947807089580918005813241F68091E2
:104F8000E800877F8093E8000E94D4298091830500
:104F900080935705089580918005813A09F0B7CF35
:104FA0008091E800877F8093E8008091E80080FF8F
:104FB000FCCF80915705C1CF84B7877F84BF0FB6E0
:104FC000F894A895809160008861809360001092A9
:104FD00060000FBE80E890E00FB6F8948093610007
:104FE000909361000FBE0E94532508950E94242AC9
:104FF0000E94812AE2EEF0E08081846080837894D0
:105000000E94002D08958EEA91E00E947624089572
:1050100080917F05853031F480917F05853019F0CE
:105020000E94CD2508950E94A22580917D058823A8
:1050300099F30E946025882379F30E947E280E94BC
:105040007807EACF08950E9426280895292F33274C
:105050002330310519F168F42130310509F444C0D9
:105060002230310509F445C090E080E030E020E0D6
:1050700025C02132310549F122323105A9F780E4FA
:1050800090E022E933E061157105C1F08BE790E013
:1050900027E133E06130710589F0E6CF992781304F
:1050A000910581F0009729F00297F1F6E0EAF2E02D
:1050B00002C0E6ECF2E0849190E09F01FA013183B6
:1050C00020830895ECEBF2E0F6CF89E090E02CED40
:1050D00032E06115710591F389E090E025EF32E04F
:1050E0006130710559F3C0CF82E190E025E033E0F3
:1050F000E5CF8BE390E02AEC32E0E0CF80E189BDA0
:1051000082E189BD09B400FEFDCF8091D8008F7D7A
:105110008093D8008091E00082608093E0008091CD
:10512000E00081FDFCCF0895AF92BF92CF92DF9255
:10513000FF920F931F93CF93DF936C01EB018A01D2
:105140000E94F329F82E811123C00115110539F0B1
:10515000F80180819181C81BD90BC80ED91EB12CD2
:10516000A12C2097A9F08091E80085FD22C08091B4
:10517000E8008E778093E80001151105A1F0F80191
:1051800080819181A80EB91EB182A08285E0F82E9F
:105190008F2DDF91CF911F910F91FF90DF90CF90D6
:1051A000BF90AF9008950E94F3298823D1F2F82E82
:1051B000EFCFF60181916F018093F1002197FFEF0E
:1051C000AF1ABF0ACECFFC0180918605909187056A
:1051D00086179707A0F06115710529F49091E800F2
:1051E0009E779093E80090E06115710551F491115C
:1051F00008C08091E80082FF34C080E00895BC01BF
:10520000F2CF80917F058823C1F18530C1F1809173
:10521000E80083FD30C08091E80082FDEACF8091F4
:10522000E80080FFE1CF8091F3002091F200382F59
:105230006115710519F02830310558F091E02830DA
:10524000310509F090E02091E8002E772093E800E6
:10525000CBCF81918093F100615071092F5F3F4F57
:10526000E7CF80917F05882341F0853041F0809120
:10527000E80083FFBECF81E0089582E0089583E0D7
:105280000895FC0180918605909187058617970700
:10529000A0F06115710529F48091E8008E77809364
:1052A000E80090E06115710551F4911108C08091FA
:1052B000E80082FF35C080E00895BC01F2CF809104
:1052C0007F058823C9F18530C9F18091E80083FD0D
:1052D00031C08091E80082FDEACF8091E80080FF34
:1052E000E1CF8091F3002091F200382F6115710514
:1052F00019F02830310558F091E02830310509F0D7
:1053000090E08091E8008E778093E800CBCF849185
:105310008093F1003196615071092F5F3F4FE6CFC6
:1053200080917F05882341F0853041F08091E8002D
:1053300083FFBDCF81E0089582E0089583E0089562
:10534000982F973028F08F708093E90081E00895BE
:105350009093E900242F762F50E0981731F0709148
:10536000EC002091ED005091F00021FD02C09F5F04
:10537000E8CF3091EB003E7F3093EB003091ED00B1
:105380003D7F3093ED003091EB0031603093EB00C6
:105390007093EC002093ED005093F0002091EE000C
:1053A00027FDE5CF80E008958091800587FF13C039
:1053B0008091E80082FF06C08091E8008B7780939F
:1053C000E80004C080917F058111F2CF089580919B
:1053D0007F058823D9F38091E80080FFF8CF809182
:1053E000E8008E77ECCF2091E4003091E50095E65F
:1053F000A9012091EC00822F817020FF06C08091CE
:10540000E80080FF06C080E008952091E80022FDBA
:105410001AC080917F05882389F0853089F08091BA
:10542000EB0085FD0FC02091E4003091E5004217AC
:105430005307F9F29150E1F684E0089582E008956F
:1054400083E0089581E008950E94932A0E949B2A98
:10545000E0EEF0E0808181608083E8EDF0E0808123
:105460008F77808319BCA7EDB0E08C918E7F8C93F1
:1054700080818F7E808310927E0508950F931F9305
:10548000CF93DF930E94932A0E949B2AC8EDD0E01D
:1054900088818F77888388818068888388818F7DE1
:1054A000888319BC10927F0510927B0510927D05B0
:1054B00010927C0500EE10E0F80180818B7F8083E4
:1054C00088818160888342E060E080E00E94A029BA
:1054D000E1EEF0E080818E7F8083E2EEF0E080817B
:1054E00081608083808188608083F80180818E7FE5
:1054F0008083888180618883DF91CF911F910F9194
:105500000895E8EDF0E080818F7E8083E7EDF0E0A4
:1055100080818160808384E082BF81E080937E050A
:105520000E943E2A0895E8EDF0E080818E7F80831E
:105530001092E20008951092DA001092E1000895AE
:105540001F920F920FB60F9211242F933F934F93F8
:105550005F936F937F938F939F93AF93BF93EF93DB
:10556000FF938091E10082FF0BC08091E20082FFF7
:1055700007C08091E1008B7F8093E1000E94FF2CA7
:105580008091DA0080FF19C08091D80080FF15C09B
:105590008091DA008E7F8093DA008091D90080FFBD
:1055A00096C080E189BD82E189BD09B400FEFDCFCE
:1055B00081E080937F050E94E5268091E10080FFD5
:1055C00019C08091E20080FF15C08091E2008E7FBB
:1055D0008093E2008091E20080618093E2008091FC
:1055E000D80080628093D80019BC85E080937F0545
:1055F0000E94F9268091E10084FF2BC08091E20097
:1056000084FF27C080E189BD82E189BD89B5982FDB
:10561000917080FFFBCF8091D8008F7D8093D80060
:105620008091E1008F7E8093E1008091E2008F7E87
:105630008093E2008091E20081608093E20080919B
:105640007B05882309F449C084E080937F050E948C
:1056500002278091E10083FF29C08091E20083FF4F
:1056600025C08091E100877F8093E10082E08093F4
:105670007F0510927B058091E1008E7F8093E10091
:105680008091E2008E7F8093E2008091E200806151
:105690008093E20042E060E080E00E94A0298091D7
:1056A000F00088608093F0000E94F626FF91EF9151
:1056B000BF91AF919F918F917F916F915F914F912A
:1056C0003F912F910F900FBE0F901F90189519BC0E
:1056D00010927F050E94F32670CF8091E30087FD32
:1056E00093E090937F05B3CF1F920F920FB60F9266
:1056F00011242F933F934F935F936F937F938F93D7
:105700009F93AF93BF93CF93DF93EF93FF93D0918A
:10571000E900DF708091EC00C82FC17080FDC0E807
:105720001092E9008091F000877F8093F0007894D8
:105730000E94B82B1092E9008091F000886080935D
:10574000F000CD2BCF70C093E900FF91EF91DF9176
:10575000CF91BF91AF919F918F917F916F915F9109
:105760004F913F912F910F900FBE0F901F90189562
:10577000AAE2B0E0EEEBFBE20C94562D80E895E057
:105780002091F100FC012193CF01F5E088389F07BB
:10579000B9F70E9422278091E80083FF1EC1809103
:1057A0008005909181059A3008F017C1E92FF0E04B
:1057B000ED5DF04D0C94412D803899F0823809F060
:1057C0000CC1809184058F70873008F006C18093EA
:1057D000E9008091EB0085FB882780F91092E900B1
:1057E00006C080917C0590917D0591118260909119
:1057F000E800977F9093E8008093F1001092F10009
:105800008091E8008E77E5C0882309F4D3C0823008
:1058100009F0E3C0809182058111D6C08091840592
:105820008F702FEF280F263008F0D7C08093E90043
:105830002091EB0020FFC8C0933031F48091EB0041
:1058400080628093EB00C0C09091EB0090619093D8
:10585000EB0021E030E001C0220F8A95EAF72093A7
:10586000EA001092EA008091EB008860EACF811193
:10587000B4C0109182051F778091E3008078812B5E
:105880008093E3008091E800877F8093E8000E9486
:10589000D4298091E80080FFFCCF8091E3008068EC
:1058A0008093E30082E0111183E080937F0595C02F
:1058B0008058823008F091C08091820590918305D4
:1058C0008C3D23E09207A1F583E08A838AE28983F5
:1058D0004FB7F894DE01139620E03EE051E2E32F4B
:1058E000F0E050935700E49120FF03C0E295EF7081
:1058F0003F5FEF708E2F90E0EA30C0F0C7968D9337
:105900009D932F5F243159F74FBF8091E800877F27
:105910008093E8006AE270E0CE0101960E94E328DD
:105920008091E8008B778093E80057C0C096E7CF5E
:105930006091840570918505AE014F5F5F4F0E94B5
:105940002328BC01892B09F448C09091E800977F77
:105950009093E80089819A810E944129E1CF8038A3
:10596000E1F58091E800877F8093E80080917B05D6
:105970008093F10045CF811130C090918205923023
:1059800060F58091E800877F8093E80090937B0525
:105990000E94D42980917B05882311F084E005C002
:1059A0008091E30087FDFACF81E080937F050E941C
:1059B0000D2713C080918205813079F481E0933006
:1059C00009F080E080937D051092E9008091E80065
:1059D000877F8093E8000E94D4298091E80083FFAC
:1059E0000AC08091E800877F8093E8008091EB00F7
:1059F00080628093EB00AA96E3E00C94722D0895E8
:105A0000CF9380917F058823A1F0C091E900CF70EA
:105A10009091EC00892F817090FD80E8C82B109246
:105A2000E9008091E80083FD0E94B82BCF70C093FD
:105A3000E900CF9108950E94242A10927F050895CD
:105A4000E8EDF0E08081806180838AE18A95F1F75A
:105A500000C08091D9008170089597FB072E16F43D
:105A6000009407D077FD09D00E947E2D07FC05D059
:105A70003EF4909581959F4F0895709561957F4F65
:105A80000895EE0FFF1F0590F491E02D09942F92D9
:105A90003F924F925F926F927F928F929F92AF92BE
:105AA000BF92CF92DF92EF92FF920F931F93CF930B
:105AB000DF93CDB7DEB7CA1BDB0B0FB6F894DEBFA2
:105AC0000FBECDBF09942A88398848885F846E84C8
:105AD0007D848C849B84AA84B984C884DF80EE8012
