:100000000C94F2010C940F020C940F020C94C72272
:100010000C940F020C940F020C940F020C940F021C
:100020000C940F020C940F020C94122A0C94E62AE2
:100030000C94ED240C940F020C940F020C940F02FC
:100040000C940F020C940F020C940F020C940F02EC
:100050000C940F020C9490250C940F020C940F0238
:100060000C940F020C940F020C940F020C940F02CC
:100070000C940F020C940F020C940F020C940F02BC
:100080000C940F020C940F020C940F020C940F02AC
:100090000C940F020C940F020C940F020C940F029C
:1000A0000C940F020C940F020C940F0214001A000F
:1000B000090013000A0004001500160017000700CD
:1000C0001D001B000600190005000057E10000009C
:1000D000000000000D000F0018001C002A000B009B
:1000E000110008000C0012000E001000360037004E
:1000F00034002C00B45D0000000000002900220242
:100100001F02230231022B0037003600380025027F
:10011000E2003C003A003B0035000057E1000000DF
:10012000000000002D002400250026002A002E02D9
:1001300021002200230028002E001E001F002000A6
:1001400027002C000100000000000000290021020F
:100150002002250224022B00360226022F022F0045
:10016000E20043004400450035000057E100000074
:10017000000000004A00500152004F012A004D00CB
:10018000500051004F0028002E0256002D022E0074
:1001900038002C0001000000000000002900FB00D6
:1001A000F900FC00A9002B00FF00FA00E100AE00FE
:1001B000E000E300E20046004800B35DFE000000FE
:1001C00000000000F5005000ED004F002A00F40090
:1001D000EF00EE00F0002800E600E7004700E40032
:1001E000B25DF100F20000000000000015001D00EB
:1001F000000016001D00000017001D000000360062
:10020000370000000000000000002A2B280000003A
:1002100000000000000000000000000000290000B5
:1002200000002C1E3420212224342627252E362D92
:100230003738271E1F202122232425263333362E2C
:1002400037381F0405060708090A0B0C0D0E0F109E
:100250001112131415161718191A1B1C1D2F3130E3
:10026000232D350405060708090A0B0C0D0E0F1087
:100270001112131415161718191A1B1C1D2F3130C3
:10028000354C0000000000000000000000000000ED
:10029000000000000000000000000000000000005E
:1002A0000000000000007E0F00D4FFFFFFC7000029
:1002B00000781A034600650072007200690073003E
:1002C00020007300770065006500700000000803DF
:1002D00044005000420000000403090409023B00EE
:1002E000020100A0FA090400000103010100092134
:1002F00011010001224000070581030800010904E3
:1003000001000103000000092111010001227B000E
:10031000070582032000011201000200000008AB63
:10032000C2393901000102000105010902A101855C
:10033000020901A1000509190129081500250195E7
:1003400008750181020501093009311581257F9564
:10035000027508810609381581257F950175088188
:1003600006050C0A38021581257F9501750881065E
:10037000C0C005010980A101850319012AB7001534
:100380000126B700950175108100C0050C0901A177
:1003900001850419012AA002150126A00295017504
:1003A000108100C005010906A101050719E029E730
:1003B00015002501950875018102950175088101D7
:1003C0000507190029FF150026FF0095067508810D
:1003D000000508190129059505750191029501751A
:1003E000039101C011241FBECFEFDAE0DEBFCDBF05
:1003F00014E0A0E0B1E0E8EEFAE502C005900D924D
:10040000A431B107D9F725E0A4E1B4E001C01D9201
:10041000A53AB207E1F70E9432150C945C2D0C94BA
:100420000000CF93DF93EB01833B2DE5920709F4A6
:100430004AC0843B2DE59207B1F0823B9D4509F00F
:1004400051C08A81811105C0C0E08C2FDF91CF910E
:1004500008950E945F0C8272B9F3BE0181E09DE5B0
:100460000E944D18F1CFCA81CC23E1F00E945F0CAD
:10047000827261F084EB0E94BB0482EF0E94BB0495
:100480000E94720C83E00E943708DECF0E945F0C4E
:10049000817131F081E00E9437080E94720CD4CF44
:1004A00082E0F9CF81E00E942308882319F081E0DF
:1004B0000E94470882E00E942308882329F282E0F4
:1004C0000E944708C2CF8A81882361F083E00E949E
:1004D000470881E00E94470882E00E94470880EEBA
:1004E0000E946F04888181110BC08981833041F49F
:1004F000CA81C111AACF80EE0E94BB040E94720C77
:10050000C1E0A3CF9C013A9521153F4150F5FC0174
:10051000EE27F170BC0166277270AC01442754705D
:100520009C012227387094FF0EC080E1EF2B09F464
:1005300080E0672B09F08062452B09F08064232B53
:1005400089F08068089581E0EF2B09F480E0672B43
:1005500009F08260452B09F08460232B19F0886034
:10056000089580E00895CF93DF93EB010E9482020B
:10057000FE010995DF91CF910895CF93DF93EC01B0
:10058000805E9109089720F06DE577E0209711F4DF
:100590006EE075E0CE010E94B3028C2F0E946F04C2
:1005A000DF91CF910895CF93DF93EC010E94BB04BC
:1005B000CE01805E9109089720F064E677E02097ED
:1005C00011F465E175E0CE010E94B302DF91CF9195
:1005D00008950F931F93CF93DF938C01EB010E943B
:1005E000BD02209741F4C8010E94D302DF91CF9150
:1005F0001F910F9108958FE99FE00197F1F700C0D7
:1006000000002197EECF70E060E08933910511F48E
:1006100060E570E00E94E902089581E008950E947B
:100620001102089508950E9412030895A5E0B0E014
:10063000ECE1F3E00C94C82C49835A8330911B04FD
:1006400089819A81311119C0662399F0222389F09A
:100650000E94FD08182F682F89819A810E94D9086D
:1006600069817A81812F0E94F40F2596E3E00C9432
:10067000E42C0E94EB08182FF3CF0E94FD0869813B
:100680007A81F1CFFC01262F86819781009739F47A
:10069000408151816281738184810E941603089593
:1006A000CF93DF93EC0161E00E944203BE010E9400
:1006B000D51BDF91CF910895CF93DF93EC0160E0DC
:1006C0000E944203BE010E941303DF91CF9108955F
:1006D0000E94811108950E948511089508950E9435
:1006E00081070E946E032FEF84E39CE0215080403D
:1006F0009040E1F700C0000008950E946F030E943F
:10070000B42508950E946F030E94C52508950F9394
:100710001F93CF93DF938C0161E00E944203EC01B1
:10072000B8010E948B21B801CE010E940F038111F4
:1007300006C080E0DF91CF911F910F910895B8011D
:10074000CE010E94C01E8823A1F3B801CE010E94F1
:10075000AC21882371F3B801CE010E9412188823BE
:1007600041F3B801CE010E94D320882311F3B801D0
:10077000CE010E944D188823E1F2B801CE010E94FB
:100780007B1D8823B1F2F8018281882361F0CB358B
:10079000FDE5DF0701F158F4C115ECE5DE0791F046
:1007A000CF3DDC4591F0C8010E940D03C3CFCD358C
:1007B0008DE5D80769F090F0C83ADD45A1F70E94B1
:1007C0008203B7CF0E947D03B4CF0E941C0EF7CFE7
:1007D0000E945A0DE8CF0E94640DE5CF0E94680D7B
:1007E000E2CF0E94CA240E940E0408950E941204BF
:1007F0000E94CF24089508950E94FB03089581E08C
:1008000008950E94FF0308950895CF93C82F0E9472
:10081000FC038C2F0E940104CF91089580E00E9478
:10082000050408950E94ED230E9405040895CF93C6
:100830000E94ED23C82F809116048C1779F0C09385
:1008400016040E945925609317047093180480932E
:10085000190490931A048C2F0E940504CF910895D7
:10086000ADE0B0E0E6E3F4E00C94C92C49875A8788
:100870006B877C878D8761110E94850C1D821E828B
:100880001F82188685E0FE013996DE0111960190DF
:100890000D928A95E1F78C819D81892B71F42981D4
:1008A0003A814B815C816D817E818F8198850E9428
:1008B0009D0B2D96E2E00C94E52C89819A81892389
:1008C0008F3F69F3CE0101960E9450038111E7CF5B
:1008D000F0CFFC01808191810E942F090895CF9370
:1008E000C82F8823B9F08CEF8C0F813AA8F46C2FB5
:1008F00080916C0190916D010E945B24882329F006
:100900008C2F0E943C0C0E94B20C8C2F0E94340C45
:100910000E94B20CCF91089580E28C0F883048F489
:10092000C77081E001C0880FCA95EAF70E94620C87
:10093000EFCFEBE5EC0FE33040F4F0E0E252FC4F98
:10094000808190E00E941D24E5CFE8E5EC0FE731BF
:1009500050F4F0E0EE0FFF1FE055FC4F80819181D5
:100960000E943324D7CFCD3EA8F28C2F0E94B6151B
:100970000E946A16CFCF882379F19CEF980F913AA5
:1009800028F40E943C0C0E94B20C089590E2980F4B
:10099000983050F4877091E001C0990F8A95EAF77A
:1009A000892F0E94680CEFCF9BE5980F933028F4B5
:1009B00090E080E00E941D24089598E5980F9731FB
:1009C00028F490E080E00E94332408958D3E20F0CA
:1009D0000E940A160E946A1608951F93CF93DF9310
:1009E000182FEB010E946F04209739F4812F0E9489
:1009F000BB04DF91CF911F9108958FE99FE001978C
:100A0000F1F700C000002197EFCF70E060E089337C
:100A100011F460E570E00E94ED040895882321F050
:100A20000E94620C0E94B20C0895882321F00E945B
:100A3000680C0E94B20C0895B0E0A0E0E2E2F5E09C
:100A40000C94C22C6C01D62FC72FFC011281F580AB
:100A5000F2949FE0F9220E94580CE82E8823B9F006
:100A6000E12E1123A1F08C2F807F803421F080E2D1
:100A70008D0F8830D0F080917A0582FF16C082E019
:100A80000E94290D0E94580C91E0E82EE926BC2E08
:100A9000B2948FE0B822FBE0FB1508F468C0EB2DA0
:100AA000F0E0E25AF24D0C94B32CE12CF0CF0C2F75
:100AB0000F70C07F11F00295007F112399F0002381
:100AC00059F080E28D0F883010F0D11107C0802FCF
:100AD0000E94620C0E94B20C8D2F41C0802F0E9498
:100AE000780CF8CF8D2F0E94BB04002309F43FC07F
:100AF00080E28D0F883010F0D11104C0802F0E9449
:100B0000680C03C0802F0E947E0C0E94B20C2FC084
:100B10000C2F0F70C07FC03211F00295007FDD23D3
:100B200081F0D13009F463C0112309F46DC0FF20B6
:100B300009F463C0F601858180FFCECF8F70858375
:100B40005CC080917A0582FD33C0112359F00023E7
:100B500029F0802F0E94620C0E94B20C80E00E945B
:100B60006F0405C080E00E94BB040111C7CFEB2DCC
:100B7000E850FF0B349720F40E94ED230E940504F7
:100B8000EE2089F00E94540C80FD0DC0F601128207
:100B90000E944E0C0E943708C6010E9433070E9433
:100BA0004E0C0E944708CDB7DEB7E9E00C94DE2C6E
:100BB000112389F0F11006C00E94940C802B0E9432
:100BC0000E05D5CF21E0F212F7CF0E94940C802BB6
:100BD0000E949B0CCCCFF11006C00E94A80C802F65
:100BE0000E941505C4CF31E0F31609F2F6CF1123A8
:100BF00031F085E08F1508F4BACF802FE0CF94E074
:100C00009F1508F4B4CFEBCFFF2049F3D93349F453
:100C1000FFEF27EE33E0F15020403040E1F700C015
:100C200000008D2F0E94BB04A2CF8C2F8695869545
:100C3000837069F0813009F09ACF8D2F9C2F9370CB
:100C4000111102C090E080E00E94332490CF8D2FDC
:100C50009C2F9370111102C090E080E00E941D242F
:100C600086CF8D2F112329F00E94B6150E946A1697
:100C70007ECF0E940A16FACF8C2F8370A1F5111136
:100C800076CF4D2F429546954770440F440F2D2F38
:100C90002F7030E0042E02C0220F331F0A94E2F7B7
:100CA00090E080E0D4FF09C08FE090E002C0880FA0
:100CB000991F4A95E2F780959095C695C695C370A1
:100CC000822B932BC23049F058F4C13019F00E94A6
:100CD000E9074DCF0E94E0074ACF0E94F20747CFB5
:100CE0000E94DD0744CF8695112311F08C2F81706F
:100CF000882309F43CCF4D2F429546954770440F09
:100D0000440F2D2F2F7030E0042E02C0220F331F0E
:100D10000A94E2F790E080E0D4FF09C08FE090E011
:100D200002C0880F991F4A95E2F780959095C69565
:100D3000C695C370822B932BC23049F058F4C13052
:100D400019F00E94720813CF0E94690810CF0E9408
:100D50007B080DCF0E9401080ACFCF70112329F024
:100D60008C2F0E9437088D2F2ACF8D2F0E941505BA
:100D70008C2F0E944708FBCED23F51F160F4D03F48
:100D8000B9F0D13F81F0112309F449C0F110A4CE8C
:100D90008C2F8F7121C0D33F11F1D43FA1F78091E7
:100DA0007A0582FD26C08C2F8F71112311F314C098
:100DB000112349F084E08F1508F4D9CE8C2F8F7160
:100DC0000E945908D4CE95E09F1508F4D0CEF6CFF6
:100DD0008C2F8F711111CDCF0E943708C8CE1123EF
:100DE00029F08C2F8F710E942B08C1CE0E940A0817
:100DF000BECE112349F0CF718C2F0E94370863E0DB
:100E00008C2F0E940B0DB3CE81E00E94290DE1E0F2
:100E1000EF1508F0ACCE82E00E94290DA8CEF110AB
:100E2000F5CE8C2F8F71A5CF0F931F93CF93DF93A8
:100E3000EC018E819F81009781F00E94030F8C014D
:100E40000E9484080E94DC07B801CE010E941C05A4
:100E5000DF91CF911F910F910895688179818A81E7
:100E60000E943A09ECCFCF93DF93EC018B819C81F8
:100E7000892B29F08881998189238F3F51F4DF9153
:100E8000CF910895CE010E941407CE010E945C0309
:100E9000F6CFCE010E9487038111F4CF0E94580C37
:100EA000882369F38A81882351F380917A0582FF30
:100EB000E6CF82E00E94290DE2CF882321F00E9434
:100EC000780C0E94B20C0895882321F00E947E0CB9
:100ED0000E94B20C089590E080E00E941D2490E0F2
:100EE00080E00E9433240E94850C0E94B20C0E9474
:100EF00086160E946A1608950E94440C0E946B0791
:100F000008950E94720C0E947C07089592959F702C
:100F1000963091F058F4925F9F70923058F4803F71
:100F200019F030F4883E30F481E008959A5FF4CFF0
:100F3000843FD1F380E00895883EB0F3813FD1F73C
:100F4000F3CFFC0183819481892B29F080819181E9
:100F500089238F3F39F480E008950E94030F0E9497
:100F600086070895868197810097B9F780819181DE
:100F70000E942F09F4CFA5E0B0E0E1ECF7E00C947B
:100F8000C92C2596E2E00C94E52CA8E0B0E0EBEC4F
:100F9000F7E00C94C92C2896E2E00C94E52C089517
:100FA0000E94CF0708950E94D00790933304809346
:100FB00032040E946B07089508950E94D307089594
:100FC0002091320430913304822B932B0E94D3075B
:100FD00008952091320430913304822393230E9498
:100FE000D307089520913204309133048227932748
:100FF0000E94D30708950E94CF0708950E94FB071F
:1010000008950E94FE0790933104809330040E945B
:101010006B07089590E080E00E9401080895009712
:1010200029F481E0662371F080E00CC021E030E01B
:1010300002C0220F331F6A95E2F72823392381E08B
:10104000232B91F30895682F8091300490913104FF
:101050000E940F08089521E030E0A90102C0440F6A
:10106000551F8A95E2F7CA010E940108089521E000
:1010700030E002C0220F331F8A95E2F780913004DE
:1010800090913104822B932B0E940108089521E056
:1010900030E002C0220F331F8A95E2F72095309589
:1010A0008091300490913104822393230E9401089F
:1010B000089521E030E002C0220F331F8A95E2F745
:1010C0008091300490913104822793270E94010877
:1010D00008952091300430913104822B932B0E948B
:1010E0000108089520913004309131048223932324
:1010F0000E94010808952091300430913104822724
:1011000093270E94010808950895262F277091E0E3
:1011100001C0990F2A95EAF723E0769567952A95FD
:10112000E1F7660F771F660F771FFA01E60FF71FCB
:1011300050E040E0682F70E08191DF0111979B0142
:10114000042E02C0369527950A94E2F72170219566
:101150002827292328272C934F5F5F4F44305105C0
:1011600059F70895A82FA77023E0969587952A959B
:10117000E1F7880F991F880F991FFB01E80FF91FEE
:1011800050E040E080E0219130E00A2E02C0369528
:1011900027950A94E2F721703327042E01C0220F0D
:1011A0000A94EAF7822B4F5F5F4F4430510559F79D
:1011B0000895262F983070F4853060F4682F70E021
:1011C00085E0989F600D711D11244CE154E0822F41
:1011D0000E9485080895292F983068F4853058F4C6
:1011E00090E06CE174E035E0239F800D911D1124A7
:1011F0000E94B208089580E00895B0E0A0E0E3E026
:10120000F9E00C94C22C7C0100913004109131045F
:101210008091320490913304082B192BCFE0D0E059
:10122000CC24C394D12CBC2EC6010C2E02C0880F36
:10123000991F0A94E2F780239123892B49F421977F
:1012400090F7B12C8B2DCDB7DEB7E9E00C94DE2CF6
:10125000B7018C2F0E940F10019789F3F3CFCF9322
:10126000DF93EC010E94FD08BE010E940F10DF9188
:10127000CF9108951F93CF93DF93EB0190911B04BF
:10128000992339F0CB010E942F09DF91CF911F9153
:101290000895882369F0CB010E94FD08182F682F5C
:1012A000CE010E94D908BE01812F0E940F10EDCF00
:1012B000CB010E94EB08182FF6CFCF93DF93C0919C
:1012C0003404809135048C1303C0DF91CF910895CD
:1012D000D0E0FE0183E0EE0FFF1F8A95E1F7EA5CA4
:1012E000FB4F2081318142815381648175818681E8
:1012F00097810E94C5072196C770E3CF209176049D
:1013000030917704409178045091790460917A0487
:1013100070917B0480917C0490917D040E94C507AC
:101320000895CF93DF9380917B04807F09F049C0BB
:1013300080917804882309F444C080913404C091DA
:1013400035046091760470917704A0917904B0918E
:101350007A04D62FD723C817A1F190E0109711F087
:10136000DF3F19F401968770F6CF9C0143E0220F0E
:10137000331F4A95E1F7F901EA5CFB4F41814713BE
:10138000F1CF40814613EECF42814111EBCF438133
:1013900054814A1B5B0B4A3F510520F780917B0427
:1013A0008F70806180937B04F901E55CFB4F808145
:1013B0008F708061808386E794E00E9433070E94EB
:1013C0005D09DF91CF910895A5E1B0E0EAEEF9E083
:1013D0000C94C12C8C0185E0F801DE01519601903E
:1013E0000D928A95E1F7F801E28046E7C42E44E0C9
:1013F000D42E6091790470917A046115710509F415
:1014000080C19091760420917704892F82238F3FA9
:1014100009F477C140815181A380B480F0907804B1
:10142000F501E61BF70BFF2009F420C180917B0436
:10143000382F307FEA3FF10508F0CAC0311177C07C
:10144000FE2C251320C094131EC060917C04709163
:101450007D04F8012681378162177307A1F4E1103A
:1014600012C08F70806180937B040E947E09C60148
:101470000E94330780917B04F80185838F2D659648
:10148000EAE00C94DD2CA114B10429F0842F85230B
:101490008F3F09F04FC180E0F82FF170DF2E80FF01
:1014A0003CC08091340420913504821315C0498BCF
:1014B0005A8B89899A890E942F09292F22952F708A
:1014C0002230F8F0243020F59F70F9F0F801958172
:1014D000907FD9F4D12C1FC090E0FC0133E0EE0FD7
:1014E000FF1F3A95E1F7EA5CFB4F3181351306C0E7
:1014F0003081341303C032813E110FC001968770D2
:10150000D4CF9F7011F0882329F3805E883010F3C8
:10151000C8010E943307FD2CB1CFEE2009F4AECFF5
:1015200080917B04816080937B04F12CA7CF2513ED
:101530001DC094131BC040917C0450917D04F801A0
:10154000268137814217530789F4E1100FC0858344
:10155000C8010E94330788E0F801A6E7B4E00190D3
:101560000D928A95E1F70E947E0988CFC8010E94FA
:10157000A107882349F1EE2039F180917B04803264
:10158000A0F020917604309177043A8729871B8652
:10159000BD86AC868E8780917C0490917D04988B6B
:1015A0008F87CE0109960E94330788E0F801A6E7ED
:1015B000B4E001900D928A95E1F70E9491090E9492
:1015C0007E09FF24F3945ACFC8010E943307F9CF54
:1015D000311113C07A2DBD8AAC8A6E2D8D890E947F
:1015E000BB0786E794E00E94330788E0F60111927A
:1015F0008A95E9F70E947E0998CF251318C09413A5
:1016000016C040917C0450917D04F80126813781F9
:101610004217530761F4E1100AC08583C8010E9494
:10162000330788E0F60111928A95E9F727CFC801C0
:101630000E94A107882341F2EE2031F280917B04C1
:10164000803208F4B2CF20917604309177043A8347
:1016500029831B82BD82AC828E8380917C04909111
:101660007D0498878F83CE0101969DCFEA3FF105D7
:10167000D8F5FE2CEE2009F4A7CF251327C094132C
:1016800025C020917C0430917D04F80186819781EA
:1016900028173907D9F490917B0490FD0EC0907FF4
:1016A00061F080917B048583903F09F451CF982F9E
:1016B000907F905F8F70892B4ACF88E0F801A6E772
:1016C000B4E001900D928A95E1F7D8CEC8010E944E
:1016D000A10781116ACF80917B04816080937B0494
:1016E000C8010E943307CACE7A2DBD8AAC8A6E2DFE
:1016F0008D890E94BB0788E0F60111928A95E9F76F
:1017000032CFEE2009F460CFC8010E94A107F82E65
:10171000882309F459CF88E0F801A6E7B4E00190E6
:101720000D928A95E1F786E794E00E9469040E9491
:10173000910919CF81E08E25AFCEA0E1B0E0E3EAB8
:10174000FBE00C94C92C29873A874B875C876D870F
:101750007E878F87988BCE0109960E94E4098823A3
:10176000A9F08C859D85892B39F029853A85822FB2
:1017700083238F3F09F06FC080913404909135042A
:10178000891343C06096E2E00C94E52C88E0FE01EA
:101790003996DE01119601900D928A95E1F78C85BC
:1017A0009D85892B49F389859A8589238F3F21F36C
:1017B000A0913504B0E0CD01019687709927209162
:1017C00034042817190671F40E9481071092350419
:1017D0001092340488E0E6E7F4E0DF011D928A9578
:1017E000E9F7CACF93E0AA0FBB1F9A95E1F7AA5C6D
:1017F000BB4F98E0FE01319601900D929A95E1F76A
:10180000809335040E945D09B7CFB8E08B9FC0017B
:1018100011248A5C9B4F0E94E409882309F4B2CF0B
:10182000E091340428E0E29FF0011124EA5CFB4FD0
:1018300020813181428153816481758186819781C4
:101840000E94C5078091340490E001968770992723
:101850008093340491CF4B855C856D857E858F8523
:1018600098890E94C50788CF682F80916C0190915C
:101870006D010E9491240895682F80916C019091D0
:101880006D010E949424089580916C0190916D01E6
:101890000E9497240895809187040895809186047A
:1018A000859585958595089580918604877008951E
:1018B00090918604977081E009F480E0089580910A
:1018C0009404089590919404892B8093940408952E
:1018D0008095909194049823909394040895809314
:1018E00094040895109294040895809193040895A7
:1018F00090919304892B80939304089580959091FF
:101900009304982390939304089510929304089558
:101910008093920408951092920408958093910404
:10192000089510929104089580918804089508956F
:101930000E94970C089590917A0592FF08C09091AB
:101940008804981721F0809388040E94980C0895C9
:1019500080918804882329F01092880480E00E94F6
:10196000980C0895CF93DF93E0916C01F0916D0195
:10197000809194048083E0916C01F0916D018081ED
:1019800090919304892B808390918804992381F00E
:10199000E0916C01F0916D018081892B80838091B1
:1019A0006C0190916D010E94492481110E94A80C44
:1019B000E0916C01F0916D0180919104982F9095C8
:1019C000808189238083E0916C01F0916D01808199
:1019D00090919204892B8083C0916C01D0916D010C
:1019E00048E050E06EE774E0CE010E94042D892BA0
:1019F00059F088E0FE01AEE7B4E001900D928A95BF
:101A0000E1F7CE010E940424DF91CF91089508955B
:101A10000E94070D089590917A0592FF11C098E0F9
:101A2000899F90011124622B609386040E943708DD
:101A3000809186048595859585950E94080D089569
:101A40000E94370808951092860480E00E94080DD5
:101A50000895909186048095892380938604282F89
:101A6000277091F4282F082E000C330B92171306C1
:101A700059F090917A0592FF07C0859585958595D7
:101A80000E9447080E94230D089590917A0592FBC9
:101A9000222720F9281769F080FB92F990937A05A4
:101AA0008091790590917A050E94960D82E00E94BE
:101AB000290D089580917A0582FB882780F991E0AD
:101AC00089270E94450D089581E00E94450D0895E3
:101AD00080E00E94450D08956FEF7FEF90E080E079
:101AE0000E94462D089590E080E00E94222D21E082
:101AF000883E9E4F09F020E0822F089582E090E01A
:101B00000E941A2D089583E090E00E941A2D0895F6
:101B1000CF9384E090E00E941A2DC82F82E290E0DB
:101B20000E941A2D982F8C2FCF910895CF93C92FF3
:101B3000682F84E090E00E94282D6C2F82E290E0D4
:101B40000E94282DCF910895AB01BC018FE090E059
:101B50000E943A2D0895AB01BC0183E190E00E9400
:101B60003A2D089560E070E0CB010E94AB0D08951E
:101B700060E070E0CB010E94A40D0E94B20D0895B8
:101B800068EE7EEF90E080E00E94462D60E082E00B
:101B900090E00E94282D60E083E090E00E94282DD4
:101BA000109233041092320460E084E090E00E94CE
:101BB000282D64E082E290E00E94282D60E085E01C
:101BC00090E00E94282D60E086E090E00E94282DA1
:101BD0006FEF87E090E00E94282D40E050E0BA01CE
:101BE00088E090E00E943A2D60E08DE090E00E9455
:101BF000282D40E050E0BA0188E190E00E943A2DA3
:101C000060E087E190E00E94282D40E050E0BA01BA
:101C10008CE190E00E943A2D70E060E080E290E07C
:101C20000E94462D40E050E0BA0188E190E00E9419
:101C30003A2D0E94B80D08950E94C00D08958EE0BF
:101C400090E00E941A2D91E0811101C090E0892F4F
:101C50000895682F8EE090E00E94282D08950E943C
:101C600059256093A3047093A4048093A5049093D2
:101C7000A60460939F047093A0048093A1049093A2
:101C8000A2040895089508950E94430E08950895AA
:101C90000E94470E089589E391E10E94E3230E9488
:101CA000420E0E94440E08950E9423130895089541
:101CB00008950E94570E0E94580E08950E946211C6
:101CC0000E9404040E94501708950E9444250E9417
:101CD000F9100E943B130E9450120E945E0E0E9457
:101CE0000E170E944B130E94480E08950E94231362
:101CF000882331F00E94841E0E9407220E948E1BBE
:101D00000895AAE0B0E0E7E8FEE00C94C12C0E9440
:101D1000A41287E9A82E84E0B82E750110E0F7011F
:101D200001917F01812F0E9488111F5F183009F4F3
:101D300040C00817A1F38091A70481FD0E948E1175
:101D40000E94540EC82E10E0812F0E948811082F87
:101D5000F50181915F01081731F1D02ED826F12CC1
:101D6000EE24E3948D2D8E21B1F0CC20A1F0FE82E3
:101D70001F8391E0802F8E2109F490E098870E94C4
:101D80004D258160782F9A8789874E815F8168858C
:101D90008A850E943004F394EE0CF5E0FF12E2CF46
:101DA000F501319700831F5F183071F60E942F0EE6
:101DB00020C00813C0CF0E944D258C01809195044E
:101DC0009091960408171907A1F08FEF89838A83F1
:101DD0001B820E944D258160782F9D838C834981D1
:101DE0005A816B818D810E94300410939604009378
:101DF00095040E94760E0E94A2160E9417042A964D
:101E0000EAE00C94DD2CCF93DF930E941410EC01D8
:101E1000811521E5920708F042C0811530E593074E
:101E200008F09FC0883E910530F5803E910508F08E
:101E300094C0883A910588F4853A910508F086C0E7
:101E40008130910509F489C0009709F486C0049790
:101E500008F083C0D0E0C0E080C08F3B9105D0F790
:101E6000C85AD0E0CC0FDD1FCF51DC4F0990D8818C
:101E7000C02DD46472C0811540E2940750F4C1159E
:101E800081E0D80708F069C0CD3ED10518F3D065D0
:101E900064C081159044F0F2DF70D06A5EC0811595
:101EA00035E5930718F5811544E5940708F085C0DA
:101EB000C11583E5D80708F06CC0C11522E5D2072B
:101EC00008F462C0CE018370992721E030E002C09F
:101ED000220F331F8A95E2F7C695C69580E2C89F08
:101EE000E0011124C22BD32BDC6837C0811539E502
:101EF0009307A8F4811548E5940708F063C0C1155D
:101F000086E5D80708F0A6CF8C2F0E94B610C82F00
:101F1000D0E0DC2FCC27CC27DF71D0621EC081152A
:101F20002AE5920708F453C090568115904208F0B4
:101F300091CF8D2F8F710E94B61090E0982F882737
:101F400088279F719C012C2BE901E7CFC55AD0E06F
:101F5000C15FDB4FC881D0E0D064CE01DF91CF916B
:101F600008958370992721E030E002C0220F331FCB
:101F70008A95E2F7C695C69540E2C49FE001112418
:101F8000C22BD32BDD68E9CFDC2FCC27C16FD06A01
:101F9000E4CFCE018370992721E030E002C0220F08
:101FA000331F8A95E2F7C695C69540E2C49FE001CB
:101FB0001124C22BD32BDA68D0CFD82FCC27C46FF3
:101FC000D06ACBCFD82FCC27C06FD06AC6CF8F7046
:101FD0000E94B61034E0D695C7953A95E1F7CF70D8
:101FE0009C2FEC01D069B9CF972F7830A8F46530D9
:101FF00098F470E025E0929F600D711D1124FB01A3
:1020000098E2899FE00DF11D1124EE0FFF1FE455AA
:10201000FF4F85919491089580E090E008950E948B
:10202000F40F0E94030F089582389105B9F1B0F4BE
:102030008133910509F47DC048F48932910509F492
:102040006DC08A32910509F47BC0089585339105EE
:1020500009F45FC08933910509F10895833E910524
:10206000D9F138F4803E910529F1823E910579F14C
:102070000895863E9105D9F1873E910509F43EC049
:10208000843E910541F520917A0521FF24C080917D
:10209000790584FD19C087EE90E0089520917905B7
:1020A000237009F05AC020917A0523FF14C089E2F9
:1020B00090E008952091790520FD38C030917A058F
:1020C00030FF09C024FF43C090E080E008952091D4
:1020D000790522FDF7CF08952091790522FD3AC0B8
:1020E00030917A0530FD39C024FFF5CFEDCF209136
:1020F000790523FFF0CF24FDE7CFCDCF20917905DF
:1021000023FD2EC030917A0531FFEECF84EE90E0B2
:1021100008952091790525FFDECFC9CF209179055B
:1021200025FD21C020917A0523FFD5CF89E390E0DA
:10213000D2CF2091790526FFCECF8AE290E0089594
:102140002091790526FFC7CF81E390E0089583EEC3
:1021500090E0089582EE90E0089580EE90E008957A
:1021600086EE90E0089585E390E0089590917905DA
:1021700092FF06C0282F28712830F9F4877F8460E9
:1021800093FF06C0282F28712831F1F4877E8461DF
:1021900020917A0520FF06C0382F38713830D9F4E5
:1021A000877F816021FF06C0282F28712831D1F454
:1021B000877E816194FD877E0895282F24712430C5
:1021C000F9F68B7F8860DCCF282F2471243101F74A
:1021D0008B7E8861DDCF382F3171313019F78E7FDA
:1021E0008860E0CF282F2171213121F78E7E886110
:1021F000E1CF109275051092760510927705109236
:1022000078050895CF92DF92EF92FF926B017C01E7
:102210000E94231381110EC00E945925C61AD70AA5
:10222000E80AF90AC0927505D0927605E092770522
:10223000F0927805FF90EF90DF90CF9008950F9384
:102240001F930E942313882329F00E9459251F9170
:102250000F9108950E9459250091750510917605FA
:102260002091770530917805600F711F821F931FB1
:10227000EECF80E008950E946C0D0895CF930E94E8
:10228000A4128FE39CE90197F1F700C000000E94BF
:10229000A4120E942013C4E08111C0E08C2F0E9480
:1022A000881190E002C095958795CA95E2F780FF66
:1022B00004C00E943B110E94B425CF9108950E9452
:1022C0003E1108950E94730D811102C00E941C0EE0
:1022D0000E947E0D8093A7040E94880D90937A053A
:1022E000809379050E945F110E94830D90E00E9407
:1022F000DD0780913004909131040E94FE0708951B
:1023000008950E948011089508950E9484110895EF
:10231000E82FF0E0EC57FA4F808108950895089572
:102320000E948F110895EF92FF921F93CF93DF9336
:1023300000D000D0CDB7DEB70E942313182F6091D4
:102340008C05882309F447C019821A821B821C82DB
:10235000862F90E09E012F5F3F4F7901B9018C5786
:102360009A4F0E9459138823E9F080917B0590E0F1
:1023700044E050E0B7018C579A4F0E94042D21E0B1
:102380002093A804892BC9F410E00E946B03812FCD
:102390000F900F900F900F90DF91CF911F91FF90B2
:1023A000EF9008958091A804882371F384E0F701E9
:1023B00011928A95E9F71092A804E0917B05F0E06C
:1023C000EC57FA4F89819A81AB81BC8180839183DC
:1023D000A283B383DACF70E06C577A4F80917B058C
:1023E00090E08C579A4F0E94E0130E949011CFCF3B
:1023F0001F93CF93DF932EE631E0C1E0D0E0D90107
:1024000050E040E08D918F3F91F0E82FE295EF7022
:10241000F0E011A18F70BE0101C0660F8A95EAF746
:10242000962F9095912391A382A1862B82A34F5F33
:102430005F4F4530510531F72B5F3F4F81E0223828
:102440003807E9F6DF91CF911F910895CF93DF937D
:10245000AC01A62FB0E085E0689FF0011124E2599D
:10246000FE4F75E081E060E091919F3F81F0C92FC0
:10247000C295CF70D0E028A130E09F7002C03595A2
:1024800027959A95E2F7982F20FD90E0692B880F09
:10249000715051F7A40FB51F6C93DF91CF91089540
:1024A000A4E1B0E0E6E5F2E10C94C92C8091820150
:1024B000811126C084E1ECECF1E0DE01119601907F
:1024C0000D928A95E1F7FE013196AEE6B1E0CE01BC
:1024D000459620812C93218111962C93119722816E
:1024E00012962C931297238113962C931397248181
:1024F00014962C931497359615968E179F0749F7C7
:102500008091820194E0811190E090938C0584E0A9
:10251000891B80937B050E94F81188E0E4E8F5E0D0
:10252000DF01982F1D929A95E9F7ECE7F5E0DF01BE
:102530001D928A95E9F784E00E94E2120E946803E6
:102540006496E2E00C94E52CA8E0B0E0EAEAF2E15F
:102550000C94C62C8E010F5F1F4F88E0F80111927A
:102560008A95E9F7F12C6F2DC8010E942612F39489
:10257000F4E0FF12F8CF48E050E0B8018CE795E0B6
:102580000E94042D21E0009709F420E0892B41F0FE
:1025900088E0F801ACE7B5E001900D928A95E1F78B
:1025A00060918C0570E06C577A4F44E08CE795E0C1
:1025B0000E94E312182F0E949311812B2896E5E0C8
:1025C0000C94E22C0895CF92DF92EF92FF920F933A
:1025D0001F93CF936C017B01042F222349F081E0EC
:1025E0008093AB040E944D259093AA048093A90484
:1025F000C091AB04C1110AC0C0E08C2FCF911F91D4
:102600000F91FF90EF90DF90CF9008958091A904F3
:102610009091AA040E946525059770F310E0A80127
:10262000B601C7010E94042D892B41F0A801B60113
:10263000C7010E94112D1092AB04DFCFC0E0FBCF89
:102640000E941F0E08958091AE04811107C00E9460
:10265000922C882351F081E08093AE0481E0909128
:10266000AE04913009F080E0089582E08093AE04DA
:102670000E948D2CF3CF0E94730D811102C00E9425
:102680001C0E0E942013809382010E94231381114B
:102690000E948F1308950E942313811102C00E948B
:1026A0009213089581E09091AF049A3008F080E091
:1026B00008950F931F93CF93DF93EC018B018091CB
:1026C000AF048A30B8F4B801CE010E94DD13C82FE0
:1026D000811122C08091AF048F3FB9F40E944D2533
:1026E0009093AD048093AC048C2FDF91CF911F9118
:1026F0000F9108958091AC049091AD040E946525DE
:10270000843F914000F7C0E0EFCF8F5F8093AF042C
:102710008A3020F7C1E0E8CF1092AF04E5CF0E94E5
:10272000812208950E9484220895B0E0A0E0EBE9A0
:10273000F3E10C94C42C7901C82F880FDD0B4115EF
:102740005105A9F0FE0193E0EE0FFF1F9A95E1F706
:10275000ED57FE4F8181928180559B4F208130E063
:102760004217530708F49A01A9010E94112DCE01C6
:102770000E946D23D82E8823D1F001151105B9F0E0
:1027800083E0CC0FDD1F8A95E1F7FE01ED57FE4F88
:10279000438150E00417150708F4A801CD57DE4F18
:1027A0006C817D8160557B4FC7010E94112D8D2D5D
:1027B000CDB7DEB7E7E00C94E02C0E94D714089563
:1027C0000E94EE140895A4E0B0E0E9EEF3E10C9469
:1027D000C72C6091C5047091C6048091C704909184
:1027E000C8040E94742511E06436710581059105C5
:1027F00018F10E941F116E5F7F4F8F4F9F4F6983AB
:102800007A838B839C8310E000E030E020E044E09A
:1028100050E0BE016F5F7F4F82E00E949513182F3A
:10282000882351F00E9459256093C5047093C60413
:102830008093C7049093C804812F2496E4E00C94FD
:10284000E32CB0E0A0E0E7E2F4E10C94C12C7C01C1
:102850005B016A010E94521301E010E0882311F02D
:102860000AE010E0C1E0D0E0B501C701F60109952A
:10287000811104C021960C171D072CF4CDB7DEB7CB
:10288000EAE00C94DD2CCC9F9001CD9F300D300DF3
:10289000112490E080E045E34A95F1F700000196AD
:1028A00082179307C1F7E0CFA5E0B0E0EAE5F4E1D5
:1028B0000C94C12C5B01E0901204F090130401E031
:1028C00010E09E012B5F3F4F50E040E070E060E081
:1028D00080E00E949513182F882309F44BC06701EC
:1028E0008FEFC81AD80A6091C1047091C204809118
:1028F000C3049091C4040E94742564367105810557
:10290000910580F104E010E09E012F5F3F4F50E001
:1029100040E070E060E081E00E949513F82E64E0F2
:1029200070E0C6010E940F1711E09D81981310E01E
:102930001F2159F10E9459256093C1047093C2046C
:102940008093C3049093C40489819A81AB81BC8134
:102950008093BD049093BE04A093BF04B093C004C1
:1029600011E013C064E070E0C6010E940F179D8162
:102970008913C8CFF70181819281A381B4818983B2
:102980009A83AB83BC831111DFCF8091BD049091FA
:10299000BE04A091BF04B091C004F501808391836F
:1029A000A283B383812F2596EAE00C94DD2C0F934C
:1029B0001F93CF93DF93EC018B0144E554E10E9418
:1029C0002114882331F043EE53E1B801CE010E9477
:1029D0002114DF91CF911F910F9108950F931F93B1
:1029E000CF93DF93C0911204D0911304CE010196CE
:1029F00024E0FB01DC0101900D922A95E1F764E0EF
:102A000070E00E940F1788836D817E818F81988589
:102A10000091B9041091BA042091BB043091BC0418
:102A2000601771078207930751F06093B9047093A0
:102A3000BA048093BB049093BC040E940211DF91FE
:102A4000CF911F910F9108950E9468270E94650EF3
:102A50000E94752708950E947A270E94810E0E9485
:102A6000942708950E94E6240E944E270E944B0E50
:102A70000E9424150E942B150E94590EFBCF8091B5
:102A8000CD0490E0880F991FFC01ED54FE4F20818A
:102A90008D559E4FFC0180819091D004191614F43D
:102AA0002093D0049091D00497FF04C0922F919569
:102AB0009093D0049091D104191614F42093D1046A
:102AC0009091D10497FF03C021952093D104909158
:102AD000D304191614F48093D3049091D30497FF70
:102AE00004C0982F91959093D3049091D204191615
:102AF00014F48093D2049091D20497FF03C081957F
:102B00008093D2043091D0043323A1F02091D104DA
:102B1000222381F045EB3403C00111249923F1F005
:102B20009093D00445EB2403900111243323D1F07A
:102B30003093D1044091D304442379F03091D204EE
:102B4000332359F025EB4203A00111245093D30401
:102B50003203900111243093D204089581E08093D0
:102B6000D004E0CF81E08093D104E4CF4091CD0444
:102B7000242F30E0220F331FF901ED54FE4F9081D6
:102B80008D3E21F491959093D10408958E3ED9F312
:102B90008F3E21F491959093D0040895803FD9F30E
:102BA0002D553E4FF9019081893F19F49093D2043D
:102BB00008958A3F11F49195F9CF8B3F21F49195B7
:102BC0009093D30408958C3FD9F39FE0980F9830E9
:102BD00070F4815F990B21E030E001C0220F8A95EB
:102BE000EAF78091CF04822B8093CF0408958D3F24
:102BF00049F481E08093CD048091CD0448130E9474
:102C00003F1508958E3F11F482E0F4CF8F3FC9F74E
:102C100083E0F0CF8D3E39F49091D10497FF09C045
:102C20001092D10408958E3E71F49091D10419163A
:102C3000BCF38D3F38F08091CD041092CD0481110A
:102C40000E943F1508958F3E39F49091D00497FF6C
:102C5000F0CF1092D0040895803F29F49091D004D1
:102C60001916BCF3E6CF893F39F49091D2041916B6
:102C700004F71092D20408958A3F29F49091D20467
:102C800097FFD7CFF6CF8B3F39F48091D30487FFDE
:102C9000D9CF1092D30408958C3F29F48091D304A6
:102CA0001816BCF308959FE0980F983008F0C1CF34
:102CB000815F990B21E030E0A90102C0440F551F4C
:102CC0008A95E2F7CA0180959091CF048923809379
:102CD000CF0408950E944D259C019091D0048091CD
:102CE000D104982B21F03093CC042093CB04909105
:102CF000D2048091D304982B21F03093CA042093FE
:102D0000C9048EEC94E00E940F24089586E0EEEC56
:102D1000F4E0DF011D928A95E9F70895FC018281B4
:102D200081110EC0838181110BC08481811108C083
:102D300091E08581811101C090E0892F8170089513
:102D400081E0FCCFA6E0B0E0E8EAF6E10C94C92C03
:102D500086E0EEECF4E0DE01119601900D928A958A
:102D6000E1F71092D0041092D1041092D204109284
:102D7000D3048B819C81892BC1F08091CB049091ED
:102D8000CC040E946525E091CD04F0E0EE0FFF1F1A
:102D9000E555FE4F208131812817390730F48B81AA
:102DA0008093D0048C818093D1048E819D81892B66
:102DB000C1F08091C9049091CA040E946525E091F8
:102DC000CD04F0E0EE0FFF1FE556FE4F208131816C
:102DD0002817390730F48D818093D2048E81809337
:102DE000D304BE016F5F7F4F8EEC94E00E949E245F
:102DF000811105C08EEC94E00E948E1681110E9414
:102E00006A1686E0FE013196AEECB4E001900D92B8
:102E10008A95E1F72696E2E00C94E52C0895FC01F2
:102E2000680F791F8FEF91E36E177F0709F40895FC
:102E30002191822728E030E087FF06C0880F89278C
:102E400021503109C9F7F0CF880FFACFCF93DF9324
:102E5000EC0197FF0CC0FB018281882341F00E94A6
:102E60006717CE019F770E94F7170E94C61781E06F
:102E7000DF91CF91089590918E05923071F48A3050
:102E800050F490E009966AE070E00E949F2C875A07
:102E90000E94050508958650FBCF0E94181A0895D8
:102EA0008CE090E00E941A2D90E0B0E0A0E08093CA
:102EB0008E0590938F05A0939005B093910508958A
:102EC00060918E058CE090E00E94282D08950E946C
:102ED000012486958170809393050E94012481705E
:102EE00080938D0580918E05813039F48091930512
:102EF000882319F089E30E9405050E945F0C8093E6
:102F000092050E94720C0E94850C80918E05823081
:102F100021F158F48823C1F08130D1F08FE39CE98E
:102F20000197F1F700C000000895843051F1853019
:102F3000A9F78BE191E00E94030385E290E00E94F3
:102F4000030388E290E006C082EE0E946F04E6CFA1
:102F500088E193E00E940303E1CF80918D05811108
:102F600003C083E50E94050582EE0E946F048FE393
:102F70009CE90197F1F700C0000087E50E94050574
:102F8000CDCF86EE0E94050588E1F8CF80918E05B1
:102F9000823011F148F4882381F0813091F08091E2
:102FA00092050E946F0C08958430F9F08530B9F7CE
:102FB00088E290E00E940303F2CF82EE0E94BB04FD
:102FC000EECF8CE20E94050580919305882339F3AA
:102FD00089E30E940505E3CF82EE0E94BB04809145
:102FE0008D058111DCCF83E5F4CF88E2F2CF0F931A
:102FF0001F93CF93DF938C01CCE0D0E0C8010C2E5F
:1030000002C0969587950A94E2F78F700E943B174D
:103010002497CC3F8FEFD80789F7DF91CF911F918D
:103020000F9108950F931F93CF93DF93EC018B01C2
:10303000FB018281882381F00E945F0CC43EFCE585
:10304000DF0729F190F4C23EECE5DE07D9F081E01C
:10305000C33EFCE5DF0799F0B801CE010E942617B8
:10306000DF91CF911F910F910895C63E8CE5D8074F
:1030700091F078F085E0C13BFDE5DF0769F78093CB
:103080008E0502C010928E050E946017E5CF82E087
:10309000F6CF83E0F4CF84E0F2CFCF93DF93EC015F
:1030A000FB018281882309F464C1C430FDE5DF0798
:1030B000E0F5CB3F9CE5D90730F49E0122503C451A
:1030C00024313105D8F50E94880D90937A058093BC
:1030D0007905C231ECE5DE0709F41FC108F06EC0C6
:1030E000C9308CE5D80709F4F2C008F03FC0C530FC
:1030F000ECE5DE0709F4DBC058F5C3308CE5D807F2
:1031000009F4CDC008F0CFC0809179058160C2304C
:10311000DC4509F4AEC08091790590917A050E9452
:10312000960D0E94810780E009C0C63AEDE5DE07F2
:1031300051F238F4C2369DE5D90729F2DF91CF91DB
:1031400008959E012E5A3D4523303105B8F7BBCF77
:10315000809179058062C730FCE5DF0709F489C0FA
:1031600008F4B1C080917905806483C0CD309CE5BE
:10317000D90709F4BAC070F4809179058E7FCB30FD
:10318000FCE5DF0709F475C008F4A7C08091790554
:103190008D7F6FC0CF309CE5D90709F4B6C008F425
:1031A000A8C0C031FCE5DF0709F4B3C0C131DC457C
:1031B00009F0B1CF809179058F7B5BC0C1159DE58A
:1031C000D90709F4B4C098F5CB3FFCE5DF0709F453
:1031D00072C0B8F4C4319CE5D90709F4B6C008F44C
:1031E000A2C0C531DC4509F096CF8091790582FBFC
:1031F000992790F921E0922790FB82F990FB83F9BF
:1032000038C0CD3F8CE5D80709F477C008F457C023
:10321000CE3FECE5DE0709F474C080917A05836047
:10322000CF3FDC4509F077CF80937A0574CFC23663
:103230008DE5D80709F496C068F4C230EDE5DE07E5
:1032400009F48CC008F477C0C330DD4509F063CFC2
:1032500080E085C0CE3A9DE5D907E9F068F4909109
:103260007905892F8E7F90FF8160C63ADD4509F090
:1032700052CF809379054FCFCF3A8DE5D80789F1AA
:10328000C03BDD4509F047CF90917A05892F877FB4
:1032900093FF8860C9CF80917A058860C5CF8091FF
:1032A00079058260E6CF809179058460E2CF8091D4
:1032B00079058860DECF80917A058160B5CF8091F5
:1032C0007A058260B1CF809179058061D2CF0E946A
:1032D0008107809179058068CCCF809179058C60D9
:1032E000C8CF80917A05877F9FCF809179058B7FAA
:1032F000C0CF80917905877FBCCF80917A058E7F82
:1033000093CF80917A058D7F8FCF809179058F7EC5
:10331000B0CF809179058F7DACCF0E9481078091DD
:1033200079058F77A6CF80917905837FA2CF809191
:103330007A058C7F79CF80917A05982F909591703E
:103340008E7F892B90FB81F96FCF0E94810790912E
:103350007905892F97FB87F980588BCF81E00E94F0
:10336000290ED9CE90917905892F8F7E94FF8061A7
:1033700080CF81E0E3CEB0E0A0E0E1ECF9E10C9495
:10338000C42CE82FF0E0EE5FFD4FD490282F269557
:103390002695269530E0F901EE55FD4F0491877092
:1033A00010E0082E02C0159507950A94E2F7017007
:1033B0001127F901EE56FD4FE490F12C082E02C0C2
:1033C000F594E7940A94E2F791E0E922FF24F901E9
:1033D000EE57FD4FC491D0E002C0D595C7958A95B0
:1033E000E2F7C170DD270115110519F081EE0E9489
:1033F0006F04E114F10419F086EE0E946F048D2D24
:103400000E940505E114F10419F086EE0E94BB0448
:103410000115110519F081EE0E94BB04CD2B19F0A6
:103420008CE20E940505CDB7DEB7E7E00C94E02CF6
:10343000982F9F709A50963020F0805D0E94BB19A3
:103440000895895AFBCF08950F931F93CF93DF936D
:1034500080913F05E091D4041CE081111AC0DF91F6
:10346000CF911F910F91089501E00E0F0093D404A6
:10347000CE2FD0E0E19FF0011124E152FB4F838178
:103480009481892B29F08081918189238F3FF9F4E0
:10349000E02F80913F05E81738F310923F05109216
:1034A000D404DDCF18968D919C918F3F9807E1F061
:1034B00061E00E94231A1C9FF0011D9FF00D112452
:1034C000E152FB4F148213820E94850CE1CF1C9FB6
:1034D000D0011D9FB00D1124A152BB4F16968D91A6
:1034E0009C911797892BF1F2208131814281538180
:1034F00064817581868197810E949D0BDCCF10923B
:103500004105109240052091BC013091BD01E0E0E1
:10351000F1E090E080E02817390709F4089545812B
:10352000411102C01482168201963796F4CFDC0155
:103530006091DD048091DE04962F891301C0089507
:10354000292F30E0F901EE0FFF1FEB52FB4F4081B6
:1035500051814A175B07A1F487E08A9FA0018B9FE6
:10356000500D112440505F4F81E0FA01848396137F
:10357000E6CF2F5F3F4F237033272093DD0408955C
:103580002F5F3F4F922F9370D8CFB0E0A0E0EBECCD
:10359000FAE10C94BE2CEB012C81211152C07090E9
:1035A0003F05AFEDB4E030E020E0812C61E070E059
:1035B000271508F044C01A96CD90DC901B97A88080
:1035C000B9804FEF5FEF912CE92CF12CF701EE0F52
:1035D000FF1FEA0DFB1D05911491C016D10609F4D9
:1035E000A7010115110511F09394EECF4F3F540739
:1035F00089F1FB0102C0EE0FFF1F4A95E2F78E2A08
:10360000AB01092C02C0440F551F0A94E2F7415048
:10361000510984161506D1F44A815B816CE0629FE2
:10362000F001639FF00D1124E152FB4F5783468355
:103630002EEF208321839187808721E02D830E94B4
:10364000971ACDB7DEB7EDE00C94DA2C14961C92E5
:103650001E9213972F5F3F4F1C96AACF1F93CF93B5
:10366000DF93C091DD0417E08091DE048C1308C065
:103670000E94241A0E947F1ADF91CF911F91089512
:10368000D0E0FE01EE0FFF1FEB52FB4F80819181D6
:10369000189FB001199F700D112460507F4F0E9438
:1036A000C51A2196C370E0CFEF92FF921F93CF937C
:1036B000DF93FC012081318110E040E050E0E52FF4
:1036C000F0E0EE0FFF1FE20FF31FA591B4911097EA
:1036D000B9F0FB01C081D18140E005C0AE15BF0546
:1036E00009F411E04F5FE42FF0E0EE0FFF1FEC0F45
:1036F000FD1FE590F490E114F10481F75F5FDFCFE7
:10370000112349F0451708F4CB01DF91CF911F91A8
:10371000FF90EF90089590E080E0F7CF8091BB019B
:10372000882341F18091420590914305009711F162
:103730000E946525209140053091410528173907E1
:10374000C8F49091DD048091DE04981759F00E942E
:103750002E1B1092410510924005109243051092C5
:10376000420508950E94241A1092430510924205C2
:103770000E947F1A089510924305109242051092FC
:10378000BB018091DE048093DD040E947F1A0E94B9
:10379000241A08958091BB01882319F00E94BB1B55
:1037A000089581E08093BB010895A9E0B0E0EBEDBE
:1037B000FBE10C94B92C6C013B01FB011281883FA9
:1037C000FCE59F0751F4112379F081E08093BB0160
:1037D000812F2996E2E10C94D52C893F2CE59207A4
:1037E00009F04DC0111148C000E011E0F12CE12CAE
:1037F000198688248394912C8091BC019091BD01FD
:10380000E816F90608F445C0F3018281882309F41B
:1038100060C1F985FF2309F45CC10E944D25909396
:1038200043058093420580913F05883008F591E07B
:10383000980F90933F0598E0F301DE0111960190F7
:103840000D929A95E1F72CE0829FC00111248152DC
:103850009B4F28E0FE013196DC0101900D922A95E4
:10386000E1F72FEF3FEFFC0131872087D386C28637
:1038700011E0F9851F27ACCF0E94BB1BA9CF8A3F5F
:103880009C4509F0B1CF112309F4AECF0E94CA1BA9
:103890009FCFF80160817181AA24AA94BA2C20E0FC
:1038A000422F50E0FA01EE0FFF1FE60FF71F859140
:1038B0009491C816D90609F45A01892B11F02F5F8B
:1038C000EFCF312CFFEFAF16BF0609F445C0F8016A
:1038D00044813090BB01832D411180E0F82FF170BD
:1038E0003F2EF80155808681F3019281992309F4D6
:1038F0008EC0332009F48BC0511015C0A4010A2CCE
:1039000001C0440F0A94EAF7842BF8018683809162
:10391000400590914105C29730F462E370E07093E6
:10392000410560934005C40102C0880F991F2A9584
:10393000E2F70197F80126812817190669F48091AA
:10394000420590914305009781F00E946525C39739
:1039500060F021E0F8012483F985F329F9872FEF3E
:10396000E21AF20A095F1F4F47CF2090DD0490E072
:1039700080E02091DE04221215C08017910761F3C8
:10398000A22CB12CF501EE0FFF1FEB52FB4FF18281
:10399000E0826FEFA61AB60A73E0A722BB24A092BA
:1039A000DE04DACFA22CB12CF501EE0FFF1FEB5293
:1039B000FB4F2081318147E0429FC001439F900D22
:1039C0001124BC0160507F4F2B01B801C2010E943D
:1039D000541B0097A9F021E0FC0124838017910774
:1039E00009F4BACF2091DD0422120AC04816590604
:1039F00039F495012F5F3F4F237033272093DD0467
:103A00003FEFA31AB30A4A2D4370242EB2CF90E0A1
:103A1000511020C0F40102C0EE0FFF1F2A95E2F7FB
:103A20009F01215031092817390731F4442309F443
:103A30004EC0C7010E94971AC4010A2C01C0880F0A
:103A40000A94EAF7982F9095F80186818923868356
:103A5000352C82CF9C010A2C02C0359527950A94FB
:103A6000E2F7A90141705527BC0161507109862315
:103A70009723892B41F5452B31F1F8018281938100
:103A8000892BE1F01B821C821D821E82FEEFF983CE
:103A9000FA830E944D258160582F9D838C83F80105
:103AA000828193818F83988729813A814B816D81AF
:103AB0007E810E949D0BF8011582BECF60E0C70198
:103AC0000E94231AF8CFF22FF1705F2EB5CF532C3E
:103AD000B3CF9091DD048091DE04981719F00E9415
:103AE0002E1BC6CE0E94241A109243051092420546
:103AF0000E947F1ABDCECF93DF93EB0186319C45A8
:103B000011F50E945F0C9A81992399F08A7A91E0CD
:103B100009F490E090934405811109C089E20E9464
:103B2000340C0E94B20C80E0DF91CF91089585E3C0
:103B3000F6CF80914405811104C089E20E943C0CBB
:103B4000F0CF85E3FBCF81E0EFCFFC0185818623B9
:103B500051F492819923B9F06923818583FF05C0CF
:103B600081E061110FC080E00895892F8F709295D8
:103B70009F70982B862F8F7062956F70682B81E0F5
:103B80009613F1CF089581E0FDCFCF93DF93EC0141
:103B900060914F05709150058091510590915205AB
:103BA0000E947425643F71408105910518F580914C
:103BB0004F0590915005A0915105B0915205809309
:103BC0004B0590934C05A0934D05B0934E0584EFA3
:103BD00091E0A0E0B0E08093470590934805A09362
:103BE0004905B0934A05D0934605C0934505DF913A
:103BF000CF9108950E94592560934B0570934C0511
:103C000080934D0590934E0582E390E0A0E0B0E0F4
:103C1000E2CFFF920F931F93CF93DF93F82E009183
:103C20005605109157050115110509F44DC0109264
:103C30004605109245050E94910C0E948B0C009144
:103C4000560510915705D8011796CD91DC919E012C
:103C50003A9521153F4108F4D07ED1E0C11101C051
:103C6000D0E0D8011A96ED91FC911B97309731F076
:103C70001C966D917C9180E00995D823DD2339F065
:103C80008CEF8C0F813A30F58C2F0E943C0CFF207A
:103C900099F0E0915605F0915705818584FD0CC09F
:103CA00080915505882341F0808191819C012150AC
:103CB0003109213B3D45A0F00E94B20C10925705FE
:103CC0001092560510925505C801CDB7DEB7E5E054
:103CD0000C94E22C0E94B20C8C2F0E94BB04D7CF14
:103CE0000E94C51DE9CF1092BE0180E00E94091E0E
:103CF00008958091BE01882319F00E94731E0895D3
:103D000081E08093BE0108950F931F938091450534
:103D100090914605892B89F160914B0570914C0576
:103D200080914D0590914E050E94742500914705A4
:103D3000109148052091490530914A056017710797
:103D400082079307D0F080914505909146050E9427
:103D5000BD02109246051092450510924B05109237
:103D60004C0510924D0510924E0510924705109289
:103D700048051092490510924A051F910F91089528
:103D8000A4E0B0E0E6ECFEE10C94B92C8C017A835F
:103D90006983DB0112965C905520B1F08036BDE559
:103DA0009B0759F08136EDE59E0759F08F359D450B
:103DB00059F40E94791E312C0DC081E08093BE0120
:103DC000FACF0E94731EF7CF3090BE01311007C0AA
:103DD00033243394832D2496E2E10C94D52C68018E
:103DE00020EEC21AD1080E945F0CF82E0E944B0CE4
:103DF000482E0E94940C482A4F2838E0C316D1045C
:103E000008F094C098012770332781E090E001C04A
:103E1000880F2A95EAF7552009F485C0482AA98118
:103E2000BA818D919C910E94EB0880902E01909018
:103E30002F018114910409F4E1C021E030E0F9017F
:103E400002C0EE0FFF1F8A95E2F7FA83E9836090C4
:103E5000560570905705A0905305B0905405212C3D
:103E6000E22DF0E0EE0FFF1FE80DF91D20813181FA
:103E70003C832B832115310509F4C0C0411005C0D6
:103E8000D90112968C9181118BC0EB81FC818381C9
:103E9000948129813A8182239323892B09F480C05C
:103EA0008185982F977009F487E038E0C316D10414
:103EB00008F056C0552009F44FC0869581708823BC
:103EC00009F46EC0AB81BC81ED90FC900E151F050E
:103ED00019F4552009F464C0EB81FC81E615F7055F
:103EE00009F45EC00684F785E02D309721F08081CB
:103EF000882309F455C0642D8B819C810E94A51DE7
:103F0000882309F44DC00E151F0509F08BC001155B
:103F1000110509F48CC051108CC0EA14FB0409F09F
:103F20003FC0512C86C08095482279CF552009F496
:103F30004EC010935405009353050E945925609379
:103F40004F05709350058093510590935205109240
:103F500046051092450563CF82FB882780F9AFCFD5
:103F60005520F1F08170ABCF0E94BB0483C0049751
:103F7000813A910548F4802F0E94340C552009F4B1
:103F800027CF0E94B20C17CF0E94B20C8FE39CE99E
:103F90000197F1F700C00000802F0E946F04EECF60
:103FA00023945ECFFC01208131812017310731F449
:103FB000511007C01092550580E031C0552009F41A
:103FC00007CFDC0119968C9185FD02CFF5CF80914A
:103FD0005305909154058017910781F41092540570
:103FE0001092530510924F051092500510925105F2
:103FF0001092520510924605109245058091560583
:1040000090915705009709F4E3CEA8E0CA16D104B1
:1040100048F6642D0E94A51D8111DACE81E00E9430
:10402000091ED8CEE114F10409F077CF512CF12C00
:10403000E12C80E00E94091EEB81FC81F093570582
:10404000E093560581E08093550586810E948E0C91
:10405000511010C0E114F10469F0AB81BC818D9165
:104060009C919C0124503109213A310508F07CCF04
:104070000E943C0CEB81FC8107811085C8019A9558
:1040800081159F4108F4107EFF24F394C801019725
:10409000813B9D4508F0F12CAB81BC811A96ED91D6
:1040A000FC911B97309731F01C966D917C9181E0CB
:1040B0000995F822FF2081F0EB81FC8187819085B2
:1040C0000E9482020E94880CC801F8E0CF16D10439
:1040D00008F04DCF0E94C51D0E94B20C4FCF0F9328
:1040E0001F93CF93DF93C42FD22FFC0182818823AB
:1040F000C9F040935A050E944D259093590580932D
:10410000580580E28C0F883040F4C77081E001C010
:10411000880FCA95EAF70E940E05DF91CF911F9193
:104120000F91089510915A05141332C080915805CB
:10413000909159050E9465258A3F910548F5C0E296
:10414000CD0F1D17B9F080E2810F883040F4177051
:1041500081E001C0880F1A95EAF70E941505C83062
:1041600048F481E09D2F977001C0880F9A95EAF777
:104170000E940E05802F0E940505C83070F6D7708A
:1041800081E001C0880FDA95EAF70E941505C5CFD6
:1041900080E28C0F883008F6C77081E001C0880F7C
:1041A000CA95EAF7F2CF0F939C01CB01243F4CE56F
:1041B000340759F1A8F4293DFCE53F0701F12A3DF8
:1041C0004CE53407D1F1283D3C4591F406E221EE5F
:1041D00041EE68ED7CE50E946F2080E00F9108952C
:1041E000263FFCE53F07E9F0B0F0273F3C45F9F0FA
:1041F000FC018281882339F110925A05EFCF07E242
:1042000025EE45EE69ED7CE5E6CF06E221EE40EED7
:1042100064EF7CE5E0CF07E225EE44EE65EF7CE558
:10422000DACF06E221EE42EE66EF7CE5D4CF07E27C
:1042300025EE46EE67EF7CE5CECF08E221E045EEC5
:104240006AED7CE5C8CF81E0C9CFCF93DF93EC0165
:10425000EA85FB85309719F06C857D8509958B8102
:104260000E947E0C8C810E94680C0E94B20C86E039
:10427000FE0111928A95E9F7DF91CF910895CF93CE
:10428000DF93EC018D8181FD12C082608D838B8173
:104290000E94780C8C810E94620C0E94B20CE8850E
:1042A000F985309721F06C857D85CE0109951092B6
:1042B0005E0510925D058D8180FD03C0CE010E94D8
:1042C0002521DF91CF910895CF93DF93EC018A816F
:1042D000823041F4FB01828193810E94BD028D8175
:1042E00082608D83DF91CF910895FB018081918160
:1042F0000E94BD020895FC018281813031F4FB01EE
:10430000808191810E94D30208958230E9F7FB01F8
:1043100082819381F7CFFB0122812223E1F0E0919A
:104320005D05F0915E053097B1F0E817F90799F057
:104330002EE0E29FF0011124DF01AF5DBE4F2C9112
:1043400024602C93E45EFE4F91838083CF010E9412
:104350003F210E94850C0895EF92FF920F931F93C7
:10436000CF93DF938C0197558F3F910511F008F0A3
:1043700041C07801FF248EE0089FF0011124EF0175
:10438000C45EDE4FDB0112962C91EF5DFE4F808103
:1043900020FB80F98083222399F10E944D25909380
:1043A0005C0580935B058A818F5F8A830E945F0C26
:1043B0008B830E94750C9B81892B8B830E94940CAC
:1043C0008C83EE81FF81309721F06C857D85CE0155
:1043D00009958EE08E9DF0018F9DF00D1124E45E15
:1043E000FE4F858181FF02C010E000E010935E0562
:1043F00000935D0581E0CDB7DEB7E6E00C94E12CDB
:104400008D8181FFF7CFCE010E942521F3CF8091CE
:104410005D0590915E05892BC9F080915B059091B7
:104420005C050E9465258B3F910580F080915D05BC
:104430002EE0829FC0011124FC01EF5DFE4F208120
:1044400022FD04C0845E9E4F0E943F2108958EE1AC
:104450004A9B02C08150E1F74A9BFECF08955A98CB
:1044600080E28A95F1F75A9A0895FC013BE03A956B
:10447000F1F798E020E080E031E040E14A95F1F783
:10448000880F4A9B02C08160232742E04A95F1F7DA
:10449000000040E14A95F1F7915079F790E19A9543
:1044A000F1F799B132E03A95F1F7000040E14A9511
:1044B000F1F792FB992790F992272081920F908330
:1044C0000895A1E0B0E0E7E6F2E20C94C52C198271
:1044D0008C017C01E60EF11C0E151F0541F481E0F4
:1044E0009981911180E02196E6E00C94E12C0E94E4
:1044F0002722CE0101960E943522F80181938F0177
:10450000EBCF529A5A9A089552985A9AEA9AE9E643
:10451000F0E080818F7C808308956150770B91E07B
:1045200001C0990F6A95EAF720E031E0911108C0C7
:10453000222391F05A9A80E28A95F1F75A980895C9
:10454000492F482339F05A9A232740E24A95F1F738
:104550009695ECCF5A98F9CF5A98EDCFFF920F93DA
:104560001F93CF93DF93EC018C01060F111DC01731
:10457000D10729F4CDB7DEB7E5E00C94E22CF99031
:104580000E942F2268E08F2D0E948D22F0CF1F9273
:104590000F920FB60F9211240F931F932F933F93F7
:1045A0004F935F936F937F938F939F93AF93BF933B
:1045B000EF93FF93CF93DF930F92CDB7DEB71982BE
:1045C0000E942722CE0101960E943522082F0695CF
:1045D00006950695282F22952570902F9570290F06
:1045E000922F937026952695920F98279770898120
:1045F000982B09F05CC0043008F059C080E18A951E
:10460000F1F75A9A529A82E08A95F1F700C05A98C7
:1046100088E0089F80011124D801AD57BE4F16963F
:10462000ED91FC9117973097A9F060911204709169
:10463000130414962D913C911597260F371F119650
:104640008D919C911297680F791F13964C91139737
:104650008C910995F801ED57FE4F6381662351F067
:10466000209112043091130484819581820F931F4D
:104670000E94AE220E942F2280E18A95F1F75A987B
:1046800052985A9A80E18A95F1F7F801ED57FE4F5A
:104690006081662351F020911204309113048181CE
:1046A0009281820F931F0E9461220E9427220F9005
:1046B000DF91CF91FF91EF91BF91AF919F918F913A
:1046C0007F916F915F914F913F912F911F910F912A
:1046D0000F900FBE0F901F9018950F931F93CF93BD
:1046E000DF93EC0104970CF04CC0F894529A5A985E
:1046F00085E08A95F1F700009C2F969595708C2F98
:104700008570980F892F83709695969523E0CC0F2E
:10471000DD1F2A95E1F7980F8E01092B0E942F22A9
:1047200000C068E0802F0E948D2280E18A95F1F719
:1047300052985A9A4A9B1EC087E090E04A991CC042
:10474000FE01ED57FE4F63816623F9F020911204BC
:104750003091130484819581820F931F0E946122FE
:10476000811113C0529A5A9A7894DF91CF911F9178
:104770000F91089500C0DECF019729F4529A5A9AFA
:10478000789480E0F2CF00C0D9CF0E94272280E247
:104790008A95F1F75A98529A80E18A95F1F7CD57A8
:1047A000DE4F6881662351F020911204309113048A
:1047B00089819A81820F931F0E94AE220E942F222C
:1047C000789481E0D2CF90931504809314040895D7
:1047D000909365058093640508950E9423138111C9
:1047E00003C080915F050895E0916405F09165052F
:1047F000309729F00190F081E02D0995089580E02F
:1048000008950E94ED230895E0916405F0916505F7
:10481000309721F00280F381E02D09950895E09111
:104820006405F0916505309739F022E0DC012C93A6
:104830000480F581E02D099508952091620530915D
:1048400063052817390771F090936305809362051B
:10485000E0916405F0916505309721F00680F781BD
:10486000E02D099508952091600530916105281784
:10487000390771F09093610580936005E0916405BC
:10488000F0916505309721F00084F185E02D0995C0
:1048900008959C012E5F3F4FAC01485F5F4F80E061
:1048A0002417350709F40895F90191919F0199237F
:1048B000B9F38F5FF5CF662349F0FC013296089675
:1048C0002191261729F0E817F907D1F780E008951C
:1048D00081E008959C01FC0132969FEF80E04191B8
:1048E000461751F09F3F19F4411101C0982F8F5F77
:1048F0008630A9F79F3F09F40895290F311D97FDD0
:104900003A95F90162830895FC0132960896219147
:10491000261303C0DF0111971C92E817F907B9F7B6
:1049200008950E946A2408950E948424089502969E
:1049300026E0FC0111922A95E9F7089546E050E03F
:104940000E94042D21E0892B09F420E0822F089594
:1049500008950E94A8240895811106C081E08093E3
:1049600066050E94A924089582E0F9CF83E0809330
:1049700066050E94A92408950E94AC24089581E050
:10498000809366050E94A92408950E94BF2408957B
:10499000089508950E94C9240895089508950E94D5
:1049A000C8240895CF930E94CD240E94A4120E948F
:1049B000CE24C0E08C2F0E948811811105C0CF5FEA
:1049C000C830C1F7CF91089581E0FCCF85B78068EA
:1049D00085BF85B7806885BF08951F921FB61F9257
:1049E00011248F939F93AF93BF938091670581119B
:1049F00013C08091940590919505A0919605B09172
:104A000097054196A11DB11D80939405909395053E
:104A1000A0939605B0939705BF91AF919F918F9109
:104A20001F901FBE1F90189580919C05843031F116
:104A30000E94F1031092670588E190E020E40FB630
:104A4000F894A895809360000FBE2093600083B710
:104A5000817F846083BF83B7816083BF78948895AA
:104A600083B78E7F83BF0FB6F894A89580916000BE
:104A7000886180936000109260000FBE08950E94CC
:104A800081070E94F603089582E084BD93E095BDFE
:104A90009AEF97BD80936E0008952FB7F894809198
:104AA000940590919505A0919605B09197052FBF1B
:104AB00008952FB7F89460919405709195058091B1
:104AC0009605909197052FBF08959C014FB7F894D4
:104AD0008091940590919505A0919605B0919705C8
:104AE0004FBF821B930B0895CF92DF92EF92FF92FC
:104AF0002FB7F894C0909405D0909505E090960556
:104B0000F09097052FBFA7019601261B370B480B86
:104B1000590BCA01B901FF90EF90DF90CF90089533
:104B200078941F921FB61F9211248F939F93AF9377
:104B3000BF938091940590919505A0919605B091B1
:104B400097050196A11DB11D80939405909395053D
:104B5000A0939605B0939705BF91AF919F918F91C8
:104B60001F901FBE1F90189587E797E79093010845
:104B70008093000888E19AE00FB6F894A895809396
:104B800060000FBE90936000FFCF88E19AE00FB6FF
:104B9000F894A895809360000FBE90936000FFCFBB
:104BA00080917305089508959C0182E08093E90047
:104BB0009FEF8091E800915085FD06C085ED8A95B4
:104BC000F1F700009111F5CF8091E80085FF0CC04E
:104BD00050E040E066E070E0C9010E940628809144
:104BE000E8008E778093E8000895CF93DF93EC017F
:104BF00081E08093E9008FEF9091E800815095FD6E
:104C000006C095ED9A95F1F700008111F5CF8091DE
:104C1000E80085FF14C050E040E068E070E0CE019D
:104C20000E9406288091E8008E778093E80088E053
:104C3000FE01ABE6B5E001900D928A95E1F7DF91B8
:104C4000CF9108958093680570936A056093690514
:104C500080919C05843001F582E08093E9008FEF1C
:104C60009091E800815095FD06C095ED9A95F1F779
:104C700000008111F5CF8091E80085FF0DC050E064
:104C800040E063E070E088E695E00E9406288091AD
:104C9000E8008E778093E8000895BC0184E00E94CC
:104CA00022260895BC0183E00E9422260895809167
:104CB0009B05811109C00E9496290E94F3298091C9
:104CC000E20084608093E200089510929B050895AD
:104CD0000E94BF2408956091980581E0611101C090
:104CE00080E00E94B624089590919C0581E0943064
:104CF00009F080E0609198050E94BC24089542E08C
:104D000061EC81E00E94122942E261EC82E00E94A3
:104D1000122990919C0581E0943009F080E0609127
:104D200098050E94AC24089580919E05833009F473
:104D300061C030F48130D1F1823009F49EC0089511
:104D40008A3009F48AC08B3009F46FC0893009F0C9
:104D500050C080919D05813209F04BC08091A10522
:104D60009091A205029708F044C08091E800877FE7
:104D70008093E8008091E80082FF37C09091F300B3
:104D80008091F200029731F48091F100813011F0AE
:104D9000863021F48091F100809373058091E800C2
:104DA0008B778093E8000E94462923C080919D055F
:104DB000813AF9F48091E800877F8093E800809140
:104DC000A1059091A205892B61F468E08BE695E03E
:104DD00070E00E9455288091E8008B778093E8006E
:104DE000089560E090E080E0F3CF80919C05811110
:104DF000C1CF089580919D05813AD9F78091A10591
:104E00009091A205892BA9F78091E800877F809374
:104E1000E8008091E80080FFFCCF8091CB01809377
:104E2000F1008091E8008E77BCCF80919D058132A2
:104E300001F78091A1059091A205892BD1F680916F
:104E4000E800877F8093E8000E94462980919F05B3
:104E50008093CB010E948107089580919D05813246
:104E600041F68091E800877F8093E8000E94462900
:104E70008091A00580937405089580919D05813AE5
:104E800009F0B7CF8091E800877F8093E800809198
:104E9000E80080FFFCCF80917405C1CF84B7877F85
:104EA00084BF0FB6F894A8958091600088618093C4
:104EB0006000109260000FBE80E890E00FB6F8949A
:104EC00080936100909361000FBE0E94C5240895F5
:104ED0000E9496290E94F329E2EEF0E0808184602E
:104EE000808378940E94722C08958FEB91E00E9449
:104EF000E823089580919C05853031F480919C05CC
:104F0000853019F00E943F2508950E941425809154
:104F10009A05882399F30E94D224882379F30E946A
:104F2000F0270E948107EACF08950E9498270895EC
:104F3000292F33272330310519F168F42130310549
:104F400009F444C02230310509F445C090E080E006
:104F500030E020E025C02132310549F1223231050F
:104F6000A9F780E490E024EA33E061157105C1F00F
:104F70008BE790E029E233E06130710589F0E6CFFC
:104F800099278130910581F0009729F00297F1F679
:104F9000E2EBF2E002C0E8EDF2E0849190E09F01E4
:104FA000FA01318320830895EEECF2E0F6CF89E038
:104FB00090E02EEE32E06115710591F389E090E00A
:104FC00027E033E06130710559F3C0CF82E190E012
:104FD00027E133E0E5CF8BE390E02CED32E0E0CF4A
:104FE00080E189BD82E189BD09B400FEFDCF8091D9
:104FF000D8008F7D8093D8008091E00082608093FC
:10500000E0008091E00081FDFCCF0895AF92BF9257
:10501000CF92DF92FF920F931F93CF93DF936C0198
:10502000EB018A010E946529F82E811123C0011528
:10503000110539F0F80180819181C81BD90BC80E88
:10504000D91EB12CA12C2097A9F08091E80085FDF4
:1050500022C08091E8008E778093E8000115110549
:10506000A1F0F80180819181A80EB91EB182A082C1
:1050700085E0F82E8F2DDF91CF911F910F91FF903A
:10508000DF90CF90BF90AF9008950E94652988234C
:10509000D1F2F82EEFCFF60181916F018093F100EC
:1050A0002197FFEFAF1ABF0ACECFFC018091A30575
:1050B0009091A40586179707A0F06115710529F452
:1050C0009091E8009E779093E80090E0611571055B
:1050D00051F4911108C08091E80082FF34C080E053
:1050E0000895BC01F2CF80919C058823C1F18530E1
:1050F000C1F18091E80083FD30C08091E80082FD1D
:10510000EACF8091E80080FFE1CF8091F300209109
:10511000F200382F6115710519F02830310558F06B
:1051200091E02830310509F090E02091E8002E77D9
:105130002093E800CBCF81918093F10061507109F9
:105140002F5F3F4FE7CF80919C05882341F085304A
:1051500041F08091E80083FFBECF81E0089582E0B6
:10516000089583E00895FC018091A3059091A40522
:1051700086179707A0F06115710529F48091E80062
:105180008E778093E80090E06115710551F49111DC
:1051900008C08091E80082FF35C080E00895BC011E
:1051A000F2CF80919C058823C9F18530C9F18091A7
:1051B000E80083FD31C08091E80082FDEACF809154
:1051C000E80080FFE1CF8091F3002091F200382FBA
:1051D0006115710519F02830310558F091E028303B
:1051E000310509F090E08091E8008E778093E80027
:1051F000CBCF84918093F1003196615071092F5F7C
:105200003F4FE6CF80919C05882341F0853041F0E7
:105210008091E80083FFBDCF81E0089582E008958A
:1052200083E00895982F973028F08F708093E900DD
:1052300081E008959093E900242F762F50E098178D
:1052400031F07091EC002091ED005091F00021FDC3
:1052500002C09F5FE8CF3091EB003E7F3093EB00C0
:105260003091ED003D7F3093ED003091EB003160E7
:105270003093EB007093EC002093ED005093F0001E
:105280002091EE0027FDE5CF80E0089580919D05F7
:1052900087FF13C08091E80082FF06C08091E8007C
:1052A0008B778093E80004C080919C058111F2CF38
:1052B000089580919C058823D9F38091E80080FFB0
:1052C000F8CF8091E8008E77ECCF2091E400309108
:1052D000E50095E6A9012091EC00822F817020FF66
:1052E00006C08091E80080FF06C080E0089520910C
:1052F000E80022FD1AC080919C05882389F0853042
:1053000089F08091EB0085FD0FC02091E400309181
:10531000E50042175307F9F29150E1F684E0089551
:1053200082E0089583E0089581E008950E94052AAF
:105330000E940D2AE0EEF0E0808181608083E8ED3C
:10534000F0E080818F77808319BCA7EDB0E08C916D
:105350008E7F8C9380818F7E808310929B05089531
:105360000F931F93CF93DF930E94052A0E940D2A6B
:10537000C8EDD0E088818F778883888180688883B2
:1053800088818F7D888319BC10929C0510929805A6
:1053900010929A051092990500EE10E0F8018081B4
:1053A0008B7F808388818160888342E060E080E039
:1053B0000E941229E1EEF0E080818E7F8083E2EE90
:1053C000F0E0808181608083808188608083F80143
:1053D00080818E7F8083888180618883DF91CF91F7
:1053E0001F910F910895E8EDF0E080818F7E80831A
:1053F000E7EDF0E080818160808384E082BF81E01E
:1054000080939B050E94B0290895E8EDF0E080812B
:105410008E7F80831092E20008951092DA0010923D
:10542000E10008951F920F920FB60F9211242F934F
:105430003F934F935F936F937F938F939F93AF931C
:10544000BF93EF93FF938091E10082FF0BC08091A7
:10545000E20082FF07C08091E1008B7F8093E10032
:105460000E94712C8091DA0080FF19C08091D800D1
:1054700080FF15C08091DA008E7F8093DA008091E2
:10548000D90080FF96C080E189BD82E189BD09B461
:1054900000FEFDCF81E080939C050E9457268091FD
:1054A000E10080FF19C08091E20080FF15C080916B
:1054B000E2008E7F8093E2008091E2008061809321
:1054C000E2008091D80080628093D80019BC85E00A
:1054D00080939C050E946B268091E10084FF2BC085
:1054E0008091E20084FF27C080E189BD82E189BD0F
:1054F00089B5982F917080FFFBCF8091D8008F7D68
:105500008093D8008091E1008F7E8093E1008091AC
:10551000E2008F7E8093E2008091E20081608093C0
:10552000E20080919805882309F449C084E08093C3
:105530009C050E9474268091E10083FF29C0809120
:10554000E20083FF25C08091E100877F8093E10026
:1055500082E080939C05109298058091E1008E7FF7
:105560008093E1008091E2008E7F8093E200809141
:10557000E20080618093E20042E060E080E00E940F
:1055800012298091F00088608093F0000E946826C4
:10559000FF91EF91BF91AF919F918F917F916F910B
:1055A0005F914F913F912F910F900FBE0F901F90E1
:1055B000189519BC10929C050E94652670CF8091A9
:1055C000E30087FD93E090939C05B3CF1F920F9269
:1055D0000FB60F9211242F933F934F935F936F93C6
:1055E0007F938F939F93AF93BF93CF93DF93EF936B
:1055F000FF93D091E900DF708091EC00C82FC1705B
:1056000080FDC0E81092E9008091F000877F8093D0
:10561000F00078940E942A2B1092E9008091F0000B
:1056200088608093F000CD2BCF70C093E900FF918C
:10563000EF91DF91CF91BF91AF919F918F917F912A
:105640006F915F914F913F912F910F900FBE0F90EF
:105650001F901895AAE2B0E0E0E3FBE20C94C82C9E
:105660008DE995E02091F100FC012193CF01F5E057
:10567000853A9F07B9F70E9494268091E80083FF3E
:105680001EC180919D0590919E059A3008F017C12A
:10569000E92FF0E0E659F24D0C94B32C803899F0E4
:1056A000823809F00CC18091A1058F70873008F015
:1056B00006C18093E9008091EB0085FB882780F983
:1056C0001092E90006C08091990590919A05911178
:1056D00082609091E800977F9093E8008093F100BA
:1056E0001092F1008091E8008E77E5C0882309F4DC
:1056F000D3C0823009F0E3C080919F058111D6C0EC
:105700008091A1058F702FEF280F263008F0D7C0A9
:105710008093E9002091EB0020FFC8C0933031F462
:105720008091EB0080628093EB00C0C09091EB0011
:1057300090619093EB0021E030E001C0220F8A9548
:10574000EAF72093EA001092EA008091EB0088606B
:10575000EACF8111B4C010919F051F778091E300BB
:105760008078812B8093E3008091E800877F80938D
:10577000E8000E9446298091E80080FFFCCF8091DC
:10578000E30080688093E30082E0111183E080935E
:105790009C0595C08058823008F091C080919F058B
:1057A0009091A0058C3D23E09207A1F583E08A83C8
:1057B0008AE289834FB7F894DE01139620E03EE039
:1057C00051E2E32FF0E050935700E49120FF03C033
:1057D000E295EF703F5FEF708E2F90E0EA30C0F0FF
:1057E000C7968D939D932F5F243159F74FBF8091BA
:1057F000E800877F8093E8006AE270E0CE010196BE
:105800000E9455288091E8008B778093E80057C06C
:10581000C096E7CF6091A1057091A205AE014F5FE0
:105820005F4F0E949527BC01892B09F448C09091D5
:10583000E800977F9093E80089819A810E94B328BD
:10584000E1CF8038E1F58091E800877F8093E80020
:10585000809198058093F10045CF811130C09091DF
:105860009F05923060F58091E800877F8093E80083
:10587000909398050E94462980919805882311F0FD
:1058800084E005C08091E30087FDFACF81E080933A
:105890009C050E947F2613C080919F05813079F47A
:1058A00081E0933009F080E080939A051092E9003E
:1058B0008091E800877F8093E8000E9446298091CC
:1058C000E80083FF0AC08091E800877F8093E800AA
:1058D0008091EB0080628093EB00AA96E3E00C9449
:1058E000E42C0895CF9380919C058823A1F0C0916A
:1058F000E900CF709091EC00892F817090FD80E8D5
:10590000C82B1092E9008091E80083FD0E942A2BA9
:10591000CF70C093E900CF9108950E94962910920C
:105920009C050895E8EDF0E08081806180838AE144
:105930008A95F1F700C08091D9008170089597FB96
:10594000072E16F4009407D077FD09D00E94F02CA2
:1059500007FC05D03EF4909581959F4F0895709572
:1059600061957F4F0895EE0FFF1F0590F491E02D94
:1059700009942F923F924F925F926F927F928F92F3
:105980009F92AF92BF92CF92DF92EF92FF920F93CE
:105990001F93CF93DF93CDB7DEB7CA1BDB0B0FB6D8
:1059A000F894DEBF0FBECDBF09942A883988488895
:1059B0005F846E847D848C849B84AA84B984C8842B
:1059C000DF80EE80FD800C811B81AA81B981CE0F22
:1059D000D11D0FB6F894DEBF0FBECDBFED01089507
:1059E000AA1BBB1B51E107C0AA1FBB1FA617B70705
:1059F00010F0A61BB70B881F991F5A95A9F7809521
:105A00009095BC01CD010895FB01DC0104C08D918E
:105A10000190801921F441505040C8F7881B990B20
:105A20000895FB01DC0102C001900D9241505040ED
:105A3000D8F70895F999FECF92BD81BDF89A9927BC
:105A400080B50895A8E1B0E042E050E00C944E2DFE
:105A5000262FF999FECF92BD81BDF89A019700B427
:105A6000021639F01FBA20BD0FB6F894FA9AF99AC7
:105A70000FBE08950396272F0E94292D0E94282DDE
:105A8000252F0E94292D242F0C94292D0196272F94
:105A90000E94292D0C94282DDC01CB01FC01F999E1
:105AA000FECF06C0F2BDE1BDF89A319600B40D926A
:105AB00041505040B8F70895F894FFCF5705570567
:105AC0008805880515063106B705B7053C06AD06FD
:105AD000BC06BC064E2B762B5F2C762B5F2CA92B9D
