:100000000C94E9010C9406020C9406020C942E2325
:100010000C9406020C9406020C9406020C94060240
:100020000C9406020C9406020C94792A0C944D2B25
:100030000C9454250C9406020C9406020C940602AF
:100040000C9406020C9406020C9406020C94060210
:100050000C9406020C94F7250C9406020C940602EC
:100060000C9406020C9406020C9406020C940602F0
:100070000C9406020C9406020C9406020C940602E0
:100080000C9406020C9406020C9406020C940602D0
:100090000C9406020C9406020C9406020C940602C0
:1000A0000C9406020C9406020C94060214001A002A
:1000B000090013000A0004001500160017000700CD
:1000C0001D001B000600190005000057E10000009C
:1000D000000000000D000F0018001C002A000B009B
:1000E000110008000C0012000E001000360037004E
:1000F00034412C00015700000000000029002202BA
:100100001F0223023102360037002D02380025027B
:10011000E2003C003A003B0035000057E1000000DF
:10012000000000002D002400250026002A002E02D9
:1001300021002200230028002E001E001F002000A6
:1001400001002C002700000000000000290021020F
:100150002002250224022B00360226022F022F0045
:10016000E20043004400450035000057E100000074
:10017000000000004A00500152004F012A004D00CB
:10018000500051004F0028002E0256002D022E0074
:1001900038002C0001000000000000002900FB00D6
:1001A000F900FC00A9002B00FF00FA00FE00AE00E1
:1001B000E000E300E20046004800B35DE10000001B
:1001C00000000000F5005000ED004F002A00F40090
:1001D000EF00EE00F0002800E600E7004700E40032
:1001E000B25DF100F20000000000000036003700B0
:1001F00000000000000000002A2B28000000000082
:1002000000000000000000000000002900000000C5
:100210002C1E3420212224342627252E362D373833
:10022000271E1F202122232425263333362E37383C
:100230001F0405060708090A0B0C0D0E0F101112FA
:10024000131415161718191A1B1C1D2F3130232DC6
:10025000350405060708090A0B0C0D0E0F101112C4
:10026000131415161718191A1B1C1D2F3130354C75
:10027000000000000000000000000000000000007E
:10028000000000000000000000000000000000006E
:10029000000000007E0F00D4FFFFFFC700000078C1
:1002A0001A034600650072007200690073002000A6
:1002B00073007700650065007000000008034400CB
:1002C0005000420000000403090409023B0002013F
:1002D00000A0FA0904000001030101000921110135
:1002E0000001224000070581030800010904010004
:1002F0000103000000092111010001227B00070514
:1003000082032000011201000200000008ABC23984
:100310003901000102000105010902A1018502095C
:1003200001A1000509190129081500250195087585
:100330000181020501093009311581257F9502757A
:1003400008810609381581257F9501750881060504
:100350000C0A38021581257F950175088106C0C0F9
:1003600005010980A101850319012AB7001501269D
:10037000B700950175108100C0050C0901A1018528
:100380000419012AA002150126A002950175108109
:1003900000C005010906A101050719E029E71500BC
:1003A00025019508750181029501750881010507F0
:1003B000190029FF150026FF009506750881000524
:1003C000081901290595057501910295017503919B
:1003D00001C011241FBECFEFDAE0DEBFCDBF18E0B1
:1003E000A0E0B1E0E6EBFBE502C005900D92A0387D
:1003F000B107D9F72AE0A0E8B8E001C01D92A33107
:10040000B207E1F70E942F150C94C32D0C94000045
:1004100080912A01823011F40E94440810922A012E
:100420000895CF93DF93EB01823B2DE5920799F07E
:10043000833B9D4539F1888181110BC089818330CF
:1004400041F48A81811114C080EE0E94B3040E949D
:100450006F0C81E00DC08A81882351F00E945C0CF2
:10046000827249F0BE0181E09DE50E944A1880E059
:10047000DF91CF91089580910001909101010E9438
:100480007B1AF5CF8A818823B1F283E00E94440869
:1004900080EE0E946704CFCFFC018281813021F081
:1004A000823021F081E0089582E0089583E008958C
:1004B0000E944C0280932A01823019F0833029F087
:1004C000089582E00E943408089583E0FBCF9C01E8
:1004D0003A9521153F4150F5FC01EE27F170BC0122
:1004E00066277270AC01442754709C012227387033
:1004F00094FF0EC080E1EF2B09F480E0672B09F038
:100500008062452B09F08064232B89F08068089570
:1005100081E0EF2B09F480E0672B09F08260452B26
:1005200009F08460232B19F08860089580E0089515
:10053000CF93DF93EB010E946702FE010995DF91E3
:10054000CF910895CF93DF93EC01805E91090897D6
:1005500020F064E175E0209711F466E075E0CE01CB
:100560000E9498028C2F0E946704DF91CF9108951A
:10057000CF93DF93EC010E94B304CE01805E91091A
:10058000089720F06BE175E0209711F46DE075E0BD
:10059000CE010E949802DF91CF9108950F931F938F
:1005A000CF93DF938C01EB010E94A202209741F4CC
:1005B000C8010E94B802DF91CF911F910F91089559
:1005C0008FE99FE00197F1F700C000002197EECF7F
:1005D00070E060E08933910511F460E570E00E94FD
:1005E000CE02089581E008950E94110208950895B1
:1005F0000E94F7020895A5E0B0E0E1E0F3E00C947A
:100600002F2D49835A833091870889819A8131112E
:1006100019C0662399F0222389F00E94FA08182F46
:10062000682F89819A810E94D60869817A81812FF9
:100630000E94F10F2596E3E00C944B2D0E94E808F0
:10064000182FF3CF0E94FA0869817A81F1CFFC015B
:10065000262F86819781009739F4408151816281EC
:10066000738184810E94FB020895CF93DF93EC0194
:1006700061E00E942703BE010E943C1CDF91CF91E4
:100680000895CF93DF93EC0160E00E942703BE0141
:100690000E94F802DF91CF9108950E947E11089583
:1006A0000E948211089508950E9438050E94530304
:1006B0002FEF84E39CE0215080409040E1F700C0A0
:1006C000000008950E9454030E941B2608950E9472
:1006D00054030E942C2608950F931F93CF93DF930A
:1006E0008C0161E00E942703EC01B8010E94F22115
:1006F000B801CE010E94F402811106C080E0DF91B2
:10070000CF911F910F910895B801CE010E94271F2C
:100710008823A1F3B801CE010E941322882371F32C
:10072000B801CE010E940F18882341F3B801CE0111
:100730000E943A21882311F3B801CE010E944A1881
:100740008823E1F2B801CE010E94E21D8823B1F2B4
:10075000F8018281882361F0CB35FDE5DF0701F1E7
:1007600058F4C115ECE5DE0791F0CF3DDC4591F082
:10077000C8010E94F202C3CFCD358DE5D80769F0DC
:1007800090F0C83ADD45A1F70E946703B7CF0E94F9
:100790006203B4CF0E94190EF7CF0E94570DE8CF25
:1007A0000E94610DE5CF0E94650DE2CF0E943125C8
:1007B0000E94F30308950E94F7030E9436250895CE
:1007C00008950E94E003089581E008950E94E403E3
:1007D00008950895CF93C82F0E94E1038C2F0E94A3
:1007E000E603CF91089580E00E94EA0308950E94F5
:1007F00054240E94EA030895CF930E945424C82FE2
:10080000809182088C1779F0C09382080E94C025DD
:10081000609383087093840880938508909386087A
:100820008C2F0E94EA03CF910895ADE0B0E0EBE198
:10083000F4E00C94302D49875A876B877C878D872D
:100840008C859D85892B21F0CA0189238F3F79F5FD
:100850008B8581110E94820C1D821E821F82188648
:1008600085E0FE013996DE01119601900D928A9580
:10087000E1F78C819D81892B71F429813A814B812B
:100880005C816D817E818F8198850E949A0B2D9667
:10089000E2E00C944C2D89819A8189238F3F69F382
:1008A000CE0101960E9435038111E7CFF0CF8091F0
:1008B0008808909189080196909389088093880808
:1008C000C7CFFC01808191810E942C090895CF93AC
:1008D000C82F8823B9F08CEF8C0F813AA8F46C2FC5
:1008E00080917301909174010E94C224882329F0A1
:1008F0008C2F0E94390C0E94AF0C8C2F0E94310C5F
:100900000E94AF0CCF91089580E28C0F883048F49C
:10091000C77081E001C0880FCA95EAF70E945F0C9A
:10092000EFCFEBE5EC0FE33040F4F0E0E65BF74FA0
:10093000808190E00E948424E5CFE8E5EC0FE73168
:1009400050F4F0E0EE0FFF1FE45EF74F80819181DD
:100950000E949A24D7CFCD3EA8F28C2F0E94B315C7
:100960000E946716CFCF882379F19CEF980F913AB8
:1009700028F40E94390C0E94AF0C089590E2980F61
:10098000983050F4877091E001C0990F8A95EAF78A
:10099000892F0E94650CEFCF9BE5980F933028F4C8
:1009A00090E080E00E948424089598E5980F9731A4
:1009B00028F490E080E00E949A2408958D3E20F073
:1009C0000E9407160E94671608951F93CF93DF9326
:1009D000182FEB010E946704209739F4812F0E94A1
:1009E000B304DF91CF911F9108958FE99FE00197A4
:1009F000F1F700C000002197EFCF70E060E089338D
:100A000011F460E570E00E94E5040895882321F068
:100A10000E945F0C0E94AF0C0895882321F00E9471
:100A2000650C0E94AF0C0895882321F00E94750C7C
:100A30000E94AF0C0895882321F00E947B0C0E9435
:100A4000AF0C089590E080E00E94842490E080E064
:100A50000E949A240E94820C0E94AF0C0E9483166E
:100A60000E94671608950E94410C0E942205089575
:100A70000E946F0C0E943305089592959F709630E6
:100A800091F058F4925F9F70923058F4803F19F0C3
:100A900030F4883E30F481E008959A5FF4CF843FCB
:100AA000D1F380E00895883EB0F3813FD1F7F3CFD2
:100AB000FC0183819481892B29F080819181892394
:100AC0008F3F39F480E008950E94000F0E943D0599
:100AD0000895868197810097B9F7808191810E945E
:100AE0002C09F4CFB0E0A0E0E8E7F5E00C94292D64
:100AF0006C01EB01FC011281058102950F700E94CF
:100B0000550CE82E8823B9F0E12E1123A1F08D2F8A
:100B1000807F803421F080E28C0F8830D0F080918B
:100B2000E80982FF16C082E00E94260D0E94550C43
:100B300091E0E82EE926BD2EB2942FE0B222FBE030
:100B4000FB1508F467C0EB2DF0E0EB53F24D0C946D
:100B50001A2DE12CF0CF2D2F2F70F22E8D2F807FAC
:100B600019F0F29490EFF922112399F0FF2059F037
:100B700080E28C0F883010F0C11107C08F2D0E94C9
:100B80005F0C0E94AF0C8C2F3DC08F2D0E94750C06
:100B9000F8CF8C2F0E94B304FF20E1F180E28C0F8C
:100BA000883010F0C11104C08F2D0E94650C03C065
:100BB0008F2D0E947B0C0E94AF0C2CC03D2F3F70EC
:100BC000F32E8D2F807F803219F0F29480EFF8227F
:100BD000CC2351F0C13009F465C0112309F46DC074
:100BE000002309F464C0CFCF8091E80982FD3CC0A6
:100BF000112359F0FF2029F08F2D0E945F0C0E94D5
:100C0000AF0C80E00E94670405C080E00E94B3043E
:100C1000F110CACFEB2DE850FF0B349720F40E945F
:100C200054240E94EA03CE010E943D05811161C156
:100C30001092890810928808EE2089F00E94510CC9
:100C400080FD0DC0F60112820E944B0C0E943408F8
:100C5000C6010E94AA070E944B0C0E944408CDB70F
:100C6000DEB7E9E00C94452D112381F0011106C097
:100C70000E94910C8F290E940605CCCF0130C1F74C
:100C80000E94910C8F290E94980CC4CF011106C0BC
:100C90000E94A50C8F2D0E940D05BCCF013009F4D8
:100CA000B9CFF6CF112329F0063008F0B3CF8F2D3E
:100CB000E2CF053008F0AECFEDCF002359F3C933B2
:100CC00049F48FEF97EEE3E081509040E040E1F788
:100CD00000C000008C2F0E94B3049CCF8D2F8695FE
:100CE0008695837061F0813009F094CFCE019370C6
:100CF000111102C090E080E00E949A248BCFCE01B7
:100D00009370111102C090E080E00E94842482CF91
:100D10008C2F112329F00E94B3150E9467167ACFF9
:100D20000E940716FACF8D2F8370A9F5111172CF8B
:100D30002C2F229526952770220F220F4C2F4F70B3
:100D400050E0022E02C0440F551F0A94E2F790E0D3
:100D500080E0C4FF09C08FE090E002C0880F991FB7
:100D60002A95E2F7809590952D2F2695269523704C
:100D7000842B952B223049F058F4213019F00E9431
:100D8000020848CF0E94F90745CF0E940B0842CFC6
:100D90000E94F6073FCF8695112311F08D2F8170A9
:100DA000882309F437CF2C2F229526952770220F00
:100DB000220F4C2F4F7050E0022E02C0440F551FDF
:100DC0000A94E2F790E080E0C4FF09C08FE090E071
:100DD00002C0880F991F2A95E2F7809590952D2FD4
:100DE000269526952370842B952B223049F058F4B4
:100DF000213019F00E946F080DCF0E9466080ACFBB
:100E00000E94780807CF0E941A0804CFFD2FFF70B8
:100E1000FF2E112329F08F2F0E9434088C2F2BCF07
:100E20008C2F0E940D058F2D0E944408F3CEC23FE7
:100E300041F160F4C03FB9F0C13F81F0112309F4E2
:100E400048C00111A0CE8D2F8F711FC0C33F01F18B
:100E5000C43FA1F78091E80982FD24C08D2F8F71D6
:100E6000112311F312C0112341F0053008F0D2CE46
:100E70008D2F8F710E945608CDCE063008F0CACE55
:100E8000F7CF8D2F8F711111CFCF0E943408C2CEB2
:100E9000112329F08D2F8F710E942808BBCE0E944C
:100EA0002308B8CE112359F02D2F2F71F22E822F47
:100EB0000E94340863E08F2D0E94080DABCE81E0C4
:100EC0000E94260D023008F4A5CE82E00E94260D75
:100ED000A1CE002359F0C93309F0FCCE3FEF87EED5
:100EE00093E0315080409040E1F7F2CE8D2F8F712A
:100EF0009BCF112319F001119BCE9ECE011198CEEC
:100F00008091880890918908029709F091CE8C2FE2
:100F10000E94FD048DCE0F931F93CF93DF93EC01BE
:100F20008E819F81009781F00E94000F8C010E94AA
:100F300081080E94F507B801CE010E947205DF9179
:100F4000CF911F910F910895688179818A810E94C4
:100F50003709ECCFCF93DF93EC018B819C81892BF8
:100F600029F08881998189238F3F51F4DF91CF91B6
:100F70000895CE010E948B07CE010E944103F6CF57
:100F8000CE010E946C038111F4CF0E94550C88237E
:100F900069F38A81882351F38091E80982FFE6CFC3
:100FA00082E00E94260DE2CFA5E0B0E0EAEDF7E096
:100FB0000C94302D2596E2E00C944C2DA8E0B0E086
:100FC000E4EEF7E00C94302D2896E2E00C944C2DE2
:100FD00008950E94E80708950E94E9079093A108E8
:100FE0008093A0080E942205089508950E94EC07AE
:100FF00008952091A0083091A108822B932B0E9484
:10100000EC0708952091A0083091A1088223932332
:101010000E94EC0708952091A0083091A108822732
:1010200093270E94EC0708950E94E80708950E9404
:10103000140808950E94170890939F0880939E08B3
:101040000E942205089590E080E00E941A08089509
:1010500021E030E0A90102C0440F551F8A95E2F754
:10106000CA010E941A08089521E030E002C0220F50
:10107000331F8A95E2F780919E0890919F08822BFA
:10108000932B0E941A08089521E030E002C0220F3D
:10109000331F8A95E2F72095309580919E089091B4
:1010A0009F08822393230E941A08089521E030E0CC
:1010B00002C0220F331F8A95E2F780919E0890911B
:1010C0009F08822793270E941A08089520919E085E
:1010D00030919F08822B932B0E941A08089520912B
:1010E0009E0830919F08822393230E941A08089536
:1010F00020919E0830919F08822793270E941A080A
:1011000008950895262F277091E001C0990F2A9520
:10111000EAF723E0769567952A95E1F7660F771F42
:10112000660F771FFA01E60FF71F50E040E0682FC7
:1011300070E08191DF0111979B01042E02C036956A
:1011400027950A94E2F7217021952827292328273B
:101150002C934F5F5F4F4430510559F70895A82FE6
:10116000A77023E0969587952A95E1F7880F991F38
:10117000880F991FFB01E80FF91F50E040E080E065
:10118000219130E00A2E02C0369527950A94E2F7A5
:1011900021703327042E01C0220F0A94EAF7822B14
:1011A0004F5F5F4F4430510559F70895262F98300F
:1011B00070F4853060F4682F70E085E0989F600DD2
:1011C000711D11244AE858E0822F0E948208089578
:1011D000292F983068F4853058F490E06AE878E078
:1011E00035E0239F800D911D11240E94AF080895C2
:1011F00080E00895B0E0A0E0E0E0F9E00C94292D53
:101200007C0100919E0810919F088091A008909108
:10121000A108082B192BCFE0D0E0CC24C394D12C0B
:10122000BC2EC6010C2E02C0880F991F0A94E2F74B
:1012300080239123892B49F4219790F7B12C8B2D92
:10124000CDB7DEB7E9E00C94452DB7018C2F0E9495
:101250000C10019789F3F3CFCF93DF93EC010E9439
:10126000FA08BE010E940C10DF91CF9108951F93E0
:10127000CF93DF93EB0190918708992339F0CB014D
:101280000E942C09DF91CF911F910895882369F066
:10129000CB010E94FA08182F682FCE010E94D608B1
:1012A000BE01812F0E940C10EDCFCB010E94E808F7
:1012B000182FF6CFCF93DF93C091A2088091A30897
:1012C0008C1303C0DF91CF910895D0E0FE0183E03D
:1012D000EE0FFF1F8A95E1F7EC55F74F2081318122
:1012E0004281538164817581868197810E94DE07E6
:1012F0002196C770E3CF2091E4083091E508409132
:10130000E6085091E7086091E8087091E90880913B
:10131000EA089091EB080E94DE070895CF93DF93CF
:101320008091E908807F09F049C08091E608882310
:1013300009F444C08091A208C091A3086091E40818
:101340007091E508A091E708B091E808D62FD7235F
:10135000C817A1F190E0109711F0DF3F19F4019642
:101360008770F6CF9C0143E0220F331F4A95E1F7C7
:10137000F901EC55F74F41814713F1CF40814613F6
:10138000EECF42814111EBCF438154814A1B5B0B6D
:101390004C3D510520F78091E9088F708061809362
:1013A000E908F901E755F74F80818F7080618083EC
:1013B00084EE98E00E94AA070E945A09DF91CF911B
:1013C0000895A5E1B0E0E7EEF9E00C94282D8C013A
:1013D00085E0F801DE01519601900D928A95E1F7C2
:1013E000F801E28044EEC42E48E0D42E6091E70874
:1013F0007091E8086115710509F480C19091E408C5
:101400002091E508892F82238F3F09F477C140811D
:101410005181A380B480F090E608F501E61BF70B3C
:10142000FF2009F420C18091E908382F307FEC3D7E
:10143000F10508F0CAC0311177C0FE2C251320C079
:1014400094131EC06091EA087091EB08F8012681A0
:10145000378162177307A1F4E11012C08F708061A9
:101460008093E9080E947B09C6010E94AA07809127
:10147000E908F80185838F2D6596EAE00C94442DE8
:10148000A114B10429F0842F85238F3F09F04FC1A7
:1014900080E0F82FF170DF2E80FF3CC08091A20821
:1014A0002091A308821315C0498B5A8B89899A8988
:1014B0000E942C09292F22952F702230F8F0243019
:1014C00020F59F70F9F0F8019581907FD9F4D12C27
:1014D0001FC090E0FC0133E0EE0FFF1F3A95E1F7EB
:1014E000EC55F74F3181351306C03081341303C0FA
:1014F00032813E110FC001968770D4CF9F7011F0DA
:10150000882329F3805E883010F3C8010E94AA075F
:10151000FD2CB1CFEE2009F4AECF8091E9088160B7
:101520008093E908F12CA7CF25131DC094131BC08D
:101530004091EA085091EB08F80126813781421763
:10154000530789F4E1100FC08583C8010E94AA07E0
:1015500088E0F801A4EEB8E001900D928A95E1F7D9
:101560000E947B0988CFC8010E945805882349F151
:10157000EE2039F18091E9088032A0F02091E40852
:101580003091E5083A8729871B86BD86AC868E8711
:101590008091EA089091EB08988B8F87CE0109968D
:1015A0000E94AA0788E0F801A4EEB8E001900D922D
:1015B0008A95E1F70E948E090E947B09FF24F3942B
:1015C0005ACFC8010E94AA07F9CF311113C07A2D52
:1015D000BD8AAC8A6E2D8D890E94D40784EE98E076
:1015E0000E94AA0788E0F60111928A95E9F70E9405
:1015F0007B0998CF251318C0941316C04091EA08B0
:101600005091EB08F801268137814217530761F4A6
:10161000E1100AC08583C8010E94AA0788E0F6018C
:1016200011928A95E9F727CFC8010E9458058823AF
:1016300041F2EE2031F28091E908803208F4B2CF15
:101640002091E4083091E5083A8329831B82BD820A
:10165000AC828E838091EA089091EB0898878F8303
:10166000CE0101969DCFEC3DF105D8F5FE2CEE2084
:1016700009F4A7CF251327C0941325C02091EA08A9
:101680003091EB08F8018681978128173907D9F442
:101690009091E90890FD0EC0907F61F08091E9087B
:1016A0008583903F09F451CF982F907F905F8F7082
:1016B000892B4ACF88E0F801A4EEB8E001900D92A2
:1016C0008A95E1F7D8CEC8010E94580581116ACFEA
:1016D0008091E90881608093E908C8010E94AA0707
:1016E000CACE7A2DBD8AAC8A6E2D8D890E94D40710
:1016F00088E0F60111928A95E9F732CFEE2009F4DD
:1017000060CFC8010E945805F82E882309F459CFEC
:1017100088E0F801A4EEB8E001900D928A95E1F717
:1017200084EE98E00E9461040E948E0919CF81E046
:101730008E25AFCEA0E1B0E0E0EAFBE00C94302DC6
:1017400029873A874B875C876D877E878F87988B41
:10175000CE0109960E94E1098823A9F08C859D8518
:10176000892B39F029853A85822F83238F3F09F011
:101770006FC08091A2089091A308891343C060961E
:10178000E2E00C944C2D88E0FE013996DE011196C2
:1017900001900D928A95E1F78C859D85892B49F3FF
:1017A00089859A8589238F3F21F3A091A308B0E012
:1017B000CD010196877099272091A2082817190654
:1017C00071F40E9438051092A3081092A20888E0D4
:1017D000E4EEF8E0DF011D928A95E9F7CACF93E0C5
:1017E000AA0FBB1F9A95E1F7AC55B74F98E0FE01E1
:1017F000319601900D929A95E1F78093A3080E948B
:101800005A09B7CFB8E08B9FC00111248C55974F70
:101810000E94E109882309F4B2CFE091A20828E0F0
:10182000E29FF0011124EC55F74F20813181428174
:10183000538164817581868197810E94DE07809142
:10184000A20890E00196877099278093A20891CF13
:101850004B855C856D857E858F8598890E94DE0726
:1018600088CF682F80917301909174010E94F824B1
:101870000895682F80917301909174010E94FB2458
:10188000089580917301909174010E94FE2408953F
:101890008091F50808958091F40885958595859542
:1018A00008958091F408877008959091F4089770D6
:1018B00081E009F480E008958091020908959091F3
:1018C0000209892B8093020908958095909102095D
:1018D0009823909302090895809302090895109225
:1018E0000209089580910109089590910109892BB9
:1018F0008093010908958095909101099823909310
:10190000010908951092010908958093000908952E
:101910001092000908958093FF0808951092FF081F
:1019200008958091F608089508950E94940C0895F2
:101930009091E80992FF08C09091F608981721F05D
:101940008093F6080E94950C08958091F6088823EC
:1019500029F01092F60880E00E94950C0895CF932C
:10196000DF93E0917301F09174018091020980830B
:10197000E0917301F0917401808190910109892BAC
:1019800080839091F608992381F0E0917301F091A2
:1019900074018081892B80838091730190917401FF
:1019A0000E94B02481110E94A50CE0917301F09176
:1019B00074018091FF08982F9095808189238083FE
:1019C000E0917301F0917401808190910009892B5D
:1019D0008083C0917301D091740148E050E06CEEB7
:1019E00078E0CE010E946B2D892B59F088E0FE0132
:1019F000ACEEB8E001900D928A95E1F7CE010E941D
:101A00006B24DF91CF91089508950E94040D0895ED
:101A10009091E80992FF11C098E0899F90011124EC
:101A2000622B6093F4080E9434088091F408859535
:101A3000859585950E94050D08950E9434080895A6
:101A40001092F40880E00E94050D08959091F4082A
:101A5000809589238093F408282F277091F4282FEC
:101A6000082E000C330B9217130659F09091E809D9
:101A700092FF07C08595859585950E9444080E9430
:101A8000200D08959091E80992FB222720F928174C
:101A900069F080FB92F99093E8098091E7099091B1
:101AA000E8090E94930D82E00E94260D089580911E
:101AB000E80982FB882780F991E089270E94420D7E
:101AC000089581E00E94420D089580E00E94420D39
:101AD00008956FEF7FEF90E080E00E94AD2D0895B4
:101AE00090E080E00E94892D21E0883E9E4F09F021
:101AF00020E0822F089582E090E00E94812D0895D9
:101B000083E090E00E94812D0895CF9384E090E0DF
:101B10000E94812DC82F82E290E00E94812D982F93
:101B20008C2FCF910895CF93C92F682F84E090E038
:101B30000E948F2D6C2F82E290E00E948F2DCF911A
:101B40000895AB01BC018FE090E00E94A12D0895A3
:101B5000AB01BC0183E190E00E94A12D089560E0FB
:101B600070E0CB010E94A80D089560E070E0CB0109
:101B70000E94A10D0E94AF0D089568EE7EEF90E0E7
:101B800080E00E94AD2D60E082E090E00E948F2D09
:101B900060E083E090E00E948F2D1092A1081092E7
:101BA000A00860E084E090E00E948F2D64E082E273
:101BB00090E00E948F2D60E085E090E00E948F2DE4
:101BC00060E086E090E00E948F2D6FEF87E090E06C
:101BD0000E948F2D40E050E0BA0188E090E00E9422
:101BE000A12D60E08DE090E00E948F2D40E050E05C
:101BF000BA0188E190E00E94A12D60E087E190E0C9
:101C00000E948F2D40E050E0BA018CE190E00E94EC
:101C1000A12D70E060E080E290E00E94AD2D40E0F8
:101C200050E0BA0188E190E00E94A12D0E94B50D1C
:101C300008950E94BD0D08958EE090E00E94812DD0
:101C400091E0811101C090E0892F0895682F8EE006
:101C500090E00E948F2D08950E94C0256093110985
:101C600070931209809313099093140960930D09DE
:101C700070930E0980930F099093100908950895A9
:101C800008950E94400E089508950E94440E0895FC
:101C900086E391E10E944A240E943F0E0E94410E79
:101CA00008950E9420130895089508950E94540EE7
:101CB0000E94550E08950E945F110E94E9030E9440
:101CC0004D1708950E94AB250E94F6100E9438130C
:101CD0000E944D120E945B0E0E940B170E94481337
:101CE0000E94450E08950E942013882331F00E941F
:101CF000EB1E0E946E220E94F51B0895AAE0B0E040
:101D0000E4E8FEE00C94282D0E94A11285E0A82EA4
:101D100089E0B82E750110E0F70101917F01812F54
:101D20000E9485111F5F183009F440C00817A1F305
:101D30008091150981FD0E948B110E94510EC82EC1
:101D400010E0812F0E948511082FF50181915F011C
:101D5000081731F1D02ED826F12CEE24E3948D2DE6
:101D60008E21B1F0CC20A1F0FE821F8391E0802F64
:101D70008E2109F490E098870E94B4258160782F25
:101D80009A8789874E815F8168858A850E941504BC
:101D9000F394EE0CF5E0FF12E2CFF50131970083EA
:101DA0001F5F183071F60E942C0E20C00813C0CFA0
:101DB0000E94B4258C0180910309909104090817B1
:101DC0001907A1F08FEF89838A831B820E94B425B3
:101DD0008160782F9D838C8349815A816B818D81AD
:101DE0000E94150410930409009303090E94730EC6
:101DF0000E949F160E94FC032A96EAE00C94442D50
:101E0000CF93DF930E941110EC01811521E5920719
:101E100008F042C0811530E5930708F09FC0883E66
:101E2000910530F5803E910508F094C0883A9105FF
:101E300088F4853A910508F086C08130910509F44F
:101E400089C0009709F486C0049708F083C0D0E0E9
:101E5000C0E080C08F3B9105D0F7C85AD0E0CC0FCE
:101E6000DD1FC35BD74F0990D881C02DD46472C0E9
:101E7000811540E2940750F4C11581E0D80708F0BD
:101E800069C0CD3ED10518F3D06564C0811590447A
:101E9000F0F2DF70D06A5EC0811535E5930718F562
:101EA000811544E5940708F085C0C11583E5D8077E
:101EB00008F06CC0C11522E5D20708F462C0CE015B
:101EC0008370992721E030E002C0220F331F8A95EA
:101ED000E2F7C695C69580E2C89FE0011124C22BA7
:101EE000D32BDC6837C0811539E59307A8F4811539
:101EF00048E5940708F063C0C11586E5D80708F0E7
:101F0000A6CF8C2F0E94B310C82FD0E0DC2FCC2797
:101F1000CC27DF71D0621EC081152AE5920708F434
:101F200053C090568115904208F091CF8D2F8F713C
:101F30000E94B31090E0982F882788279F719C01FA
:101F40002C2BE901E7CFC55AD0E0C558D74FC8813F
:101F5000D0E0D064CE01DF91CF91089583709927AE
:101F600021E030E002C0220F331F8A95E2F7C695C8
:101F7000C69540E2C49FE0011124C22BD32BDD683B
:101F8000E9CFDC2FCC27C16FD06AE4CFCE018370BC
:101F9000992721E030E002C0220F331F8A95E2F733
:101FA000C695C69540E2C49FE0011124C22BD32BF5
:101FB000DA68D0CFD82FCC27C46FD06ACBCFD82F38
:101FC000CC27C06FD06AC6CF8F700E94B31034E0A8
:101FD000D695C7953A95E1F7CF709C2FEC01D06963
:101FE000B9CF972F7830A8F4653098F470E025E0E9
:101FF000929F600D711D1124FB0198E2899FE00DF5
:10200000F11D1124EE0FFF1FE455FF4F85919491B0
:10201000089580E090E008950E94F10F0E94000F63
:10202000089582389105B9F1B0F48133910509F42E
:102030007DC048F48932910509F46DC08A3291055A
:1020400009F47BC008958533910509F45FC0893395
:10205000910509F10895833E9105D9F138F4803E48
:10206000910529F1823E910579F10895863E910509
:10207000D9F1873E910509F43EC0843E910541F5B2
:102080002091E80921FF24C08091E70984FD19C04F
:1020900087EE90E008952091E709237009F05AC077
:1020A0002091E80923FF14C089E290E0089520916F
:1020B000E70920FD38C03091E80930FF09C024FF4E
:1020C00043C090E080E008952091E70922FDF7CF1A
:1020D00008952091E70922FD3AC03091E80930FDCA
:1020E00039C024FFF5CFEDCF2091E70923FFF0CFD2
:1020F00024FDE7CFCDCF2091E70923FD2EC03091FD
:10210000E80931FFEECF84EE90E008952091E709D1
:1021100025FFDECFC9CF2091E70925FD21C0209101
:10212000E80923FFD5CF89E390E0D2CF2091E709DA
:1021300026FFCECF8AE290E008952091E70926FF9E
:10214000C7CF81E390E0089583EE90E0089582EE9A
:1021500090E0089580EE90E0089586EE90E0089576
:1021600085E390E008959091E70992FF06C0282F3B
:1021700028712830F9F4877F846093FF06C0282FE8
:1021800028712831F1F4877E84612091E80920FFCD
:1021900006C0382F38713830D9F4877F816021FF2D
:1021A00006C0282F28712831D1F4877E816194FDE3
:1021B000877E0895282F24712430F9F68B7F88605C
:1021C000DCCF282F2471243101F78B7E8861DDCF8D
:1021D000382F3171313019F78E7F8860E0CF282F8A
:1021E0002171213121F78E7E8861E1CF1092E309C0
:1021F0001092E4091092E5091092E6090895CF9231
:10220000DF92EF92FF926B017C010E9420138111FB
:102210000EC00E94C025C61AD70AE80AF90AC09261
:10222000E309D092E409E092E509F092E609FF9013
:10223000EF90DF90CF9008950F931F930E9420138B
:10224000882329F00E94C0251F910F9108950E94B4
:10225000C0250091E3091091E4092091E50930912E
:10226000E609600F711F821F931FEECF80E0089573
:102270000E94690D0895CF930E94A1128FE39CE9FB
:102280000197F1F700C000000E94A1120E941D13E7
:10229000C4E08111C0E08C2F0E94851190E002C043
:1022A00095958795CA95E2F780FF04C00E94381182
:1022B0000E941B26CF9108950E943B1108950E9411
:1022C000700D811102C00E94190E0E947B0D809337
:1022D00015090E94850D9093E8098093E7090E94F3
:1022E0005C110E94800D90E00E94F60780919E088C
:1022F00090919F080E941708089508950E947D11EB
:10230000089508950E9481110895E82FF0E0EE509D
:10231000F64F80810895089508950E948C110895C4
:10232000EF92FF921F93CF93DF9300D000D0CDB7F1
:10233000DEB70E942013182F6091FA09882309F450
:1023400047C019821A821B821C82862F90E09E0150
:102350002F5F3F4F7901B9018E50964F0E9456135F
:102360008823E9F08091E90990E044E050E0B7016A
:102370008E50964F0E946B2D21E020931609892BD9
:10238000C9F410E00E945003812F0F900F900F901E
:102390000F90DF91CF911F91FF90EF900895809162
:1023A0001609882371F384E0F70111928A95E9F701
:1023B00010921609E091E909F0E0EE50F64F89819C
:1023C0009A81AB81BC8180839183A283B383DACF6E
:1023D00070E06E50764F8091E90990E08E50964FF4
:1023E0000E94DD130E948D11CFCF1F93CF93DF93F7
:1023F00025E731E0C1E0D0E0D90150E040E08D9127
:102400008F3F91F0E82FE295EF70F0E011A18F700F
:10241000BE0101C0660F8A95EAF7962F9095912329
:1024200091A382A1862B82A34F5F5F4F4530510558
:1024300031F72B5F3F4F81E029383807E9F6DF910C
:10244000CF911F910895CF93DF93AC01A62FB0E0F9
:1024500085E0689FF0011124EB58FE4F75E081E0A4
:1024600060E091919F3F81F0C92FC295CF70D0E07D
:1024700028A130E09F7002C0359527959A95E2F724
:10248000982F20FD90E0692B880F715051F7A40F11
:10249000B51F6C93DF91CF910895A4E1B0E0E3E51F
:1024A000F2E10C94302D80918901811126C084E1E4
:1024B000E3EDF1E0DE01119601900D928A95E1F7CE
:1024C000FE013196A5E7B1E0CE01459620812C931F
:1024D000218111962C931197228112962C93129799
:1024E000238113962C931397248114962C9314977D
:1024F000359615968E179F0749F78091890194E0CC
:10250000811190E09093FA0984E0891B8093E90996
:102510000E94F51188E0E2EFF9E0DF01982F1D92AB
:102520009A95E9F7EAEEF9E0DF011D928A95E9F75D
:1025300084E00E94DF120E944D036496E2E00C9456
:102540004C2DA8E0B0E0E7EAF2E10C942D2D8E01CD
:102550000F5F1F4F88E0F80111928A95E9F7F12C7F
:102560006F2DC8010E942312F394F4E0FF12F8CFFC
:1025700048E050E0B8018AEE99E00E946B2D21E01E
:10258000009709F420E0892B41F088E0F801AAEED9
:10259000B9E001900D928A95E1F76091FA0970E037
:1025A0006E50764F44E08AEE99E00E94E012182FB8
:1025B0000E949011812B2896E5E00C94492D0895F6
:1025C000CF92DF92EF92FF920F931F93CF936C0104
:1025D0007B01042F222349F081E0809319090E9496
:1025E000B4259093180980931709C0911909C11156
:1025F0000AC0C0E08C2FCF911F910F91FF90EF90F8
:10260000DF90CF90089580911709909118090E944A
:10261000CC25059770F310E0A801B601C7010E9410
:102620006B2D892B41F0A801B601C7010E94782DBE
:1026300010921909DFCFC0E0FBCF0E941C0E089555
:1026400080911C09811107C00E94F92C882351F048
:1026500081E080931C0981E090911C09913009F080
:1026600080E0089582E080931C090E94F42CF3CF4F
:102670000E94700D811102C00E94190E0E941D134C
:10268000809389010E94201381110E948C13089568
:102690000E942013811102C00E948F13089581E0CF
:1026A00090911D099A3008F080E008950F931F93D0
:1026B000CF93DF93EC018B0180911D098A30B8F430
:1026C000B801CE010E94DA13C82F811122C0809177
:1026D0001D098F3FB9F40E94B42590931B09809384
:1026E0001A098C2FDF91CF911F910F91089580913E
:1026F0001A0990911B090E94CC25843F914000F754
:10270000C0E0EFCF8F5F80931D098A3020F7C1E0D2
:10271000E8CF10921D09E5CF0E94E82208950E949B
:10272000EB220895B0E0A0E0E8E9F3E10C942B2D52
:102730007901C82F880FDD0B41155105A9F0FE0165
:1027400093E0EE0FFF1F9A95E1F7E657FE4F818168
:102750009281825E964F208130E04217530708F441
:102760009A01A9010E94782DCE010E94D423D82E6F
:102770008823D1F001151105B9F083E0CC0FDD1FDE
:102780008A95E1F7FE01E657FE4F438150E00417BA
:10279000150708F4A801C657DE4F6C817D81625E83
:1027A000764FC7010E94782D8D2DCDB7DEB7E7E0BB
:1027B0000C94472D0E94D41408950E94EB140895A0
:1027C000A4E0B0E0E6EEF3E10C942E2D6091330925
:1027D0007091340980913509909136090E94DB256A
:1027E00011E0643671058105910518F10E941C11F4
:1027F0006E5F7F4F8F4F9F4F69837A838B839C835C
:1028000010E000E030E020E044E050E0BE016F5F07
:102810007F4F82E00E949213182F882351F00E946C
:10282000C0256093330970933409809335099093E0
:102830003609812F2496E4E00C944A2DB0E0A0E004
:10284000E4E2F4E10C94282D7C015B016A010E9412
:102850004F1301E010E0882311F00AE010E0C1E01E
:10286000D0E0B501C701F6010995811104C0219698
:102870000C171D072CF4CDB7DEB7EAE00C94442DFD
:10288000CC9F9001CD9F300D300D112490E080E061
:1028900045E34A95F1F70000019682179307C1F7C7
:1028A000E0CFA5E0B0E0E7E5F4E10C94282D5B0172
:1028B000E0907E08F0907F0801E010E09E012B5F21
:1028C0003F4F50E040E070E060E080E00E949213F3
:1028D000182F882309F44BC067018FEFC81AD80A54
:1028E00060912F09709130098091310990913209DE
:1028F0000E94DB25643671058105910580F104E0B5
:1029000010E09E012F5F3F4F50E040E070E060E03C
:1029100081E00E949213F82E64E070E0C6010E94EC
:102920000C1711E09D81981310E01F2159F10E94AE
:10293000C02560932F0970933009809331099093DB
:10294000320989819A81AB81BC8180932B09909354
:102950002C09A0932D09B0932E0911E013C064E057
:1029600070E0C6010E940C179D818913C8CFF70142
:1029700081819281A381B48189839A83AB83BC8353
:102980001111DFCF80912B0990912C09A0912D0975
:10299000B0912E09F50180839183A283B383812FA7
:1029A0002596EAE00C94442D0F931F93CF93DF9369
:1029B000EC018B0141E554E10E941E14882331F0A3
:1029C00040EE53E1B801CE010E941E14DF91CF9179
:1029D0001F910F9108950F931F93CF93DF93C09191
:1029E0007E08D0917F08CE01019624E0FB01DC0136
:1029F00001900D922A95E1F764E070E00E940C17B7
:102A000088836D817E818F8198850091270910913F
:102A100028092091290930912A0960177107820736
:102A2000930751F06093270970932809809329092F
:102A300090932A090E94FF10DF91CF911F910F916F
:102A400008950E94CF270E94620E0E94DC270895FD
:102A50000E94E1270E947E0E0E94FB2708950E949B
:102A60004D250E94B5270E94480E0E9421150E9404
:102A700028150E94560EFBCF80913B0990E0880FED
:102A8000991FFC01E654FE4F208186559E4FFC01A4
:102A9000808190913E09191614F420933E0990917B
:102AA0003E0997FF04C0922F919590933E09909113
:102AB0003F09191614F420933F0990913F0997FF9D
:102AC00003C0219520933F0990914109191614F4F0
:102AD000809341099091410997FF04C0982F9195E7
:102AE0009093410990914009191614F4809340097C
:102AF0009091400997FF03C08195809340093091E0
:102B00003E093323A1F020913F09222381F045EBB8
:102B10003403C00111249923F1F090933E0945EB51
:102B20002403900111243323D1F030933F094091C5
:102B30004109442379F030914009332359F025EBC2
:102B40004203A00111245093410932039001112442
:102B500030934009089581E080933E09E0CF81E001
:102B600080933F09E4CF40913B09242F30E0220FAE
:102B7000331FF901E654FE4F90818D3E21F491956B
:102B800090933F0908958E3ED9F38F3E21F491959D
:102B900090933E090895803FD9F326553E4FF901A1
:102BA0009081893F19F49093400908958A3F11F468
:102BB0009195F9CF8B3F21F4919590934109089518
:102BC0008C3FD9F39FE0980F983070F4815F990B98
:102BD00021E030E001C0220F8A95EAF780913D099B
:102BE000822B80933D0908958D3F49F481E08093C5
:102BF0003B0980913B0948130E943C1508958E3F84
:102C000011F482E0F4CF8F3FC9F783E0F0CF8D3E1F
:102C100039F490913F0997FF09C010923F09089538
:102C20008E3E71F490913F091916BCF38D3F38F038
:102C300080913B0910923B0981110E943C15089537
:102C40008F3E39F490913E0997FFF0CF10923E09E4
:102C50000895803F29F490913E091916BCF3E6CF00
:102C6000893F39F490914009191604F710924009F0
:102C700008958A3F29F49091400997FFD7CFF6CF66
:102C80008B3F39F48091410987FFD9CF10924109D8
:102C900008958C3F29F4809141091816BCF30895DA
:102CA0009FE0980F983008F0C1CF815F990B21E029
:102CB00030E0A90102C0440F551F8A95E2F7CA010E
:102CC000809590913D09892380933D0908950E9444
:102CD000B4259C0190913E0980913F09982B21F0E9
:102CE00030933A0920933909909140098091410924
:102CF000982B21F030933809209337098CE399E021
:102D00000E947624089586E0ECE3F9E0DF011D924D
:102D10008A95E9F70895FC01828181110EC08381B3
:102D200081110BC08481811108C091E085818111DE
:102D300001C090E0892F8170089581E0FCCFA6E06A
:102D4000B0E0E5EAF6E10C94302D86E0ECE3F9E042
:102D5000DE01119601900D928A95E1F710923E09DD
:102D600010923F0910924009109241098B819C8179
:102D7000892BC1F08091390990913A090E94CC25A4
:102D8000E0913B09F0E0EE0FFF1FEE54FE4F208173
:102D900031812817390730F48B8180933E098C816B
:102DA00080933F098E819D81892BC1F080913709E5
:102DB000909138090E94CC25E0913B09F0E0EE0F9C
:102DC000FF1FEE55FE4F208131812817390730F45F
:102DD0008D81809340098E8180934109BE016F5F90
:102DE0007F4F8CE399E00E940525811105C08CE39B
:102DF00099E00E948B1681110E94671686E0FE0101
:102E00003196ACE3B9E001900D928A95E1F72696F0
:102E1000E2E00C944C2D0895FC01680F791F8FEFB0
:102E200091E36E177F0709F408952191822728E026
:102E300030E087FF06C0880F892721503109C9F784
:102E4000F0CF880FFACFCF93DF93EC0197FF0CC040
:102E5000FB018281882341F00E946417CE019F7795
:102E60000E94F4170E94C31781E0DF91CF9108956B
:102E70009091FC09923071F48A3050F490E00996F8
:102E80006AE070E00E94062D875A0E94FD040895B2
:102E90008650FBCF0E947F1A08958CE090E00E943C
:102EA000812D90E0B0E0A0E08093FC099093FD09B3
:102EB000A093FE09B093FF0908956091FC098CE08E
:102EC00090E00E948F2D08950E946824869581705D
:102ED0008093010A0E94682481708093FB0980918D
:102EE000FC09813039F48091010A882319F089E3C3
:102EF0000E94FD040E945C0C8093000A0E946F0CEB
:102F00000E94820C8091FC09823021F158F48823C0
:102F1000C1F08130D1F08FE39CE90197F1F700C057
:102F200000000895843051F18530A9F78BE191E0DC
:102F30000E94E80285E290E00E94E80288E290E0C8
:102F400006C082EE0E946704E6CF88E193E00E940B
:102F5000E802E1CF8091FB09811103C083E50E9463
:102F6000FD0482EE0E9467048FE39CE90197F1F76C
:102F700000C0000087E50E94FD04CDCF86EE0E94D0
:102F8000FD0488E1F8CF8091FC09823011F148F40A
:102F9000882381F0813091F08091000A0E946C0CAE
:102FA00008958430F9F08530B9F788E290E00E9406
:102FB000E802F2CF82EE0E94B304EECF8CE20E94D0
:102FC000FD048091010A882339F389E30E94FD04FE
:102FD000E3CF82EE0E94B3048091FB098111DCCF24
:102FE00083E5F4CF88E2F2CF0F931F93CF93DF9363
:102FF0008C01CCE0D0E0C8010C2E02C096958795DC
:103000000A94E2F78F700E9438172497CC3F8FEF15
:10301000D80789F7DF91CF911F910F9108950F93F2
:103020001F93CF93DF93EC018B01FB0182818823F7
:1030300081F00E945C0CC43EFCE5DF0729F190F4AE
:10304000C23EECE5DE07D9F081E0C33EFCE5DF07D8
:1030500099F0B801CE010E942317DF91CF911F9103
:103060000F910895C63E8CE5D80791F078F085E081
:10307000C13BFDE5DF0769F78093FC0902C01092B0
:10308000FC090E945D17E5CF82E0F6CF83E0F4CF24
:1030900084E0F2CFCF93DF93EC01FB0182818823A0
:1030A00009F464C1C430FDE5DF07E0F5CB3F9CE5E2
:1030B000D90730F49E0122503C4524313105D8F522
:1030C0000E94850D9093E8098093E709C231ECE5F1
:1030D000DE0709F41FC108F06EC0C9308CE5D807BF
:1030E00009F4F2C008F03FC0C530ECE5DE0709F492
:1030F000DBC058F5C3308CE5D80709F4CDC008F023
:10310000CFC08091E7098160C230DC4509F4AEC0D0
:103110008091E7099091E8090E94930D0E9438057B
:1031200080E009C0C63AEDE5DE0751F238F4C23658
:103130009DE5D90729F2DF91CF9108959E012E5A7E
:103140003D4523303105B8F7BBCF8091E709806258
:10315000C730FCE5DF0709F489C008F4B1C08091ED
:10316000E709806483C0CD309CE5D90709F4BAC073
:1031700070F48091E7098E7FCB30FCE5DF0709F41E
:1031800075C008F4A7C08091E7098D7F6FC0CF306C
:103190009CE5D90709F4B6C008F4A8C0C031FCE525
:1031A000DF0709F4B3C0C131DC4509F0B1CF80912C
:1031B000E7098F7B5BC0C1159DE5D90709F4B4C051
:1031C00098F5CB3FFCE5DF0709F472C0B8F4C431D1
:1031D0009CE5D90709F4B6C008F4A2C0C531DC45A6
:1031E00009F096CF8091E70982FB992790F921E0B9
:1031F000922790FB82F990FB83F938C0CD3F8CE594
:10320000D80709F477C008F457C0CE3FECE5DE07D5
:1032100009F474C08091E8098360CF3FDC4509F070
:1032200077CF8093E80974CFC2368DE5D80709F4CB
:1032300096C068F4C230EDE5DE0709F48CC008F4EE
:1032400077C0C330DD4509F063CF80E085C0CE3A5A
:103250009DE5D907E9F068F49091E709892F8E7F01
:1032600090FF8160C63ADD4509F052CF8093E709AF
:103270004FCFCF3A8DE5D80789F1C03BDD4509F046
:1032800047CF9091E809892F877F93FF8860C9CF46
:103290008091E8098860C5CF8091E7098260E6CF18
:1032A0008091E7098460E2CF8091E7098860DECFF2
:1032B0008091E8098160B5CF8091E8098260B1CF43
:1032C0008091E7098061D2CF0E9438058091E7099B
:1032D0008068CCCF8091E7098C60C8CF8091E809E5
:1032E000877F9FCF8091E7098B7FC0CF8091E709CF
:1032F000877FBCCF8091E8098E7F93CF8091E809CA
:103300008D7F8FCF8091E7098F7EB0CF8091E709C5
:103310008F7DACCF0E9438058091E7098F77A6CFCB
:103320008091E709837FA2CF8091E8098C7F79CFD4
:103330008091E809982F909591708E7F892B90FB52
:1033400081F96FCF0E9438059091E709892F97FB8B
:1033500087F980588BCF81E00E94260ED9CE9091BC
:10336000E709892F8F7E94FF806180CF81E0E3CED3
:10337000B0E0A0E0EEEBF9E10C942B2DE82FF0E0AB
:10338000E051FE4FD490282F26952695269530E0C3
:10339000F901E057FD4F0491877010E0082E02C03C
:1033A000159507950A94E2F701701127F901E05885
:1033B000FD4FE490F12C082E02C0F594E7940A9496
:1033C000E2F791E0E922FF24F901E059FD4FC491B1
:1033D000D0E002C0D595C7958A95E2F7C170DD2788
:1033E0000115110519F081EE0E946704E114F10442
:1033F00019F086EE0E9467048D2D0E94FD04E114F1
:10340000F10419F086EE0E94B3040115110519F0BC
:1034100081EE0E94B304CD2B19F08CE20E94FD04D2
:10342000CDB7DEB7E7E00C94472DEF92FF920F93F4
:103430001F93CF93DF93EC01162F0AE08881882336
:1034400009F454C0813009F04EC08981813099F46B
:103450007E0122E0E20EF11C8A810E94FD04E70158
:103460002196812F815050F3EFE9FFE03197F1F77A
:1034700000C00000F7CF823041F47E0182E0E80E08
:10348000F11C8A810E946704EACF833041F47E01F7
:10349000E2E0EE0EF11C8A810E94B304E0CF84309A
:1034A00011F02196DDCF2A81229690E080E0AE01D6
:1034B0004F5F5F4F2053330B2A30310548F001979F
:1034C00078F2EFE9FFE03197F1F700C00000F7CFA5
:1034D000089FB001099F700D1124C901860F971F25
:1034E0002981EA01E4CF0E94B819BACFCDB7DEB77F
:1034F000E6E00C94482D60E00E94151A0895982F7C
:103500009F709A50963020F0805D0E94B8190895FF
:10351000895AFBCF08950F931F93CF93DF93809128
:10352000AD09E09142091CE081111AC0DF91CF91F1
:103530001F910F91089501E00E0F00934209CE2FC5
:10354000D0E0E19FF0011124E35BF64F8381948189
:10355000892B29F08081918189238F3FF9F4E02F15
:103560008091AD09E81738F31092AD091092420925
:10357000DDCF18968D919C918F3F9807E1F061E027
:103580000E948A1A1C9FF0011D9FF00D1124E35B1D
:10359000F64F148213820E94820CE1CF1C9FD0014F
:1035A0001D9FB00D1124A35BB64F16968D919C9173
:1035B0001797892BF1F220813181428153816481F7
:1035C0007581868197810E949A0BDCCF1092AF099A
:1035D0001092AE092091C3013091C401E2E0F1E004
:1035E00090E080E02817390709F4089545814111DA
:1035F00002C01482168201963796F4CFDC016091E6
:103600004B0980914C09962F891301C00895292FE9
:1036100030E0F901EE0FFF1FED5BF64F4081518165
:103620004A175B07A1F487E08A9FA0018B9F500D8A
:1036300011244E5F5E4F81E0FA0184839613E6CF3A
:103640002F5F3F4F2370332720934B0908952F5F3F
:103650003F4F922F9370D8CFB0E0A0E0E2E3FBE1C0
:103660000C94252DEB012C81211152C07090AD09D5
:10367000ADE4B9E030E020E0812C61E070E0271596
:1036800008F044C01A96CD90DC901B97A880B980B2
:103690004FEF5FEF912CE92CF12CF701EE0FFF1F9C
:1036A000EA0DFB1D05911491C016D10609F4A7017E
:1036B0000115110511F09394EECF4F3F540789F196
:1036C000FB0102C0EE0FFF1F4A95E2F78E2AAB0105
:1036D000092C02C0440F551F0A94E2F741505109CA
:1036E00084161506D1F44A815B816CE0629FF0017B
:1036F000639FF00D1124E35BF64F578346832EEF53
:10370000208321839187808721E02D830E94FE1AE8
:10371000CDB7DEB7EDE00C94412D14961C921E92AD
:1037200013972F5F3F4F1C96AACF1F93CF93DF9322
:10373000C0914B0917E080914C098C1308C00E947E
:103740008B1A0E94E61ADF91CF911F910895D0E065
:10375000FE01EE0FFF1FED5BF64F80819181189FF8
:10376000B001199F700D11246E5F7E4F0E942C1BBB
:103770002196C370E0CFEF92FF921F93CF93DF9318
:10378000FC012081318110E040E050E0E52FF0E0C5
:10379000EE0FFF1FE20FF31FA591B4911097B9F040
:1037A000FB01C081D18140E005C0AE15BF0509F421
:1037B00011E04F5FE42FF0E0EE0FFF1FEC0FFD1F55
:1037C000E590F490E114F10481F75F5FDFCF1123FE
:1037D00049F0451708F4CB01DF91CF911F91FF907D
:1037E000EF90089590E080E0F7CF8091C2018823A8
:1037F00041F18091B0099091B109009711F10E94B7
:10380000CC252091AE093091AF0928173907C8F4AB
:1038100090914B0980914C09981759F00E94951B83
:103820001092AF091092AE091092B1091092B0092E
:1038300008950E948B1A1092B1091092B0090E944B
:10384000E61A08951092B1091092B0091092C201BF
:1038500080914C0980934B090E94E61A0E948B1AB2
:1038600008958091C201882319F00E94221C0895B6
:1038700081E08093C2010895A9E0B0E0E2E4FCE1B8
:103880000C94202D6C013B01FB011281883FFCE56B
:103890009F0751F4112379F081E08093C201812FB9
:1038A0002996E2E10C943C2D893F2CE5920709F022
:1038B0004DC0111148C002E011E0F12CE12C198635
:1038C00088248394912C8091C3019091C401E816BF
:1038D000F90608F445C0F3018281882309F460C128
:1038E000F985FF2309F45CC10E94B4259093B109C6
:1038F0008093B0098091AD09883008F591E0980F68
:103900009093AD0998E0F301DE01119601900D92BC
:103910009A95E1F72CE0829FC0011124835B964FBA
:1039200028E0FE013196DC0101900D922A95E1F725
:103930002FEF3FEFFC0131872087D386C28611E04D
:10394000F9851F27ACCF0E94221CA9CF8A3F9C4536
:1039500009F0B1CF112309F4AECF0E94311C9FCFE3
:10396000F80160817181AA24AA94BA2C20E0422F28
:1039700050E0FA01EE0FFF1FE60FF71F85919491BB
:10398000C816D90609F45A01892B11F02F5FEFCF21
:10399000312CFFEFAF16BF0609F445C0F801448192
:1039A0003090C201832D411180E0F82FF1703F2E3D
:1039B000F80155808681F3019281992309F48EC024
:1039C000332009F48BC0511015C0A4010A2C01C08A
:1039D000440F0A94EAF7842BF80186838091AE099C
:1039E0009091AF09C29730F462E370E07093AF0931
:1039F0006093AE09C40102C0880F991F2A95E2F7AF
:103A00000197F80126812817190669F48091B009F9
:103A10009091B109009781F00E94CC25C39760F086
:103A200021E0F8012483F985F329F9872FEFE21AC1
:103A3000F20A095F1F4F47CF20904B0990E080E0CA
:103A400020914C09221215C08017910761F3A22C16
:103A5000B12CF501EE0FFF1FED5BF64FF182E08216
:103A60006FEFA61AB60A73E0A722BB24A0924C09F6
:103A7000DACFA22CB12CF501EE0FFF1FED5BF64F54
:103A80002081318147E0429FC001439F900D112466
:103A9000BC016E5F7E4F2B01B801C2010E94BB1BAF
:103AA0000097A9F021E0FC0124838017910709F415
:103AB000BACF20914B0922120AC04816590639F490
:103AC00095012F5F3F4F2370332720934B093FEF22
:103AD000A31AB30A4A2D4370242EB2CF90E051109E
:103AE00020C0F40102C0EE0FFF1F2A95E2F79F01EC
:103AF000215031092817390731F4442309F44EC005
:103B0000C7010E94FE1AC4010A2C01C0880F0A9442
:103B1000EAF7982F9095F801868189238683352CC2
:103B200082CF9C010A2C02C0359527950A94E2F7B2
:103B3000A90141705527BC01615071098623972363
:103B4000892B41F5452B31F1F80182819381892B35
:103B5000E1F01B821C821D821E82FEEFF983FA8334
:103B60000E94B4258160582F9D838C83F801828147
:103B700093818F83988729813A814B816D817E81E2
:103B80000E949A0BF8011582BECF60E0C7010E9427
:103B90008A1AF8CFF22FF1705F2EB5CF532CB3CF26
:103BA00090914B0980914C09981719F00E94951B30
:103BB000C6CE0E948B1A1092B1091092B0090E94D1
:103BC000E61ABDCECF93DF93EB0186319C4511F50C
:103BD0000E945C0C9A81992399F08A7A91E009F409
:103BE00090E09093B209811109C089E20E94310CE2
:103BF0000E94AF0C80E0DF91CF91089585E3F6CF6E
:103C00008091B209811104C089E20E94390CF0CF81
:103C100085E3FBCF81E0EFCFFC018581862351F462
:103C200092819923B9F06923818583FF05C081E0E2
:103C300061110FC080E00895892F8F7092959F7059
:103C4000982B862F8F7062956F70682B81E096138A
:103C5000F1CF089581E0FDCFCF93DF93EC01609128
:103C6000BD097091BE098091BF099091C0090E9461
:103C7000DB25643F71408105910518F58091BD09F0
:103C80009091BE09A091BF09B091C0098093B90974
:103C90009093BA09A093BB09B093BC0984EF91E05B
:103CA000A0E0B0E08093B5099093B609A093B7095E
:103CB000B093B809D093B409C093B309DF91CF9101
:103CC00008950E94C0256093B9097093BA09809342
:103CD000BB099093BC0982E390E0A0E0B0E0E2CFA2
:103CE000FF920F931F93CF93DF93F82E0091C40997
:103CF0001091C5090115110509F44DC01092B409C0
:103D00001092B3090E948E0C0E94880C0091C40985
:103D10001091C509D8011796CD91DC919E013A9575
:103D200021153F4108F4D07ED1E0C11101C0D0E09F
:103D3000D8011A96ED91FC911B97309731F01C96A3
:103D40006D917C9180E00995D823DD2339F08CEFCB
:103D50008C0F813A30F58C2F0E94390CFF2099F09E
:103D6000E091C409F091C509818584FD0CC0809162
:103D7000C309882341F0808191819C012150310940
:103D8000213B3D45A0F00E94AF0C1092C509109256
:103D9000C4091092C309C801CDB7DEB7E5E00C94A1
:103DA000492D0E94AF0C8C2F0E94B304D7CF0E94E4
:103DB0002C1EE9CF1092C50180E00E94701E08956C
:103DC0008091C501882319F00E94DA1E089581E0D0
:103DD0008093C50108950F931F938091B30990912B
:103DE000B409892B89F16091B9097091BA09809160
:103DF000BB099091BC090E94DB250091B509109187
:103E0000B6092091B7093091B80960177107820788
:103E10009307D0F08091B3099091B4090E94A20257
:103E20001092B4091092B3091092B9091092BA090C
:103E30001092BB091092BC091092B5091092B609F4
:103E40001092B7091092B8091F910F910895A4E03C
:103E5000B0E0EDE2FFE10C94202D8C017A836983C0
:103E6000DB0112965C905520B1F08036BDE59B07D2
:103E700059F08136EDE59E0759F08F359D4559F48F
:103E80000E94E01E312C0DC081E08093C501FACF65
:103E90000E94DA1EF7CF3090C501311007C03324DD
:103EA0003394832D2496E2E10C943C2D680120EE9E
:103EB000C21AD1080E945C0CF82E0E94480C482EB1
:103EC0000E94910C482A4F2838E0C316D10408F00C
:103ED00094C098012770332781E090E001C0880FDB
:103EE0002A95EAF7552009F485C0482AA981BA81A4
:103EF0008D919C910E94E80880902B0190902C015C
:103F00008114910409F4E1C021E030E0F90102C01C
:103F1000EE0FFF1F8A95E2F7FA83E9836090C409E8
:103F20007090C509A090C109B090C209212CE22D62
:103F3000F0E0EE0FFF1FE80DF91D208131813C8379
:103F40002B832115310509F4C0C0411005C0D901EA
:103F500012968C9181118BC0EB81FC8183819481BD
:103F600029813A8182239323892B09F480C081859A
:103F7000982F977009F487E038E0C316D10408F051
:103F800056C0552009F44FC086958170882309F4E6
:103F90006EC0AB81BC81ED90FC900E151F0519F42D
:103FA000552009F464C0EB81FC81E615F70509F49E
:103FB0005EC00684F785E02D309721F0808188234C
:103FC00009F455C0642D8B819C810E940C1E8823AE
:103FD00009F44DC00E151F0509F08BC00115110520
:103FE00009F48CC051108CC0EA14FB0409F03FC0E6
:103FF000512C86C08095482279CF552009F44EC0B7
:104000001093C2090093C1090E94C0256093BD09A5
:104010007093BE098093BF099093C0091092B409B0
:104020001092B30963CF82FB882780F9AFCF552068
:10403000F1F08170ABCF0E94B30483C00497813A42
:10404000910548F4802F0E94310C552009F427CFA8
:104050000E94AF0C17CF0E94AF0C8FE39CE9019731
:10406000F1F700C00000802F0E946704EECF239478
:104070005ECFFC01208131812017310731F45110CE
:1040800007C01092C30980E031C0552009F407CF62
:10409000DC0119968C9185FD02CFF5CF8091C10985
:1040A0009091C2098017910781F41092C209109271
:1040B000C1091092BD091092BE091092BF09109259
:1040C000C0091092B4091092B3098091C40990916B
:1040D000C509009709F4E3CEA8E0CA16D10448F652
:1040E000642D0E940C1E8111DACE81E00E94701EA8
:1040F000D8CEE114F10409F077CF512CF12CE12C4A
:1041000080E00E94701EEB81FC81F093C509E09372
:10411000C40981E08093C30986810E948B0C5110F1
:1041200010C0E114F10469F0AB81BC818D919C91C8
:104130009C0124503109213A310508F07CCF0E94BE
:10414000390CEB81FC8107811085C8019A95811596
:104150009F4108F4107EFF24F394C8010197813B2E
:104160009D4508F0F12CAB81BC811A96ED91FC9134
:104170001B97309731F01C966D917C9181E00995E9
:10418000F822FF2081F0EB81FC81878190850E94DD
:1041900067020E94850CC801F8E0CF16D10408F030
:1041A0004DCF0E942C1E0E94AF0C4FCF0F931F9338
:1041B000CF93DF93C42FD22FFC0182818823C9F0D3
:1041C0004093C8090E94B4259093C7098093C609FB
:1041D00080E28C0F883040F4C77081E001C0880F06
:1041E000CA95EAF70E940605DF91CF911F910F91C2
:1041F00008951091C809141332C08091C609909196
:10420000C7090E94CC258C3D910548F5C0E2CD0F31
:104210001D17B9F080E2810F883040F4177081E0FB
:1042200001C0880F1A95EAF70E940D05C83048F4BE
:1042300081E09D2F977001C0880F9A95EAF70E9440
:104240000605802F0E94FD04C83070F6D77081E00B
:1042500001C0880FDA95EAF70E940D05C5CF80E20C
:104260008C0F883008F6C77081E001C0880FCA95AE
:10427000EAF7F2CF0F939C01CB01243F4CE53407C2
:1042800059F1A8F4293DFCE53F0701F12A3D4CE531
:104290003407D1F1283D3C4591F406E221EE41EE90
:1042A00068ED7CE50E94D62080E00F910895263FBE
:1042B000FCE53F07E9F0B0F0273F3C45F9F0FC0191
:1042C0008281882339F11092C809EFCF07E225EEE9
:1042D00045EE69ED7CE5E6CF06E221EE40EE64EFC7
:1042E0007CE5E0CF07E225EE44EE65EF7CE5DACF32
:1042F00006E221EE42EE66EF7CE5D4CF07E225EE42
:1043000046EE67EF7CE5CECF08E221E045EE6AEDB0
:104310007CE5C8CF81E0C9CFCF93DF93EC01EA857C
:10432000FB85309719F06C857D8509958B810E94FE
:104330007B0C8C810E94650C0E94AF0C86E0FE0114
:1043400011928A95E9F7DF91CF910895CF93DF938A
:10435000EC018D8181FD12C082608D838B810E9472
:10436000750C8C810E945F0C0E94AF0CE885F9856A
:10437000309721F06C857D85CE0109951092CC098E
:104380001092CB098D8180FD03C0CE010E948C214B
:10439000DF91CF910895CF93DF93EC018A81823032
:1043A00041F4FB01828193810E94A2028D8182608F
:1043B0008D83DF91CF910895FB01808191810E94CF
:1043C000A2020895FC018281813031F4FB018081D9
:1043D00091810E94B80208958230E9F7FB01828141
:1043E0009381F7CFFB0122812223E1F0E091CB09F9
:1043F000F091CC093097B1F0E817F90799F02EE069
:10440000E29FF0011124DF01A25FBE4F2C912460D6
:104410002C93E75FFE4F91838083CF010E94A621FA
:104420000E94820C0895EF92FF920F931F93CF93F7
:10443000DF938C0197558F3F910511F008F041C033
:104440007801FF248EE0089FF0011124EF01C75F7F
:10445000DE4FDB0112962C91E25FFE4F808120FB44
:1044600080F98083222399F10E94B4259093CA0990
:104470008093C9098A818F5F8A830E945C0C8B8339
:104480000E94720C9B81892B8B830E94910C8C83E0
:10449000EE81FF81309721F06C857D85CE010995F5
:1044A0008EE08E9DF0018F9DF00D1124E75FFE4F91
:1044B000858181FF02C010E000E01093CC090093D9
:1044C000CB0981E0CDB7DEB7E6E00C94482D8D81B5
:1044D00081FFF7CFCE010E948C21F3CF8091CB09D1
:1044E0009091CC09892BC9F08091C9099091CA0992
:1044F0000E94CC258D3D910580F08091CB092EE066
:10450000829FC0011124FC01E25FFE4F208122FD49
:1045100004C0875F9E4F0E94A62108958EE14A9BAA
:1045200002C08150E1F74A9BFECF08955A9880E27D
:104530008A95F1F75A9A0895FC013BE03A95F1F714
:1045400098E020E080E031E040E14A95F1F7880F03
:104550004A9B02C08160232742E04A95F1F70000A0
:1045600040E14A95F1F7915079F790E19A95F1F78A
:1045700099B132E03A95F1F7000040E14A95F1F740
:1045800092FB992790F992272081920F90830895AA
:10459000A1E0B0E0EEECF2E20C942C2D19828C013B
:1045A0007C01E60EF11C0E151F0541F481E0998196
:1045B000911180E02196E6E00C94482D0E948E2215
:1045C000CE0101960E949C22F80181938F01EBCFCE
:1045D000529A5A9A089552985A9AEA9AE9E6F0E05D
:1045E00080818F7C808308956150770B91E001C0BA
:1045F000990F6A95EAF720E031E0911108C0222373
:1046000091F05A9A80E28A95F1F75A980895492FC5
:10461000482339F05A9A232740E24A95F1F79695B4
:10462000ECCF5A98F9CF5A98EDCFFF920F931F9382
:10463000CF93DF93EC018C01060F111DC017D1073A
:1046400029F4CDB7DEB7E5E00C94492DF9900E942E
:10465000962268E08F2D0E94F422F0CF1F920F92D5
:104660000FB60F9211240F931F932F933F934F93E5
:104670005F936F937F938F939F93AF93BF93EF93CA
:10468000FF93CF93DF930F92CDB7DEB719820E94CD
:104690008E22CE0101960E949C22082F0695069537
:1046A0000695282F22952570902F9570290F922F0F
:1046B000937026952695920F982797708981982B4D
:1046C00009F05CC0043008F059C080E18A95F1F728
:1046D0005A9A529A82E08A95F1F700C05A9888E077
:1046E000089F80011124D801A657BE4F1696ED9160
:1046F000FC9117973097A9F060917E0870917F0820
:1047000014962D913C911597260F371F11968D9178
:104710009C911297680F791F13964C9113978C9167
:104720000995F801E657FE4F6381662351F0209109
:104730007E0830917F0884819581820F931F0E94AB
:1047400015230E94962280E18A95F1F75A98529893
:104750005A9A80E18A95F1F7F801E657FE4F608199
:10476000662351F020917E0830917F0881819281EB
:10477000820F931F0E94C8220E948E220F90DF9109
:10478000CF91FF91EF91BF91AF919F918F917F91C9
:104790006F915F914F913F912F911F910F910F90CA
:1047A0000FBE0F901F9018950F931F93CF93DF9319
:1047B000EC0104970CF04CC0F894529A5A9885E09A
:1047C0008A95F1F700009C2F969595708C2F857037
:1047D000980F892F83709695969523E0CC0FDD1F57
:1047E0002A95E1F7980F8E01092B0E94962200C0AE
:1047F00068E0802F0E94F42280E18A95F1F75298B8
:104800005A9A4A9B1EC087E090E04A991CC0FE015C
:10481000E657FE4F63816623F9F020917E083091C0
:104820007F0884819581820F931F0E94C822811185
:1048300013C0529A5A9A7894DF91CF911F910F9199
:10484000089500C0DECF019729F4529A5A9A7894BD
:1048500080E0F2CF00C0D9CF0E948E2280E28A95FC
:10486000F1F75A98529A80E18A95F1F7C657DE4FD0
:104870006881662351F020917E0830917F088981FC
:104880009A81820F931F0E9415230E94962278948A
:1048900081E0D2CF9093810880938008089590930F
:1048A000D3098093D20908950E942013811103C077
:1048B0008091CD090895E091D209F091D309309704
:1048C00029F00190F081E02D0995089580E0089588
:1048D0000E9454240895E091D209F091D3093097B1
:1048E00021F00280F381E02D09950895E091D2092D
:1048F000F091D309309739F022E0DC012C93048049
:10490000F581E02D099508952091D0093091D109C4
:104910002817390771F09093D1098093D009E0915D
:10492000D209F091D309309721F00680F781E02D6C
:10493000099508952091CE093091CF09281739079C
:1049400071F09093CF098093CE09E091D209F09154
:10495000D309309721F00084F185E02D0995089561
:104960009C012E5F3F4FAC01485F5F4F80E02417F2
:10497000350709F40895F90191919F019923B9F33D
:104980008F5FF5CF662349F0FC013296089621919E
:10499000261729F0E817F907D1F780E0089581E09C
:1049A00008959C01FC0132969FEF80E041914617EB
:1049B00051F09F3F19F4411101C0982F8F5F86304D
:1049C000A9F79F3F09F40895290F311D97FD3A95E6
:1049D000F90162830895FC0132960896219126130D
:1049E00003C0DF0111971C92E817F907B9F7089582
:1049F0000E94D12408950E94EB240895029626E097
:104A0000FC0111922A95E9F7089546E050E00E94D2
:104A10006B2D21E0892B09F420E0822F0895089561
:104A20000E940F250895811106C081E08093D4096A
:104A30000E941025089582E0F9CF83E08093D40985
:104A40000E94102508950E941325089581E0809307
:104A5000D4090E94102508950E94262508950895DE
:104A600008950E9430250895089508950E942F25E5
:104A70000895CF930E9434250E94A1120E943525EB
:104A8000C0E08C2F0E948511811105C0CF5FC83016
:104A9000C1F7CF91089581E0FCCF85B7806885BFCD
:104AA00085B7806885BF08951F921FB61F92112495
:104AB0008F939F93AF93BF938091D509811113C0BA
:104AC0008091020A9091030AA091040AB091050A0C
:104AD0004196A11DB11D8093020A9093030AA093F1
:104AE000040AB093050ABF91AF919F918F911F90D7
:104AF0001FBE1F90189580910A0A843031F10E94E0
:104B0000D6031092D50988E190E020E40FB6F8941E
:104B1000A895809360000FBE2093600083B7817FCB
:104B2000846083BF83B7816083BF7894889583B79F
:104B30008E7F83BF0FB6F894A8958091600088613E
:104B400080936000109260000FBE08950E943805A7
:104B50000E94DB03089582E084BD93E095BD9AEF47
:104B600097BD80936E0008952FB7F8948091020A44
:104B70009091030AA091040AB091050A2FBF0895ED
:104B80002FB7F8946091020A7091030A8091040A89
:104B90009091050A2FBF08959C014FB7F89480911A
:104BA000020A9091030AA091040AB091050A4FBF2E
:104BB000821B930B0895CF92DF92EF92FF922FB753
:104BC000F894C090020AD090030AE090040AF09092
:104BD000050A2FBFA7019601261B370B480B590B5F
:104BE000CA01B901FF90EF90DF90CF9008957894BB
:104BF0001F921FB61F9211248F939F93AF93BF9361
:104C00008091020A9091030AA091040AB091050ACA
:104C10000196A11DB11D8093020A9093030AA093EF
:104C2000040AB093050ABF91AF919F918F911F9095
:104C30001FBE1F90189587E797E790930108809310
:104C4000000888E19AE00FB6F894A8958093600078
:104C50000FBE90936000FFCF88E19AE00FB6F89402
:104C6000A895809360000FBE90936000FFCF809165
:104C7000E109089508959C0182E08093E9009FEF87
:104C80008091E800915085FD06C085ED8A95F1F789
:104C900000009111F5CF8091E80085FF0CC050E035
:104CA00040E066E070E0C9010E946D288091E80054
:104CB0008E778093E8000895CF93DF93EC0181E035
:104CC0008093E9008FEF9091E800815095FD06C038
:104CD00095ED9A95F1F700008111F5CF8091E800EC
:104CE00085FF14C050E040E068E070E0CE010E9413
:104CF0006D288091E8008E778093E80088E0FE01BF
:104D0000A9EDB9E001900D928A95E1F7DF91CF917D
:104D100008958093D6097093D8096093D70980913C
:104D20000A0A843001F582E08093E9008FEF9091C8
:104D3000E800815095FD06C095ED9A95F1F70000C9
:104D40008111F5CF8091E80085FF0DC050E040E073
:104D500063E070E086ED99E00E946D288091E800A4
:104D60008E778093E8000895BC0184E00E94892634
:104D70000895BC0183E00E94892608958091090A64
:104D8000811109C00E94FD290E945A2A8091E200E7
:104D900084608093E20008951092090A08950E94A9
:104DA000262508956091060A81E0611101C080E026
:104DB0000E941D25089590910A0A81E0943009F01F
:104DC00080E06091060A0E942325089542E061EC8C
:104DD00081E00E94792942E261EC82E00E94792917
:104DE00090910A0A81E0943009F080E06091060A0F
:104DF0000E941325089580910C0A833009F461C044
:104E000030F48130D1F1823009F49EC008958A30A7
:104E100009F48AC08B3009F46FC0893009F050C0A2
:104E200080910B0A813209F04BC080910F0A90915A
:104E3000100A029708F044C08091E800877F8093B1
:104E4000E8008091E80082FF37C09091F3008091E4
:104E5000F200029731F48091F100813011F0863038
:104E600021F48091F1008093E1098091E8008B7733
:104E70008093E8000E94AD2923C080910B0A813AFB
:104E8000F9F48091E800877F8093E80080910F0A11
:104E90009091100A892B61F468E089ED99E070E047
:104EA0000E94BC288091E8008B778093E8000895E9
:104EB00060E090E080E0F3CF80910A0A8111C1CFD9
:104EC000089580910B0A813AD9F780910F0A909149
:104ED000100A892BA9F78091E800877F8093E8006A
:104EE0008091E80080FFFCCF8091D2018093F10097
:104EF0008091E8008E77BCCF80910B0A813201F758
:104F000080910F0A9091100A892BD1F68091E800C8
:104F1000877F8093E8000E94AD2980910D0A8093DD
:104F2000D2010E943805089580910B0A813241F622
:104F30008091E800877F8093E8000E94AD298091EE
:104F40000E0A8093E209089580910B0A813A09F0D4
:104F5000B7CF8091E800877F8093E8008091E800D8
:104F600080FFFCCF8091E209C1CF84B7877F84BFE7
:104F70000FB6F894A89580916000886180936000D6
:104F8000109260000FBE80E890E00FB6F894809316
:104F90006100909361000FBE0E942C2508950E942D
:104FA000FD290E945A2AE2EEF0E08081846080832D
:104FB00078940E94D92C089586EC91E00E944F24A9
:104FC000089580910A0A853031F480910A0A85306B
:104FD00019F00E94A62508950E947B258091080A59
:104FE000882399F30E943925882379F30E94572852
:104FF0000E943805EACF08950E94FF270895292FBF
:1050000033272330310519F168F42130310509F4D3
:1050100044C02230310509F445C090E080E030E022
:1050200020E025C02132310549F122323105A9F7AE
:1050300080E490E022E933E061157105C1F08BE76F
:1050400090E027E133E06130710589F0E6CF9927E0
:105050008130910581F0009729F00297F1F6E0EA9E
:10506000F2E002C0E6ECF2E0849190E09F01FA01E8
:10507000318320830895ECEBF2E0F6CF89E090E0F5
:105080002CED32E06115710591F389E090E025EF98
:1050900032E06130710559F3C0CF82E190E025E044
:1050A00033E0E5CF8BE390E02AEC32E0E0CF80E123
:1050B00089BD82E189BD09B400FEFDCF8091D80091
:1050C0008F7D8093D8008091E00082608093E00023
:1050D0008091E00081FDFCCF0895AF92BF92CF9206
:1050E000DF92FF920F931F93CF93DF936C01EB013D
:1050F0008A010E94CC29F82E811123C001151105C7
:1051000039F0F80180819181C81BD90BC80ED91ED6
:10511000B12CA12C2097A9F08091E80085FD22C038
:105120008091E8008E778093E80001151105A1F0C9
:10513000F80180819181A80EB91EB182A08285E01C
:10514000F82E8F2DDF91CF911F910F91FF90DF905F
:10515000CF90BF90AF9008950E94CC298823D1F2C0
:10516000F82EEFCFF60181916F018093F100219726
:10517000FFEFAF1ABF0ACECFFC018091110A9091C8
:10518000120A86179707A0F06115710529F490910E
:10519000E8009E779093E80090E06115710551F466
:1051A000911108C08091E80082FF34C080E008952A
:1051B000BC01F2CF80910A0A8823C1F18530C1F188
:1051C0008091E80083FD30C08091E80082FDEACF45
:1051D0008091E80080FFE1CF8091F3002091F20000
:1051E000382F6115710519F02830310558F091E01C
:1051F0002830310509F090E02091E8002E772093C7
:10520000E800CBCF81918093F100615071092F5F4D
:105210003F4FE7CF80910A0A882341F0853041F063
:105220008091E80083FFBECF81E0089582E0089579
:1052300083E00895FC018091110A9091120A86176B
:105240009707A0F06115710529F48091E8008E7729
:105250008093E80090E06115710551F4911108C048
:105260008091E80082FF35C080E00895BC01F2CF54
:1052700080910A0A8823C9F18530C9F18091E8003C
:1052800083FD31C08091E80082FDEACF8091E80083
:1052900080FFE1CF8091F3002091F200382F61155B
:1052A000710519F02830310558F091E028303105AA
:1052B00009F090E08091E8008E778093E800CBCFF2
:1052C00084918093F1003196615071092F5F3F4FB7
:1052D000E6CF80910A0A882341F0853041F0809121
:1052E000E80083FFBDCF81E0089582E0089583E068
:1052F0000895982F973028F08F708093E90081E00F
:1053000008959093E900242F762F50E0981731F0FC
:105310007091EC002091ED005091F00021FD02C051
:105320009F5FE8CF3091EB003E7F3093EB003091F0
:10533000ED003D7F3093ED003091EB003160309314
:10534000EB007093EC002093ED005093F00020915F
:10535000EE0027FDE5CF80E0089580910B0A87FFDE
:1053600013C08091E80082FF06C08091E8008B772F
:105370008093E80004C080910A0A8111F2CF089559
:1053800080910A0A8823D9F38091E80080FFF8CF42
:105390008091E8008E77ECCF2091E4003091E50019
:1053A00095E6A9012091EC00822F817020FF06C0B4
:1053B0008091E80080FF06C080E008952091E80019
:1053C00022FD1AC080910A0A882389F0853089F06D
:1053D0008091EB0085FD0FC02091E4003091E50045
:1053E00042175307F9F29150E1F684E0089582E004
:1053F000089583E0089581E008950E946C2A0E9438
:10540000742AE0EEF0E0808181608083E8EDF0E0D6
:1054100080818F77808319BCA7EDB0E08C918E7F5F
:105420008C9380818F7E80831092090A08950F9358
:105430001F93CF93DF930E946C2A0E94742AC8EDB9
:10544000D0E088818F77888388818068888388818D
:105450008F7D888319BC10920A0A1092060A109256
:10546000080A1092070A00EE10E0F80180818B7F95
:10547000808388818160888342E060E080E00E94D0
:105480007929E1EEF0E080818E7F8083E2EEF0E02A
:10549000808181608083808188608083F801808141
:1054A0008E7F8083888180618883DF91CF911F9177
:1054B0000F910895E8EDF0E080818F7E8083E7ED25
:1054C000F0E080818160808384E082BF81E080930E
:1054D000090A0E94172A0895E8EDF0E080818E7F86
:1054E00080831092E20008951092DA001092E10099
:1054F00008951F920F920FB60F9211242F933F938E
:105500004F935F936F937F938F939F93AF93BF93CB
:10551000EF93FF938091E10082FF0BC08091E20046
:1055200082FF07C08091E1008B7F8093E1000E94A1
:10553000D82C8091DA0080FF19C08091D80080FFBC
:1055400015C08091DA008E7F8093DA008091D900B7
:1055500080FF96C080E189BD82E189BD09B400FE6B
:10556000FDCF81E080930A0A0E94BE268091E1006F
:1055700080FF19C08091E20080FF15C08091E20099
:105580008E7F8093E2008091E20080618093E20050
:105590008091D80080628093D80019BC85E0809308
:1055A0000A0A0E94D2268091E10084FF2BC08091DC
:1055B000E20084FF27C080E189BD82E189BD89B511
:1055C000982F917080FFFBCF8091D8008F7D8093C2
:1055D000D8008091E1008F7E8093E1008091E2000D
:1055E0008F7E8093E2008091E20081608093E200F0
:1055F0008091060A882309F449C084E080930A0A4E
:105600000E94DB268091E10083FF29C08091E200A7
:1056100083FF25C08091E100877F8093E10082E0D5
:1056200080930A0A1092060A8091E1008E7F80938F
:10563000E1008091E2008E7F8093E2008091E200A1
:1056400080618093E20042E060E080E00E9479297E
:105650008091F00088608093F0000E94CF26FF9137
:10566000EF91BF91AF919F918F917F916F915F91DA
:105670004F913F912F910F900FBE0F901F90189553
:1056800019BC10920A0A0E94CC2670CF8091E300C8
:1056900087FD93E090930A0AB3CF1F920F920FB643
:1056A0000F9211242F933F934F935F936F937F93A8
:1056B0008F939F93AF93BF93CF93DF93EF93FF931A
:1056C000D091E900DF708091EC00C82FC17080FD9F
:1056D000C0E81092E9008091F000877F8093F0008D
:1056E00078940E94912B1092E9008091F0008860DC
:1056F0008093F000CD2BCF70C093E900FF91EF9124
:10570000DF91CF91BF91AF919F918F917F916F91D9
:105710005F914F913F912F910F900FBE0F901F906F
:105720001895AAE2B0E0E7E9FBE20C942F2D8BE09C
:105730009AE02091F100FC012193CF01FAE083313E
:105740009F07B9F70E94FB268091E80083FF1EC1E6
:1057500080910B0A90910C0A9A3008F017C1E92F3A
:10576000F0E0EF52F24D0C941A2D803899F0823807
:1057700009F00CC180910F0A8F70873008F006C1C4
:105780008093E9008091EB0085FB882780F91092D7
:10579000E90006C08091070A9091080A9111826081
:1057A0009091E800977F9093E8008093F100109229
:1057B000F1008091E8008E77E5C0882309F4D3C01A
:1057C000823009F0E3C080910D0A8111D6C080912A
:1057D0000F0A8F702FEF280F263008F0D7C0809364
:1057E000E9002091EB0020FFC8C0933031F4809194
:1057F000EB0080628093EB00C0C09091EB00906161
:105800009093EB0021E030E001C0220F8A95EAF787
:105810002093EA001092EA008091EB008860EACFC2
:105820008111B4C010910D0A1F778091E300807838
:10583000812B8093E3008091E800877F8093E800CC
:105840000E94AD298091E80080FFFCCF8091E300A9
:1058500080688093E30082E0111183E080930A0A5C
:1058600095C08058823008F091C080910D0A9091C7
:105870000E0A8C3D23E09207A1F583E08A838AE239
:1058800089834FB7F894DE01139620E03EE051E2A1
:10589000E32FF0E050935700E49120FF03C0E2951E
:1058A000EF703F5FEF708E2F90E0EA30C0F0C79648
:1058B0008D939D932F5F243159F74FBF8091E8005E
:1058C000877F8093E8006AE270E0CE0101960E9433
:1058D000BC288091E8008B778093E80057C0C09681
:1058E000E7CF60910F0A7091100AAE014F5F5F4FD2
:1058F0000E94FC27BC01892B09F448C09091E80064
:10590000977F9093E80089819A810E941A29E1CFBC
:105910008038E1F58091E800877F8093E8008091EE
:10592000060A8093F10045CF811130C090910D0A95
:10593000923060F58091E800877F8093E800909333
:10594000060A0E94AD298091060A882311F084E09E
:1059500005C08091E30087FDFACF81E080930A0AB9
:105960000E94E62613C080910D0A813079F481E00F
:10597000933009F080E08093080A1092E90080914A
:10598000E800877F8093E8000E94AD298091E800BD
:1059900083FF0AC08091E800877F8093E8008091B0
:1059A000EB0080628093EB00AA96E3E00C944B2D11
:1059B0000895CF9380910A0A8823A1F0C091E9004D
:1059C000CF709091EC00892F817090FD80E8C82BFA
:1059D0001092E9008091E80083FD0E94912BCF7026
:1059E000C093E900CF9108950E94FD2910920A0A00
:1059F0000895E8EDF0E08081806180838AE18A95F6
:105A0000F1F700C08091D9008170089597FB072EAF
:105A100016F4009407D077FD09D00E94572D07FC9B
:105A200005D03EF4909581959F4F089570956195AE
:105A30007F4F0895EE0FFF1F0590F491E02D09941C
:105A40002F923F924F925F926F927F928F929F928E
:105A5000AF92BF92CF92DF92EF92FF920F931F937C
:105A6000CF93DF93CDB7DEB7CA1BDB0B0FB6F8942D
:105A7000DEBF0FBECDBF09942A88398848885F846D
:105A80006E847D848C849B84AA84B984C884DF80DE
:105A9000EE80FD800C811B81AA81B981CE0FD11DC2
:105AA0000FB6F894DEBF0FBECDBFED010895AA1B5F
:105AB000BB1B51E107C0AA1FBB1FA617B70710F0F9
:105AC000A61BB70B881F991F5A95A9F7809590952B
:105AD000BC01CD010895FB01DC0104C08D91019052
