:100000000C94E9010C9406020C9406020C9404234F
:100010000C9406020C9406020C9406020C94060240
:100020000C9406020C9406020C944F2A0C94232B79
:100030000C942A250C9406020C9406020C940602D9
:100040000C9406020C9406020C9406020C94060210
:100050000C9406020C94CD250C9406020C94060216
:100060000C9406020C9406020C9406020C940602F0
:100070000C9406020C9406020C9406020C940602E0
:100080000C9406020C9406020C9406020C940602D0
:100090000C9406020C9406020C9406020C940602C0
:1000A0000C9406020C9406020C94060214001A002A
:1000B000090013000A0004001500160017000700CD
:1000C0001D001B000600190005000057E10000009C
:1000D000000000000D000F0018001C002A000B009B
:1000E000110008000C0012000E001000360037004E
:1000F00034412C00025700000000000029002202B9
:100100001F02230231022B0037002D023800250286
:10011000E2003C003A003B0035000057E1000000DF
:10012000000000002D002400250026002A002E02D9
:1001300021002200230028002E001E001F002000A6
:1001400001002C002700000000000000290021020F
:100150002002250224022B00360226022F022F0045
:10016000E20043004400450035000057E100000074
:10017000000000004A00500152004F012A004D00CB
:10018000500051004F0028002E0256002D022E0074
:1001900038002C0001000000000000002900FE00D3
:1001A000F900FF00A9002B00FB00FA00FC00AE00E4
:1001B000E300470046004800B25D0050E100000047
:1001C00000000000F5005000ED004F002A00F40090
:1001D000EF00EE00F0002800E600E7006500E40014
:1001E000015DF100F2000000000000003600370061
:1001F00000000000000000002A2B28000000000082
:1002000000000000000000000000002900000000C5
:100210002C1E3420212224342627252E362D373833
:10022000271E1F202122232425263333362E37383C
:100230001F0405060708090A0B0C0D0E0F101112FA
:10024000131415161718191A1B1C1D2F3130232DC6
:10025000350405060708090A0B0C0D0E0F101112C4
:10026000131415161718191A1B1C1D2F3130354C75
:10027000000000000000000000000000000000007E
:10028000000000000000000000000000000000006E
:10029000000000007E0F00D4FFFFFFC700000078C1
:1002A0001A034600650072007200690073002000A6
:1002B00073007700650065007000000008034400CB
:1002C0005000420000000403090409023B0002013F
:1002D00000A0FA0904000001030101000921110135
:1002E0000001224000070581030800010904010004
:1002F0000103000000092111010001227B00070514
:1003000082032000011201000200000008ABC23984
:100310003901000102000105010902A1018502095C
:1003200001A1000509190129081500250195087585
:100330000181020501093009311581257F9502757A
:1003400008810609381581257F9501750881060504
:100350000C0A38021581257F950175088106C0C0F9
:1003600005010980A101850319012AB7001501269D
:10037000B700950175108100C0050C0901A1018528
:100380000419012AA002150126A002950175108109
:1003900000C005010906A101050719E029E71500BC
:1003A00025019508750181029501750881010507F0
:1003B000190029FF150026FF009506750881000524
:1003C000081901290595057501910295017503919B
:1003D00001C011241FBECFEFDAE0DEBFCDBF18E0B1
:1003E000A0E0B1E0E2E6FBE502C005900D92AA3282
:1003F000B107D9F729E0AAE2B8E001C01D92AD3BF0
:10040000B207E1F70E9405150C94992D0C94000099
:1004100080913C01823011F40E941A0810923C0134
:100420000895FC018281813021F0823021F081E049
:10043000089582E0089583E008950E941102809358
:100440003C01823019F0833029F0089582E00E9447
:100450000A08089583E0FBCF823B9D4561F4FB01D0
:100460008281882349F080910001909101010E94CE
:10047000511A80E0089581E008959C013A95211574
:100480003F4150F5FC01EE27F170BC016627727008
:10049000AC01442754709C012227387094FF0EC091
:1004A00080E1EF2B09F480E0672B09F08062452B97
:1004B00009F08064232B89F08068089581E0EF2B98
:1004C00009F480E0672B09F08260452B09F0846015
:1004D000232B19F08860089580E00895CF93DF936F
:1004E000EB010E943D02FE010995DF91CF91089535
:1004F000CF93DF93EC01805E9109089720F06AEEBC
:1005000074E0209711F46CED74E0CE010E946E024D
:100510008C2F0E943D04DF91CF910895CF93DF93FC
:10052000EC010E948904CE01805E9109089720F0B9
:1005300061EF74E0209711F463EE74E0CE010E9445
:100540006E02DF91CF9108950F931F93CF93DF93A6
:100550008C01EB010E947802209741F4C8010E94AF
:100560008E02DF91CF911F910F9108958FE99FE047
:100570000197F1F700C000002197EECF70E060E036
:100580008933910511F460E570E00E94A40208959A
:1005900081E008950E942C02089508950E94CD02E2
:1005A0000895A5E0B0E0E7EDF2E00C94052D498355
:1005B0005A833091310889819A81311119C066239B
:1005C00099F0222389F00E94D008182F682F898182
:1005D0009A810E94AC0869817A81812F0E94C70F9D
:1005E0002596E3E00C94212D0E94BE08182FF3CF2E
:1005F0000E94D00869817A81F1CFFC01262F868183
:100600009781009739F4408151816281738184819F
:100610000E94D1020895CF93DF93EC0161E00E9424
:10062000FD02BE010E94121CDF91CF910895CF936D
:10063000DF93EC0160E00E94FD02BE010E94CE0249
:10064000DF91CF9108950E94541108950E9458118E
:10065000089508950E940E050E9429032FEF84E358
:100660009CE0215080409040E1F700C000000895D8
:100670000E942A030E94F12508950E942A030E94E5
:10068000022608950F931F93CF93DF938C0161E0AF
:100690000E94FD02EC01B8010E94C821B801CE0100
:1006A0000E94CA02811106C080E0DF91CF911F91A4
:1006B0000F910895B801CE010E94FD1E8823A1F379
:1006C000B801CE010E94E921882371F3B801CE015F
:1006D0000E94E517882341F3B801CE010E94102142
:1006E000882311F3B801CE010E9420188823E1F27B
:1006F000B801CE010E94B81D8823B1F2F8018281B1
:10070000882361F0CB35FDE5DF0701F158F4C11511
:10071000ECE5DE0791F0CF3DDC4591F0C8010E9489
:10072000C802C3CFCD358DE5D80769F090F0C83A3F
:10073000DD45A1F70E943D03B7CF0E943803B4CF37
:100740000E94EF0DF7CF0E942D0DE8CF0E94370DCC
:10075000E5CF0E943B0DE2CF0E9407250E94C9030E
:1007600008950E94CD030E940C25089508950E94CB
:10077000B603089581E008950E94BA03089508958C
:10078000CF93C82F0E94B7038C2F0E94BC03CF9138
:10079000089580E00E94C00308950E942A240E94C8
:1007A000C0030895CF930E942A24C82F80912C085B
:1007B0008C1779F0C0932C080E94962560932D0821
:1007C00070932E0880932F08909330088C2F0E94EE
:1007D000C003CF910895ADE0B0E0E1EFF3E00C94F9
:1007E000062D49875A876B877C878D878C859D85E9
:1007F000892B21F0CA0189238F3F79F58B858111DF
:100800000E94580C1D821E821F82188685E0FE0100
:100810003996DE01119601900D928A95E1F78C814F
:100820009D81892B71F429813A814B815C816D8195
:100830007E818F8198850E94700B2D96E2E00C944A
:10084000222D89819A8189238F3F69F3CE010196F8
:100850000E940B038111E7CFF0CF80913208909175
:10086000330801969093330880933208C7CFFC0178
:10087000808191810E9402090895CF93C82F882317
:10088000B9F08CEF8C0F813AA8F46C2F80916D0138
:1008900090916E010E949824882329F08C2F0E9449
:1008A0000F0C0E94850C8C2F0E94070C0E94850C57
:1008B000CF91089580E28C0F883048F4C77081E0B2
:1008C00001C0880FCA95EAF70E94350CEFCFEBE51F
:1008D000EC0FE33040F4F0E0EC50F84F808190E012
:1008E0000E945A24E5CFE8E5EC0FE73150F4F0E040
:1008F000EE0FFF1FEA53F84F808191810E94702410
:10090000D7CFCD3EA8F28C2F0E9489150E943D16AC
:10091000CFCF882379F19CEF980F913A28F40E9469
:100920000F0C0E94850C089590E2980F983050F4B7
:10093000877091E001C0990F8A95EAF7892F0E948C
:100940003B0CEFCF9BE5980F933028F490E080E0CC
:100950000E945A24089598E5980F973128F490E062
:1009600080E00E94702408958D3E20F00E94DD15E5
:100970000E943D1608951F93CF93DF93182FEB012C
:100980000E943D04209739F4812F0E948904DF9151
:10099000CF911F9108958FE99FE00197F1F700C073
:1009A00000002197EFCF70E060E0893311F460E53B
:1009B00070E00E94BB040895882321F00E94350C4A
:1009C0000E94850C0895882321F00E943B0C0E9410
:1009D000850C0895882321F00E944B0C0E94850C01
:1009E0000895882321F00E94510C0E94850C0895DF
:1009F00090E080E00E945A2490E080E00E94702401
:100A00000E94580C0E94850C0E9459160E943D16A7
:100A100008950E94170C0E94F80408950E94450C46
:100A20000E940905089592959F70963091F058F4B0
:100A3000925F9F70923058F4803F19F030F4883EF6
:100A400030F481E008959A5FF4CF843FD1F380E0E1
:100A50000895883EB0F3813FD1F7F3CFFC01838145
:100A60009481892B29F08081918189238F3F39F4EA
:100A700080E008950E94D60E0E9413050895868195
:100A800097810097B9F7808191810E940209F4CF84
:100A9000B0E0A0E0EEE4F5E00C94FF2C6C01EB017B
:100AA000FC011281058102950F700E942B0CE82E2B
:100AB0008823B9F0E12E1123A1F08D2F807F80349F
:100AC00021F080E28C0F8830D0F08091920982FF73
:100AD00016C082E00E94FC0C0E942B0C91E0E82ED4
:100AE000E926BD2EB2942FE0B222FBE0FB1508F4FC
:100AF00067C0EB2DF0E0E556F24D0C94F02CE12CA4
:100B0000F0CF2D2F2F70F22E8D2F807F19F0F294C1
:100B100090EFF922112399F0FF2059F080E28C0F19
:100B2000883010F0C11107C08F2D0E94350C0E9433
:100B3000850C8C2F3DC08F2D0E944B0CF8CF8C2F35
:100B40000E948904FF20E1F180E28C0F883010F0D0
:100B5000C11104C08F2D0E943B0C03C08F2D0E9439
:100B6000510C0E94850C2CC03D2F3F70F32E8D2F11
:100B7000807F803219F0F29480EFF822CC2351F07C
:100B8000C13009F465C0112309F46DC0002309F4D4
:100B900064C0CFCF8091920982FD3CC0112359F0EF
:100BA000FF2029F08F2D0E94350C0E94850C80E0DB
:100BB0000E943D0405C080E00E948904F110CACF64
:100BC000EB2DE850FF0B349720F40E942A240E945A
:100BD000C003CE010E941305811161C11092330838
:100BE00010923208EE2089F00E94270C80FD0DC083
:100BF000F60112820E94210C0E940A08C6010E947E
:100C000080070E94210C0E941A08CDB7DEB7E9E0E8
:100C10000C941B2D112381F0011106C00E94670C5A
:100C20008F290E94DC04CCCF0130C1F70E94670CF1
:100C30008F290E946E0CC4CF011106C00E947B0C4C
:100C40008F2D0E94E304BCCF013009F4B9CFF6CF59
:100C5000112329F0063008F0B3CF8F2DE2CF0530F5
:100C600008F0AECFEDCF002359F3C93349F48FEF2D
:100C700097EEE3E081509040E040E1F700C00000D3
:100C80008C2F0E9489049CCF8D2F8695869583702A
:100C900061F0813009F094CFCE019370111102C040
:100CA00090E080E00E9470248BCFCE0193701111F0
:100CB00002C090E080E00E945A2482CF8C2F112342
:100CC00029F00E9489150E943D167ACF0E94DD15F9
:100CD000FACF8D2F8370A9F5111172CF2C2F229589
:100CE00026952770220F220F4C2F4F7050E0022EB6
:100CF00002C0440F551F0A94E2F790E080E0C4FF61
:100D000009C08FE090E002C0880F991F2A95E2F792
:100D1000809590952D2F269526952370842B952BC5
:100D2000223049F058F4213019F00E94D80748CFFA
:100D30000E94CF0745CF0E94E10742CF0E94CC0717
:100D40003FCF8695112311F08D2F8170882309F4F0
:100D500037CF2C2F229526952770220F220F4C2F4C
:100D60004F7050E0022E02C0440F551F0A94E2F764
:100D700090E080E0C4FF09C08FE090E002C0880FDF
:100D8000991F2A95E2F7809590952D2F2695269507
:100D90002370842B952B223049F058F4213019F020
:100DA0000E9445080DCF0E943C080ACF0E944E08C1
:100DB00007CF0E94F00704CFFD2FFF70FF2E1123F5
:100DC00029F08F2F0E940A088C2F2BCF8C2F0E9486
:100DD000E3048F2D0E941A08F3CEC23F41F160F464
:100DE000C03FB9F0C13F81F0112309F448C001119F
:100DF000A0CE8D2F8F711FC0C33F01F1C43FA1F75B
:100E00008091920982FD24C08D2F8F71112311F3DF
:100E100012C0112341F0053008F0D2CE8D2F8F7112
:100E20000E942C08CDCE063008F0CACEF7CF8D2F09
:100E30008F711111CFCF0E940A08C2CE112329F061
:100E40008D2F8F710E94FE07BBCE0E94F907B8CE8E
:100E5000112359F02D2F2F71F22E822F0E940A0894
:100E600063E08F2D0E94DE0CABCE81E00E94FC0C73
:100E7000023008F4A5CE82E00E94FC0CA1CE002333
:100E800059F0C93309F0FCCE3FEF87EE93E03150C3
:100E900080409040E1F7F2CE8D2F8F719BCF1123D0
:100EA00019F001119BCE9ECE011198CE809132088F
:100EB00090913308029709F091CE8C2F0E94D304B1
:100EC0008DCE0F931F93CF93DF93EC018E819F8183
:100ED000009781F00E94D60E8C010E9457080E9454
:100EE000CB07B801CE010E944805DF91CF911F9139
:100EF0000F910895688179818A810E940D09ECCF54
:100F0000CF93DF93EC018B819C81892B29F0888121
:100F1000998189238F3F51F4DF91CF910895CE01BC
:100F20000E946107CE010E941703F6CFCE010E94F6
:100F300042038111F4CF0E942B0C882369F38A812C
:100F4000882351F38091920982FFE6CF82E00E94CC
:100F5000FC0CE2CFA5E0B0E0E0EBF7E00C94062D4E
:100F60002596E2E00C94222DA8E0B0E0EAEBF7E051
:100F70000C94062D2896E2E00C94222D08950E94F0
:100F8000BE0708950E94BF0790934B0880934A08BC
:100F90000E94F804089508950E94C20708952091C0
:100FA0004A0830914B08822B932B0E94C207089568
:100FB00020914A0830914B08822393230E94C20754
:100FC000089520914A0830914B08822793270E9468
:100FD000C20708950E94BE0708950E94EA07089577
:100FE0000E94ED0790934908809348080E94F804F6
:100FF000089590E080E00E94F007089521E030E03D
:10100000A90102C0440F551F8A95E2F7CA010E9448
:10101000F007089521E030E002C0220F331F8A95C7
:10102000E2F78091480890914908822B932B0E9407
:10103000F007089521E030E002C0220F331F8A95A7
:10104000E2F72095309580914808909149088223D5
:1010500093230E94F007089521E030E002C0220FA0
:10106000331F8A95E2F780914808909149088227BA
:1010700093270E94F007089520914808309149086D
:10108000822B932B0E94F0070895209148083091FD
:101090004908822393230E94F0070895209148086D
:1010A00030914908822793270E94F00708950895F8
:1010B000262F277091E001C0990F2A95EAF723E0C7
:1010C000769567952A95E1F7660F771F660F771F6C
:1010D000FA01E60FF71F50E040E0682F70E08191C1
:1010E000DF0111979B01042E02C0369527950A94C3
:1010F000E2F7217021952827292328272C934F5F79
:101100005F4F4430510559F70895A82FA77023E089
:10111000969587952A95E1F7880F991F880F991F53
:10112000FB01E80FF91F50E040E080E0219130E042
:101130000A2E02C0369527950A94E2F721703327CC
:10114000042E01C0220F0A94EAF7822B4F5F5F4FF3
:101150004430510559F70895262F983070F48530A2
:1011600060F4682F70E085E0989F600D711D112478
:1011700044E358E0822F0E9458080895292F9830A0
:1011800068F4853058F490E064E378E035E0239F1C
:10119000800D911D11240E948508089580E0089516
:1011A000B0E0A0E0E6EDF8E00C94FF2C7C010091AB
:1011B00048081091490880914A0890914B08082BE3
:1011C000192BCFE0D0E0CC24C394D12CBC2EC60187
:1011D0000C2E02C0880F991F0A94E2F780239123F6
:1011E000892B49F4219790F7B12C8B2DCDB7DEB721
:1011F000E9E00C941B2DB7018C2F0E94E20F0197A0
:1012000089F3F3CFCF93DF93EC010E94D008BE01A6
:101210000E94E20FDF91CF9108951F93CF93DF9348
:10122000EB0190913108992339F0CB010E9402091A
:10123000DF91CF911F910895882369F0CB010E941F
:10124000D008182F682FCE010E94AC08BE01812F54
:101250000E94E20FEDCFCB010E94BE08182FF6CFFF
:10126000CF93DF93C0914C0880914D088C1303C03D
:10127000DF91CF910895D0E0FE0183E0EE0FFF1FD4
:101280008A95E1F7E25BF74F2081318142815381FA
:1012900064817581868197810E94B4072196C77009
:1012A000E3CF20918E0830918F08409190085091A3
:1012B00091086091920870919308809194089091A0
:1012C00095080E94B4070895CF93DF938091930807
:1012D000807F09F049C080919008882309F444C0B8
:1012E00080914C08C0914D0860918E0870918F08D4
:1012F000A0919108B0919208D62FD723C817A1F1D9
:1013000090E0109711F0DF3F19F401968770F6CF47
:101310009C0143E0220F331F4A95E1F7F901E25B9C
:10132000F74F41814713F1CF40814613EECF428101
:101330004111EBCF438154814A1B5B0B4C3D51055E
:1013400020F7809193088F70806180939308F90152
:10135000ED5AF74F80818F70806180838EE898E02E
:101360000E9480070E943009DF91CF910895A5E186
:10137000B0E0EDEBF9E00C94FE2C8C0185E0F80177
:10138000DE01519601900D928A95E1F7F801E28015
:101390004EE8C42E48E0D42E6091910870919208D6
:1013A0006115710509F480C190918E0820918F0814
:1013B000892F82238F3F09F477C140815181A38017
:1013C000B480F0909008F501E61BF70BFF2009F4BC
:1013D00020C180919308382F307FEC3DF10508F053
:1013E000CAC0311177C0FE2C251320C094131EC033
:1013F0006091940870919508F801268137816217F1
:101400007307A1F4E11012C08F708061809393087C
:101410000E945109C6010E94800780919308F8013B
:1014200085838F2D6596EAE00C941A2DA114B104E2
:1014300029F0842F85238F3F09F04FC180E0F82FDA
:10144000F170DF2E80FF3CC080914C0820914D0848
:10145000821315C0498B5A8B89899A890E94020987
:10146000292F22952F702230F8F0243020F59F701C
:10147000F9F0F8019581907FD9F4D12C1FC090E04C
:10148000FC0133E0EE0FFF1F3A95E1F7E25BF74F07
:101490003181351306C03081341303C032813E11CF
:1014A0000FC001968770D4CF9F7011F0882329F365
:1014B000805E883010F3C8010E948007FD2CB1CFF8
:1014C000EE2009F4AECF8091930881608093930859
:1014D000F12CA7CF25131DC094131BC04091940875
:1014E00050919508F801268137814217530789F4F6
:1014F000E1100FC08583C8010E94800788E0F801D1
:10150000AEE8B8E001900D928A95E1F70E9451098A
:1015100088CFC8010E942E05882349F1EE2039F1B9
:10152000809193088032A0F020918E0830918F082E
:101530003A8729871B86BD86AC868E878091940862
:1015400090919508988B8F87CE0109960E9480070D
:1015500088E0F801AEE8B8E001900D928A95E1F7D5
:101560000E9464090E945109FF24F3945ACFC801D4
:101570000E948007F9CF311113C07A2DBD8AAC8A41
:101580006E2D8D890E94AA078EE898E00E94800740
:1015900088E0F60111928A95E9F70E94510998CFE7
:1015A000251318C0941316C04091940850919508C3
:1015B000F801268137814217530761F4E1100AC010
:1015C0008583C8010E94800788E0F60111928A9500
:1015D000E9F727CFC8010E942E05882341F2EE20AB
:1015E00031F280919308803208F4B2CF20918E08B6
:1015F00030918F083A8329831B82BD82AC828E830F
:10160000809194089091950898878F83CE010196D8
:101610009DCFEC3DF105D8F5FE2CEE2009F4A7CFC7
:10162000251327C0941325C0209194083091950864
:10163000F8018681978128173907D9F4909193088A
:1016400090FD0EC0907F61F0809193088583903F5C
:1016500009F451CF982F907F905F8F70892B4ACFDC
:1016600088E0F801AEE8B8E001900D928A95E1F7C4
:10167000D8CEC8010E942E0581116ACF80919308AF
:10168000816080939308C8010E948007CACE7A2D9A
:10169000BD8AAC8A6E2D8D890E94AA0788E0F6016A
:1016A00011928A95E9F732CFEE2009F460CFC80194
:1016B0000E942E05F82E882309F459CF88E0F801FE
:1016C000AEE8B8E001900D928A95E1F78EE898E0D7
:1016D0000E9437040E94640919CF81E08E25AFCEA5
:1016E000A0E1B0E0E6E7FBE00C94062D29873A87FD
:1016F0004B875C876D877E878F87988BCE01099695
:101700000E94B7098823A9F08C859D85892B39F023
:1017100029853A85822F83238F3F09F06FC08091FE
:101720004C0890914D08891343C06096E2E00C94F8
:10173000222D88E0FE013996DE01119601900D926E
:101740008A95E1F78C859D85892B49F389859A8552
:1017500089238F3F21F3A0914D08B0E0CD01019680
:101760008770992720914C082817190671F40E9458
:101770000E0510924D0810924C0888E0EEE8F8E053
:10178000DF011D928A95E9F7CACF93E0AA0FBB1F2C
:101790009A95E1F7A25BB74F98E0FE013196019070
:1017A0000D929A95E1F780934D080E943009B7CFCA
:1017B000B8E08B9FC0011124825B974F0E94B7094C
:1017C000882309F4B2CFE0914C0828E0E29FF001B1
:1017D0001124E25BF74F2081318142815381648182
:1017E0007581868197810E94B40780914C0890E0B2
:1017F00001968770992780934C0891CF4B855C8523
:101800006D857E858F8598890E94B40788CF682F63
:1018100080916D0190916E010E94CE240895682FF1
:1018200080916D0190916E010E94D1240895809164
:101830006D0190916E010E94D424089580919F08BB
:10184000089580919E088595859585950895809148
:101850009E088770089590919E08977081E009F422
:1018600080E008958091AC0808959091AC08892B90
:101870008093AC08089580959091AC08982390933C
:10188000AC0808958093AC0808951092AC080895B0
:101890008091AB0808959091AB08892B8093AB0899
:1018A000089580959091AB0898239093AB08089584
:1018B0001092AB0808958093AA0808951092AA0880
:1018C00008958093A90808951092A9080895809119
:1018D000A008089508950E946A0C089590919209B5
:1018E00092FF08C09091A008981721F08093A0085B
:1018F0000E946B0C08958091A008882329F0109213
:10190000A00880E00E946B0C0895CF93DF93E091D4
:101910006D01F0916E018091AC088083E0916D01C2
:10192000F0916E0180819091AB08892B808390911A
:10193000A008992381F0E0916D01F0916E01808102
:10194000892B808380916D0190916E010E94862485
:1019500081110E947B0CE0916D01F0916E018091EC
:10196000A908982F9095808189238083E0916D014B
:10197000F0916E0180819091AA08892B8083C0919B
:101980006D01D0916E0148E050E066E978E0CE014B
:101990000E94412D892B59F088E0FE01A6E9B8E0AC
:1019A00001900D928A95E1F7CE010E944124DF91CA
:1019B000CF91089508950E94DA0C089590919209AC
:1019C00092FF11C098E0899F90011124622B6093CF
:1019D0009E080E940A0880919E08859585958595A8
:1019E0000E94DB0C08950E940A08089510929E0838
:1019F00080E00E94DB0C089590919E0880958923D9
:101A000080939E08282F277091F4282F082E000C11
:101A1000330B9217130659F09091920992FF07C069
:101A20008595859585950E941A080E94F60C089563
:101A30009091920992FB222720F9281769F080FBE8
:101A400092F99093920980919109909192090E9444
:101A5000690D82E00E94FC0C08958091920982FB3E
:101A6000882780F991E089270E94180D089581E068
:101A70000E94180D089580E00E94180D08956FEFE0
:101A80007FEF90E080E00E94832D089590E080E059
:101A90000E945F2D21E0883E9E4F09F020E0822FBA
:101AA000089582E090E00E94572D089583E090E031
:101AB0000E94572D0895CF9384E090E00E94572D07
:101AC000C82F82E290E00E94572D982F8C2FCF9143
:101AD0000895CF93C92F682F84E090E00E94652D70
:101AE0006C2F82E290E00E94652DCF910895AB01AA
:101AF000BC018FE090E00E94772D0895AB01BC01FE
:101B000083E190E00E94772D089560E070E0CB01C2
:101B10000E947E0D089560E070E0CB010E94770D79
:101B20000E94850D089568EE7EEF90E080E00E94AF
:101B3000832D60E082E090E00E94652D60E083E00C
:101B400090E00E94652D10924B0810924A0860E0C8
:101B500084E090E00E94652D64E082E290E00E94C3
:101B6000652D60E085E090E00E94652D60E086E0F4
:101B700090E00E94652D6FEF87E090E00E94652D58
:101B800040E050E0BA0188E090E00E94772D60E0EC
:101B90008DE090E00E94652D40E050E0BA0188E1C0
:101BA00090E00E94772D60E087E190E00E94652D33
:101BB00040E050E0BA018CE190E00E94772D70E0A7
:101BC00060E080E290E00E94832D40E050E0BA01A6
:101BD00088E190E00E94772D0E948B0D08950E946D
:101BE000930D08958EE090E00E94572D91E08111B1
:101BF00001C090E0892F0895682F8EE090E00E9448
:101C0000652D08950E9496256093BB087093BC08CB
:101C10008093BD089093BE086093B7087093B8088E
:101C20008093B9089093BA080895089508950E9482
:101C3000160E089508950E941A0E08958CE091E101
:101C40000E9420240E94150E0E94170E08950E94E3
:101C5000F6120895089508950E942A0E0E942B0EF0
:101C600008950E9435110E94BF030E942317089512
:101C70000E9481250E94CC100E940E130E94231204
:101C80000E94310E0E94E1160E941E130E941B0E3C
:101C900008950E94F612882331F00E94C11E0E940E
:101CA00044220E94CB1B0895AAE0B0E0EAE5FEE0E2
:101CB0000C94FE2C0E9477128FEAA82E88E0B82E92
:101CC000750110E0F70101917F01812F0E945B11E6
:101CD0001F5F183009F440C00817A1F38091BF08B6
:101CE00081FD0E9461110E94270EC82E10E0812FF5
:101CF0000E945B11082FF50181915F01081731F1F6
:101D0000D02ED826F12CEE24E3948D2D8E21B1F027
:101D1000CC20A1F0FE821F8391E0802F8E2109F458
:101D200090E098870E948A258160782F9A8789871A
:101D30004E815F8168858A850E94EB03F394EE0CE7
:101D4000F5E0FF12E2CFF501319700831F5F1830F5
:101D500071F60E94020E20C00813C0CF0E948A258F
:101D60008C018091AD089091AE0808171907A1F079
:101D70008FEF89838A831B820E948A258160782F56
:101D80009D838C8349815A816B818D810E94EB03F5
:101D90001093AE080093AD080E94490E0E9475167C
:101DA0000E94D2032A96EAE00C941A2DCF93DF9377
:101DB0000E94E70FEC01811521E5920708F042C06F
:101DC000811530E5930708F09FC0883E910530F5F6
:101DD000803E910508F094C0883A910588F4853AD0
:101DE000910508F086C08130910509F489C00097FB
:101DF00009F486C0049708F083C0D0E0C0E080C03A
:101E00008F3B9105D0F7C85AD0E0CC0FDD1FC950E9
:101E1000D84F0990D881C02DD46472C0811540E29A
:101E2000940750F4C11581E0D80708F069C0CD3E91
:101E3000D10518F3D06564C081159044F0F2DF70CD
:101E4000D06A5EC0811535E5930718F5811544E524
:101E5000940708F085C0C11583E5D80708F06CC069
:101E6000C11522E5D20708F462C0CE01837099271C
:101E700021E030E002C0220F331F8A95E2F7C695B9
:101E8000C69580E2C89FE0011124C22BD32BDC68E9
:101E900037C0811539E59307A8F4811548E5940703
:101EA00008F063C0C11586E5D80708F0A6CF8C2FCF
:101EB0000E948910C82FD0E0DC2FCC27CC27DF71FF
:101EC000D0621EC081152AE5920708F453C09056CF
:101ED0008115904208F091CF8D2F8F710E9489104B
:101EE00090E0982F882788279F719C012C2BE9016F
:101EF000E7CFC55AD0E0CB5DD74FC881D0E0D064E2
:101F0000CE01DF91CF9108958370992721E030E0D1
:101F100002C0220F331F8A95E2F7C695C69540E2AC
:101F2000C49FE0011124C22BD32BDD68E9CFDC2F45
:101F3000CC27C16FD06AE4CFCE018370992721E00E
:101F400030E002C0220F331F8A95E2F7C695C6958E
:101F500040E2C49FE0011124C22BD32BDA68D0CF1A
:101F6000D82FCC27C46FD06ACBCFD82FCC27C06F47
:101F7000D06AC6CF8F700E94891034E0D695C7957D
:101F80003A95E1F7CF709C2FEC01D069B9CF972F2C
:101F90007830A8F4653098F470E025E0929F600DE9
:101FA000711D1124FB0198E2899FE00DF11D1124A0
:101FB000EE0FFF1FE455FF4F85919491089580E047
:101FC00090E008950E94C70F0E94D60E08958238AF
:101FD0009105B9F1B0F48133910509F47DC048F45D
:101FE0008932910509F46DC08A32910509F47BC0EC
:101FF00008958533910509F45FC08933910509F18E
:102000000895833E9105D9F138F4803E910529F178
:10201000823E910579F10895863E9105D9F1873E7A
:10202000910509F43EC0843E910541F52091920945
:1020300021FF24C08091910984FD19C087EE90E0B2
:10204000089520919109237009F05AC020919209B6
:1020500023FF14C089E290E008952091910920FDAA
:1020600038C03091920930FF09C024FF43C090E08E
:1020700080E008952091910922FDF7CF08952091E5
:10208000910922FD3AC03091920930FD39C024FFF8
:10209000F5CFEDCF2091910923FFF0CF24FDE7CFBD
:1020A000CDCF2091910923FD2EC03091920931FFAF
:1020B000EECF84EE90E008952091910925FFDECFC8
:1020C000C9CF2091910925FD21C02091920923FFBC
:1020D000D5CF89E390E0D2CF2091910926FFCECFD2
:1020E0008AE290E008952091910926FFC7CF81E30D
:1020F00090E0089583EE90E0089582EE90E00895D8
:1021000080EE90E0089586EE90E0089585E390E0FB
:1021100008959091910992FF06C0282F28712830C8
:10212000F9F4877F846093FF06C0282F2871283137
:10213000F1F4877E84612091920920FF06C0382F38
:1021400038713830D9F4877F816021FF06C0282F8D
:1021500028712831D1F4877E816194FD877E0895AE
:10216000282F24712430F9F68B7F8860DCCF282F4C
:102170002471243101F78B7E8861DDCF382F3171D6
:10218000313019F78E7F8860E0CF282F21712131FF
:1021900021F78E7E8861E1CF10928D0910928E0911
:1021A00010928F09109290090895CF92DF92EF92CA
:1021B000FF926B017C010E94F61281110EC00E94F9
:1021C0009625C61AD70AE80AF90AC0928D09D09254
:1021D0008E09E0928F09F0929009FF90EF90DF90C6
:1021E000CF9008950F931F930E94F612882329F031
:1021F0000E9496251F910F9108950E9496250091A7
:102200008D0910918E0920918F0930919009600FEE
:10221000711F821F931FEECF80E008950E943F0D33
:102220000895CF930E9477128FE39CE90197F1F70D
:1022300000C000000E9477120E94F312C4E08111D6
:10224000C0E08C2F0E945B1190E002C095958795AD
:10225000CA95E2F780FF04C00E940E110E94F1258A
:10226000CF9108950E94111108950E94460D811189
:1022700002C00E94EF0D0E94510D8093BF080E9482
:102280005B0D90939209809391090E9432110E94F4
:10229000560D90E00E94CC07809148089091490823
:1022A0000E94ED07089508950E945311089508951E
:1022B0000E9457110895E82FF0E0E456F64F808110
:1022C0000895089508950E9462110895EF92FF9273
:1022D0001F93CF93DF9300D000D0CDB7DEB70E941D
:1022E000F612182F6091A409882309F447C01982B7
:1022F0001A821B821C82862F90E09E012F5F3F4F27
:102300007901B9018456964F0E942C138823E9F075
:102310008091930990E044E050E0B7018456964FD5
:102320000E94412D21E02093C008892BC9F410E0C0
:102330000E942603812F0F900F900F900F90DF9136
:10234000CF911F91FF90EF9008958091C00888234E
:1023500071F384E0F70111928A95E9F71092C008B1
:10236000E0919309F0E0E456F64F89819A81AB81C0
:10237000BC8180839183A283B383DACF70E06456FB
:10238000764F8091930990E08456964F0E94B31344
:102390000E946311CFCF1F93CF93DF932FE631E0DD
:1023A000C1E0D0E0D90150E040E08D918F3F91F045
:1023B000E82FE295EF70F0E011A18F70BE0101C02F
:1023C000660F8A95EAF7962F9095912391A382A1A3
:1023D000862B82A34F5F5F4F4530510531F72B5F4E
:1023E0003F4F81E023383807E9F6DF91CF911F9105
:1023F0000895CF93DF93AC01A62FB0E085E0689FEE
:10240000F0011124E159FE4F75E081E060E0919107
:102410009F3F81F0C92FC295CF70D0E028A130E056
:102420009F7002C0359527959A95E2F7982F20FD69
:1024300090E0692B880F715051F7A40FB51F6C9372
:10244000DF91CF910895A4E1B0E0E9E2F2E10C94CC
:10245000062D80918301811126C084E1EDECF1E02D
:10246000DE01119601900D928A95E1F7FE013196F9
:10247000AFE6B1E0CE01459620812C9321811196E3
:102480002C931197228112962C93129723811396E5
:102490002C931397248114962C93149735961596A4
:1024A0008E179F0749F78091830194E0811190E096
:1024B0009093A40984E0891B809393090E94CB1117
:1024C00088E0ECE9F9E0DF01982F1D929A95E9F791
:1024D000E4E9F9E0DF011D928A95E9F784E00E94C2
:1024E000B5120E9423036496E2E00C94222DA8E02A
:1024F000B0E0EDE7F2E10C94032D8E010F5F1F4F6A
:1025000088E0F80111928A95E9F7F12C6F2DC80146
:102510000E94F911F394F4E0FF12F8CF48E050E084
:10252000B80184E999E00E94412D21E0009709F467
:1025300020E0892B41F088E0F801A4E9B9E001909E
:102540000D928A95E1F76091A40970E06456764F88
:1025500044E084E999E00E94B612182F0E946611A7
:10256000812B2896E5E00C941F2D0895CF92DF92E1
:10257000EF92FF920F931F93CF936C017B01042F77
:10258000222349F081E08093C3080E948A2590931A
:10259000C2088093C108C091C308C1110AC0C0E03D
:1025A0008C2FCF911F910F91FF90EF90DF90CF90E4
:1025B00008958091C1089091C2080E94A2250597B4
:1025C00070F310E0A801B601C7010E94412D892BCC
:1025D00041F0A801B601C7010E944E2D1092C30818
:1025E000DFCFC0E0FBCF0E94F20D08958091C608B6
:1025F000811107C00E94CF2C882351F081E0809385
:10260000C60881E09091C608913009F080E00895F5
:1026100082E08093C6080E94CA2CF3CF0E94460D28
:10262000811102C00E94EF0D0E94F312809383017A
:102630000E94F61281110E94621308950E94F61200
:10264000811102C00E946513089581E09091C7082E
:102650009A3008F080E008950F931F93CF93DF9393
:10266000EC018B018091C7088A30B8F4B801CE0123
:102670000E94B013C82F811122C08091C7088F3FDC
:10268000B9F40E948A259093C5088093C4088C2FC2
:10269000DF91CF911F910F9108958091C40890917F
:1026A000C5080E94A225843F914000F7C0E0EFCF0B
:1026B0008F5F8093C7088A3020F7C1E0E8CF10927F
:1026C000C708E5CF0E94BE2208950E94C122089546
:1026D000B0E0A0E0EEE6F3E10C94012D7901C82F03
:1026E000880FDD0B41155105A9F0FE0193E0EE0FB7
:1026F000FF1F9A95E1F7EC57FE4F81819281885335
:10270000974F208130E04217530708F49A01A9013E
:102710000E944E2DCE010E94AA23D82E8823D1F0EC
:1027200001151105B9F083E0CC0FDD1F8A95E1F7A3
:10273000FE01EC57FE4F438150E00417150708F4E3
:10274000A801CC57DE4F6C817D816853774FC7015C
:102750000E944E2D8D2DCDB7DEB7E7E00C941D2DD8
:102760000E94AA1408950E94C1140895A4E0B0E044
:10277000ECEBF3E10C94042D6091DD087091DE0820
:102780008091DF089091E0080E94B12511E0643645
:1027900071058105910518F10E94F2106E5F7F4F5F
:1027A0008F4F9F4F69837A838B839C8310E000E077
:1027B00030E020E044E050E0BE016F5F7F4F82E0F8
:1027C0000E946813182F882351F00E949625609369
:1027D000DD087093DE088093DF089093E008812F76
:1027E0002496E4E00C94202DB0E0A0E0EAEFF3E1C1
:1027F0000C94FE2C7C015B016A010E94251301E010
:1028000010E0882311F00AE010E0C1E0D0E0B5014B
:10281000C701F6010995811104C021960C171D0707
:102820002CF4CDB7DEB7EAE00C941A2DCC9F9001C2
:10283000CD9F300D300D112490E080E045E34A95A6
:10284000F1F70000019682179307C1F7E0CFA5E0EA
:10285000B0E0EDE2F4E10C94FE2C5B01E09028087E
:10286000F090290801E010E09E012B5F3F4F50E0FF
:1028700040E070E060E080E00E946813182F882339
:1028800009F44BC067018FEFC81AD80A6091D908C4
:102890007091DA088091DB089091DC080E94B125E4
:1028A000643671058105910580F104E010E09E0118
:1028B0002F5F3F4F50E040E070E060E081E00E9419
:1028C0006813F82E64E070E0C6010E94E21611E081
:1028D0009D81981310E01F2159F10E949625609365
:1028E000D9087093DA088093DB089093DC0889811B
:1028F0009A81AB81BC818093D5089093D608A09330
:10290000D708B093D80811E013C064E070E0C601A6
:102910000E94E2169D818913C8CFF70181819281BF
:10292000A381B48189839A83AB83BC831111DFCFE8
:102930008091D5089091D608A091D708B091D80879
:10294000F50180839183A283B383812F2596EAE0EA
:102950000C941A2D0F931F93CF93DF93EC018B01EF
:1029600047E254E10E94F413882331F046EB53E12F
:10297000B801CE010E94F413DF91CF911F910F9106
:1029800008950F931F93CF93DF93C0912808D091A0
:102990002908CE01019624E0FB01DC0101900D9293
:1029A0002A95E1F764E070E00E94E21688836D8169
:1029B0007E818F8198850091D1081091D208209155
:1029C000D3083091D408601771078207930751F03C
:1029D0006093D1087093D2088093D3089093D40861
:1029E0000E94D510DF91CF911F910F9108950E9401
:1029F000A5270E94380E0E94B22708950E94B7278B
:102A00000E94540E0E94D12708950E9423250E94FF
:102A10008B270E941E0E0E94F7140E94FE140E9433
:102A20002C0EFBCF8091E50890E0880F991FFC01E8
:102A3000EC54FE4F20818C559E4FFC01808190917B
:102A4000E808191614F42093E8089091E80897FF15
:102A500004C0922F91959093E8089091E908191677
:102A600014F42093E9089091E90897FF03C0219599
:102A70002093E9089091EB08191614F48093EB0861
:102A80009091EB0897FF04C0982F91959093EB08D5
:102A90009091EA08191614F48093EA089091EA08D4
:102AA00097FF03C081958093EA083091E8083323AB
:102AB000A1F02091E908222381F045EB3403C00105
:102AC00011249923F1F09093E80845EB2403900139
:102AD00011243323D1F03093E9084091EB084423CB
:102AE00079F03091EA08332359F025EB4203A00135
:102AF00011245093EB083203900111243093EA081B
:102B0000089581E08093E808E0CF81E08093E908B0
:102B1000E4CF4091E508242F30E0220F331FF90164
:102B2000EC54FE4F90818D3E21F491959093E908ED
:102B300008958E3ED9F38F3E21F491959093E80845
:102B40000895803FD9F32C553E4FF9019081893F7C
:102B500019F49093EA0808958A3F11F49195F9CFFA
:102B60008B3F21F491959093EB0808958C3FD9F316
:102B70009FE0980F983070F4815F990B21E030E06E
:102B800001C0220F8A95EAF78091E708822B809393
:102B9000E70808958D3F49F481E08093E50880912E
:102BA000E50848130E94121508958E3F11F482E043
:102BB000F4CF8F3FC9F783E0F0CF8D3E39F4909189
:102BC000E90897FF09C01092E90808958E3E71F454
:102BD0009091E9081916BCF38D3F38F08091E50813
:102BE0001092E50881110E94121508958F3E39F464
:102BF0009091E80897FFF0CF1092E8080895803F81
:102C000029F49091E8081916BCF3E6CF893F39F40E
:102C10009091EA08191604F71092EA0808958A3F7D
:102C200029F49091EA0897FFD7CFF6CF8B3F39F47C
:102C30008091EB0887FFD9CF1092EB0808958C3F65
:102C400029F48091EB081816BCF308959FE0980FC3
:102C5000983008F0C1CF815F990B21E030E0A901E5
:102C600002C0440F551F8A95E2F7CA0180959091E2
:102C7000E70889238093E70808950E948A259C012C
:102C80009091E8088091E908982B21F03093E408AE
:102C90002093E3089091EA088091EB08982B21F0AB
:102CA0003093E2082093E10886EE98E00E944C24DD
:102CB000089586E0E6EEF8E0DF011D928A95E9F7D7
:102CC0000895FC01828181110EC0838181110BC0A6
:102CD0008481811108C091E08581811101C090E05B
:102CE000892F8170089581E0FCCFA6E0B0E0EBE78A
:102CF000F6E10C94062D86E0E6EEF8E0DE01119692
:102D000001900D928A95E1F71092E8081092E90877
:102D10001092EA081092EB088B819C81892BC1F0FC
:102D20008091E3089091E4080E94A225E091E508D3
:102D3000F0E0EE0FFF1FE455FE4F20813181281790
:102D4000390730F48B818093E8088C818093E908FF
:102D50008E819D81892BC1F08091E1089091E208DC
:102D60000E94A225E091E508F0E0EE0FFF1FE45677
:102D7000FE4F208131812817390730F48D818093EF
:102D8000EA088E818093EB08BE016F5F7F4F86EE6D
:102D900098E00E94DB24811105C086EE98E00E9435
:102DA000611681110E943D1686E0FE013196A6EE65
:102DB000B8E001900D928A95E1F72696E2E00C9436
:102DC000222D0895FC01680F791F8FEF91E36E1794
:102DD0007F0709F408952191822728E030E087FFDA
:102DE00006C0880F892721503109C9F7F0CF880F15
:102DF000FACFCF93DF93EC0197FF0CC0FB018281E8
:102E0000882341F00E943A17CE019F770E94CA178B
:102E10000E94991781E0DF91CF9108959091A609C2
:102E2000923071F48A3050F490E009966AE070E0D4
:102E30000E94DC2C875A0E94D30408958650FBCF51
:102E40000E94551A08958CE090E00E94572D90E062
:102E5000B0E0A0E08093A6099093A709A093A809E9
:102E6000B093A90908956091A6098CE090E00E94B2
:102E7000652D08950E943E24869581708093AB094C
:102E80000E943E2481708093A5098091A60981301B
:102E900039F48091AB09882319F089E30E94D304A7
:102EA0000E94320C8093AA090E94450C0E94580C83
:102EB0008091A609823021F158F48823C1F0813035
:102EC000D1F08FE39CE90197F1F700C0000008956D
:102ED000843051F18530A9F78BE191E00E94BE0268
:102EE00085E290E00E94BE0288E290E006C082EE99
:102EF0000E943D04E6CF88E193E00E94BE02E1CF4C
:102F00008091A509811103C083E50E94D30482EE5C
:102F10000E943D048FE39CE90197F1F700C0000097
:102F200087E50E94D304CDCF86EE0E94D30488E1CA
:102F3000F8CF8091A609823011F148F4882381F0FE
:102F4000813091F08091AA090E94420C089584304A
:102F5000F9F08530B9F788E290E00E94BE02F2CF26
:102F600082EE0E948904EECF8CE20E94D30480910D
:102F7000AB09882339F389E30E94D304E3CF82EEBF
:102F80000E9489048091A5098111DCCF83E5F4CFEB
:102F900088E2F2CF0F931F93CF93DF938C01CCE0A5
:102FA000D0E0C8010C2E02C0969587950A94E2F7EE
:102FB0008F700E940E172497CC3F8FEFD80789F7A8
:102FC000DF91CF911F910F9108950F931F93CF938E
:102FD000DF93EC018B01FB018281882381F00E9449
:102FE000320CC43EFCE5DF0729F190F4C23EECE56B
:102FF000DE07D9F081E0C33EFCE5DF0799F0B801B8
:10300000CE010E94F916DF91CF911F910F91089583
:10301000C63E8CE5D80791F078F085E0C13BFDE530
:10302000DF0769F78093A60902C01092A6090E94E3
:103030003317E5CF82E0F6CF83E0F4CF84E0F2CF20
:10304000CF93DF93EC01FB018281882309F464C1F3
:10305000C430FDE5DF07E0F5CB3F9CE5D90730F450
:103060009E0122503C4524313105D8F50E945B0D6C
:103070009093920980939109C231ECE5DE0709F43F
:103080001FC108F06EC0C9308CE5D80709F4F2C042
:1030900008F03FC0C530ECE5DE0709F4DBC058F5A9
:1030A000C3308CE5D80709F4CDC008F0CFC08091BB
:1030B00091098160C230DC4509F4AEC0809191096C
:1030C000909192090E94690D0E940E0580E009C04E
:1030D000C63AEDE5DE0751F238F4C2369DE5D90770
:1030E00029F2DF91CF9108959E012E5A3D4523305C
:1030F0003105B8F7BBCF809191098062C730FCE5FC
:10310000DF0709F489C008F4B1C080919109806497
:1031100083C0CD309CE5D90709F4BAC070F4809122
:1031200091098E7FCB30FCE5DF0709F475C008F408
:10313000A7C0809191098D7F6FC0CF309CE5D907E2
:1031400009F4B6C008F4A8C0C031FCE5DF0709F4F3
:10315000B3C0C131DC4509F0B1CF809191098F7BBB
:103160005BC0C1159DE5D90709F4B4C098F5CB3F04
:10317000FCE5DF0709F472C0B8F4C4319CE5D90757
:1031800009F4B6C008F4A2C0C531DC4509F096CFF9
:103190008091910982FB992790F921E0922790FB79
:1031A00082F990FB83F938C0CD3F8CE5D80709F44C
:1031B00077C008F457C0CE3FECE5DE0709F474C0D1
:1031C000809192098360CF3FDC4509F077CF8093EF
:1031D000920974CFC2368DE5D80709F496C068F419
:1031E000C230EDE5DE0709F48CC008F477C0C330C7
:1031F000DD4509F063CF80E085C0CE3A9DE5D90773
:10320000E9F068F490919109892F8E7F90FF816099
:10321000C63ADD4509F052CF809391094FCFCF3A9E
:103220008DE5D80789F1C03BDD4509F047CF909186
:103230009209892F877F93FF8860C9CF8091920977
:103240008860C5CF809191098260E6CF8091910915
:103250008460E2CF809191098860DECF80919209ED
:103260008160B5CF809192098260B1CF8091910940
:103270008061D2CF0E940E05809191098068CCCFE9
:10328000809191098C60C8CF80919209877F9FCFF0
:10329000809191098B7FC0CF80919109877FBCCFAE
:1032A000809192098E7F93CF809192098D7F8FCFED
:1032B000809191098F7EB0CF809191098F7DACCFA5
:1032C0000E940E05809191098F77A6CF8091910978
:1032D000837FA2CF809192098C7F79CF80919209D0
:1032E000982F909591708E7F892B90FB81F96FCFED
:1032F0000E940E0590919109892F97FB87F98058BC
:103300008BCF81E00E94FC0DD9CE90919109892F3D
:103310008F7E94FF806180CF81E0E3CEB0E0A0E0BB
:10332000E4E9F9E10C94012DE82FF0E0E051FE4FC3
:10333000D490282F26952695269530E0F901E05760
:10334000FD4F0491877010E0082E02C01595079577
:103350000A94E2F701701127F901E058FD4FE4905B
:10336000F12C082E02C0F594E7940A94E2F791E05C
:10337000E922FF24F901E059FD4FC491D0E002C0D9
:10338000D595C7958A95E2F7C170DD27011511051E
:1033900019F081EE0E943D04E114F10419F086EE6B
:1033A0000E943D048D2D0E94D304E114F10419F014
:1033B00086EE0E9489040115110519F081EE0E9424
:1033C0008904CD2B19F08CE20E94D304CDB7DEB76F
:1033D000E7E00C941D2DEF92FF920F931F93CF9374
:1033E000DF93EC01162F0AE08881882309F454C08A
:1033F000813009F04EC08981813099F47E0122E04C
:10340000E20EF11C8A810E94D304E7012196812FEC
:10341000815050F3EFE9FFE03197F1F700C0000071
:10342000F7CF823041F47E0182E0E80EF11C8A8100
:103430000E943D04EACF833041F47E01E2E0EE0ECB
:10344000F11C8A810E948904E0CF843011F021961A
:10345000DDCF2A81229690E080E0AE014F5F5F4F82
:103460002053330B2A30310548F0019778F2EFE909
:10347000FFE03197F1F700C00000F7CF089FB001DF
:10348000099F700D1124C901860F971F2981EA0138
:10349000E4CF0E948E19BACFCDB7DEB7E6E00C9428
:1034A0001E2D60E00E94EB190895982F9F709A508E
:1034B000963020F0805D0E948E190895895AFBCFC6
:1034C00008950F931F93CF93DF9380915709E09155
:1034D000EC081CE081111AC0DF91CF911F910F9170
:1034E000089501E00E0F0093EC08CE2FD0E0E19F8D
:1034F000F0011124E950F74F83819481892B29F041
:103500008081918189238F3FF9F4E02F80915709C1
:10351000E81738F3109257091092EC08DDCF18968F
:103520008D919C918F3F9807E1F061E00E94601AB5
:103530001C9FF0011D9FF00D1124E950F74F1482DC
:1035400013820E94580CE1CF1C9FD0011D9FB00D2B
:103550001124A950B74F16968D919C911797892BDE
:10356000F1F22081318142815381648175818681AC
:1035700097810E94700BDCCF109259091092580964
:103580002091BD013091BE01E2E0F1E090E080E0E9
:103590002817390709F408954581411102C01482A2
:1035A000168201963796F4CFDC016091F508809180
:1035B000F608962F891301C00895292F30E0F901EC
:1035C000EE0FFF1FE351F74F408151814A175B0710
:1035D000A1F487E08A9FA0018B9F500D11244E5FBC
:1035E0005E4F81E0FA0184839613E6CF2F5F3F4F51
:1035F000237033272093F50808952F5F3F4F922FB4
:103600009370D8CFB0E0A0E0E8E0FBE10C94FB2C95
:10361000EB012C81211152C070905709A7EFB8E03F
:1036200030E020E0812C61E070E0271508F044C014
:103630001A96CD90DC901B97A880B9804FEF5FEF72
:10364000912CE92CF12CF701EE0FFF1FEA0DFB1D69
:1036500005911491C016D10609F4A70101151105B1
:1036600011F09394EECF4F3F540789F1FB0102C054
:10367000EE0FFF1F4A95E2F78E2AAB01092C02C01C
:10368000440F551F0A94E2F741505109841615065C
:10369000D1F44A815B816CE0629FF001639FF00D81
:1036A0001124E950F74F578346832EEF208321835F
:1036B0009187808721E02D830E94D41ACDB7DEB791
:1036C000EDE00C94172D14961C921E9213972F5F09
:1036D0003F4F1C96AACF1F93CF93DF93C091F5085D
:1036E00017E08091F6088C1308C00E94611A0E94AE
:1036F000BC1ADF91CF911F910895D0E0FE01EE0F2B
:10370000FF1FE351F74F80819181189FB001199FEE
:10371000700D11246E5F7E4F0E94021B2196C370B4
:10372000E0CFEF92FF921F93CF93DF93FC012081B4
:10373000318110E040E050E0E52FF0E0EE0FFF1F98
:10374000E20FF31FA591B4911097B9F0FB01C0816E
:10375000D18140E005C0AE15BF0509F411E04F5F0F
:10376000E42FF0E0EE0FFF1FEC0FFD1FE590F4904B
:10377000E114F10481F75F5FDFCF112349F04517B2
:1037800008F4CB01DF91CF911F91FF90EF90089546
:1037900090E080E0F7CF8091BC01882341F18091D7
:1037A0005A0990915B09009711F10E94A22520917E
:1037B00058093091590928173907C8F49091F5082C
:1037C0008091F608981759F00E946B1B10925909C6
:1037D0001092580910925B0910925A0908950E949C
:1037E000611A10925B0910925A090E94BC1A08953E
:1037F00010925B0910925A091092BC018091F60850
:103800008093F5080E94BC1A0E94611A0895809165
:10381000BC01882319F00E94F81B089581E0809371
:10382000BC010895A9E0B0E0E8E1FCE10C94F62CBD
:103830006C013B01FB011281883FFCE59F0751F4BD
:10384000112379F081E08093BC01812F2996E2E178
:103850000C94122D893F2CE5920709F04DC01111EF
:1038600048C002E011E0F12CE12C198688248394F1
:10387000912C8091BD019091BE01E816F90608F4E3
:1038800045C0F3018281882309F460C1F985FF23D3
:1038900009F45CC10E948A2590935B0980935A09C0
:1038A00080915709883008F591E0980F9093570957
:1038B00098E0F301DE01119601900D929A95E1F7DF
:1038C0002CE0829FC00111248950974F28E0FE010F
:1038D0003196DC0101900D922A95E1F72FEF3FEF31
:1038E000FC0131872087D386C28611E0F9851F2726
:1038F000ACCF0E94F81BA9CF8A3F9C4509F0B1CFFD
:10390000112309F4AECF0E94071C9FCFF8016081FC
:103910007181AA24AA94BA2C20E0422F50E0FA0127
:10392000EE0FFF1FE60FF71F85919491C816D90679
:1039300009F45A01892B11F02F5FEFCF312CFFEFE3
:10394000AF16BF0609F445C0F80144813090BC01B0
:10395000832D411180E0F82FF1703F2EF801558042
:103960008681F3019281992309F48EC0332009F4F2
:103970008BC0511015C0A4010A2C01C0440F0A9439
:10398000EAF7842BF80186838091580990915909B0
:10399000C29730F462E370E070935909609358095C
:1039A000C40102C0880F991F2A95E2F70197F80118
:1039B00026812817190669F480915A0990915B09AC
:1039C000009781F00E94A225C39760F021E0F801E2
:1039D0002483F985F329F9872FEFE21AF20A095FA8
:1039E0001F4F47CF2090F50890E080E02091F60827
:1039F000221215C08017910761F3A22CB12CF5019A
:103A0000EE0FFF1FE351F74FF182E0826FEFA61A2E
:103A1000B60A73E0A722BB24A092F608DACFA22C44
:103A2000B12CF501EE0FFF1FE351F74F20813181DB
:103A300047E0429FC001439F900D1124BC016E5F7F
:103A40007E4F2B01B801C2010E94911B0097A9F083
:103A500021E0FC0124838017910709F4BACF20915B
:103A6000F50822120AC04816590639F495012F5F4D
:103A70003F4F237033272093F5083FEFA31AB30A73
:103A80004A2D4370242EB2CF90E0511020C0F40193
:103A900002C0EE0FFF1F2A95E2F79F012150310966
:103AA0002817390731F4442309F44EC0C7010E9496
:103AB000D41AC4010A2C01C0880F0A94EAF7982F7F
:103AC0009095F801868189238683352C82CF9C01CD
:103AD0000A2C02C0359527950A94E2F7A901417096
:103AE0005527BC016150710986239723892B41F525
:103AF000452B31F1F80182819381892BE1F01B8202
:103B00001C821D821E82FEEFF983FA830E948A25A1
:103B10008160582F9D838C83F801828193818F83EC
:103B2000988729813A814B816D817E810E94700B3B
:103B3000F8011582BECF60E0C7010E94601AF8CF7D
:103B4000F22FF1705F2EB5CF532CB3CF9091F508C3
:103B50008091F608981719F00E946B1BC6CE0E9440
:103B6000611A10925B0910925A090E94BC1ABDCECC
:103B7000CF93DF93EB0186319C4511F50E94320C07
:103B80009A81992399F08A7A91E009F490E09093D0
:103B90005C09811109C089E20E94070C0E94850C12
:103BA00080E0DF91CF91089585E3F6CF80915C09A5
:103BB000811104C089E20E940F0CF0CF85E3FBCF96
:103BC00081E0EFCFFC018581862351F49281992316
:103BD000B9F06923818583FF05C081E061110FC0C1
:103BE00080E00895892F8F7092959F70982B862F73
:103BF0008F7062956F70682B81E09613F1CF0895F6
:103C000081E0FDCFCF93DF93EC0160916709709164
:103C100068098091690990916A090E94B125643F01
:103C200071408105910518F58091670990916809A7
:103C3000A0916909B0916A0980936309909364091E
:103C4000A0936509B093660984EF91E0A0E0B0E02D
:103C500080935F0990936009A0936109B093620912
:103C6000D0935E09C0935D09DF91CF9108950E94C2
:103C70009625609363097093640980936509909316
:103C8000660982E390E0A0E0B0E0E2CFFF920F93FC
:103C90001F93CF93DF93F82E00916E0910916F0957
:103CA0000115110509F44DC010925E0910925D09CD
:103CB0000E94640C0E945E0C00916E0910916F09C5
:103CC000D8011796CD91DC919E013A9521153F417F
:103CD00008F4D07ED1E0C11101C0D0E0D8011A961D
:103CE000ED91FC911B97309731F01C966D917C9172
:103CF00080E00995D823DD2339F08CEF8C0F813AD1
:103D000030F58C2F0E940F0CFF2099F0E0916E0986
:103D1000F0916F09818584FD0CC080916D09882325
:103D200041F0808191819C0121503109213B3D4529
:103D3000A0F00E94850C10926F0910926E091092EB
:103D40006D09C801CDB7DEB7E5E00C941F2D0E94C8
:103D5000850C8C2F0E948904D7CF0E94021EE9CFC8
:103D60001092BF0180E00E94461E08958091BF011D
:103D7000882319F00E94B01E089581E08093BF014E
:103D800008950F931F9380915D0990915E09892B8F
:103D900089F160916309709164098091650990913E
:103DA00066090E94B12500915F0910916009209178
:103DB0006109309162096017710782079307D0F09B
:103DC00080915D0990915E090E94780210925E09CF
:103DD00010925D09109263091092640910926509AE
:103DE0001092660910925F091092600910926109A1
:103DF000109262091F910F910895A4E0B0E0E3E0F2
:103E0000FFE10C94F62C8C017A836983DB01129616
:103E10005C905520B1F08036BDE59B0759F08136A6
:103E2000EDE59E0759F08F359D4559F40E94B61E69
:103E3000312C0DC081E08093BF01FACF0E94B01EEB
:103E4000F7CF3090BF01311007C033243394832D56
:103E50002496E2E10C94122D680120EEC21AD108DA
:103E60000E94320CF82E0E941E0C482E0E94670CF5
:103E7000482A4F2838E0C316D10408F094C09801AE
:103E80002770332781E090E001C0880F2A95EAF778
:103E9000552009F485C0482AA981BA818D919C9149
:103EA0000E94BE0880903D0190903E0181149104D3
:103EB00009F4E1C021E030E0F90102C0EE0FFF1F7C
:103EC0008A95E2F7FA83E98360906E0970906F0932
:103ED000A0906B09B0906C09212CE22DF0E0EE0F60
:103EE000FF1FE80DF91D208131813C832B832115B3
:103EF000310509F4C0C0411005C0D90112968C915A
:103F000081118BC0EB81FC818381948129813A816D
:103F100082239323892B09F480C08185982F977081
:103F200009F487E038E0C316D10408F056C05520E4
:103F300009F44FC086958170882309F46EC0AB8167
:103F4000BC81ED90FC900E151F0519F4552009F465
:103F500064C0EB81FC81E615F70509F45EC00684B8
:103F6000F785E02D309721F08081882309F455C032
:103F7000642D8B819C810E94E21D882309F44DC031
:103F80000E151F0509F08BC00115110509F48CC031
:103F900051108CC0EA14FB0409F03FC0512C86C0BC
:103FA0008095482279CF552009F44EC010936C09B2
:103FB00000936B090E9496256093670970936809C6
:103FC0008093690990936A0910925E0910925D09C5
:103FD00063CF82FB882780F9AFCF5520F1F0817045
:103FE000ABCF0E94890483C00497813A910548F4BD
:103FF000802F0E94070C552009F427CF0E94850CC2
:1040000017CF0E94850C8FE39CE90197F1F700C060
:104010000000802F0E943D04EECF23945ECFFC0170
:10402000208131812017310731F4511007C01092DF
:104030006D0980E031C0552009F407CFDC011996E5
:104040008C9185FD02CFF5CF80916B0990916C0921
:104050008017910781F410926C0910926B091092ED
:104060006709109268091092690910926A09109202
:104070005E0910925D0980916E0990916F09009719
:1040800009F4E3CEA8E0CA16D10448F6642D0E94D4
:10409000E21D8111DACE81E00E94461ED8CEE114E5
:1040A000F10409F077CF512CF12CE12C80E00E9433
:1040B000461EEB81FC81F0936F09E0936E0981E06D
:1040C00080936D0986810E94610C511010C0E1142B
:1040D000F10469F0AB81BC818D919C919C012450CD
:1040E0003109213A310508F07CCF0E940F0CEB8199
:1040F000FC8107811085C8019A9581159F4108F4BC
:10410000107EFF24F394C8010197813B9D4508F080
:10411000F12CAB81BC811A96ED91FC911B973097E5
:1041200031F01C966D917C9181E00995F822FF2079
:1041300081F0EB81FC81878190850E943D020E9485
:104140005B0CC801F8E0CF16D10408F04DCF0E94F7
:10415000021E0E94850C4FCF0F931F93CF93DF93C6
:10416000C42FD22FFC0182818823C9F040937209A9
:104170000E948A25909371098093700980E28C0FC8
:10418000883040F4C77081E001C0880FCA95EAF713
:104190000E94DC04DF91CF911F910F91089510913F
:1041A0007209141332C080917009909171090E94B4
:1041B000A2258C3D910548F5C0E2CD0F1D17B9F041
:1041C00080E2810F883040F4177081E001C0880FD1
:1041D0001A95EAF70E94E304C83048F481E09D2F65
:1041E000977001C0880F9A95EAF70E94DC04802F2F
:1041F0000E94D304C83070F6D77081E001C0880FE8
:10420000DA95EAF70E94E304C5CF80E28C0F88308C
:1042100008F6C77081E001C0880FCA95EAF7F2CFAF
:104220000F939C01CB01243F4CE5340759F1A8F4CE
:10423000293DFCE53F0701F12A3D4CE53407D1F16A
:10424000283D3C4591F406E221EE41EE68ED7CE527
:104250000E94AC2080E00F910895263FFCE53F07C7
:10426000E9F0B0F0273F3C45F9F0FC01828188235A
:1042700039F110927209EFCF07E225EE45EE69EDB4
:104280007CE5E6CF06E221EE40EE64EF7CE5E0CF90
:1042900007E225EE44EE65EF7CE5DACF06E221EE9B
:1042A00042EE66EF7CE5D4CF07E225EE46EE67EFFF
:1042B0007CE5CECF08E221E045EE6AED7CE5C8CF93
:1042C00081E0C9CFCF93DF93EC01EA85FB8530977E
:1042D00019F06C857D8509958B810E94510C8C812C
:1042E0000E943B0C0E94850C86E0FE0111928A958B
:1042F000E9F7DF91CF910895CF93DF93EC018D81A2
:1043000081FD12C082608D838B810E944B0C8C8159
:104310000E94350C0E94850CE885F985309721F0C4
:104320006C857D85CE0109951092760910927509EC
:104330008D8180FD03C0CE010E946221DF91CF916B
:104340000895CF93DF93EC018A81823041F4FB0121
:10435000828193810E9478028D8182608D83DF91BA
:10436000CF910895FB01808191810E947802089588
:10437000FC018281813031F4FB01808191810E94B6
:104380008E0208958230E9F7FB0182819381F7CF95
:10439000FB0122812223E1F0E0917509F091760979
:1043A0003097B1F0E817F90799F02EE0E29FF0019D
:1043B0001124DF01A25FBE4F2C9124602C93E75F94
:1043C000FE4F91838083CF010E947C210E94580C74
:1043D0000895EF92FF920F931F93CF93DF938C0179
:1043E00097558F3F910511F008F041C07801FF24E7
:1043F0008EE0089FF0011124EF01C75FDE4FDB0163
:1044000012962C91E25FFE4F808120FB80F9808321
:10441000222399F10E948A2590937409809373094D
:104420008A818F5F8A830E94320C8B830E94480CA2
:104430009B81892B8B830E94670C8C83EE81FF818B
:10444000309721F06C857D85CE0109958EE08E9D9B
:10445000F0018F9DF00D1124E75FFE4F858181FFF4
:1044600002C010E000E0109376090093750981E026
:10447000CDB7DEB7E6E00C941E2D8D8181FFF7CF1E
:10448000CE010E946221F3CF809175099091760947
:10449000892BC9F080917309909174090E94A2251B
:1044A0008D3D910580F0809175092EE0829FC001BD
:1044B0001124FC01E25FFE4F208122FD04C0875FD2
:1044C0009E4F0E947C2108958EE14A9B02C081503C
:1044D000E1F74A9BFECF08955A9880E28A95F1F75A
:1044E0005A9A0895FC013BE03A95F1F798E020E0F4
:1044F00080E031E040E14A95F1F7880F4A9B02C025
:104500008160232742E04A95F1F7000040E14A9597
:10451000F1F7915079F790E19A95F1F799B132E07E
:104520003A95F1F7000040E14A95F1F792FB99279F
:1045300090F992272081920F90830895A1E0B0E036
:10454000E4EAF2E20C94022D19828C017C01E60E61
:10455000F11C0E151F0541F481E09981911180E055
:104560002196E6E00C941E2D0E946422CE01019655
:104570000E947222F80181938F01EBCF529A5A9ACE
:10458000089552985A9AEA9AE9E6F0E080818F7C81
:10459000808308956150770B91E001C0990F6A956F
:1045A000EAF720E031E0911108C0222391F05A9AF5
:1045B00080E28A95F1F75A980895492F482339F0F7
:1045C0005A9A232740E24A95F1F79695ECCF5A98EC
:1045D000F9CF5A98EDCFFF920F931F93CF93DF93AC
:1045E000EC018C01060F111DC017D10729F4CDB7BE
:1045F000DEB7E5E00C941F2DF9900E946C2268E074
:104600008F2D0E94CA22F0CF1F920F920FB60F92E9
:1046100011240F931F932F933F934F935F936F93A7
:104620007F938F939F93AF93BF93EF93FF93CF931A
:10463000DF930F92CDB7DEB719820E946422CE01BC
:1046400001960E947222082F069506950695282F3E
:1046500022952570902F9570290F922F9370269593
:104660002695920F982797708981982B09F05CC046
:10467000043008F059C080E18A95F1F75A9A529AAD
:1046800082E08A95F1F700C05A9888E0089F80017F
:104690001124D801AC57BE4F1696ED91FC91179797
:1046A0003097A9F0609128087091290814962D91EF
:1046B0003C911597260F371F11968D919C9112975B
:1046C000680F791F13964C9113978C910995F801F7
:1046D000EC57FE4F6381662351F0209128083091FA
:1046E000290884819581820F931F0E94EB220E94EA
:1046F0006C2280E18A95F1F75A9852985A9A80E193
:104700008A95F1F7F801EC57FE4F6081662351F06E
:10471000209128083091290881819281820F931F6E
:104720000E949E220E9464220F90DF91CF91FF9100
:10473000EF91BF91AF919F918F917F916F915F9119
:104740004F913F912F911F910F910F900FBE0F909E
:104750001F9018950F931F93CF93DF93EC0104974D
:104760000CF04CC0F894529A5A9885E08A95F1F76B
:1047700000009C2F969595708C2F8570980F892F2F
:1047800083709695969523E0CC0FDD1F2A95E1F76F
:10479000980F8E01092B0E946C2200C068E0802FC8
:1047A0000E94CA2280E18A95F1F752985A9A4A9B50
:1047B0001EC087E090E04A991CC0FE01EC57FE4FF6
:1047C00063816623F9F020912808309129088481BB
:1047D0009581820F931F0E949E22811113C0529ACD
:1047E0005A9A7894DF91CF911F910F91089500C04C
:1047F000DECF019729F4529A5A9A789480E0F2CF4A
:1048000000C0D9CF0E94642280E28A95F1F75A98BD
:10481000529A80E18A95F1F7CC57DE4F6881662382
:1048200051F0209128083091290889819A81820FBE
:10483000931F0E94EB220E946C22789481E0D2CFD9
:1048400090932B0880932A08089590937D09809374
:104850007C0908950E94F612811103C080917709A6
:104860000895E0917C09F0917D09309729F001903D
:10487000F081E02D0995089580E008950E942A2492
:104880000895E0917C09F0917D09309721F0028034
:10489000F381E02D09950895E0917C09F0917D095F
:1048A000309739F022E0DC012C930480F581E02D73
:1048B0000995089520917A0930917B0928173907C5
:1048C00071F090937B0980937A09E0917C09F091D3
:1048D0007D09309721F00680F781E02D0995089534
:1048E00020917809309179092817390771F0909350
:1048F000790980937809E0917C09F0917D093097DE
:1049000021F00084F185E02D099508959C012E5F2A
:104910003F4FAC01485F5F4F80E02417350709F433
:104920000895F90191919F019923B9F38F5FF5CF14
:10493000662349F0FC01329608962191261729F04A
:10494000E817F907D1F780E0089581E008959C0108
:10495000FC0132969FEF80E04191461751F09F3F56
:1049600019F4411101C0982F8F5F8630A9F79F3F3E
:1049700009F40895290F311D97FD3A95F9016283D5
:104980000895FC01329608962191261303C0DF0199
:1049900011971C92E817F907B9F708950E94A72408
:1049A00008950E94C1240895029626E0FC01119208
:1049B0002A95E9F7089546E050E00E94412D21E054
:1049C000892B09F420E0822F089508950E94E524A0
:1049D0000895811106C081E080937E090E94E6243B
:1049E000089582E0F9CF83E080937E090E94E62457
:1049F00008950E94E924089581E080937E090E9431
:104A0000E62408950E94FC240895089508950E94C4
:104A100006250895089508950E9405250895CF93C9
:104A20000E940A250E9477120E940B25C0E08C2F5D
:104A30000E945B11811105C0CF5FC830C1F7CF91D3
:104A4000089581E0FCCF85B7806885BF85B7806811
:104A500085BF08951F921FB61F9211248F939F93B5
:104A6000AF93BF9380917F09811113C08091AC09EE
:104A70009091AD09A091AE09B091AF094196A11DE9
:104A8000B11D8093AC099093AD09A093AE09B0938A
:104A9000AF09BF91AF919F918F911F901FBE1F9043
:104AA00018958091B409843031F10E94AC031092C2
:104AB0007F0988E190E020E40FB6F894A8958093F0
:104AC00060000FBE2093600083B7817F846083BF46
:104AD00083B7816083BF7894889583B78E7F83BFC7
:104AE0000FB6F894A895809160008861809360006B
:104AF000109260000FBE08950E940E050E94B1033F
:104B0000089582E084BD93E095BD9AEF97BD8093B0
:104B10006E0008952FB7F8948091AC099091AD097B
:104B2000A091AE09B091AF092FBF08952FB7F894A7
:104B30006091AC097091AD098091AE099091AF0977
:104B40002FBF08959C014FB7F8948091AC099091C4
:104B5000AD09A091AE09B091AF094FBF821B930B75
:104B60000895CF92DF92EF92FF922FB7F894C09002
:104B7000AC09D090AD09E090AE09F090AF092FBF1D
:104B8000A7019601261B370B480B590BCA01B90127
:104B9000FF90EF90DF90CF90089578941F921FB60A
:104BA0001F9211248F939F93AF93BF938091AC0971
:104BB0009091AD09A091AE09B091AF090196A11DE8
:104BC000B11D8093AC099093AD09A093AE09B09349
:104BD000AF09BF91AF919F918F911F901FBE1F9002
:104BE000189587E797E7909301088093000888E17C
:104BF0009AE00FB6F894A895809360000FBE90934A
:104C00006000FFCF88E19AE00FB6F894A8958093F2
:104C100060000FBE90936000FFCF80918B090895D4
:104C200008959C0182E08093E9009FEF8091E80065
:104C3000915085FD06C085ED8A95F1F70000911130
:104C4000F5CF8091E80085FF0CC050E040E066E0C1
:104C500070E0C9010E9443288091E8008E7780931C
:104C6000E8000895CF93DF93EC0181E08093E900A1
:104C70008FEF9091E800815095FD06C095ED9A95D3
:104C8000F1F700008111F5CF8091E80085FF14C095
:104C900050E040E068E070E0CE010E94432880913F
:104CA000E8008E778093E80088E0FE01A3E8B9E091
:104CB00001900D928A95E1F7DF91CF91089580934D
:104CC000800970938209609381098091B4098430CE
:104CD00001F582E08093E9008FEF9091E800815028
:104CE00095FD06C095ED9A95F1F700008111F5CF7D
:104CF0008091E80085FF0DC050E040E063E070E087
:104D000080E899E00E9443288091E8008E778093A4
:104D1000E8000895BC0184E00E945F260895BC016C
:104D200083E00E945F2608958091B309811109C034
:104D30000E94D3290E94302A8091E20084608093EF
:104D4000E20008951092B30908950E94FC2408958A
:104D50006091B00981E0611101C080E00E94F324FC
:104D600008959091B40981E0943009F080E0609159
:104D7000B0090E94F924089542E061EC81E00E94AC
:104D80004F2942E261EC82E00E944F299091B409E0
:104D900081E0943009F080E06091B0090E94E9243C
:104DA00008958091B609833009F461C030F48130F0
:104DB000D1F1823009F49EC008958A3009F48AC086
:104DC0008B3009F46FC0893009F050C08091B5096B
:104DD000813209F04BC08091B9099091BA090297CC
:104DE00008F044C08091E800877F8093E8008091BC
:104DF000E80082FF37C09091F3008091F2000297A3
:104E000031F48091F100813011F0863021F48091ED
:104E1000F10080938B098091E8008B778093E80004
:104E20000E94832923C08091B509813AF9F48091C9
:104E3000E800877F8093E8008091B9099091BA09D2
:104E4000892B61F468E083E899E070E00E94922881
:104E50008091E8008B778093E800089560E090E00F
:104E600080E0F3CF8091B4098111C1CF0895809182
:104E7000B509813AD9F78091B9099091BA09892B7E
:104E8000A9F78091E800877F8093E8008091E8008F
:104E900080FFFCCF8091CC018093F1008091E800ED
:104EA0008E77BCCF8091B509813201F78091B90925
:104EB0009091BA09892BD1F68091E800877F809381
:104EC000E8000E9483298091B7098093CC010E9459
:104ED0000E0508958091B509813241F68091E80070
:104EE000877F8093E8000E9483298091B80980938E
:104EF0008C0908958091B509813A09F0B7CF809166
:104F0000E800877F8093E8008091E80080FFFCCF75
:104F100080918C09C1CF84B7877F84BF0FB6F89486
:104F2000A895809160008861809360001092600075
:104F30000FBE80E890E00FB6F894809361009093E4
:104F400061000FBE0E94022508950E94D3290E948D
:104F5000302AE2EEF0E080818460808378940E94C1
:104F6000AF2C089580EC91E00E9425240895809153
:104F7000B409853031F48091B409853019F00E946C
:104F80007C2508950E9451258091B209882399F3C8
:104F90000E940F25882379F30E942D280E940E0578
:104FA000EACF08950E94D5270895292F332723306B
:104FB000310519F168F42130310509F444C022307B
:104FC000310509F445C090E080E030E020E025C0E4
:104FD0002132310549F122323105A9F780E490E010
:104FE00022E933E061157105C1F08BE790E027E11C
:104FF00033E06130710589F0E6CF99278130910562
:1050000081F0009729F00297F1F6E0EAF2E002C0A1
:10501000E6ECF2E0849190E09F01FA013183208375
:105020000895ECEBF2E0F6CF89E090E02CED32E071
:105030006115710591F389E090E025EF32E0613070
:10504000710559F3C0CF82E190E025E033E0E5CF70
:105050008BE390E02AEC32E0E0CF80E189BD82E191
:1050600089BD09B400FEFDCF8091D8008F7D80936B
:10507000D8008091E00082608093E0008091E000A1
:1050800081FDFCCF0895AF92BF92CF92DF92FF9245
:105090000F931F93CF93DF936C01EB018A010E9462
:1050A000A229F82E811123C00115110539F0F8014C
:1050B00080819181C81BD90BC80ED91EB12CA12C9F
:1050C0002097A9F08091E80085FD22C08091E8003A
:1050D0008E778093E80001151105A1F0F801808119
:1050E0009181A80EB91EB182A08285E0F82E8F2D85
:1050F000DF91CF911F910F91FF90DF90CF90BF90E4
:10510000AF9008950E94A2298823D1F2F82EEFCF04
:10511000F60181916F018093F1002197FFEFAF1AA3
:10512000BF0ACECFFC018091BB099091BC098617C4
:105130009707A0F06115710529F49091E8009E771A
:105140009093E80090E06115710551F4911108C049
:105150008091E80082FF34C080E00895BC01F2CF66
:105160008091B4098823C1F18530C1F18091E800B4
:1051700083FD30C08091E80082FDEACF8091E80095
:1051800080FFE1CF8091F3002091F200382F61156C
:10519000710519F02830310558F091E028303105BB
:1051A00009F090E02091E8002E772093E800CBCF23
:1051B00081918093F100615071092F5F3F4FE7CFDC
:1051C0008091B409882341F0853041F08091E80056
:1051D00083FFBECF81E0089582E0089583E00895C3
:1051E000FC018091BB099091BC0986179707A0F03C
:1051F0006115710529F48091E8008E778093E800AD
:1052000090E06115710551F4911108C08091E8009A
:1052100082FF35C080E00895BC01F2CF8091B409CF
:105220008823C9F18530C9F18091E80083FD31C040
:105230008091E80082FDEACF8091E80080FFE1CF15
:105240008091F3002091F200382F6115710519F05B
:105250002830310558F091E02830310509F090E010
:105260008091E8008E778093E800CBCF8491809383
:10527000F1003196615071092F5F3F4FE6CF809169
:10528000B409882341F0853041F08091E80083FF24
:10529000BDCF81E0089582E0089583E00895982FBE
:1052A000973028F08F708093E90081E00895909303
:1052B000E900242F762F50E0981731F07091EC0020
:1052C0002091ED005091F00021FD02C09F5FE8CFDA
:1052D0003091EB003E7F3093EB003091ED003D7F4D
:1052E0003093ED003091EB0031603093EB00709320
:1052F000EC002093ED005093F0002091EE0027FD8C
:10530000E5CF80E008958091B50987FF13C08091B3
:10531000E80082FF06C08091E8008B778093E80068
:1053200004C08091B4098111F2CF08958091B4092D
:105330008823D9F38091E80080FFF8CF8091E800BE
:105340008E77ECCF2091E4003091E50095E6A9013D
:105350002091EC00822F817020FF06C08091E80030
:1053600080FF06C080E008952091E80022FD1AC069
:105370008091B409882389F0853089F08091EB0011
:1053800085FD0FC02091E4003091E50042175307DE
:10539000F9F29150E1F684E0089582E0089583E007
:1053A000089581E008950E94422A0E944A2AE0EE70
:1053B000F0E0808181608083E8EDF0E080818F778C
:1053C000808319BCA7EDB0E08C918E7F8C93808197
:1053D0008F7E80831092B30908950F931F93CF930C
:1053E000DF930E94422A0E944A2AC8EDD0E08881B9
:1053F0008F77888388818068888388818F7D888380
:1054000019BC1092B4091092B0091092B20910920E
:10541000B10900EE10E0F80180818B7F80838881E4
:105420008160888342E060E080E00E944F29E1EEE5
:10543000F0E080818E7F8083E2EEF0E08081816009
:105440008083808188608083F80180818E7F808363
:10545000888180618883DF91CF911F910F9108959A
:10546000E8EDF0E080818F7E8083E7EDF0E08081E1
:105470008160808384E082BF81E08093B3090E94D1
:10548000ED290895E8EDF0E080818E7F8083109211
:10549000E20008951092DA001092E10008951F9240
:1054A0000F920FB60F9211242F933F934F935F9358
:1054B0006F937F938F939F93AF93BF93EF93FF93DC
:1054C0008091E10082FF0BC08091E20082FF07C063
:1054D0008091E1008B7F8093E1000E94AE2C80914F
:1054E000DA0080FF19C08091D80080FF15C080913C
:1054F000DA008E7F8093DA008091D90080FF96C019
:1055000080E189BD82E189BD09B400FEFDCF81E063
:105510008093B4090E9494268091E10080FF19C015
:105520008091E20080FF15C08091E2008E7F809321
:10553000E2008091E20080618093E2008091D800D7
:1055400080628093D80019BC85E08093B4090E94E2
:10555000A8268091E10084FF2BC08091E20084FFA7
:1055600027C080E189BD82E189BD89B5982F9170FE
:1055700080FFFBCF8091D8008F7D8093D8008091F1
:10558000E1008F7E8093E1008091E2008F7E809326
:10559000E2008091E20081608093E2008091B00996
:1055A000882309F449C084E08093B4090E94B1269D
:1055B0008091E10083FF29C08091E20083FF25C034
:1055C0008091E100877F8093E10082E08093B409BD
:1055D0001092B0098091E1008E7F8093E10080916C
:1055E000E2008E7F8093E2008091E20080618093F0
:1055F000E20042E060E080E00E944F298091F000EC
:1056000088608093F0000E94A526FF91EF91BF91E2
:10561000AF919F918F917F916F915F914F913F914A
:105620002F910F900FBE0F901F90189519BC1092DC
:10563000B4090E94A22670CF8091E30087FD93E019
:105640009093B409B3CF1F920F920FB60F9211240B
:105650002F933F934F935F936F937F938F939F937A
:10566000AF93BF93CF93DF93EF93FF93D091E90074
:10567000DF708091EC00C82FC17080FDC0E81092EF
:10568000E9008091F000877F8093F00078940E9479
:10569000672B1092E9008091F00088608093F00001
:1056A000CD2BCF70C093E900FF91EF91DF91CF91A7
:1056B000BF91AF919F918F917F916F915F914F912A
:1056C0003F912F910F900FBE0F901F901895AAE257
:1056D000B0E0EDE6FBE20C94052D85EB99E020911E
:1056E000F100FC012193CF01F9E08D3B9F07B9F751
:1056F0000E94D1268091E80083FF1EC18091B509E8
:105700009091B6099A3008F017C1E92FF0E0E955F9
:10571000F24D0C94F02C803899F0823809F00CC1CD
:105720008091B9098F70873008F006C18093E90035
:105730008091EB0085FB882780F91092E90006C074
:105740008091B1099091B209911182609091E80025
:10575000977F9093E8008093F1001092F100809180
:10576000E8008E77E5C0882309F4D3C0823009F0C1
:10577000E3C08091B7098111D6C08091B9098F70BB
:105780002FEF280F263008F0D7C08093E900209132
:10579000EB0020FFC8C0933031F48091EB008062B1
:1057A0008093EB00C0C09091EB0090619093EB0070
:1057B00021E030E001C0220F8A95EAF72093EA0049
:1057C0001092EA008091EB008860EACF8111B4C0AA
:1057D0001091B7091F778091E3008078812B809327
:1057E000E3008091E800877F8093E8000E9483298E
:1057F0008091E80080FFFCCF8091E3008068809377
:10580000E30082E0111183E08093B40995C08058D1
:10581000823008F091C08091B7099091B8098C3D11
:1058200023E09207A1F583E08A838AE289834FB758
:10583000F894DE01139620E03EE051E2E32FF0E021
:1058400050935700E49120FF03C0E295EF703F5F53
:10585000EF708E2F90E0EA30C0F0C7968D939D9345
:105860002F5F243159F74FBF8091E800877F8093E5
:10587000E8006AE270E0CE0101960E9492288091D1
:10588000E8008B778093E80057C0C096E7CF60911F
:10589000B9097091BA09AE014F5F5F4F0E94D227DC
:1058A000BC01892B09F448C09091E800977F909340
:1058B000E80089819A810E94F028E1CF8038E1F5E3
:1058C0008091E800877F8093E8008091B009809301
:1058D000F10045CF811130C09091B709923060F549
:1058E0008091E800877F8093E8009093B0090E9440
:1058F00083298091B009882311F084E005C080914C
:10590000E30087FDFACF81E08093B4090E94BC26B2
:1059100013C08091B709813079F481E0933009F0A8
:1059200080E08093B2091092E9008091E800877FBF
:105930008093E8000E9483298091E80083FF0AC0D9
:105940008091E800877F8093E8008091EB0080627F
:105950008093EB00AA96E3E00C94212D0895CF9359
:105960008091B4098823A1F0C091E900CF70909193
:10597000EC00892F817090FD80E8C82B1092E9001F
:105980008091E80083FD0E94672BCF70C093E900EF
:10599000CF9108950E94D3291092B4090895E8ED9B
:1059A000F0E08081806180838AE18A95F1F700C010
:1059B0008091D9008170089597FB072E16F400940A
:1059C00007D077FD09D00E942D2D07FC05D03EF4AD
:1059D000909581959F4F0895709561957F4F08959B
:1059E000EE0FFF1F0590F491E02D09942F923F9246
:1059F0004F925F926F927F928F929F92AF92BF92DF
:105A0000CF92DF92EF92FF920F931F93CF93DF938A
:105A1000CDB7DEB7CA1BDB0B0FB6F894DEBF0FBEE7
:105A2000CDBF09942A88398848885F846E847D8434
:105A30008C849B84AA84B984C884DF80EE80FD8036
:105A40000C811B81AA81B981CE0FD11D0FB6F894AC
:105A5000DEBF0FBECDBFED010895AA1BBB1B51E1F8
:105A600007C0AA1FBB1FA617B70710F0A61BB70BCE
:105A7000881F991F5A95A9F780959095BC01CD0173
:105A80000895FB01DC0104C08D910190801921F47F
:105A900041505040C8F7881B990B0895FB01DC0169
:105AA00002C001900D9241505040D8F70895F999E5
:105AB000FECF92BD81BDF89A992780B50895A8E1DF
:105AC000B0E042E050E00C948B2D262FF999FECFE8
:105AD00092BD81BDF89A019700B4021639F01FBA41
